{
  "_format": "hh-sol-artifact-1",
  "contractName": "Debase",
  "sourceName": "contracts/Randomized-Threshold-Counter/Mock/Debase.sol",
  "abi": [
    {
      "inputs": [],
      "stateMutability": "nonpayable",
      "type": "constructor"
    },
    {
      "anonymous": false,
      "inputs": [
        {
          "indexed": true,
          "internalType": "address",
          "name": "owner",
          "type": "address"
        },
        {
          "indexed": true,
          "internalType": "address",
          "name": "spender",
          "type": "address"
        },
        {
          "indexed": false,
          "internalType": "uint256",
          "name": "value",
          "type": "uint256"
        }
      ],
      "name": "Approval",
      "type": "event"
    },
    {
      "anonymous": false,
      "inputs": [
        {
          "indexed": true,
          "internalType": "uint256",
          "name": "epoch_",
          "type": "uint256"
        },
        {
          "indexed": false,
          "internalType": "uint256",
          "name": "totalSupply_",
          "type": "uint256"
        }
      ],
      "name": "LogRebase",
      "type": "event"
    },
    {
      "anonymous": false,
      "inputs": [
        {
          "indexed": true,
          "internalType": "address",
          "name": "from",
          "type": "address"
        },
        {
          "indexed": true,
          "internalType": "address",
          "name": "to",
          "type": "address"
        },
        {
          "indexed": false,
          "internalType": "uint256",
          "name": "value",
          "type": "uint256"
        }
      ],
      "name": "Transfer",
      "type": "event"
    },
    {
      "inputs": [
        {
          "internalType": "address",
          "name": "owner_",
          "type": "address"
        },
        {
          "internalType": "address",
          "name": "spender",
          "type": "address"
        }
      ],
      "name": "allowance",
      "outputs": [
        {
          "internalType": "uint256",
          "name": "",
          "type": "uint256"
        }
      ],
      "stateMutability": "view",
      "type": "function"
    },
    {
      "inputs": [
        {
          "internalType": "address",
          "name": "spender",
          "type": "address"
        },
        {
          "internalType": "uint256",
          "name": "value",
          "type": "uint256"
        }
      ],
      "name": "approve",
      "outputs": [
        {
          "internalType": "bool",
          "name": "",
          "type": "bool"
        }
      ],
      "stateMutability": "nonpayable",
      "type": "function"
    },
    {
      "inputs": [
        {
          "internalType": "address",
          "name": "who",
          "type": "address"
        }
      ],
      "name": "balanceOf",
      "outputs": [
        {
          "internalType": "uint256",
          "name": "",
          "type": "uint256"
        }
      ],
      "stateMutability": "view",
      "type": "function"
    },
    {
      "inputs": [],
      "name": "debasePolicy",
      "outputs": [
        {
          "internalType": "address",
          "name": "",
          "type": "address"
        }
      ],
      "stateMutability": "view",
      "type": "function"
    },
    {
      "inputs": [],
      "name": "decimals",
      "outputs": [
        {
          "internalType": "uint8",
          "name": "",
          "type": "uint8"
        }
      ],
      "stateMutability": "view",
      "type": "function"
    },
    {
      "inputs": [
        {
          "internalType": "address",
          "name": "spender",
          "type": "address"
        },
        {
          "internalType": "uint256",
          "name": "subtractedValue",
          "type": "uint256"
        }
      ],
      "name": "decreaseAllowance",
      "outputs": [
        {
          "internalType": "bool",
          "name": "",
          "type": "bool"
        }
      ],
      "stateMutability": "nonpayable",
      "type": "function"
    },
    {
      "inputs": [
        {
          "internalType": "address",
          "name": "spender",
          "type": "address"
        },
        {
          "internalType": "uint256",
          "name": "addedValue",
          "type": "uint256"
        }
      ],
      "name": "increaseAllowance",
      "outputs": [
        {
          "internalType": "bool",
          "name": "",
          "type": "bool"
        }
      ],
      "stateMutability": "nonpayable",
      "type": "function"
    },
    {
      "inputs": [],
      "name": "name",
      "outputs": [
        {
          "internalType": "string",
          "name": "",
          "type": "string"
        }
      ],
      "stateMutability": "view",
      "type": "function"
    },
    {
      "inputs": [
        {
          "internalType": "uint256",
          "name": "epoch",
          "type": "uint256"
        },
        {
          "internalType": "int256",
          "name": "supplyDelta",
          "type": "int256"
        }
      ],
      "name": "rebase",
      "outputs": [
        {
          "internalType": "uint256",
          "name": "",
          "type": "uint256"
        }
      ],
      "stateMutability": "nonpayable",
      "type": "function"
    },
    {
      "inputs": [],
      "name": "symbol",
      "outputs": [
        {
          "internalType": "string",
          "name": "",
          "type": "string"
        }
      ],
      "stateMutability": "view",
      "type": "function"
    },
    {
      "inputs": [],
      "name": "totalSupply",
      "outputs": [
        {
          "internalType": "uint256",
          "name": "",
          "type": "uint256"
        }
      ],
      "stateMutability": "view",
      "type": "function"
    },
    {
      "inputs": [
        {
          "internalType": "address",
          "name": "to",
          "type": "address"
        },
        {
          "internalType": "uint256",
          "name": "value",
          "type": "uint256"
        }
      ],
      "name": "transfer",
      "outputs": [
        {
          "internalType": "bool",
          "name": "",
          "type": "bool"
        }
      ],
      "stateMutability": "nonpayable",
      "type": "function"
    },
    {
      "inputs": [
        {
          "internalType": "address",
          "name": "from",
          "type": "address"
        },
        {
          "internalType": "address",
          "name": "to",
          "type": "address"
        },
        {
          "internalType": "uint256",
          "name": "value",
          "type": "uint256"
        }
      ],
      "name": "transferFrom",
      "outputs": [
        {
          "internalType": "bool",
          "name": "",
          "type": "bool"
        }
      ],
      "stateMutability": "nonpayable",
      "type": "function"
    }
  ],
  "bytecode": "0x60806040523480156200001157600080fd5b506040518060400160405280600681526020016544656261736560d01b8152506040518060400160405280600681526020016544454241534560d01b815250816003908051906020019062000068929190620002a7565b5080516200007e906004906020840190620002a7565b50506005805460ff191660121790555069d3c21bcecceda10000006039819055620000c0908060001906600019036200014f60201b62000af41790919060201c565b603a81905560388054336001600160a01b031990911617905560395490600090620000f9908390620001a2602090811b62000a4117901c565b336000818152603b6020908152604080832085905580518781529051949550929391927fddf252ad1be2c89b69c2b068fc378daa952ba7f163c4a11628f55a4df523b3ef929081900390910190a350506200034c565b60006200019983836040518060400160405280601a81526020017f536166654d6174683a206469766973696f6e206279207a65726f0000000000008152506200020060201b60201c565b90505b92915050565b600082620001b3575060006200019c565b82820282848281620001c157fe5b0414620001995760405162461bcd60e51b81526004018080602001828103825260218152602001806200100d6021913960400191505060405180910390fd5b60008183620002905760405162461bcd60e51b81526004018080602001828103825283818151815260200191508051906020019080838360005b83811015620002545781810151838201526020016200023a565b50505050905090810190601f168015620002825780820380516001836020036101000a031916815260200191505b509250505060405180910390fd5b5060008385816200029d57fe5b0495945050505050565b828054600181600116156101000203166002900490600052602060002090601f016020900481019282601f10620002ea57805160ff19168380011785556200031a565b828001600101855582156200031a579182015b828111156200031a578251825591602001919060010190620002fd565b50620003289291506200032c565b5090565b6200034991905b8082111562000328576000815560010162000333565b90565b610cb1806200035c6000396000f3fe608060405234801561001057600080fd5b50600436106100cf5760003560e01c8063395093511161008c57806395d89b411161006657806395d89b4114610298578063a457c2d7146102a0578063a9059cbb146102cc578063dd62ed3e146102f8576100cf565b8063395093511461022357806370a082311461024f5780637a43e23f14610275576100cf565b806306fdde03146100d4578063095ea7b31461015157806318160ddd1461019157806323ac0381146101ab57806323b872dd146101cf578063313ce56714610205575b600080fd5b6100dc610326565b6040805160208082528351818301528351919283929083019185019080838360005b838110156101165781810151838201526020016100fe565b50505050905090810190601f1680156101435780820380516001836020036101000a031916815260200191505b509250505060405180910390f35b61017d6004803603604081101561016757600080fd5b506001600160a01b0381351690602001356103bc565b604080519115158252519081900360200190f35b610199610423565b60408051918252519081900360200190f35b6101b3610429565b604080516001600160a01b039092168252519081900360200190f35b61017d600480360360608110156101e557600080fd5b506001600160a01b03813581169160208101359091169060400135610438565b61020d610597565b6040805160ff9092168252519081900360200190f35b61017d6004803603604081101561023957600080fd5b506001600160a01b0381351690602001356105a0565b6101996004803603602081101561026557600080fd5b50356001600160a01b0316610639565b6101996004803603604081101561028b57600080fd5b5080359060200135610667565b6100dc610785565b61017d600480360360408110156102b657600080fd5b506001600160a01b0381351690602001356107e6565b61017d600480360360408110156102e257600080fd5b506001600160a01b0381351690602001356108d5565b6101996004803603604081101561030e57600080fd5b506001600160a01b03813581169160200135166109cd565b60038054604080516020601f60026000196101006001881615020190951694909404938401819004810282018101909252828152606093909290918301828280156103b25780601f10610387576101008083540402835291602001916103b2565b820191906000526020600020905b81548152906001019060200180831161039557829003601f168201915b5050505050905090565b336000818152603c602090815260408083206001600160a01b038716808552908352818420869055815186815291519394909390927f8c5be1e5ebec7d5bd14f71427d1e84f3dd0314c0f7b2291e5b200ac8c7c3b925928290030190a35060015b92915050565b60395490565b6038546001600160a01b031681565b6000826001600160a01b03811661044e57600080fd5b6001600160a01b03811630141561046457600080fd5b6001600160a01b0385166000908152603c60209081526040808320338452909152902054610498908463ffffffff6109f816565b6001600160a01b0386166000908152603c60209081526040808320338452909152812091909155603a546104d390859063ffffffff610a4116565b6001600160a01b0387166000908152603b60205260409020549091506104ff908263ffffffff6109f816565b6001600160a01b038088166000908152603b60205260408082209390935590871681522054610534908263ffffffff610a9a16565b6001600160a01b038087166000818152603b602090815260409182902094909455805188815290519193928a16927fddf252ad1be2c89b69c2b068fc378daa952ba7f163c4a11628f55a4df523b3ef92918290030190a350600195945050505050565b60055460ff1690565b336000908152603c602090815260408083206001600160a01b03861684529091528120546105d4908363ffffffff610a9a16565b336000818152603c602090815260408083206001600160a01b0389168085529083529281902085905580519485525191937f8c5be1e5ebec7d5bd14f71427d1e84f3dd0314c0f7b2291e5b200ac8c7c3b925929081900390910190a350600192915050565b603a546001600160a01b0382166000908152603b6020526040812054909161041d919063ffffffff610af416565b6038546000906001600160a01b0316331461068157600080fd5b816106c757603954604080519182525184917f72725a3b1e5bd622d6bcd1339bb31279c351abe8f541ac7fd320f24e1b1641f2919081900360200190a25060395461041d565b60008212156106f3576106eb6106dc83610b36565b6039549063ffffffff6109f816565b60395561070a565b603954610706908363ffffffff610a9a16565b6039555b6039546001600160801b031015610727576001600160801b036039555b6039546107409069085afffa6ff50bffffff1990610af4565b603a55603954604080519182525184917f72725a3b1e5bd622d6bcd1339bb31279c351abe8f541ac7fd320f24e1b1641f2919081900360200190a25060395492915050565b60048054604080516020601f60026000196101006001881615020190951694909404938401819004810282018101909252828152606093909290918301828280156103b25780601f10610387576101008083540402835291602001916103b2565b336000908152603c602090815260408083206001600160a01b038616845290915281205480831061083a57336000908152603c602090815260408083206001600160a01b038816845290915281205561086f565b61084a818463ffffffff6109f816565b336000908152603c602090815260408083206001600160a01b03891684529091529020555b336000818152603c602090815260408083206001600160a01b0389168085529083529281902054815190815290519293927f8c5be1e5ebec7d5bd14f71427d1e84f3dd0314c0f7b2291e5b200ac8c7c3b925929181900390910190a35060019392505050565b6000826001600160a01b0381166108eb57600080fd5b6001600160a01b03811630141561090157600080fd5b6000610918603a5485610a4190919063ffffffff16565b336000908152603b602052604090205490915061093b908263ffffffff6109f816565b336000908152603b6020526040808220929092556001600160a01b0387168152205461096d908263ffffffff610a9a16565b6001600160a01b0386166000818152603b60209081526040918290209390935580518781529051919233927fddf252ad1be2c89b69c2b068fc378daa952ba7f163c4a11628f55a4df523b3ef9281900390910190a3506001949350505050565b6001600160a01b039182166000908152603c6020908152604080832093909416825291909152205490565b6000610a3a83836040518060400160405280601e81526020017f536166654d6174683a207375627472616374696f6e206f766572666c6f770000815250610b5e565b9392505050565b600082610a505750600061041d565b82820282848281610a5d57fe5b0414610a3a5760405162461bcd60e51b8152600401808060200182810382526021815260200180610c5b6021913960400191505060405180910390fd5b600082820183811015610a3a576040805162461bcd60e51b815260206004820152601b60248201527f536166654d6174683a206164646974696f6e206f766572666c6f770000000000604482015290519081900360640190fd5b6000610a3a83836040518060400160405280601a81526020017f536166654d6174683a206469766973696f6e206279207a65726f000000000000815250610bf5565b6000600160ff1b821415610b4957600080fd5b60008212610b57578161041d565b5060000390565b60008184841115610bed5760405162461bcd60e51b81526004018080602001828103825283818151815260200191508051906020019080838360005b83811015610bb2578181015183820152602001610b9a565b50505050905090810190601f168015610bdf5780820380516001836020036101000a031916815260200191505b509250505060405180910390fd5b505050900390565b60008183610c445760405162461bcd60e51b8152602060048201818152835160248401528351909283926044909101919085019080838360008315610bb2578181015183820152602001610b9a565b506000838581610c5057fe5b049594505050505056fe536166654d6174683a206d756c7469706c69636174696f6e206f766572666c6f77a26469706673582212204ac35d8a0ba14930bae9b69e71672caeb7baab1858333eed04b8c36d0507bf0164736f6c63430006060033536166654d6174683a206d756c7469706c69636174696f6e206f766572666c6f77",
  "linkReferences": {},
  "deployedLinkReferences": {}
}