{
  "_format": "hh-sol-artifact-1",
  "contractName": "RandomNumberConsumer",
  "sourceName": "contracts/Randomized-Threshold-Counter/RandomNumberConsumer.sol",
  "abi": [
    {
      "inputs": [
        {
          "internalType": "address",
          "name": "multiSigSafe_",
          "type": "address"
        },
        {
          "internalType": "contract RandomizedCounter",
          "name": "randomizedCounter_",
          "type": "address"
        },
        {
          "internalType": "address",
          "name": "VRFCoordinator_",
          "type": "address"
        },
        {
          "internalType": "address",
          "name": "link_",
          "type": "address"
        },
        {
          "internalType": "bytes32",
          "name": "keyHash_",
          "type": "bytes32"
        },
        {
          "internalType": "uint256",
          "name": "fee_",
          "type": "uint256"
        }
      ],
      "stateMutability": "nonpayable",
      "type": "constructor"
    },
    {
      "inputs": [],
      "name": "VRFCoordinator",
      "outputs": [
        {
          "internalType": "address",
          "name": "",
          "type": "address"
        }
      ],
      "stateMutability": "view",
      "type": "function"
    },
    {
      "inputs": [],
      "name": "fee",
      "outputs": [
        {
          "internalType": "uint256",
          "name": "",
          "type": "uint256"
        }
      ],
      "stateMutability": "view",
      "type": "function"
    },
    {
      "inputs": [
        {
          "internalType": "uint256",
          "name": "userProvidedSeed",
          "type": "uint256"
        }
      ],
      "name": "getRandomNumber",
      "outputs": [
        {
          "internalType": "bytes32",
          "name": "requestId",
          "type": "bytes32"
        }
      ],
      "stateMutability": "nonpayable",
      "type": "function"
    },
    {
      "inputs": [],
      "name": "multiSigSafe",
      "outputs": [
        {
          "internalType": "address",
          "name": "",
          "type": "address"
        }
      ],
      "stateMutability": "view",
      "type": "function"
    },
    {
      "inputs": [
        {
          "internalType": "bytes32",
          "name": "",
          "type": "bytes32"
        }
      ],
      "name": "nonces",
      "outputs": [
        {
          "internalType": "uint256",
          "name": "",
          "type": "uint256"
        }
      ],
      "stateMutability": "view",
      "type": "function"
    },
    {
      "inputs": [],
      "name": "randomResult",
      "outputs": [
        {
          "internalType": "uint256",
          "name": "",
          "type": "uint256"
        }
      ],
      "stateMutability": "view",
      "type": "function"
    },
    {
      "inputs": [],
      "name": "randomizedCounter",
      "outputs": [
        {
          "internalType": "contract RandomizedCounter",
          "name": "",
          "type": "address"
        }
      ],
      "stateMutability": "view",
      "type": "function"
    },
    {
      "inputs": [
        {
          "internalType": "bytes32",
          "name": "requestId",
          "type": "bytes32"
        },
        {
          "internalType": "uint256",
          "name": "randomness",
          "type": "uint256"
        }
      ],
      "name": "rawFulfillRandomness",
      "outputs": [],
      "stateMutability": "nonpayable",
      "type": "function"
    },
    {
      "inputs": [],
      "name": "withdrawLink",
      "outputs": [],
      "stateMutability": "nonpayable",
      "type": "function"
    }
  ],
  "bytecode": "0x60c060405234801561001057600080fd5b50604051610895380380610895833981810160405260c081101561003357600080fd5b5080516020820151604083015160608085015160808087015160a09788015185851b6001600160601b03199081169099529383901b9097169052600580546001600160a01b03199081166001600160a01b0397881617909155600680548216958716959095179094556003805493861693909416831790935560019490945560029390935516906107b46100e16000398061031e52806104d35250806101d352806104a452506107b46000f3fe608060405234801561001057600080fd5b50600436106100935760003560e01c80639e317f12116100665780639e317f1214610103578063a5bc72b614610120578063a833df3014610128578063b37217a414610130578063ddca3f431461014d57610093565b806333b608631461009857806342619f66146100bc5780638dc654a2146100d657806394985ddd146100e0575b600080fd5b6100a0610155565b604080516001600160a01b039092168252519081900360200190f35b6100c4610164565b60408051918252519081900360200190f35b6100de61016a565b005b6100de600480360360408110156100f657600080fd5b5080359060200135610313565b6100c46004803603602081101561011957600080fd5b503561039e565b6100a06103b0565b6100a06103bf565b6100c46004803603602081101561014657600080fd5b50356103ce565b6100c461042f565b6003546001600160a01b031681565b60045481565b6005546001600160a01b031633146101b35760405162461bcd60e51b815260040180806020018281038252602581526020018061075a6025913960400191505060405180910390fd5b604080516370a0823160e01b815230600482015290516001600160a01b037f0000000000000000000000000000000000000000000000000000000000000000169163a9059cbb91339184916370a0823191602480820192602092909190829003018186803b15801561022457600080fd5b505afa158015610238573d6000803e3d6000fd5b505050506040513d602081101561024e57600080fd5b5051604080516001600160e01b031960e086901b1681526001600160a01b03909316600484015260248301919091525160448083019260209291908290030181600087803b15801561029f57600080fd5b505af11580156102b3573d6000803e3d6000fd5b505050506040513d60208110156102c957600080fd5b5051610311576040805162461bcd60e51b81526020600482015260126024820152712ab730b13632903a37903a3930b739b332b960711b604482015290519081900360640190fd5b565b336001600160a01b037f00000000000000000000000000000000000000000000000000000000000000001614610390576040805162461bcd60e51b815260206004820152601f60248201527f4f6e6c7920565246436f6f7264696e61746f722063616e2066756c66696c6c00604482015290519081900360640190fd5b61039a8282610435565b5050565b60006020819052908152604090205481565b6005546001600160a01b031681565b6006546001600160a01b031681565b6006546000906001600160a01b0316331461041a5760405162461bcd60e51b81526004018080602001828103825260238152602001806107376023913960400191505060405180910390fd5b610429600154600254846104a0565b92915050565b60025481565b600481815560065460408051637c2032e760e01b8152928301849052516001600160a01b0390911691637c2032e791602480830192600092919082900301818387803b15801561048457600080fd5b505af1158015610498573d6000803e3d6000fd5b505050505050565b60007f00000000000000000000000000000000000000000000000000000000000000006001600160a01b0316634000aea07f000000000000000000000000000000000000000000000000000000000000000085878660405160200180838152602001828152602001925050506040516020818303038152906040526040518463ffffffff1660e01b815260040180846001600160a01b03166001600160a01b0316815260200183815260200180602001828103825283818151815260200191508051906020019080838360005b8381101561058557818101518382015260200161056d565b50505050905090810190601f1680156105b25780820380516001836020036101000a031916815260200191505b50945050505050602060405180830381600087803b1580156105d357600080fd5b505af11580156105e7573d6000803e3d6000fd5b505050506040513d60208110156105fd57600080fd5b505060008481526020819052604081205461061d90869085903090610662565b60008681526020819052604090205490915061064090600163ffffffff6106a916565b600086815260208190526040902055610659858261070a565b95945050505050565b60408051602080820196909652808201949094526001600160a01b039290921660608401526080808401919091528151808403909101815260a09092019052805191012090565b600082820183811015610703576040805162461bcd60e51b815260206004820152601b60248201527f536166654d6174683a206164646974696f6e206f766572666c6f770000000000604482015290519081900360640190fd5b9392505050565b60408051602080820194909452808201929092528051808303820181526060909201905280519101209056fe4f6e6c7920636f756e7465722063616e2063616c6c20746869732066756e6374696f6e4f6e6c79206d756c74692073696720736166652063616e207769746864726177206c696e6ba264697066735822122084cfbd571eeeff9ee07aac41781a22113e5688dcda48cc050b72c848f72dea5c64736f6c63430006060033",
  "linkReferences": {},
  "deployedLinkReferences": {}
}