{
  "_format": "hh-sol-artifact-1",
  "contractName": "Orchestrator",
  "sourceName": "contracts/flattened/Orchrestrator.sol",
  "abi": [
    {
      "anonymous": false,
      "inputs": [
        {
          "indexed": false,
          "internalType": "address",
          "name": "token1",
          "type": "address"
        },
        {
          "indexed": false,
          "internalType": "address",
          "name": "token2",
          "type": "address"
        }
      ],
      "name": "LogAddNewUniPair",
      "type": "event"
    },
    {
      "anonymous": false,
      "inputs": [
        {
          "indexed": false,
          "internalType": "bool",
          "name": "enabled",
          "type": "bool"
        },
        {
          "indexed": false,
          "internalType": "address",
          "name": "uniPair",
          "type": "address"
        }
      ],
      "name": "LogDeleteUniPair",
      "type": "event"
    },
    {
      "anonymous": false,
      "inputs": [
        {
          "indexed": false,
          "internalType": "uint256",
          "name": "timeStarted",
          "type": "uint256"
        }
      ],
      "name": "LogRebaseStarted",
      "type": "event"
    },
    {
      "anonymous": false,
      "inputs": [
        {
          "indexed": false,
          "internalType": "uint256",
          "name": "index",
          "type": "uint256"
        },
        {
          "indexed": false,
          "internalType": "bool",
          "name": "enabled",
          "type": "bool"
        }
      ],
      "name": "LogSetUniPairEnabled",
      "type": "event"
    },
    {
      "anonymous": false,
      "inputs": [
        {
          "indexed": true,
          "internalType": "address",
          "name": "previousOwner",
          "type": "address"
        },
        {
          "indexed": true,
          "internalType": "address",
          "name": "newOwner",
          "type": "address"
        }
      ],
      "name": "OwnershipTransferred",
      "type": "event"
    },
    {
      "inputs": [
        {
          "internalType": "address",
          "name": "token1",
          "type": "address"
        },
        {
          "internalType": "address",
          "name": "token2",
          "type": "address"
        }
      ],
      "name": "addUniPair",
      "outputs": [],
      "stateMutability": "nonpayable",
      "type": "function"
    },
    {
      "inputs": [],
      "name": "debase",
      "outputs": [
        {
          "internalType": "contract DebaseI",
          "name": "",
          "type": "address"
        }
      ],
      "stateMutability": "view",
      "type": "function"
    },
    {
      "inputs": [],
      "name": "debaseDaiLpPool",
      "outputs": [
        {
          "internalType": "contract PoolI",
          "name": "",
          "type": "address"
        }
      ],
      "stateMutability": "view",
      "type": "function"
    },
    {
      "inputs": [],
      "name": "debaseDaiPool",
      "outputs": [
        {
          "internalType": "contract PoolI",
          "name": "",
          "type": "address"
        }
      ],
      "stateMutability": "view",
      "type": "function"
    },
    {
      "inputs": [],
      "name": "debasePolicy",
      "outputs": [
        {
          "internalType": "contract DebasePolicyI",
          "name": "",
          "type": "address"
        }
      ],
      "stateMutability": "view",
      "type": "function"
    },
    {
      "inputs": [],
      "name": "degovDaiLpPool",
      "outputs": [
        {
          "internalType": "contract PoolI",
          "name": "",
          "type": "address"
        }
      ],
      "stateMutability": "view",
      "type": "function"
    },
    {
      "inputs": [
        {
          "internalType": "uint256",
          "name": "index",
          "type": "uint256"
        }
      ],
      "name": "deleteUniPair",
      "outputs": [],
      "stateMutability": "nonpayable",
      "type": "function"
    },
    {
      "inputs": [
        {
          "internalType": "address",
          "name": "debase_",
          "type": "address"
        },
        {
          "internalType": "address",
          "name": "debasePolicy_",
          "type": "address"
        },
        {
          "internalType": "address",
          "name": "debaseDaiPool_",
          "type": "address"
        },
        {
          "internalType": "address",
          "name": "debaseDaiLpPool_",
          "type": "address"
        },
        {
          "internalType": "address",
          "name": "degovDaiLpPool_",
          "type": "address"
        },
        {
          "internalType": "uint256",
          "name": "rebaseRequiredSupply_",
          "type": "uint256"
        },
        {
          "internalType": "uint256",
          "name": "oracleStartTimeOffset",
          "type": "uint256"
        }
      ],
      "name": "initialize",
      "outputs": [],
      "stateMutability": "nonpayable",
      "type": "function"
    },
    {
      "inputs": [],
      "name": "maximumRebaseTime",
      "outputs": [
        {
          "internalType": "uint256",
          "name": "",
          "type": "uint256"
        }
      ],
      "stateMutability": "view",
      "type": "function"
    },
    {
      "inputs": [],
      "name": "owner",
      "outputs": [
        {
          "internalType": "address",
          "name": "",
          "type": "address"
        }
      ],
      "stateMutability": "view",
      "type": "function"
    },
    {
      "inputs": [],
      "name": "rebase",
      "outputs": [],
      "stateMutability": "nonpayable",
      "type": "function"
    },
    {
      "inputs": [],
      "name": "rebaseRequiredSupply",
      "outputs": [
        {
          "internalType": "uint256",
          "name": "",
          "type": "uint256"
        }
      ],
      "stateMutability": "view",
      "type": "function"
    },
    {
      "inputs": [],
      "name": "rebaseStarted",
      "outputs": [
        {
          "internalType": "bool",
          "name": "",
          "type": "bool"
        }
      ],
      "stateMutability": "view",
      "type": "function"
    },
    {
      "inputs": [],
      "name": "renounceOwnership",
      "outputs": [],
      "stateMutability": "nonpayable",
      "type": "function"
    },
    {
      "inputs": [
        {
          "internalType": "uint256",
          "name": "index",
          "type": "uint256"
        },
        {
          "internalType": "bool",
          "name": "enabled",
          "type": "bool"
        }
      ],
      "name": "setUniPairEnabled",
      "outputs": [],
      "stateMutability": "nonpayable",
      "type": "function"
    },
    {
      "inputs": [
        {
          "internalType": "address",
          "name": "newOwner",
          "type": "address"
        }
      ],
      "name": "transferOwnership",
      "outputs": [],
      "stateMutability": "nonpayable",
      "type": "function"
    },
    {
      "inputs": [
        {
          "internalType": "uint256",
          "name": "",
          "type": "uint256"
        }
      ],
      "name": "uniSyncs",
      "outputs": [
        {
          "internalType": "bool",
          "name": "enabled",
          "type": "bool"
        },
        {
          "internalType": "contract UniV2PairI",
          "name": "pair",
          "type": "address"
        }
      ],
      "stateMutability": "view",
      "type": "function"
    }
  ],
  "bytecode": "0x608060405260006100176001600160e01b0361006616565b600080546001600160a01b0319166001600160a01b0383169081178255604051929350917f8be0079c531659141344cd1fd0a4f28419497f9722a3daafe3b4186f6b6457e0908290a35061006a565b3390565b611167806100796000396000f3fe608060405234801561001057600080fd5b506004361061010b5760003560e01c80638da5cb5b116100a2578063c5c0050e11610071578063c5c0050e14610242578063d4de918b1461025e578063e11f566814610266578063e186aa8f146102a6578063f2fde38b146102ae5761010b565b80638da5cb5b146101c3578063af14052c146101cb578063b33f9527146101d3578063bb51de94146102255761010b565b80633d24d235116100de5780633d24d235146101745780636422380a1461018e578063715018a6146101965780637d989f421461019e5761010b565b806309058dea1461011057806323ac038114610140578063249e3616146101645780632f8618f21461016c575b600080fd5b61013e6004803603604081101561012657600080fd5b506001600160a01b03813581169160200135166102d4565b005b6101486103e3565b604080516001600160a01b039092168252519081900360200190f35b6101486103f2565b610148610401565b61017c610410565b60408051918252519081900360200190f35b610148610416565b61013e610425565b61013e600480360360408110156101b457600080fd5b508035906020013515156104c7565b6101486105cb565b61013e6105da565b61013e600480360360e08110156101e957600080fd5b506001600160a01b0381358116916020810135821691604082013581169160608101358216916080820135169060a08101359060c00135610983565b61013e6004803603602081101561023b57600080fd5b5035610aab565b61024a610cb2565b604080519115158252519081900360200190f35b61017c610cc2565b6102836004803603602081101561027c57600080fd5b5035610cc8565b6040805192151583526001600160a01b0390911660208301528051918290030190f35b610148610cf8565b61013e600480360360208110156102c457600080fd5b50356001600160a01b0316610d07565b6102dc610dff565b6000546001600160a01b0390811691161461032c576040805162461bcd60e51b81526020600482018190526024820152600080516020611085833981519152604482015290519081900360640190fd5b603a604051806040016040528060011515815260200161034c8585610e03565b6001600160a01b039081169091528254600181018455600093845260209384902083519101805493850151831661010002610100600160a81b031992151560ff199095169490941791909116929092179091556040805185831681529184169282019290925281517f842cc0dc96f063b2a64f2a3f0f676879ed55981f048c3e421cdfae5830caaff5929181900390910190a15050565b6034546001600160a01b031681565b6035546001600160a01b031681565b6036546001600160a01b031681565b60395481565b6033546001600160a01b031681565b61042d610dff565b6000546001600160a01b0390811691161461047d576040805162461bcd60e51b81526020600482018190526024820152600080516020611085833981519152604482015290519081900360640190fd5b600080546040516001600160a01b03909116907f8be0079c531659141344cd1fd0a4f28419497f9722a3daafe3b4186f6b6457e0908390a3600080546001600160a01b0319169055565b6104cf610dff565b6000546001600160a01b0390811691161461051f576040805162461bcd60e51b81526020600482018190526024820152600080516020611085833981519152604482015290519081900360640190fd5b603a54829081106105615760405162461bcd60e51b815260040180806020018281038252602481526020018061110e6024913960400191505060405180910390fd5b6000603a848154811061057057fe5b600091825260209182902001805460ff19168515159081178255604080518881529384019190915280519193507f76238e3ffb5c28bf1f3665466ee2ee3abdec187bfa59fc704d20ac5fbcda9d61928290030190a150505050565b6000546001600160a01b031690565b603754600160a01b900460ff166107eb5760006106eb603660009054906101000a90046001600160a01b03166001600160a01b031663e9483ac06040518163ffffffff1660e01b8152600401602060405180830381600087803b15801561064057600080fd5b505af1158015610654573d6000803e3d6000fd5b505050506040513d602081101561066a57600080fd5b5051603554604080516303a520eb60e61b815290516001600160a01b039092169163e9483ac0916004808201926020929091908290030181600087803b1580156106b357600080fd5b505af11580156106c7573d6000803e3d6000fd5b505050506040513d60208110156106dd57600080fd5b50519063ffffffff610f0c16565b90506039548110158061070057506038544210155b61073b5760405162461bcd60e51b815260040180806020018281038252603b8152602001806110d3603b913960400191505060405180910390fd5b603760009054906101000a90046001600160a01b03166001600160a01b031663fa08c9086040518163ffffffff1660e01b8152600401600060405180830381600087803b15801561078b57600080fd5b505af115801561079f573d6000803e3d6000fd5b50506037805460ff60a01b1916600160a01b17905550506040805142815290517fd1ebb36af9f1d34bb9e490937763cf0d97bca49fd1a14a78c2613ec454e0daa89181900360200190a1505b3332146107f757600080fd5b603460009054906101000a90046001600160a01b03166001600160a01b031663af14052c6040518163ffffffff1660e01b8152600401600060405180830381600087803b15801561084757600080fd5b505af115801561085b573d6000803e3d6000fd5b506000925050505b603a5481101561098057603a818154811061087a57fe5b60009182526020909120015460ff161561097857603a818154811061089b57fe5b600091825260209182902001546040805160016209351760e01b0319818501528151808203850181529082019182905280516101009093046001600160a01b03169361c3509391929182918401908083835b6020831061090c5780518252601f1990920191602091820191016108ed565b6001836020036101000a03801982511681845116808217855250505050505090500191505060006040518083038160008787f1925050503d806000811461096f576040519150601f19603f3d011682016040523d82523d6000602084013e610974565b606091505b5050505b600101610863565b50565b600054600160a81b900460ff168061099e575061099e610f6d565b806109b35750600054600160a01b900460ff16155b6109ee5760405162461bcd60e51b815260040180806020018281038252602e8152602001806110a5602e913960400191505060405180910390fd5b600054600160a81b900460ff16158015610a25576000805460ff60a01b1960ff60a81b19909116600160a81b1716600160a01b1790555b603380546001600160a01b03199081166001600160a01b038b8116919091179092556034805482168a8416179055603580548216898416179055603680548216888416179055603780544286016038559091169186169190911760ff60a01b1916905560398390558015610aa1576000805460ff60a81b191690555b5050505050505050565b610ab3610dff565b6000546001600160a01b03908116911614610b03576040805162461bcd60e51b81526020600482018190526024820152600080516020611085833981519152604482015290519081900360640190fd5b603a5481908110610b455760405162461bcd60e51b815260040180806020018281038252602481526020018061110e6024913960400191505060405180910390fd5b610b4d611047565b603a8381548110610b5a57fe5b60009182526020918290206040805180820190915291015460ff81161515825261010090046001600160a01b031691810191909152603a54909150610ba0906001610f73565b831015610c2857603a8054610bbc90600163ffffffff610f7316565b81548110610bc657fe5b90600052602060002001603a8481548110610bdd57fe5b6000918252602090912082549101805460ff909216151560ff199092169190911780825591546001600160a01b03610100918290041602610100600160a81b03199092169190911790555b80516020808301516040805193151584526001600160a01b039091169183019190915280517f0b937f677f79707c8a9777bc25d0d66db80150d78cdad1148a3f68d03f406ae59281900390910190a1603a805480610c8257fe5b600082815260209020810160001990810180546001600160a81b0319169055019055610cac611047565b50505050565b603754600160a01b900460ff1681565b60385481565b603a8181548110610cd557fe5b60009182526020909120015460ff8116915061010090046001600160a01b031682565b6037546001600160a01b031681565b610d0f610dff565b6000546001600160a01b03908116911614610d5f576040805162461bcd60e51b81526020600482018190526024820152600080516020611085833981519152604482015290519081900360640190fd5b6001600160a01b038116610da45760405162461bcd60e51b815260040180806020018281038252602681526020018061105f6026913960400191505060405180910390fd5b600080546040516001600160a01b03808516939216917f8be0079c531659141344cd1fd0a4f28419497f9722a3daafe3b4186f6b6457e091a3600080546001600160a01b0319166001600160a01b0392909216919091179055565b3390565b600080826001600160a01b0316846001600160a01b031610610e255782610e27565b835b90506000836001600160a01b0316856001600160a01b031610610e4a5784610e4c565b835b604080516bffffffffffffffffffffffff19606095861b81166020808401919091529390951b9094166034850152805160288186030181526048850182528051908301206001600160f81b03196068860152735c69bee701ef814a2b6a3edd4b1652cb9cc5aa6f60601b6069860152607d8501527f96e8ac4277198ff8b6f785478aa9a39f403cb768dd02cbee326c3e7da348845f609d808601919091528151808603909101815260bd9094019052825192019190912091505092915050565b600082820183811015610f66576040805162461bcd60e51b815260206004820152601b60248201527f536166654d6174683a206164646974696f6e206f766572666c6f770000000000604482015290519081900360640190fd5b9392505050565b303b1590565b6000610f6683836040518060400160405280601e81526020017f536166654d6174683a207375627472616374696f6e206f766572666c6f7700008152506000818484111561103f5760405162461bcd60e51b81526004018080602001828103825283818151815260200191508051906020019080838360005b83811015611004578181015183820152602001610fec565b50505050905090810190601f1680156110315780820380516001836020036101000a031916815260200191505b509250505060405180910390fd5b505050900390565b60408051808201909152600080825260208201529056fe4f776e61626c653a206e6577206f776e657220697320746865207a65726f20616464726573734f776e61626c653a2063616c6c6572206973206e6f7420746865206f776e6572436f6e747261637420696e7374616e63652068617320616c7265616479206265656e20696e697469616c697a65644e6f7420656e6f7567682072657761726473206469737472696275746564206f722074696d65206c657373207468616e2073746172742074696d65496e646578206d757374206265206c657373207468616e206172726179206c656e677468a2646970667358221220b9d8d5e0a38dc7e93d78a98c2bf7208311ff94181313ed69292559025ee79b6664736f6c63430006060033",
  "linkReferences": {},
  "deployedLinkReferences": {}
}