{
  "_format": "hh-sol-artifact-1",
  "contractName": "Timelock",
  "sourceName": "contracts/flattened/Timelock.sol",
  "abi": [
    {
      "anonymous": false,
      "inputs": [
        {
          "indexed": true,
          "internalType": "bytes32",
          "name": "txHash_",
          "type": "bytes32"
        },
        {
          "indexed": true,
          "internalType": "address",
          "name": "target_",
          "type": "address"
        },
        {
          "indexed": false,
          "internalType": "uint256",
          "name": "value_",
          "type": "uint256"
        },
        {
          "indexed": false,
          "internalType": "string",
          "name": "signature_",
          "type": "string"
        },
        {
          "indexed": false,
          "internalType": "bytes",
          "name": "data_",
          "type": "bytes"
        },
        {
          "indexed": false,
          "internalType": "uint256",
          "name": "eta_",
          "type": "uint256"
        }
      ],
      "name": "CancelTransaction",
      "type": "event"
    },
    {
      "anonymous": false,
      "inputs": [
        {
          "indexed": true,
          "internalType": "bytes32",
          "name": "txHash_",
          "type": "bytes32"
        },
        {
          "indexed": true,
          "internalType": "address",
          "name": "target_",
          "type": "address"
        },
        {
          "indexed": false,
          "internalType": "uint256",
          "name": "value_",
          "type": "uint256"
        },
        {
          "indexed": false,
          "internalType": "string",
          "name": "signature_",
          "type": "string"
        },
        {
          "indexed": false,
          "internalType": "bytes",
          "name": "data_",
          "type": "bytes"
        },
        {
          "indexed": false,
          "internalType": "uint256",
          "name": "eta_",
          "type": "uint256"
        }
      ],
      "name": "ExecuteTransaction",
      "type": "event"
    },
    {
      "anonymous": false,
      "inputs": [
        {
          "indexed": true,
          "internalType": "address",
          "name": "newAdmin_",
          "type": "address"
        }
      ],
      "name": "NewAdmin",
      "type": "event"
    },
    {
      "anonymous": false,
      "inputs": [
        {
          "indexed": true,
          "internalType": "uint256",
          "name": "newDelay_",
          "type": "uint256"
        }
      ],
      "name": "NewDelay",
      "type": "event"
    },
    {
      "anonymous": false,
      "inputs": [
        {
          "indexed": true,
          "internalType": "uint256",
          "name": "newGracePerios_",
          "type": "uint256"
        }
      ],
      "name": "NewGracePeriod",
      "type": "event"
    },
    {
      "anonymous": false,
      "inputs": [
        {
          "indexed": true,
          "internalType": "address",
          "name": "newPendingAdmin_",
          "type": "address"
        }
      ],
      "name": "NewPendingAdmin",
      "type": "event"
    },
    {
      "anonymous": false,
      "inputs": [
        {
          "indexed": true,
          "internalType": "address",
          "name": "previousOwner",
          "type": "address"
        },
        {
          "indexed": true,
          "internalType": "address",
          "name": "newOwner",
          "type": "address"
        }
      ],
      "name": "OwnershipTransferred",
      "type": "event"
    },
    {
      "anonymous": false,
      "inputs": [
        {
          "indexed": true,
          "internalType": "bytes32",
          "name": "txHash_",
          "type": "bytes32"
        },
        {
          "indexed": true,
          "internalType": "address",
          "name": "target_",
          "type": "address"
        },
        {
          "indexed": false,
          "internalType": "uint256",
          "name": "value_",
          "type": "uint256"
        },
        {
          "indexed": false,
          "internalType": "string",
          "name": "signature_",
          "type": "string"
        },
        {
          "indexed": false,
          "internalType": "bytes",
          "name": "data_",
          "type": "bytes"
        },
        {
          "indexed": false,
          "internalType": "uint256",
          "name": "eta_",
          "type": "uint256"
        }
      ],
      "name": "QueueTransaction",
      "type": "event"
    },
    {
      "inputs": [],
      "name": "acceptAdmin",
      "outputs": [],
      "stateMutability": "nonpayable",
      "type": "function"
    },
    {
      "inputs": [],
      "name": "admin",
      "outputs": [
        {
          "internalType": "address",
          "name": "",
          "type": "address"
        }
      ],
      "stateMutability": "view",
      "type": "function"
    },
    {
      "inputs": [
        {
          "internalType": "address",
          "name": "target",
          "type": "address"
        },
        {
          "internalType": "uint256",
          "name": "value",
          "type": "uint256"
        },
        {
          "internalType": "string",
          "name": "signature",
          "type": "string"
        },
        {
          "internalType": "bytes",
          "name": "data",
          "type": "bytes"
        },
        {
          "internalType": "uint256",
          "name": "eta",
          "type": "uint256"
        }
      ],
      "name": "cancelTransaction",
      "outputs": [],
      "stateMutability": "nonpayable",
      "type": "function"
    },
    {
      "inputs": [],
      "name": "delay",
      "outputs": [
        {
          "internalType": "uint256",
          "name": "",
          "type": "uint256"
        }
      ],
      "stateMutability": "view",
      "type": "function"
    },
    {
      "inputs": [
        {
          "internalType": "address",
          "name": "target",
          "type": "address"
        },
        {
          "internalType": "uint256",
          "name": "value",
          "type": "uint256"
        },
        {
          "internalType": "string",
          "name": "signature",
          "type": "string"
        },
        {
          "internalType": "bytes",
          "name": "data",
          "type": "bytes"
        },
        {
          "internalType": "uint256",
          "name": "eta",
          "type": "uint256"
        }
      ],
      "name": "executeTransaction",
      "outputs": [
        {
          "internalType": "bytes",
          "name": "",
          "type": "bytes"
        }
      ],
      "stateMutability": "payable",
      "type": "function"
    },
    {
      "inputs": [],
      "name": "gracePeriod",
      "outputs": [
        {
          "internalType": "uint256",
          "name": "",
          "type": "uint256"
        }
      ],
      "stateMutability": "view",
      "type": "function"
    },
    {
      "inputs": [
        {
          "internalType": "address",
          "name": "admin_",
          "type": "address"
        }
      ],
      "name": "initialize",
      "outputs": [],
      "stateMutability": "nonpayable",
      "type": "function"
    },
    {
      "inputs": [],
      "name": "owner",
      "outputs": [
        {
          "internalType": "address",
          "name": "",
          "type": "address"
        }
      ],
      "stateMutability": "view",
      "type": "function"
    },
    {
      "inputs": [],
      "name": "pendingAdmin",
      "outputs": [
        {
          "internalType": "address",
          "name": "",
          "type": "address"
        }
      ],
      "stateMutability": "view",
      "type": "function"
    },
    {
      "inputs": [
        {
          "internalType": "address",
          "name": "target",
          "type": "address"
        },
        {
          "internalType": "uint256",
          "name": "value",
          "type": "uint256"
        },
        {
          "internalType": "string",
          "name": "signature",
          "type": "string"
        },
        {
          "internalType": "bytes",
          "name": "data",
          "type": "bytes"
        },
        {
          "internalType": "uint256",
          "name": "eta",
          "type": "uint256"
        }
      ],
      "name": "queueTransaction",
      "outputs": [
        {
          "internalType": "bytes32",
          "name": "",
          "type": "bytes32"
        }
      ],
      "stateMutability": "nonpayable",
      "type": "function"
    },
    {
      "inputs": [
        {
          "internalType": "bytes32",
          "name": "",
          "type": "bytes32"
        }
      ],
      "name": "queuedTransactions",
      "outputs": [
        {
          "internalType": "bool",
          "name": "",
          "type": "bool"
        }
      ],
      "stateMutability": "view",
      "type": "function"
    },
    {
      "inputs": [],
      "name": "renounceOwnership",
      "outputs": [],
      "stateMutability": "nonpayable",
      "type": "function"
    },
    {
      "inputs": [
        {
          "internalType": "uint256",
          "name": "delay_",
          "type": "uint256"
        }
      ],
      "name": "setDelay",
      "outputs": [],
      "stateMutability": "nonpayable",
      "type": "function"
    },
    {
      "inputs": [
        {
          "internalType": "uint256",
          "name": "gracePeriod_",
          "type": "uint256"
        }
      ],
      "name": "setGracePeriod",
      "outputs": [],
      "stateMutability": "nonpayable",
      "type": "function"
    },
    {
      "inputs": [
        {
          "internalType": "address",
          "name": "pendingAdmin_",
          "type": "address"
        }
      ],
      "name": "setPendingAdmin",
      "outputs": [],
      "stateMutability": "nonpayable",
      "type": "function"
    },
    {
      "inputs": [
        {
          "internalType": "address",
          "name": "newOwner",
          "type": "address"
        }
      ],
      "name": "transferOwnership",
      "outputs": [],
      "stateMutability": "nonpayable",
      "type": "function"
    },
    {
      "stateMutability": "payable",
      "type": "receive"
    }
  ],
  "bytecode": "0x60806040526201518060365562093a8060375560006100256001600160e01b0361007816565b603380546001600160a01b0319166001600160a01b038316908117909155604051919250906000907f8be0079c531659141344cd1fd0a4f28419497f9722a3daafe3b4186f6b6457e0908290a35061007c565b3390565b611bbe8061008b6000396000f3fe6080604052600436106100f75760003560e01c80638da5cb5b1161008a578063f2b0653711610059578063f2b0653714610690578063f2f65960146106ce578063f2fde38b146106f8578063f851a4401461072b576100fe565b80638da5cb5b14610609578063a06db7dc1461061e578063c4d66de814610633578063e177246e14610666576100fe565b80634dd18bf5116100c65780634dd18bf51461045f578063591fcdfe146104925780636a42b8f8146105df578063715018a6146105f4576100fe565b80630825f38f146101035780630e18b681146102b857806326782247146102cf5780633a66f90114610300576100fe565b366100fe57005b600080fd5b610243600480360360a081101561011957600080fd5b6001600160a01b0382351691602081013591810190606081016040820135600160201b81111561014857600080fd5b82018360208201111561015a57600080fd5b803590602001918460018302840111600160201b8311171561017b57600080fd5b91908080601f0160208091040260200160405190810160405280939291908181526020018383808284376000920191909152509295949360208101935035915050600160201b8111156101cd57600080fd5b8201836020820111156101df57600080fd5b803590602001918460018302840111600160201b8311171561020057600080fd5b91908080601f0160208091040260200160405190810160405280939291908181526020018383808284376000920191909152509295505091359250610740915050565b6040805160208082528351818301528351919283929083019185019080838360005b8381101561027d578181015183820152602001610265565b50505050905090810190601f1680156102aa5780820380516001836020036101000a031916815260200191505b509250505060405180910390f35b3480156102c457600080fd5b506102cd610c5a565b005b3480156102db57600080fd5b506102e4610cf9565b604080516001600160a01b039092168252519081900360200190f35b34801561030c57600080fd5b5061044d600480360360a081101561032357600080fd5b6001600160a01b0382351691602081013591810190606081016040820135600160201b81111561035257600080fd5b82018360208201111561036457600080fd5b803590602001918460018302840111600160201b8311171561038557600080fd5b91908080601f0160208091040260200160405190810160405280939291908181526020018383808284376000920191909152509295949360208101935035915050600160201b8111156103d757600080fd5b8201836020820111156103e957600080fd5b803590602001918460018302840111600160201b8311171561040a57600080fd5b91908080601f0160208091040260200160405190810160405280939291908181526020018383808284376000920191909152509295505091359250610d08915050565b60408051918252519081900360200190f35b34801561046b57600080fd5b506102cd6004803603602081101561048257600080fd5b50356001600160a01b031661101b565b34801561049e57600080fd5b506102cd600480360360a08110156104b557600080fd5b6001600160a01b0382351691602081013591810190606081016040820135600160201b8111156104e457600080fd5b8201836020820111156104f657600080fd5b803590602001918460018302840111600160201b8311171561051757600080fd5b91908080601f0160208091040260200160405190810160405280939291908181526020018383808284376000920191909152509295949360208101935035915050600160201b81111561056957600080fd5b82018360208201111561057b57600080fd5b803590602001918460018302840111600160201b8311171561059c57600080fd5b91908080601f01602080910402602001604051908101604052809392919081815260200183838082843760009201919091525092955050913592506110c3915050565b3480156105eb57600080fd5b5061044d611379565b34801561060057600080fd5b506102cd61137f565b34801561061557600080fd5b506102e4611421565b34801561062a57600080fd5b5061044d611430565b34801561063f57600080fd5b506102cd6004803603602081101561065657600080fd5b50356001600160a01b0316611436565b34801561067257600080fd5b506102cd6004803603602081101561068957600080fd5b503561154c565b34801561069c57600080fd5b506106ba600480360360208110156106b357600080fd5b5035611617565b604080519115158252519081900360200190f35b3480156106da57600080fd5b506102cd600480360360208110156106f157600080fd5b503561162c565b34801561070457600080fd5b506102cd6004803603602081101561071b57600080fd5b50356001600160a01b03166116f7565b34801561073757600080fd5b506102e46117f0565b6034546060906001600160a01b0316331461078c5760405162461bcd60e51b81526004018080602001828103825260388152602001806118a86038913960400191505060405180910390fd5b6000868686868660405160200180866001600160a01b03166001600160a01b031681526020018581526020018060200180602001848152602001838103835286818151815260200191508051906020019080838360005b838110156107fb5781810151838201526020016107e3565b50505050905090810190601f1680156108285780820380516001836020036101000a031916815260200191505b50838103825285518152855160209182019187019080838360005b8381101561085b578181015183820152602001610843565b50505050905090810190601f1680156108885780820380516001836020036101000a031916815260200191505b5060408051601f1981840301815291815281516020928301206000818152603890935291205490995060ff1697506108f996505050505050505760405162461bcd60e51b815260040180806020018281038252603d815260200180611a0a603d913960400191505060405180910390fd5b826109026117ff565b101561093f5760405162461bcd60e51b81526004018080602001828103825260458152602001806119c56045913960600191505060405180910390fd5b60375461095390849063ffffffff61180316565b61095b6117ff565b11156109985760405162461bcd60e51b81526004018080602001828103825260338152602001806119926033913960400191505060405180910390fd5b6000818152603860205260409020805460ff1916905584516060906109be575083610a4b565b85805190602001208560405160200180836001600160e01b0319166001600160e01b031916815260040182805190602001908083835b60208310610a135780518252601f1990920191602091820191016109f4565b6001836020036101000a0380198251168184511680821785525050505050509050019250505060405160208183030381529060405290505b60006060896001600160a01b031689846040518082805190602001908083835b60208310610a8a5780518252601f199092019160209182019101610a6b565b6001836020036101000a03801982511681845116808217855250505050505090500191505060006040518083038185875af1925050503d8060008114610aec576040519150601f19603f3d011682016040523d82523d6000602084013e610af1565b606091505b509150915081610b325760405162461bcd60e51b815260040180806020018281038252603d815260200180611b03603d913960400191505060405180910390fd5b896001600160a01b0316847fa560e3198060a2f10670c1ec5b403077ea6ae93ca8de1c32b451dc1a943cd6e78b8b8b8b604051808581526020018060200180602001848152602001838103835286818151815260200191508051906020019080838360005b83811015610baf578181015183820152602001610b97565b50505050905090810190601f168015610bdc5780820380516001836020036101000a031916815260200191505b50838103825285518152855160209182019187019080838360005b83811015610c0f578181015183820152602001610bf7565b50505050905090810190601f168015610c3c5780820380516001836020036101000a031916815260200191505b50965050505050505060405180910390a39998505050505050505050565b6035546001600160a01b03163314610ca35760405162461bcd60e51b8152600401808060200182810382526038815260200180611a956038913960400191505060405180910390fd5b60348054336001600160a01b031991821617918290556035805490911690556040516001600160a01b03909116907f71614071b88dee5e0b2ae578a9dd7b2ebbe9ae832ba419dc0242cd065a290b6c90600090a2565b6035546001600160a01b031681565b6034546000906001600160a01b03163314610d545760405162461bcd60e51b8152600401808060200182810382526036815260200180611acd6036913960400191505060405180910390fd5b610d6e603654610d626117ff565b9063ffffffff61180316565b821015610dac5760405162461bcd60e51b8152600401808060200182810382526049815260200180611b406049913960600191505060405180910390fd5b6000868686868660405160200180866001600160a01b03166001600160a01b031681526020018581526020018060200180602001848152602001838103835286818151815260200191508051906020019080838360005b83811015610e1b578181015183820152602001610e03565b50505050905090810190601f168015610e485780820380516001836020036101000a031916815260200191505b50838103825285518152855160209182019187019080838360005b83811015610e7b578181015183820152602001610e63565b50505050905090810190601f168015610ea85780820380516001836020036101000a031916815260200191505b5097505050505050505060405160208183030381529060405280519060200120905060016038600083815260200190815260200160002060006101000a81548160ff021916908315150217905550866001600160a01b0316817f76e2796dc3a81d57b0e8504b647febcbeeb5f4af818e164f11eef8131a6a763f88888888604051808581526020018060200180602001848152602001838103835286818151815260200191508051906020019080838360005b83811015610f73578181015183820152602001610f5b565b50505050905090810190601f168015610fa05780820380516001836020036101000a031916815260200191505b50838103825285518152855160209182019187019080838360005b83811015610fd3578181015183820152602001610fbb565b50505050905090810190601f1680156110005780820380516001836020036101000a031916815260200191505b50965050505050505060405180910390a39695505050505050565b611023611864565b6033546001600160a01b03908116911614611073576040805162461bcd60e51b81526020600482018190526024820152600080516020611a47833981519152604482015290519081900360640190fd5b603580546001600160a01b0319166001600160a01b0383811691909117918290556040519116907f69d78e38a01985fbb1462961809b4b2d65531bc93b2b94037f3334b82ca4a75690600090a250565b6034546001600160a01b0316331461110c5760405162461bcd60e51b81526004018080602001828103825260378152602001806118e06037913960400191505060405180910390fd5b6000858585858560405160200180866001600160a01b03166001600160a01b031681526020018581526020018060200180602001848152602001838103835286818151815260200191508051906020019080838360005b8381101561117b578181015183820152602001611163565b50505050905090810190601f1680156111a85780820380516001836020036101000a031916815260200191505b50838103825285518152855160209182019187019080838360005b838110156111db5781810151838201526020016111c3565b50505050905090810190601f1680156112085780820380516001836020036101000a031916815260200191505b5097505050505050505060405160208183030381529060405280519060200120905060006038600083815260200190815260200160002060006101000a81548160ff021916908315150217905550856001600160a01b0316817f2fffc091a501fd91bfbff27141450d3acb40fb8e6d8382b243ec7a812a3aaf8787878787604051808581526020018060200180602001848152602001838103835286818151815260200191508051906020019080838360005b838110156112d35781810151838201526020016112bb565b50505050905090810190601f1680156113005780820380516001836020036101000a031916815260200191505b50838103825285518152855160209182019187019080838360005b8381101561133357818101518382015260200161131b565b50505050905090810190601f1680156113605780820380516001836020036101000a031916815260200191505b50965050505050505060405180910390a3505050505050565b60365481565b611387611864565b6033546001600160a01b039081169116146113d7576040805162461bcd60e51b81526020600482018190526024820152600080516020611a47833981519152604482015290519081900360640190fd5b6033546040516000916001600160a01b0316907f8be0079c531659141344cd1fd0a4f28419497f9722a3daafe3b4186f6b6457e0908390a3603380546001600160a01b0319169055565b6033546001600160a01b031690565b60375481565b61143e611864565b6033546001600160a01b0390811691161461148e576040805162461bcd60e51b81526020600482018190526024820152600080516020611a47833981519152604482015290519081900360640190fd5b600054610100900460ff16806114a757506114a7611868565b806114b5575060005460ff16155b6114f05760405162461bcd60e51b815260040180806020018281038252602e815260200180611a67602e913960400191505060405180910390fd5b600054610100900460ff1615801561151b576000805460ff1961ff0019909116610100171660011790555b603480546001600160a01b0319166001600160a01b0384161790558015611548576000805461ff00191690555b5050565b611554611864565b6033546001600160a01b039081169116146115a4576040805162461bcd60e51b81526020600482018190526024820152600080516020611a47833981519152604482015290519081900360640190fd5b60375481106115e45760405162461bcd60e51b81526004018080602001828103825260558152602001806119176055913960600191505060405180910390fd5b603681905560405181907f948b1f6a42ee138b7e34058ba85a37f716d55ff25ff05a763f15bed6a04c8d2c90600090a250565b60386020526000908152604090205460ff1681565b611634611864565b6033546001600160a01b03908116911614611684576040805162461bcd60e51b81526020600482018190526024820152600080516020611a47833981519152604482015290519081900360640190fd5b60365481116116c45760405162461bcd60e51b815260040180806020018281038252603981526020018061186f6039913960400191505060405180910390fd5b603781905560405181907f85d1b5a7c3e5a760d339fd0c96173b84d1ccfc4fc4824c1b1b85f6526ee3f2f290600090a250565b6116ff611864565b6033546001600160a01b0390811691161461174f576040805162461bcd60e51b81526020600482018190526024820152600080516020611a47833981519152604482015290519081900360640190fd5b6001600160a01b0381166117945760405162461bcd60e51b815260040180806020018281038252602681526020018061196c6026913960400191505060405180910390fd5b6033546040516001600160a01b038084169216907f8be0079c531659141344cd1fd0a4f28419497f9722a3daafe3b4186f6b6457e090600090a3603380546001600160a01b0319166001600160a01b0392909216919091179055565b6034546001600160a01b031681565b4290565b60008282018381101561185d576040805162461bcd60e51b815260206004820152601b60248201527f536166654d6174683a206164646974696f6e206f766572666c6f770000000000604482015290519081900360640190fd5b9392505050565b3390565b303b159056fe54696d656c6f636b3a3a6772616365506572696f643a20477261636520706572696f64206d75737420626520677265617465722064656c617954696d656c6f636b3a3a657865637574655472616e73616374696f6e3a2043616c6c206d75737420636f6d652066726f6d2061646d696e2e54696d656c6f636b3a3a63616e63656c5472616e73616374696f6e3a2043616c6c206d75737420636f6d652066726f6d2061646d696e2e54696d656c6f636b3a3a73657444656c61793a2044656c6179206d757374206e6f74206265206772656174657220657175616c20746f207a65726f20616e64206c657373207468616e206772616365506572696f644f776e61626c653a206e6577206f776e657220697320746865207a65726f206164647265737354696d656c6f636b3a3a657865637574655472616e73616374696f6e3a205472616e73616374696f6e206973207374616c652e54696d656c6f636b3a3a657865637574655472616e73616374696f6e3a205472616e73616374696f6e206861736e2774207375727061737365642074696d65206c6f636b2e54696d656c6f636b3a3a657865637574655472616e73616374696f6e3a205472616e73616374696f6e206861736e2774206265656e207175657565642e4f776e61626c653a2063616c6c6572206973206e6f7420746865206f776e6572436f6e747261637420696e7374616e63652068617320616c7265616479206265656e20696e697469616c697a656454696d656c6f636b3a3a61636365707441646d696e3a2043616c6c206d75737420636f6d652066726f6d2070656e64696e6741646d696e2e54696d656c6f636b3a3a71756575655472616e73616374696f6e3a2043616c6c206d75737420636f6d652066726f6d2061646d696e2e54696d656c6f636b3a3a657865637574655472616e73616374696f6e3a205472616e73616374696f6e20657865637574696f6e2072657665727465642e54696d656c6f636b3a3a71756575655472616e73616374696f6e3a20457374696d6174656420657865637574696f6e20626c6f636b206d75737420736174697366792064656c61792ea2646970667358221220c4d141eaad3bdb11fe77c905376f9b78862b9a9070248befddd7c2b494ca036b64736f6c63430006060033",
  "linkReferences": {},
  "deployedLinkReferences": {}
}