{
  "_format": "hh-sol-artifact-1",
  "contractName": "RandomizedCounter",
  "sourceName": "contracts/Randomized-Threshold-Counter/RandomizedCounter.sol",
  "abi": [
    {
      "anonymous": false,
      "inputs": [
        {
          "indexed": false,
          "internalType": "uint256",
          "name": "claimAmountRevoked_",
          "type": "uint256"
        }
      ],
      "name": "LogClaimRevoked",
      "type": "event"
    },
    {
      "anonymous": false,
      "inputs": [
        {
          "indexed": false,
          "internalType": "uint256",
          "name": "timestamp",
          "type": "uint256"
        }
      ],
      "name": "LogEmergencyWithdraw",
      "type": "event"
    },
    {
      "anonymous": false,
      "inputs": [
        {
          "indexed": false,
          "internalType": "uint256",
          "name": "lastRandomThreshold_",
          "type": "uint256"
        }
      ],
      "name": "LogLastRandomThreshold",
      "type": "event"
    },
    {
      "anonymous": false,
      "inputs": [
        {
          "indexed": false,
          "internalType": "uint256",
          "name": "startedAt",
          "type": "uint256"
        }
      ],
      "name": "LogManualPoolStarted",
      "type": "event"
    },
    {
      "anonymous": false,
      "inputs": [
        {
          "indexed": false,
          "internalType": "uint256",
          "name": "randomNumber",
          "type": "uint256"
        }
      ],
      "name": "LogRandomThresold",
      "type": "event"
    },
    {
      "anonymous": false,
      "inputs": [
        {
          "indexed": false,
          "internalType": "uint256",
          "name": "revokeRewardDuration_",
          "type": "uint256"
        }
      ],
      "name": "LogRevokeRewardDuration",
      "type": "event"
    },
    {
      "anonymous": false,
      "inputs": [
        {
          "indexed": false,
          "internalType": "uint256",
          "name": "reward",
          "type": "uint256"
        }
      ],
      "name": "LogRewardAdded",
      "type": "event"
    },
    {
      "anonymous": false,
      "inputs": [
        {
          "indexed": true,
          "internalType": "address",
          "name": "user",
          "type": "address"
        },
        {
          "indexed": false,
          "internalType": "uint256",
          "name": "reward",
          "type": "uint256"
        }
      ],
      "name": "LogRewardPaid",
      "type": "event"
    },
    {
      "anonymous": false,
      "inputs": [
        {
          "indexed": false,
          "internalType": "uint256",
          "name": "revokeDuratoin",
          "type": "uint256"
        },
        {
          "indexed": false,
          "internalType": "uint256",
          "name": "precentageRevoked",
          "type": "uint256"
        },
        {
          "indexed": false,
          "internalType": "uint256",
          "name": "amountRevoked",
          "type": "uint256"
        }
      ],
      "name": "LogRewardRevoked",
      "type": "event"
    },
    {
      "anonymous": false,
      "inputs": [
        {
          "indexed": false,
          "internalType": "uint256",
          "name": "rewardAmount_",
          "type": "uint256"
        }
      ],
      "name": "LogRewardsClaimed",
      "type": "event"
    },
    {
      "anonymous": false,
      "inputs": [
        {
          "indexed": false,
          "internalType": "bool",
          "name": "beforePeriodFinish_",
          "type": "bool"
        }
      ],
      "name": "LogSetBeforePeriodFinish",
      "type": "event"
    },
    {
      "anonymous": false,
      "inputs": [
        {
          "indexed": false,
          "internalType": "uint256",
          "name": "blockDuration_",
          "type": "uint256"
        }
      ],
      "name": "LogSetBlockDuration",
      "type": "event"
    },
    {
      "anonymous": false,
      "inputs": [
        {
          "indexed": false,
          "internalType": "bool",
          "name": "countInSequence_",
          "type": "bool"
        }
      ],
      "name": "LogSetCountInSequence",
      "type": "event"
    },
    {
      "anonymous": false,
      "inputs": [
        {
          "indexed": false,
          "internalType": "uint256",
          "name": "countThreshold_",
          "type": "uint256"
        }
      ],
      "name": "LogSetCountThreshold",
      "type": "event"
    },
    {
      "anonymous": false,
      "inputs": [
        {
          "indexed": false,
          "internalType": "bool",
          "name": "enablePoolLpLimit_",
          "type": "bool"
        }
      ],
      "name": "LogSetEnablePoolLpLimit",
      "type": "event"
    },
    {
      "anonymous": false,
      "inputs": [
        {
          "indexed": false,
          "internalType": "bool",
          "name": "enableUserLpLimit_",
          "type": "bool"
        }
      ],
      "name": "LogSetEnableUserLpLimit",
      "type": "event"
    },
    {
      "anonymous": false,
      "inputs": [
        {
          "indexed": false,
          "internalType": "uint256",
          "name": "noramlDistributionMean_",
          "type": "uint256"
        },
        {
          "indexed": false,
          "internalType": "uint256",
          "name": "normalDistributionDeviation_",
          "type": "uint256"
        },
        {
          "indexed": false,
          "internalType": "uint256[100]",
          "name": "normalDistribution_",
          "type": "uint256[100]"
        }
      ],
      "name": "LogSetNormalDistribution",
      "type": "event"
    },
    {
      "anonymous": false,
      "inputs": [
        {
          "indexed": false,
          "internalType": "bool",
          "name": "poolEnabled_",
          "type": "bool"
        }
      ],
      "name": "LogSetPoolEnabled",
      "type": "event"
    },
    {
      "anonymous": false,
      "inputs": [
        {
          "indexed": false,
          "internalType": "uint256",
          "name": "poolLpLimit_",
          "type": "uint256"
        }
      ],
      "name": "LogSetPoolLpLimit",
      "type": "event"
    },
    {
      "anonymous": false,
      "inputs": [
        {
          "indexed": false,
          "internalType": "contract IRandomNumberConsumer",
          "name": "randomNumberConsumer_",
          "type": "address"
        }
      ],
      "name": "LogSetRandomNumberConsumer",
      "type": "event"
    },
    {
      "anonymous": false,
      "inputs": [
        {
          "indexed": false,
          "internalType": "bool",
          "name": "revokeReward_",
          "type": "bool"
        }
      ],
      "name": "LogSetRevokeReward",
      "type": "event"
    },
    {
      "anonymous": false,
      "inputs": [
        {
          "indexed": false,
          "internalType": "uint256",
          "name": "revokeRewardPrecentage_",
          "type": "uint256"
        }
      ],
      "name": "LogSetRevokeRewardPrecentage",
      "type": "event"
    },
    {
      "anonymous": false,
      "inputs": [
        {
          "indexed": false,
          "internalType": "uint256",
          "name": "rewardPercentage_",
          "type": "uint256"
        }
      ],
      "name": "LogSetRewardPercentage",
      "type": "event"
    },
    {
      "anonymous": false,
      "inputs": [
        {
          "indexed": false,
          "internalType": "uint256",
          "name": "userLpLimit_",
          "type": "uint256"
        }
      ],
      "name": "LogSetUserLpLimit",
      "type": "event"
    },
    {
      "anonymous": false,
      "inputs": [
        {
          "indexed": true,
          "internalType": "address",
          "name": "user",
          "type": "address"
        },
        {
          "indexed": false,
          "internalType": "uint256",
          "name": "amount",
          "type": "uint256"
        }
      ],
      "name": "LogStaked",
      "type": "event"
    },
    {
      "anonymous": false,
      "inputs": [
        {
          "indexed": false,
          "internalType": "uint256",
          "name": "poolShareAdded_",
          "type": "uint256"
        },
        {
          "indexed": false,
          "internalType": "uint256",
          "name": "rewardRate_",
          "type": "uint256"
        },
        {
          "indexed": false,
          "internalType": "uint256",
          "name": "periodFinish_",
          "type": "uint256"
        },
        {
          "indexed": false,
          "internalType": "uint256",
          "name": "count_",
          "type": "uint256"
        }
      ],
      "name": "LogStartNewDistributionCycle",
      "type": "event"
    },
    {
      "anonymous": false,
      "inputs": [
        {
          "indexed": true,
          "internalType": "address",
          "name": "user",
          "type": "address"
        },
        {
          "indexed": false,
          "internalType": "uint256",
          "name": "amount",
          "type": "uint256"
        }
      ],
      "name": "LogWithdrawn",
      "type": "event"
    },
    {
      "anonymous": false,
      "inputs": [
        {
          "indexed": true,
          "internalType": "address",
          "name": "previousOwner",
          "type": "address"
        },
        {
          "indexed": true,
          "internalType": "address",
          "name": "newOwner",
          "type": "address"
        }
      ],
      "name": "OwnershipTransferred",
      "type": "event"
    },
    {
      "inputs": [
        {
          "internalType": "address",
          "name": "account",
          "type": "address"
        }
      ],
      "name": "balanceOf",
      "outputs": [
        {
          "internalType": "uint256",
          "name": "",
          "type": "uint256"
        }
      ],
      "stateMutability": "view",
      "type": "function"
    },
    {
      "inputs": [],
      "name": "beforePeriodFinish",
      "outputs": [
        {
          "internalType": "bool",
          "name": "",
          "type": "bool"
        }
      ],
      "stateMutability": "view",
      "type": "function"
    },
    {
      "inputs": [],
      "name": "blockDuration",
      "outputs": [
        {
          "internalType": "uint256",
          "name": "",
          "type": "uint256"
        }
      ],
      "stateMutability": "view",
      "type": "function"
    },
    {
      "inputs": [
        {
          "internalType": "int256",
          "name": "supplyDelta_",
          "type": "int256"
        },
        {
          "internalType": "int256",
          "name": "rebaseLag_",
          "type": "int256"
        },
        {
          "internalType": "uint256",
          "name": "exchangeRate_",
          "type": "uint256"
        },
        {
          "internalType": "uint256",
          "name": "debasePolicyBalance",
          "type": "uint256"
        }
      ],
      "name": "checkStabilizerAndGetReward",
      "outputs": [
        {
          "internalType": "uint256",
          "name": "rewardAmount_",
          "type": "uint256"
        }
      ],
      "stateMutability": "nonpayable",
      "type": "function"
    },
    {
      "inputs": [
        {
          "internalType": "uint256",
          "name": "randomNumber",
          "type": "uint256"
        }
      ],
      "name": "claimer",
      "outputs": [],
      "stateMutability": "nonpayable",
      "type": "function"
    },
    {
      "inputs": [],
      "name": "count",
      "outputs": [
        {
          "internalType": "uint256",
          "name": "",
          "type": "uint256"
        }
      ],
      "stateMutability": "view",
      "type": "function"
    },
    {
      "inputs": [],
      "name": "countInSequence",
      "outputs": [
        {
          "internalType": "bool",
          "name": "",
          "type": "bool"
        }
      ],
      "stateMutability": "view",
      "type": "function"
    },
    {
      "inputs": [],
      "name": "debase",
      "outputs": [
        {
          "internalType": "contract IERC20",
          "name": "",
          "type": "address"
        }
      ],
      "stateMutability": "view",
      "type": "function"
    },
    {
      "inputs": [
        {
          "internalType": "address",
          "name": "account",
          "type": "address"
        }
      ],
      "name": "earned",
      "outputs": [
        {
          "internalType": "uint256",
          "name": "",
          "type": "uint256"
        }
      ],
      "stateMutability": "view",
      "type": "function"
    },
    {
      "inputs": [],
      "name": "emergencyWithdraw",
      "outputs": [],
      "stateMutability": "nonpayable",
      "type": "function"
    },
    {
      "inputs": [],
      "name": "enablePoolLpLimit",
      "outputs": [
        {
          "internalType": "bool",
          "name": "",
          "type": "bool"
        }
      ],
      "stateMutability": "view",
      "type": "function"
    },
    {
      "inputs": [],
      "name": "enableUserLpLimit",
      "outputs": [
        {
          "internalType": "bool",
          "name": "",
          "type": "bool"
        }
      ],
      "stateMutability": "view",
      "type": "function"
    },
    {
      "inputs": [],
      "name": "exit",
      "outputs": [],
      "stateMutability": "nonpayable",
      "type": "function"
    },
    {
      "inputs": [],
      "name": "getReward",
      "outputs": [],
      "stateMutability": "nonpayable",
      "type": "function"
    },
    {
      "inputs": [
        {
          "internalType": "address",
          "name": "debase_",
          "type": "address"
        },
        {
          "internalType": "address",
          "name": "pairToken_",
          "type": "address"
        },
        {
          "internalType": "address",
          "name": "policy_",
          "type": "address"
        },
        {
          "internalType": "address",
          "name": "randomNumberConsumer_",
          "type": "address"
        },
        {
          "internalType": "address",
          "name": "link_",
          "type": "address"
        },
        {
          "internalType": "uint256",
          "name": "rewardPercentage_",
          "type": "uint256"
        },
        {
          "internalType": "uint256",
          "name": "blockDuration_",
          "type": "uint256"
        },
        {
          "internalType": "bool",
          "name": "enableUserLpLimit_",
          "type": "bool"
        },
        {
          "internalType": "uint256",
          "name": "userLpLimit_",
          "type": "uint256"
        },
        {
          "internalType": "bool",
          "name": "enablePoolLpLimit_",
          "type": "bool"
        },
        {
          "internalType": "uint256",
          "name": "poolLpLimit_",
          "type": "uint256"
        },
        {
          "internalType": "uint256",
          "name": "revokeRewardDuration_",
          "type": "uint256"
        },
        {
          "internalType": "uint256",
          "name": "normalDistributionMean_",
          "type": "uint256"
        },
        {
          "internalType": "uint256",
          "name": "normalDistributionDeviation_",
          "type": "uint256"
        },
        {
          "internalType": "uint256[100]",
          "name": "normalDistribution_",
          "type": "uint256[100]"
        }
      ],
      "name": "initialize",
      "outputs": [],
      "stateMutability": "nonpayable",
      "type": "function"
    },
    {
      "inputs": [],
      "name": "lastRewardPercentage",
      "outputs": [
        {
          "internalType": "uint256",
          "name": "",
          "type": "uint256"
        }
      ],
      "stateMutability": "view",
      "type": "function"
    },
    {
      "inputs": [],
      "name": "lastUpdateBlock",
      "outputs": [
        {
          "internalType": "uint256",
          "name": "",
          "type": "uint256"
        }
      ],
      "stateMutability": "view",
      "type": "function"
    },
    {
      "inputs": [],
      "name": "link",
      "outputs": [
        {
          "internalType": "contract IERC20",
          "name": "",
          "type": "address"
        }
      ],
      "stateMutability": "view",
      "type": "function"
    },
    {
      "inputs": [],
      "name": "newBufferFunds",
      "outputs": [
        {
          "internalType": "bool",
          "name": "",
          "type": "bool"
        }
      ],
      "stateMutability": "view",
      "type": "function"
    },
    {
      "inputs": [
        {
          "internalType": "uint256",
          "name": "",
          "type": "uint256"
        }
      ],
      "name": "normalDistribution",
      "outputs": [
        {
          "internalType": "uint256",
          "name": "",
          "type": "uint256"
        }
      ],
      "stateMutability": "view",
      "type": "function"
    },
    {
      "inputs": [],
      "name": "normalDistributionDeviation",
      "outputs": [
        {
          "internalType": "uint256",
          "name": "",
          "type": "uint256"
        }
      ],
      "stateMutability": "view",
      "type": "function"
    },
    {
      "inputs": [],
      "name": "normalDistributionMean",
      "outputs": [
        {
          "internalType": "uint256",
          "name": "",
          "type": "uint256"
        }
      ],
      "stateMutability": "view",
      "type": "function"
    },
    {
      "inputs": [],
      "name": "owner",
      "outputs": [
        {
          "internalType": "address",
          "name": "",
          "type": "address"
        }
      ],
      "stateMutability": "view",
      "type": "function"
    },
    {
      "inputs": [],
      "name": "periodFinish",
      "outputs": [
        {
          "internalType": "uint256",
          "name": "",
          "type": "uint256"
        }
      ],
      "stateMutability": "view",
      "type": "function"
    },
    {
      "inputs": [],
      "name": "policy",
      "outputs": [
        {
          "internalType": "address",
          "name": "",
          "type": "address"
        }
      ],
      "stateMutability": "view",
      "type": "function"
    },
    {
      "inputs": [],
      "name": "poolEnabled",
      "outputs": [
        {
          "internalType": "bool",
          "name": "",
          "type": "bool"
        }
      ],
      "stateMutability": "view",
      "type": "function"
    },
    {
      "inputs": [],
      "name": "poolLpLimit",
      "outputs": [
        {
          "internalType": "uint256",
          "name": "",
          "type": "uint256"
        }
      ],
      "stateMutability": "view",
      "type": "function"
    },
    {
      "inputs": [],
      "name": "randomNumberConsumer",
      "outputs": [
        {
          "internalType": "contract IRandomNumberConsumer",
          "name": "",
          "type": "address"
        }
      ],
      "stateMutability": "view",
      "type": "function"
    },
    {
      "inputs": [],
      "name": "renounceOwnership",
      "outputs": [],
      "stateMutability": "nonpayable",
      "type": "function"
    },
    {
      "inputs": [],
      "name": "revokeReward",
      "outputs": [
        {
          "internalType": "bool",
          "name": "",
          "type": "bool"
        }
      ],
      "stateMutability": "view",
      "type": "function"
    },
    {
      "inputs": [],
      "name": "revokeRewardDuration",
      "outputs": [
        {
          "internalType": "uint256",
          "name": "",
          "type": "uint256"
        }
      ],
      "stateMutability": "view",
      "type": "function"
    },
    {
      "inputs": [],
      "name": "rewardDistributed",
      "outputs": [
        {
          "internalType": "uint256",
          "name": "",
          "type": "uint256"
        }
      ],
      "stateMutability": "view",
      "type": "function"
    },
    {
      "inputs": [],
      "name": "rewardPerToken",
      "outputs": [
        {
          "internalType": "uint256",
          "name": "",
          "type": "uint256"
        }
      ],
      "stateMutability": "view",
      "type": "function"
    },
    {
      "inputs": [],
      "name": "rewardPerTokenStored",
      "outputs": [
        {
          "internalType": "uint256",
          "name": "",
          "type": "uint256"
        }
      ],
      "stateMutability": "view",
      "type": "function"
    },
    {
      "inputs": [],
      "name": "rewardPercentage",
      "outputs": [
        {
          "internalType": "uint256",
          "name": "",
          "type": "uint256"
        }
      ],
      "stateMutability": "view",
      "type": "function"
    },
    {
      "inputs": [],
      "name": "rewardRate",
      "outputs": [
        {
          "internalType": "uint256",
          "name": "",
          "type": "uint256"
        }
      ],
      "stateMutability": "view",
      "type": "function"
    },
    {
      "inputs": [
        {
          "internalType": "address",
          "name": "",
          "type": "address"
        }
      ],
      "name": "rewards",
      "outputs": [
        {
          "internalType": "uint256",
          "name": "",
          "type": "uint256"
        }
      ],
      "stateMutability": "view",
      "type": "function"
    },
    {
      "inputs": [
        {
          "internalType": "bool",
          "name": "beforePeriodFinish_",
          "type": "bool"
        }
      ],
      "name": "setBeforePeriodFinish",
      "outputs": [],
      "stateMutability": "nonpayable",
      "type": "function"
    },
    {
      "inputs": [
        {
          "internalType": "uint256",
          "name": "blockDuration_",
          "type": "uint256"
        }
      ],
      "name": "setBlockDuration",
      "outputs": [],
      "stateMutability": "nonpayable",
      "type": "function"
    },
    {
      "inputs": [
        {
          "internalType": "bool",
          "name": "countInSequence_",
          "type": "bool"
        }
      ],
      "name": "setCountInSequence",
      "outputs": [],
      "stateMutability": "nonpayable",
      "type": "function"
    },
    {
      "inputs": [
        {
          "internalType": "bool",
          "name": "enablePoolLpLimit_",
          "type": "bool"
        }
      ],
      "name": "setEnablePoolLpLimit",
      "outputs": [],
      "stateMutability": "nonpayable",
      "type": "function"
    },
    {
      "inputs": [
        {
          "internalType": "bool",
          "name": "enableUserLpLimit_",
          "type": "bool"
        }
      ],
      "name": "setEnableUserLpLimit",
      "outputs": [],
      "stateMutability": "nonpayable",
      "type": "function"
    },
    {
      "inputs": [
        {
          "internalType": "uint256",
          "name": "normalDistributionMean_",
          "type": "uint256"
        },
        {
          "internalType": "uint256",
          "name": "normalDistributionDeviation_",
          "type": "uint256"
        },
        {
          "internalType": "uint256[100]",
          "name": "normalDistribution_",
          "type": "uint256[100]"
        }
      ],
      "name": "setNormalDistribution",
      "outputs": [],
      "stateMutability": "nonpayable",
      "type": "function"
    },
    {
      "inputs": [
        {
          "internalType": "bool",
          "name": "poolEnabled_",
          "type": "bool"
        }
      ],
      "name": "setPoolEnabled",
      "outputs": [],
      "stateMutability": "nonpayable",
      "type": "function"
    },
    {
      "inputs": [
        {
          "internalType": "uint256",
          "name": "poolLpLimit_",
          "type": "uint256"
        }
      ],
      "name": "setPoolLpLimit",
      "outputs": [],
      "stateMutability": "nonpayable",
      "type": "function"
    },
    {
      "inputs": [
        {
          "internalType": "contract IRandomNumberConsumer",
          "name": "randomNumberConsumer_",
          "type": "address"
        }
      ],
      "name": "setRandomNumberConsumer",
      "outputs": [],
      "stateMutability": "nonpayable",
      "type": "function"
    },
    {
      "inputs": [
        {
          "internalType": "bool",
          "name": "revokeReward_",
          "type": "bool"
        }
      ],
      "name": "setRevokeReward",
      "outputs": [],
      "stateMutability": "nonpayable",
      "type": "function"
    },
    {
      "inputs": [
        {
          "internalType": "uint256",
          "name": "revokeRewardDuration_",
          "type": "uint256"
        }
      ],
      "name": "setRevokeRewardDuration",
      "outputs": [],
      "stateMutability": "nonpayable",
      "type": "function"
    },
    {
      "inputs": [
        {
          "internalType": "uint256",
          "name": "rewardPercentage_",
          "type": "uint256"
        }
      ],
      "name": "setRewardPercentage",
      "outputs": [],
      "stateMutability": "nonpayable",
      "type": "function"
    },
    {
      "inputs": [
        {
          "internalType": "uint256",
          "name": "userLpLimit_",
          "type": "uint256"
        }
      ],
      "name": "setUserLpLimit",
      "outputs": [],
      "stateMutability": "nonpayable",
      "type": "function"
    },
    {
      "inputs": [
        {
          "internalType": "uint256",
          "name": "amount",
          "type": "uint256"
        }
      ],
      "name": "stake",
      "outputs": [],
      "stateMutability": "nonpayable",
      "type": "function"
    },
    {
      "inputs": [],
      "name": "totalSupply",
      "outputs": [
        {
          "internalType": "uint256",
          "name": "",
          "type": "uint256"
        }
      ],
      "stateMutability": "view",
      "type": "function"
    },
    {
      "inputs": [
        {
          "internalType": "address",
          "name": "newOwner",
          "type": "address"
        }
      ],
      "name": "transferOwnership",
      "outputs": [],
      "stateMutability": "nonpayable",
      "type": "function"
    },
    {
      "inputs": [],
      "name": "userLpLimit",
      "outputs": [
        {
          "internalType": "uint256",
          "name": "",
          "type": "uint256"
        }
      ],
      "stateMutability": "view",
      "type": "function"
    },
    {
      "inputs": [
        {
          "internalType": "address",
          "name": "",
          "type": "address"
        }
      ],
      "name": "userRewardPerTokenPaid",
      "outputs": [
        {
          "internalType": "uint256",
          "name": "",
          "type": "uint256"
        }
      ],
      "stateMutability": "view",
      "type": "function"
    },
    {
      "inputs": [
        {
          "internalType": "uint256",
          "name": "amount",
          "type": "uint256"
        }
      ],
      "name": "withdraw",
      "outputs": [],
      "stateMutability": "nonpayable",
      "type": "function"
    },
    {
      "inputs": [],
      "name": "y",
      "outputs": [
        {
          "internalType": "contract IERC20",
          "name": "",
          "type": "address"
        }
      ],
      "stateMutability": "view",
      "type": "function"
    }
  ],
  "bytecode": "0x608060405260006100176001600160e01b0361006b16565b600080546001600160a01b0319166001600160a01b0383169081178255604051929350917f8be0079c531659141344cd1fd0a4f28419497f9722a3daafe3b4186f6b6457e0908290a350600160365561006f565b3390565b6130b48061007e6000396000f3fe608060405234801561001057600080fd5b50600436106103825760003560e01c80637c2032e7116101de578063b43313ea1161010f578063dcb76686116100ad578063e9483ac01161007c578063e9483ac014610852578063e9fad8ee1461085a578063ebe2b12b14610862578063f2fde38b1461086a57610382565b8063dcb7668614610804578063dd37f2171461080c578063dd54682d1461082b578063df136d651461084a57610382565b8063be46aec6116100e9578063be46aec6146107e4578063c0c1c9f2146107ec578063cd3daf9d146107f4578063db2e21bc146107fc57610382565b8063b43313ea146107b7578063b55baee3146107bf578063bcb31edc146107c757610382565b80639609930d1161017c578063a56dfe4a11610156578063a56dfe4a14610761578063a694fc3a14610769578063ad5eb04c14610786578063ae9a94fe1461078e57610382565b80639609930d146107145780639cd65f9714610733578063a218141b1461075957610382565b80638b876347116101b85780638b876347146106aa5780638da5cb5b146106d05780639161cb88146106d857806392104669146106f557610382565b80637c2032e71461065657806381ee77c3146106735780638798a9d21461067b57610382565b8063442cc331116102b85780635d649ea911610256578063715018a611610230578063715018a61461062157806375302c3914610629578063769149cb146106315780637b0a47ee1461064e57610382565b80635d649ea9146105eb5780636422380a146105f357806370a08231146105fb57610382565b8063529f35e911610292578063529f35e91461059f57806352d472eb146105be578063560354ab146105c65780635817cd5a146105e357610382565b8063442cc3311461055e57806346df22da1461057a578063508a85711461058257610382565b80631c4695f411610325578063273ca510116102ff578063273ca510146105125780632e1a7d4d1461051a57806335a4dfd9146105375780633d18b9121461055657610382565b80631c4695f4146104fa5780631fb8784b14610502578063201e908e1461050a57610382565b80630700037d116103615780630700037d146103eb57806309653674146104115780630ce6ca731461043057806318160ddd146104f257610382565b80628cc262146103875780630505c8c9146103bf57806306661abd146103e3575b600080fd5b6103ad6004803603602081101561039d57600080fd5b50356001600160a01b0316610890565b60408051918252519081900360200190f35b6103c7610916565b604080516001600160a01b039092168252519081900360200190f35b6103ad610925565b6103ad6004803603602081101561040157600080fd5b50356001600160a01b031661092b565b61042e6004803603602081101561042757600080fd5b503561093d565b005b61042e6004803603610e4081101561044757600080fd5b60408051610c8081810183526001600160a01b038535811695602081013582169594810135821694606082013583169460808301359093169360a08301359360c08401359360e0810135151593610100820135936101208301351515936101408401359361016081013593610180820135936101a0830135939183019291610e408301916101c084019060649083908390808284376000920191909152509194506109d09350505050565b6103ad610bd3565b6103c7610bda565b6103ad610be9565b6103ad610bef565b6103ad610bf5565b61042e6004803603602081101561053057600080fd5b5035610bfb565b61042e6004803603602081101561054d57600080fd5b50351515610d44565b61042e610de8565b61056661101c565b604080519115158252519081900360200190f35b6103c761102a565b61042e6004803603602081101561059857600080fd5b503561103f565b61042e600480360360208110156105b557600080fd5b50351515611113565b6103ad6111ce565b61042e600480360360208110156105dc57600080fd5b50356111d4565b610566611267565b610566611270565b6103c7611279565b6103ad6004803603602081101561061157600080fd5b50356001600160a01b0316611288565b61042e6112a3565b610566611345565b6103ad6004803603602081101561064757600080fd5b503561134e565b6103ad611362565b61042e6004803603602081101561066c57600080fd5b5035611368565b6103ad6114f6565b6103ad6004803603608081101561069157600080fd5b50803590602081013590604081013590606001356114fc565b6103ad600480360360208110156106c057600080fd5b50356001600160a01b0316611abe565b6103c7611ad0565b61042e600480360360208110156106ee57600080fd5b5035611adf565b61042e6004803603602081101561070b57600080fd5b50351515611bb3565b61042e6004803603602081101561072a57600080fd5b50351515611c5b565b61042e6004803603602081101561074957600080fd5b50356001600160a01b0316611cff565b6103ad611dbd565b6103c7611dc3565b61042e6004803603602081101561077f57600080fd5b5035611dd2565b6105666120c7565b61042e6004803603610cc08110156107a557600080fd5b508035906020810135906040016120d7565b6103ad6121b8565b6103ad6121be565b61042e600480360360208110156107dd57600080fd5b50356121c4565b610566612267565b610566612277565b6103ad612280565b61042e6122d9565b6103ad6123fe565b61042e6004803603602081101561082257600080fd5b50351515612404565b61042e6004803603602081101561084157600080fd5b503515156124ba565b6103ad61255c565b6103ad612562565b61042e612568565b6103ad612583565b61042e6004803603602081101561088057600080fd5b50356001600160a01b0316612589565b6001600160a01b038116600090815260b1602090815260408083205460b0909252822054610910919061090490670de0b6b3a7640000906108f8906108e3906108d7612280565b9063ffffffff61268116565b6108ec88611288565b9063ffffffff6126ca16565b9063ffffffff61272316565b9063ffffffff61276516565b92915050565b6038546001600160a01b031681565b60475481565b60b16020526000908152604090205481565b6109456127bf565b6000546001600160a01b03908116911614610995576040805162461bcd60e51b81526020600482018190526024820152600080516020612fb0833981519152604482015290519081900360640190fd5b603d8190556040805182815290517fca5f448edeb07809efa2b7e5d18e0a32311dcf2cace215033ceee706a6ee00239181900360200190a150565b600054600160a81b900460ff16806109eb57506109eb6127c3565b80610a005750600054600160a01b900460ff16155b610a3b5760405162461bcd60e51b815260040180806020018281038252602e815260200180612fd0602e913960400191505060405180910390fd5b600054600160a81b900460ff16158015610a72576000805460ff60a01b1960ff60a81b19909116600160a81b1716600160a01b1790555b610a7b8f6127c9565b8f603760006101000a8154816001600160a01b0302191690836001600160a01b031602179055508b604960006101000a8154816001600160a01b0302191690836001600160a01b031602179055508c604860026101000a8154816001600160a01b0302191690836001600160a01b031602179055508d603860006101000a8154816001600160a01b0302191690836001600160a01b03160217905550600060478190555089603f8190555088604060006101000a81548160ff0219169083151502179055508760418190555086604260006101000a81548160ff021916908315150217905550856043819055508a603d81905550846044819055506001604860006101000a81548160ff02191690831515021790555081604c906064610ba2929190612eb9565b50604a849055604b8390558015610bc1576000805460ff60a81b191690555b50505050505050505050505050505050565b6034545b90565b6049546001600160a01b031681565b60445481565b603f5481565b60435481565b60026036541415610c53576040805162461bcd60e51b815260206004820152601f60248201527f5265656e7472616e637947756172643a207265656e7472616e742063616c6c00604482015290519081900360640190fd5b600260365533610c61612280565b603c55610c6c6127eb565b603b556001600160a01b03811615610cb357610c8781610890565b6001600160a01b038216600090815260b16020908152604080832093909355603c5460b0909152919020555b60008211610cfc576040805162461bcd60e51b8152602060048201526011602482015270043616e6e6f74207769746864726177203607c1b604482015290519081900360640190fd5b610d05826127f9565b60408051838152905133917fe0535c2eb3e1755a11a8ee1dba6e7b72ea1487e87be0d02fca7c1038eaacbd5c919081900360200190a250506001603655565b610d4c6127bf565b6000546001600160a01b03908116911614610d9c576040805162461bcd60e51b81526020600482018190526024820152600080516020612fb0833981519152604482015290519081900360640190fd5b6042805460ff191682151517908190556040805160ff90921615158252517f14094d8417a433fdc1c983b6b5e17736796f4b29ea67842f51940ee5c1831efc916020908290030190a150565b60026036541415610e40576040805162461bcd60e51b815260206004820152601f60248201527f5265656e7472616e637947756172643a207265656e7472616e742063616c6c00604482015290519081900360640190fd5b600260365533610e4e612280565b603c55610e596127eb565b603b556001600160a01b03811615610ea057610e7481610890565b6001600160a01b038216600090815260b16020908152604080832093909355603c5460b0909152919020555b603854600160a01b900460ff16610ef3576040805162461bcd60e51b8152602060048201526012602482015271141bdbdb081a5cdb89dd08195b98589b195960721b604482015290519081900360640190fd5b6000610efe33610890565b905080156110135733600090815260b16020908152604080832083905560375481516318160ddd60e01b81529151610fa593670de0b6b3a7640000936108f89388936001600160a01b03909116926318160ddd9260048082019391829003018186803b158015610f6d57600080fd5b505afa158015610f81573d6000803e3d6000fd5b505050506040513d6020811015610f9757600080fd5b50519063ffffffff6126ca16565b603754909150610fc5906001600160a01b0316338363ffffffff61285e16565b60408051828152905133917f75a1ecbfe1abd9ef0713e9084387744bef3d38fc1f1fbcbada3abd09c802baee919081900360200190a2603e5461100e908363ffffffff61276516565b603e55505b50506001603655565b604854610100900460ff1681565b6048546201000090046001600160a01b031681565b6110476127bf565b6000546001600160a01b03908116911614611097576040805162461bcd60e51b81526020600482018190526024820152600080516020612fb0833981519152604482015290519081900360640190fd5b6041548110156110d85760405162461bcd60e51b815260040180806020018281038252602d815260200180613028602d913960400191505060405180910390fd5b60438190556040805182815290517fbbb033bebe27fdaf4d3f136969d59ea07defbf3be88e8daa8c333747f6cb6a449181900360200190a150565b61111b6127bf565b6000546001600160a01b0390811691161461116b576040805162461bcd60e51b81526020600482018190526024820152600080516020612fb0833981519152604482015290519081900360640190fd5b60388054821515600160a01b90810260ff60a01b1990921691909117918290556000604755604080519190920460ff161515815290517f0fc5960ebe0d769d367a5952c3d384663054acd195413084d4c5e3a71c4a7d859181900360200190a150565b603d5481565b6111dc6127bf565b6000546001600160a01b0390811691161461122c576040805162461bcd60e51b81526020600482018190526024820152600080516020612fb0833981519152604482015290519081900360640190fd5b60448190556040805182815290517fd16dba6f37311fae894eb27a37aea8c19c3b3024f6832c1a4d27e0bea3fa47569181900360200190a150565b60425460ff1681565b60455460ff1681565b6037546001600160a01b031681565b6001600160a01b031660009081526035602052604090205490565b6112ab6127bf565b6000546001600160a01b039081169116146112fb576040805162461bcd60e51b81526020600482018190526024820152600080516020612fb0833981519152604482015290519081900360640190fd5b600080546040516001600160a01b03909116907f8be0079c531659141344cd1fd0a4f28419497f9722a3daafe3b4186f6b6457e0908390a3600080546001600160a01b0319169055565b60405460ff1681565b604c816064811061135b57fe5b0154905081565b603a5481565b6048546201000090046001600160a01b031633146113b75760405162461bcd60e51b8152600401808060200182810382526029815260200180612f666029913960400191505060405180910390fd5b6048805461ff00191690556000604c6113d783606463ffffffff6128b516565b606481106113e157fe5b01546040805182815290519192507f8f7c13710bc2e58b02640e18873e9cb6c8b4aefdf38dc6e9616c63ddbe4d92eb919081900360200190a180604754106114355761142b6128f7565b60006047556114f2565b6000611497670de0b6b3a76400006108f8604654603760009054906101000a90046001600160a01b03166001600160a01b03166318160ddd6040518163ffffffff1660e01b815260040160206040518083038186803b158015610f6d57600080fd5b6038546037549192506114bd916001600160a01b0390811691168363ffffffff61285e16565b6040805182815290517fe7b1673165332a48801f9a6ff982390fcce303f97a6849f2c730863cc558fcc59181900360200190a1505b5050565b60415481565b6038546000906001600160a01b031633146115485760405162461bcd60e51b8152600401808060200182810382526029815260200180612f666029913960400191505060405180910390fd5b604854610100900460ff161561169f5760006115ba670de0b6b3a76400006108f8604654603760009054906101000a90046001600160a01b03166001600160a01b03166318160ddd6040518163ffffffff1660e01b815260040160206040518083038186803b158015610f6d57600080fd5b603754604080516370a0823160e01b8152306004820152905192935083926001600160a01b03909216916370a0823191602480820192602092909190829003018186803b15801561160a57600080fd5b505afa15801561161e573d6000803e3d6000fd5b505050506040513d602081101561163457600080fd5b5051106116925760385460375461165e916001600160a01b0391821691168363ffffffff61285e16565b6040805182815290517fc902dde1f6a9ed97cba3af732e19d293747ff92cfede186b3de3ac2847bf9d729181900360200190a15b506048805461ff00191690555b6000851315611965576047546116bc90600163ffffffff61276516565b604781905550604860029054906101000a90046001600160a01b03166001600160a01b031663ddca3f436040518163ffffffff1660e01b815260040160206040518083038186803b15801561171057600080fd5b505afa158015611724573d6000803e3d6000fd5b505050506040513d602081101561173a57600080fd5b5051604954604854604080516370a0823160e01b8152620100009092046001600160a01b03908116600484015290519216916370a0823191602480820192602092909190829003018186803b15801561179257600080fd5b505afa1580156117a6573d6000803e3d6000fd5b505050506040513d60208110156117bc57600080fd5b5051108015906117e15750604954600160a01b900460ff16806117e157506039544310155b15611960576000611809670de0b6b3a76400006108f8603d54866126ca90919063ffffffff16565b90506118a0603760009054906101000a90046001600160a01b03166001600160a01b03166318160ddd6040518163ffffffff1660e01b815260040160206040518083038186803b15801561185c57600080fd5b505afa158015611870573d6000803e3d6000fd5b505050506040513d602081101561188657600080fd5b50516108f883670de0b6b3a764000063ffffffff6126ca16565b60465580831061195e576048805461010061ff0019909116179081905560408051632cdc85e960e21b81524360048201529051620100009092046001600160a01b03169163b37217a49160248082019260009290919082900301818387803b15801561190b57600080fd5b505af115801561191f573d6000803e3d6000fd5b50506040805184815290517fc902dde1f6a9ed97cba3af732e19d293747ff92cfede186b3de3ac2847bf9d729350908190036020019150a19050611ab6565b505b611ab2565b60485460ff1615611ab257600060475560455460ff168015611988575060395443105b15611ab2576039546000906119a3904363ffffffff61268116565b90506044548110611ab0576044546039546119c39163ffffffff61268116565b603955604454603a546000916119df919063ffffffff6126ca16565b90506000611a41670de0b6b3a76400006108f884603760009054906101000a90046001600160a01b03166001600160a01b03166318160ddd6040518163ffffffff1660e01b815260040160206040518083038186803b158015610f6d57600080fd5b43603b55603854603754919250611a6b916001600160a01b0390811691168363ffffffff61285e16565b6044546040805191825260208201849052818101839052517f1694f62a505b0e4a55d580df64f7e62af07daee76a3e0beb8f9024eb71f0f6d89181900360600190a150505b505b5060005b949350505050565b60b06020526000908152604090205481565b6000546001600160a01b031690565b611ae76127bf565b6000546001600160a01b03908116911614611b37576040805162461bcd60e51b81526020600482018190526024820152600080516020612fb0833981519152604482015290519081900360640190fd5b604354811115611b785760405162461bcd60e51b815260040180806020018281038252602a815260200180612ffe602a913960400191505060405180910390fd5b60418190556040805182815290517fc7468f249cdc379fbbba5af00534396af85bfcd2124135df9f7c0dd728ff23d09181900360200190a150565b611bbb6127bf565b6000546001600160a01b03908116911614611c0b576040805162461bcd60e51b81526020600482018190526024820152600080516020612fb0833981519152604482015290519081900360640190fd5b6048805460ff1916821515179081905560006047556040805160ff909216158252517fc1816aba3152c207369171109b5a1297502e53af09a57dc7791d40ad416ceb84916020908290030190a150565b611c636127bf565b6000546001600160a01b03908116911614611cb3576040805162461bcd60e51b81526020600482018190526024820152600080516020612fb0833981519152604482015290519081900360640190fd5b6045805460ff191682151517908190556040805160ff90921615158252517fbd6aa27a186644eab4bee9ee35e77e0585bde57801732ae3500e882013ba2101916020908290030190a150565b611d076127bf565b6000546001600160a01b03908116911614611d57576040805162461bcd60e51b81526020600482018190526024820152600080516020612fb0833981519152604482015290519081900360640190fd5b604880546001600160a01b038084166201000090810262010000600160b01b03199093169290921792839055604080519290930416815290517f66bf1e9a1d478d6d27f5bd162c3ace8f2217b57cad10ae3faa70a9559992e8fa9181900360200190a150565b603b5481565b6033546001600160a01b031681565b60026036541415611e2a576040805162461bcd60e51b815260206004820152601f60248201527f5265656e7472616e637947756172643a207265656e7472616e742063616c6c00604482015290519081900360640190fd5b600260365533611e38612280565b603c55611e436127eb565b603b556001600160a01b03811615611e8a57611e5e81610890565b6001600160a01b038216600090815260b16020908152604080832093909355603c5460b0909152919020555b603854600160a01b900460ff16611edd576040805162461bcd60e51b8152602060048201526012602482015271141bdbdb081a5cdb89dd08195b98589b195960721b604482015290519081900360640190fd5b611ee633612a3f565b15611f38576040805162461bcd60e51b815260206004820152601d60248201527f43616c6c6572206d757374206e6f74206265206120636f6e7472616374000000604482015290519081900360640190fd5b60008211611f7e576040805162461bcd60e51b815260206004820152600e60248201526d043616e6e6f74207374616b6520360941b604482015290519081900360640190fd5b60425460ff1615611ffe576000611f93610bd3565b604354909150611fa9848363ffffffff61276516565b1115611ffc576040805162461bcd60e51b815260206004820181905260248201527f43616e74207374616b6520706f6f6c206c70206c696d69742072656163686564604482015290519081900360640190fd5b505b60405460ff161561207f57600061201433611288565b60415490915061202a828563ffffffff61276516565b111561207d576040805162461bcd60e51b815260206004820152601d60248201527f43616e74207374616b65206d6f7265207468616e206c70206c696d6974000000604482015290519081900360640190fd5b505b61208882612a45565b60408051838152905133917f56b2fb41a9acac73203c4c159f5cca6ff3bfa8f53e8cd40d6c682404b0adde3d919081900360200190a250506001603655565b604954600160a01b900460ff1681565b6120df6127bf565b6000546001600160a01b0390811691161461212f576040805162461bcd60e51b81526020600482018190526024820152600080516020612fb0833981519152604482015290519081900360640190fd5b604a839055604b829055612146604c826064612ef7565b507f2600ae90bc8482ac44efb4e6ac17d440665c195f6e0bba9ad16d1e1b5749b286604a54604b54604c6040518084815260200183815260200182606480156121a4576020028201915b815481526020019060010190808311612190575b5050935050505060405180910390a1505050565b60465481565b604b5481565b6121cc6127bf565b6000546001600160a01b0390811691161461221c576040805162461bcd60e51b81526020600482018190526024820152600080516020612fb0833981519152604482015290519081900360640190fd5b6001603f54101561222c57600080fd5b603f8190556040805182815290517f3785ba91aa39d946a094688c634e4b7b8a68e01e6f8617958324a109905765919181900360200190a150565b603854600160a01b900460ff1681565b60485460ff1681565b600061228a610bd3565b6122975750603c54610bd7565b6122d46122c56122a5610bd3565b6108f8670de0b6b3a76400006108ec603a546108ec603b546108d76127eb565b603c549063ffffffff61276516565b905090565b6122e16127bf565b6000546001600160a01b03908116911614612331576040805162461bcd60e51b81526020600482018190526024820152600080516020612fb0833981519152604482015290519081900360640190fd5b603854603754604080516370a0823160e01b815230600482015290516123c9936001600160a01b039081169316916370a08231916024808301926020929190829003018186803b15801561238457600080fd5b505afa158015612398573d6000803e3d6000fd5b505050506040513d60208110156123ae57600080fd5b50516037546001600160a01b0316919063ffffffff61285e16565b6040805143815290517fb950f0e041f52284e48472541258aa49498abf66dff930f928f143f2704105c09181900360200190a1565b604a5481565b61240c6127bf565b6000546001600160a01b0390811691161461245c576040805162461bcd60e51b81526020600482018190526024820152600080516020612fb0833981519152604482015290519081900360640190fd5b60498054821515600160a01b90810260ff60a01b199092169190911791829055604080519190920460ff161515815290517f7409667185e4202d42493086e621a8c103b5ccb64a55dcd22ae6a4f02ea568ac9181900360200190a150565b6124c26127bf565b6000546001600160a01b03908116911614612512576040805162461bcd60e51b81526020600482018190526024820152600080516020612fb0833981519152604482015290519081900360640190fd5b6040805460ff191682151517808255815160ff9091161515815290517f5f0e19a2afa327808daff87bc35dc945e6c93ba018fb74d3b725438f3d61f5f1916020908290030190a150565b603c5481565b603e5481565b61257961257433611288565b610bfb565b612581610de8565b565b60395481565b6125916127bf565b6000546001600160a01b039081169116146125e1576040805162461bcd60e51b81526020600482018190526024820152600080516020612fb0833981519152604482015290519081900360640190fd5b6001600160a01b0381166126265760405162461bcd60e51b8152600401808060200182810382526026815260200180612f406026913960400191505060405180910390fd5b600080546040516001600160a01b03808516939216917f8be0079c531659141344cd1fd0a4f28419497f9722a3daafe3b4186f6b6457e091a3600080546001600160a01b0319166001600160a01b0392909216919091179055565b60006126c383836040518060400160405280601e81526020017f536166654d6174683a207375627472616374696f6e206f766572666c6f770000815250612aa8565b9392505050565b6000826126d957506000610910565b828202828482816126e657fe5b04146126c35760405162461bcd60e51b8152600401808060200182810382526021815260200180612f8f6021913960400191505060405180910390fd5b60006126c383836040518060400160405280601a81526020017f536166654d6174683a206469766973696f6e206279207a65726f000000000000815250612b3f565b6000828201838110156126c3576040805162461bcd60e51b815260206004820152601b60248201527f536166654d6174683a206164646974696f6e206f766572666c6f770000000000604482015290519081900360640190fd5b3390565b303b1590565b603380546001600160a01b0319166001600160a01b0392909216919091179055565b60006122d443603954612ba4565b60345461280c908263ffffffff61268116565b6034553360009081526035602052604090205461282f908263ffffffff61268116565b3360008181526035602052604090209190915560335461285b916001600160a01b03909116908361285e565b50565b604080516001600160a01b038416602482015260448082018490528251808303909101815260649091019091526020810180516001600160e01b031663a9059cbb60e01b1790526128b0908490612bba565b505050565b60006126c383836040518060400160405280601881526020017f536166654d6174683a206d6f64756c6f206279207a65726f0000000000000000815250612c6b565b6000612901612280565b603c5561290c6127eb565b603b556001600160a01b038116156129535761292781610890565b6001600160a01b038216600090815260b16020908152604080832093909355603c5460b0909152919020555b603954431061297957603f546046546129719163ffffffff61272316565b603a556129cb565b60395460009061298f904363ffffffff61268116565b905060006129a8603a54836126ca90919063ffffffff16565b90506129c5603f546108f88360465461276590919063ffffffff16565b603a5550505b43603b819055603f546129e4919063ffffffff61276516565b6039819055604654603a5460475460408051938452602084019290925282820193909352606082019290925290517fce4b5af00c06253418c3848234c1b2598e1955d5b3f9e8e2d1de362f9124f7b39181900360800190a150565b3b151590565b603454612a58908263ffffffff61276516565b60345533600090815260356020526040902054612a7b908263ffffffff61276516565b3360008181526035602052604090209190915560335461285b916001600160a01b03909116903084612ccd565b60008184841115612b375760405162461bcd60e51b81526004018080602001828103825283818151815260200191508051906020019080838360005b83811015612afc578181015183820152602001612ae4565b50505050905090810190601f168015612b295780820380516001836020036101000a031916815260200191505b509250505060405180910390fd5b505050900390565b60008183612b8e5760405162461bcd60e51b8152602060048201818152835160248401528351909283926044909101919085019080838360008315612afc578181015183820152602001612ae4565b506000838581612b9a57fe5b0495945050505050565b6000818310612bb357816126c3565b5090919050565b6060612c0f826040518060400160405280602081526020017f5361666545524332303a206c6f772d6c6576656c2063616c6c206661696c6564815250856001600160a01b0316612d2d9092919063ffffffff16565b8051909150156128b057808060200190516020811015612c2e57600080fd5b50516128b05760405162461bcd60e51b815260040180806020018281038252602a815260200180613055602a913960400191505060405180910390fd5b60008183612cba5760405162461bcd60e51b8152602060048201818152835160248401528351909283926044909101919085019080838360008315612afc578181015183820152602001612ae4565b50828481612cc457fe5b06949350505050565b604080516001600160a01b0380861660248301528416604482015260648082018490528251808303909101815260849091019091526020810180516001600160e01b03166323b872dd60e01b179052612d27908590612bba565b50505050565b6060611ab6848460008585612d4185612a3f565b612d92576040805162461bcd60e51b815260206004820152601d60248201527f416464726573733a2063616c6c20746f206e6f6e2d636f6e7472616374000000604482015290519081900360640190fd5b60006060866001600160a01b031685876040518082805190602001908083835b60208310612dd15780518252601f199092019160209182019101612db2565b6001836020036101000a03801982511681845116808217855250505050505090500191505060006040518083038185875af1925050503d8060008114612e33576040519150601f19603f3d011682016040523d82523d6000602084013e612e38565b606091505b5091509150612e48828286612e53565b979650505050505050565b60608315612e625750816126c3565b825115612e725782518084602001fd5b60405162461bcd60e51b8152602060048201818152845160248401528451859391928392604401919085019080838360008315612afc578181015183820152602001612ae4565b8260648101928215612ee7579160200282015b82811115612ee7578251825591602001919060010190612ecc565b50612ef3929150612f25565b5090565b8260648101928215612ee7579160200282015b82811115612ee7578235825591602001919060010190612f0a565b610bd791905b80821115612ef35760008155600101612f2b56fe4f776e61626c653a206e6577206f776e657220697320746865207a65726f20616464726573734f6e6c792064656261736520706f6c69637920636f6e74726163742063616e2063616c6c2074686973536166654d6174683a206d756c7469706c69636174696f6e206f766572666c6f774f776e61626c653a2063616c6c6572206973206e6f7420746865206f776e6572436f6e747261637420696e7374616e63652068617320616c7265616479206265656e20696e697469616c697a656455736572206c70206c696d69742063616e74206265206d6f7265207468616e20706f6f6c206c696d6974506f6f6c206c70206c696d69742063616e74206265206c657373207468616e2075736572206c70206c696d69745361666545524332303a204552433230206f7065726174696f6e20646964206e6f742073756363656564a26469706673582212203964867a6e53fe8608da2aaca77f11eaa4848454d50ccf15f8c2f2039a0d091064736f6c63430006060033",
  "linkReferences": {},
  "deployedLinkReferences": {}
}