{
  "_format": "hh-sol-artifact-1",
  "contractName": "ExampleOracleSimple",
  "sourceName": "contracts/Debt-Issuance-Pool/Oracle.sol",
  "abi": [
    {
      "inputs": [
        {
          "internalType": "address",
          "name": "factory",
          "type": "address"
        },
        {
          "internalType": "address",
          "name": "tokenA",
          "type": "address"
        },
        {
          "internalType": "address",
          "name": "tokenB",
          "type": "address"
        }
      ],
      "stateMutability": "nonpayable",
      "type": "constructor"
    },
    {
      "inputs": [],
      "name": "blockTimestampLast",
      "outputs": [
        {
          "internalType": "uint32",
          "name": "",
          "type": "uint32"
        }
      ],
      "stateMutability": "view",
      "type": "function"
    },
    {
      "inputs": [],
      "name": "price0Average",
      "outputs": [
        {
          "internalType": "uint224",
          "name": "_x",
          "type": "uint224"
        }
      ],
      "stateMutability": "view",
      "type": "function"
    },
    {
      "inputs": [],
      "name": "price0CumulativeLast",
      "outputs": [
        {
          "internalType": "uint256",
          "name": "",
          "type": "uint256"
        }
      ],
      "stateMutability": "view",
      "type": "function"
    },
    {
      "inputs": [],
      "name": "price1Average",
      "outputs": [
        {
          "internalType": "uint224",
          "name": "_x",
          "type": "uint224"
        }
      ],
      "stateMutability": "view",
      "type": "function"
    },
    {
      "inputs": [],
      "name": "price1CumulativeLast",
      "outputs": [
        {
          "internalType": "uint256",
          "name": "",
          "type": "uint256"
        }
      ],
      "stateMutability": "view",
      "type": "function"
    },
    {
      "inputs": [],
      "name": "token0",
      "outputs": [
        {
          "internalType": "address",
          "name": "",
          "type": "address"
        }
      ],
      "stateMutability": "view",
      "type": "function"
    },
    {
      "inputs": [],
      "name": "token1",
      "outputs": [
        {
          "internalType": "address",
          "name": "",
          "type": "address"
        }
      ],
      "stateMutability": "view",
      "type": "function"
    }
  ],
  "bytecode": "0x60e060405234801561001057600080fd5b506040516109063803806109068339818101604052606081101561003357600080fd5b508051602080830151604090930151919291906000906100609085908590859061019b610364821b17901c565b9050806001600160a01b03166080816001600160a01b031660601b81525050806001600160a01b0316630dfe16816040518163ffffffff1660e01b815260040160206040518083038186803b1580156100b857600080fd5b505afa1580156100cc573d6000803e3d6000fd5b505050506040513d60208110156100e257600080fd5b505160601b6001600160601b03191660a0526040805163d21220a760e01b815290516001600160a01b0383169163d21220a7916004808301926020929190829003018186803b15801561013457600080fd5b505afa158015610148573d6000803e3d6000fd5b505050506040513d602081101561015e57600080fd5b505160601b6001600160601b03191660c05260408051635909c0d560e01b815290516001600160a01b03831691635909c0d5916004808301926020929190829003018186803b1580156101b057600080fd5b505afa1580156101c4573d6000803e3d6000fd5b505050506040513d60208110156101da57600080fd5b505160005560408051635a3d549360e01b815290516001600160a01b03831691635a3d5493916004808301926020929190829003018186803b15801561021f57600080fd5b505afa158015610233573d6000803e3d6000fd5b505050506040513d602081101561024957600080fd5b505160015560408051630240bc6b60e21b8152905160009182916001600160a01b03851691630902f1ac916004808301926060929190829003018186803b15801561029357600080fd5b505afa1580156102a7573d6000803e3d6000fd5b505050506040513d60608110156102bd57600080fd5b50805160208201516040909201516002805463ffffffff191663ffffffff909216919091179055925090506001600160701b0382161580159061030857506001600160701b03811615155b610359576040805162461bcd60e51b815260206004820181905260248201527f4578616d706c654f7261636c6553696d706c653a204e4f5f5245534552564553604482015290519081900360640190fd5b50505050505061051d565b6000808061037b85856001600160e01b0361043f16565b604080516001600160601b0319606094851b811660208084019190915293851b81166034830152825160288184030181526048830184528051908501207fff0000000000000000000000000000000000000000000000000000000000000060688401529a90941b9093166069840152607d8301989098527f96e8ac4277198ff8b6f785478aa9a39f403cb768dd02cbee326c3e7da348845f609d808401919091528851808403909101815260bd909201909752805196019590952095945050505050565b600080826001600160a01b0316846001600160a01b031614156104935760405162461bcd60e51b81526004018080602001828103825260258152602001806108e16025913960400191505060405180910390fd5b826001600160a01b0316846001600160a01b0316106104b35782846104b6565b83835b90925090506001600160a01b038216610516576040805162461bcd60e51b815260206004820152601e60248201527f556e697377617056324c6962726172793a205a45524f5f414444524553530000604482015290519081900360640190fd5b9250929050565b60805160601c60a05160601c60c05160601c61039461054d6000398061017952508061011f5250506103946000f3fe608060405234801561001057600080fd5b506004361061007d5760003560e01c80635e6aaf2c1161005b5780635e6aaf2c146100c8578063a6bb4539146100ec578063c5700a02146100f4578063d21220a7146101155761007d565b80630dfe1681146100825780635909c0d5146100a65780635a3d5493146100c0575b600080fd5b61008a61011d565b604080516001600160a01b039092168252519081900360200190f35b6100ae610141565b60408051918252519081900360200190f35b6100ae610147565b6100d061014d565b604080516001600160e01b039092168252519081900360200190f35b6100d061015c565b6100fc61016b565b6040805163ffffffff9092168252519081900360200190f35b61008a610177565b7f000000000000000000000000000000000000000000000000000000000000000081565b60005481565b60015481565b6004546001600160e01b031681565b6003546001600160e01b031681565b60025463ffffffff1681565b7f000000000000000000000000000000000000000000000000000000000000000081565b60008060006101aa858561025b565b604080516bffffffffffffffffffffffff19606094851b811660208084019190915293851b81166034830152825160288184030181526048830184528051908501206001600160f81b031960688401529a90941b9093166069840152607d8301989098527f96e8ac4277198ff8b6f785478aa9a39f403cb768dd02cbee326c3e7da348845f609d808401919091528851808403909101815260bd909201909752805196019590952095945050505050565b600080826001600160a01b0316846001600160a01b031614156102af5760405162461bcd60e51b815260040180806020018281038252602581526020018061033a6025913960400191505060405180910390fd5b826001600160a01b0316846001600160a01b0316106102cf5782846102d2565b83835b90925090506001600160a01b038216610332576040805162461bcd60e51b815260206004820152601e60248201527f556e697377617056324c6962726172793a205a45524f5f414444524553530000604482015290519081900360640190fd5b925092905056fe556e697377617056324c6962726172793a204944454e544943414c5f414444524553534553a26469706673582212205464231bde06d795ab7dfc25c7b3e07da46e4d8d8a812e3ad8f1edf84503b1f864736f6c63430006060033556e697377617056324c6962726172793a204944454e544943414c5f414444524553534553",
  "linkReferences": {},
  "deployedLinkReferences": {}
}