{
  "_format": "hh-sol-artifact-1",
  "contractName": "Oracle",
  "sourceName": "contracts/Debt-Issuance-Pool/Oracle.sol",
  "abi": [
    {
      "inputs": [
        {
          "internalType": "address",
          "name": "debase_",
          "type": "address"
        },
        {
          "internalType": "address",
          "name": "dai_",
          "type": "address"
        },
        {
          "internalType": "address",
          "name": "pool_",
          "type": "address"
        }
      ],
      "stateMutability": "nonpayable",
      "type": "constructor"
    },
    {
      "inputs": [],
      "name": "blockTimestampLast",
      "outputs": [
        {
          "internalType": "uint32",
          "name": "",
          "type": "uint32"
        }
      ],
      "stateMutability": "view",
      "type": "function"
    },
    {
      "inputs": [],
      "name": "dai",
      "outputs": [
        {
          "internalType": "address",
          "name": "",
          "type": "address"
        }
      ],
      "stateMutability": "view",
      "type": "function"
    },
    {
      "inputs": [],
      "name": "debase",
      "outputs": [
        {
          "internalType": "address",
          "name": "",
          "type": "address"
        }
      ],
      "stateMutability": "view",
      "type": "function"
    },
    {
      "inputs": [],
      "name": "getData",
      "outputs": [
        {
          "internalType": "uint256",
          "name": "",
          "type": "uint256"
        },
        {
          "internalType": "bool",
          "name": "",
          "type": "bool"
        }
      ],
      "stateMutability": "nonpayable",
      "type": "function"
    },
    {
      "inputs": [],
      "name": "lastPrice",
      "outputs": [
        {
          "internalType": "uint256",
          "name": "",
          "type": "uint256"
        }
      ],
      "stateMutability": "view",
      "type": "function"
    },
    {
      "inputs": [],
      "name": "pool",
      "outputs": [
        {
          "internalType": "address",
          "name": "",
          "type": "address"
        }
      ],
      "stateMutability": "view",
      "type": "function"
    },
    {
      "inputs": [],
      "name": "price0Average",
      "outputs": [
        {
          "internalType": "uint224",
          "name": "_x",
          "type": "uint224"
        }
      ],
      "stateMutability": "view",
      "type": "function"
    },
    {
      "inputs": [],
      "name": "price0CumulativeLast",
      "outputs": [
        {
          "internalType": "uint256",
          "name": "",
          "type": "uint256"
        }
      ],
      "stateMutability": "view",
      "type": "function"
    },
    {
      "inputs": [],
      "name": "price1Average",
      "outputs": [
        {
          "internalType": "uint224",
          "name": "_x",
          "type": "uint224"
        }
      ],
      "stateMutability": "view",
      "type": "function"
    },
    {
      "inputs": [],
      "name": "price1CumulativeLast",
      "outputs": [
        {
          "internalType": "uint256",
          "name": "",
          "type": "uint256"
        }
      ],
      "stateMutability": "view",
      "type": "function"
    },
    {
      "inputs": [],
      "name": "token0",
      "outputs": [
        {
          "internalType": "address",
          "name": "",
          "type": "address"
        }
      ],
      "stateMutability": "view",
      "type": "function"
    },
    {
      "inputs": [],
      "name": "token1",
      "outputs": [
        {
          "internalType": "address",
          "name": "",
          "type": "address"
        }
      ],
      "stateMutability": "view",
      "type": "function"
    }
  ],
  "bytecode": "0x60e06040523480156200001157600080fd5b506040516200103e3803806200103e833981810160405260608110156200003757600080fd5b50805160208083015160409093015191929190735c69bee701ef814a2b6a3edd4b1652cb9cc5aa6f9084908490600090620000819085908590859062000802620003d9821b17901c565b9050806001600160a01b03166080816001600160a01b031660601b81525050806001600160a01b0316630dfe16816040518163ffffffff1660e01b815260040160206040518083038186803b158015620000da57600080fd5b505afa158015620000ef573d6000803e3d6000fd5b505050506040513d60208110156200010657600080fd5b505160601b6001600160601b03191660a0526040805163d21220a760e01b815290516001600160a01b0383169163d21220a7916004808301926020929190829003018186803b1580156200015957600080fd5b505afa1580156200016e573d6000803e3d6000fd5b505050506040513d60208110156200018557600080fd5b505160601b6001600160601b03191660c05260408051635909c0d560e01b815290516001600160a01b03831691635909c0d5916004808301926020929190829003018186803b158015620001d857600080fd5b505afa158015620001ed573d6000803e3d6000fd5b505050506040513d60208110156200020457600080fd5b505160005560408051635a3d549360e01b815290516001600160a01b03831691635a3d5493916004808301926020929190829003018186803b1580156200024a57600080fd5b505afa1580156200025f573d6000803e3d6000fd5b505050506040513d60208110156200027657600080fd5b505160015560408051630240bc6b60e21b8152905160009182916001600160a01b03851691630902f1ac916004808301926060929190829003018186803b158015620002c157600080fd5b505afa158015620002d6573d6000803e3d6000fd5b505050506040513d6060811015620002ed57600080fd5b50805160208201516040909201516002805463ffffffff191663ffffffff909216919091179055925090506001600160701b038216158015906200033957506001600160701b03811615155b6200038b576040805162461bcd60e51b815260206004820181905260248201527f4578616d706c654f7261636c6553696d706c653a204e4f5f5245534552564553604482015290519081900360640190fd5b5050600580546001600160a01b03199081166001600160a01b03998a161790915560068054821697891697909717909655505060078054909416929094169190911790915550620005999050565b60008080620003f285856001600160e01b03620004b616565b604080516001600160601b0319606094851b811660208084019190915293851b81166034830152825160288184030181526048830184528051908501207fff0000000000000000000000000000000000000000000000000000000000000060688401529a90941b9093166069840152607d8301989098527f96e8ac4277198ff8b6f785478aa9a39f403cb768dd02cbee326c3e7da348845f609d808401919091528851808403909101815260bd909201909752805196019590952095945050505050565b600080826001600160a01b0316846001600160a01b031614156200050c5760405162461bcd60e51b8152600401808060200182810382526025815260200180620010196025913960400191505060405180910390fd5b826001600160a01b0316846001600160a01b0316106200052e57828462000531565b83835b90925090506001600160a01b03821662000592576040805162461bcd60e51b815260206004820152601e60248201527f556e697377617056324c6962726172793a205a45524f5f414444524553530000604482015290519081900360640190fd5b9250929050565b60805160601c60a05160601c60c05160601c610a40620005d96000398061027e528061042252508061019d52806103a65250806102b95250610a406000f3fe608060405234801561001057600080fd5b50600436106100b45760003560e01c80635e6aaf2c116100715780635e6aaf2c146101305780636422380a14610154578063a6bb45391461015c578063c5700a0214610164578063d21220a714610185578063f4b9fa751461018d576100b4565b8063053f14da146100b95780630dfe1681146100d357806316f0115b146100f75780633bc5de30146100ff5780635909c0d5146101205780635a3d549314610128575b600080fd5b6100c1610195565b60408051918252519081900360200190f35b6100db61019b565b604080516001600160a01b039092168252519081900360200190f35b6100db6101bf565b6101076101ce565b6040805192835290151560208301528051918290030190f35b6100c1610237565b6100c161023d565b610138610243565b604080516001600160e01b039092168252519081900360200190f35b6100db610252565b610138610261565b61016c610270565b6040805163ffffffff9092168252519081900360200190f35b6100db61027c565b6100db6102a0565b60085481565b7f000000000000000000000000000000000000000000000000000000000000000081565b6007546001600160a01b031681565b60075460009081906001600160a01b031633146101ea57600080fd5b6101f26102af565b600554600090610213906001600160a01b0316670de0b6b3a76400006103a2565b905080610227575060009150819050610233565b60088190559150600190505b9091565b60005481565b60015481565b6004546001600160e01b031681565b6005546001600160a01b031681565b6003546001600160e01b031681565b60025463ffffffff1681565b7f000000000000000000000000000000000000000000000000000000000000000081565b6006546001600160a01b031681565b60008060006102dd7f00000000000000000000000000000000000000000000000000000000000000006104cf565b600254604080516020810190915260005494975092955090935063ffffffff908116840392829184169087038161031057fe5b046001600160e01b039081169091529051600380546001600160e01b031916919092161790556040805160208101909152600154819063ffffffff84169086038161035757fe5b046001600160e01b039081169091529051600480546001600160e01b03191691909216179055506000929092556001556002805463ffffffff191663ffffffff909216919091179055565b60007f00000000000000000000000000000000000000000000000000000000000000006001600160a01b0316836001600160a01b031614156104205760408051602081019091526003546001600160e01b031681526104109061040b908463ffffffff61069e16565b61071c565b6001600160901b031690506104c9565b7f00000000000000000000000000000000000000000000000000000000000000006001600160a01b0316836001600160a01b0316146104905760405162461bcd60e51b81526004018080602001828103825260228152602001806109c66022913960400191505060405180910390fd5b60408051602081019091526004546001600160e01b031681526104bd9061040b908463ffffffff61069e16565b6001600160901b031690505b92915050565b60008060006104dc610723565b9050836001600160a01b0316635909c0d56040518163ffffffff1660e01b815260040160206040518083038186803b15801561051757600080fd5b505afa15801561052b573d6000803e3d6000fd5b505050506040513d602081101561054157600080fd5b505160408051635a3d549360e01b815290519194506001600160a01b03861691635a3d549391600480820192602092909190829003018186803b15801561058757600080fd5b505afa15801561059b573d6000803e3d6000fd5b505050506040513d60208110156105b157600080fd5b505160408051630240bc6b60e21b81529051919350600091829182916001600160a01b03891691630902f1ac916004808301926060929190829003018186803b1580156105fd57600080fd5b505afa158015610611573d6000803e3d6000fd5b505050506040513d606081101561062757600080fd5b5080516020820151604090920151909450909250905063ffffffff808216908516146106945780840363ffffffff8116610661848661072d565b516001600160e01b031602969096019563ffffffff8116610682858561072d565b516001600160e01b0316029590950194505b5050509193909250565b6106a66107dd565b60008215806106cc57505082516001600160e01b0316828102908382816106c957fe5b04145b6107075760405162461bcd60e51b81526004018080602001828103825260238152602001806109e86023913960400191505060405180910390fd5b60408051602081019091529081529392505050565b5160701c90565b63ffffffff421690565b6107356107f0565b6000826001600160701b031611610793576040805162461bcd60e51b815260206004820152601760248201527f4669786564506f696e743a204449565f42595f5a45524f000000000000000000604482015290519081900360640190fd5b6040805160208101909152806001600160701b0384166dffffffffffffffffffffffffffff60701b607087901b16816107c857fe5b046001600160e01b0316815250905092915050565b6040518060200160405280600081525090565b60408051602081019091526000815290565b600080600061081185856108c2565b604080516bffffffffffffffffffffffff19606094851b811660208084019190915293851b81166034830152825160288184030181526048830184528051908501206001600160f81b031960688401529a90941b9093166069840152607d8301989098527f96e8ac4277198ff8b6f785478aa9a39f403cb768dd02cbee326c3e7da348845f609d808401919091528851808403909101815260bd909201909752805196019590952095945050505050565b600080826001600160a01b0316846001600160a01b031614156109165760405162461bcd60e51b81526004018080602001828103825260258152602001806109a16025913960400191505060405180910390fd5b826001600160a01b0316846001600160a01b031610610936578284610939565b83835b90925090506001600160a01b038216610999576040805162461bcd60e51b815260206004820152601e60248201527f556e697377617056324c6962726172793a205a45524f5f414444524553530000604482015290519081900360640190fd5b925092905056fe556e697377617056324c6962726172793a204944454e544943414c5f4144445245535345534578616d706c654f7261636c6553696d706c653a20494e56414c49445f544f4b454e4669786564506f696e743a204d554c5449504c49434154494f4e5f4f564552464c4f57a26469706673582212207522235ebf4e393e3ceb01896c5f2b6f02fdd502974b8b4f982d6137d1adf1fe64736f6c63430006060033556e697377617056324c6962726172793a204944454e544943414c5f414444524553534553",
  "linkReferences": {},
  "deployedLinkReferences": {}
}