{
  "_format": "hh-sol-artifact-1",
  "contractName": "Curve",
  "sourceName": "contracts/Debt-Issuance-Pool/Curve.sol",
  "abi": [
    {
      "inputs": [
        {
          "internalType": "bytes16",
          "name": "number_",
          "type": "bytes16"
        },
        {
          "internalType": "uint256",
          "name": "scale_",
          "type": "uint256"
        }
      ],
      "name": "bytes16ToUnit256",
      "outputs": [
        {
          "internalType": "uint256",
          "name": "",
          "type": "uint256"
        }
      ],
      "stateMutability": "pure",
      "type": "function"
    },
    {
      "inputs": [
        {
          "internalType": "uint256",
          "name": "coupons_",
          "type": "uint256"
        },
        {
          "internalType": "uint256",
          "name": "priceDelta_",
          "type": "uint256"
        },
        {
          "internalType": "bytes16",
          "name": "mean_",
          "type": "bytes16"
        },
        {
          "internalType": "bytes16",
          "name": "oneDivDeviationSqrtTwoPi_",
          "type": "bytes16"
        },
        {
          "internalType": "bytes16",
          "name": "twoDeviationSquare_",
          "type": "bytes16"
        }
      ],
      "name": "getCurvePoint",
      "outputs": [
        {
          "internalType": "uint256",
          "name": "",
          "type": "uint256"
        }
      ],
      "stateMutability": "view",
      "type": "function"
    },
    {
      "inputs": [
        {
          "internalType": "uint256",
          "name": "number_",
          "type": "uint256"
        },
        {
          "internalType": "uint256",
          "name": "scale_",
          "type": "uint256"
        }
      ],
      "name": "uint256ToBytes16",
      "outputs": [
        {
          "internalType": "bytes16",
          "name": "",
          "type": "bytes16"
        }
      ],
      "stateMutability": "pure",
      "type": "function"
    }
  ],
  "bytecode": "0x6080604052600080546001600160801b03191661bfff60701b176001600160801b0316668075782dace9d960c71b17905534801561003c57600080fd5b506121f78061004c6000396000f3fe608060405234801561001057600080fd5b50600436106100415760003560e01c80630b3e4880146100465780639df7947c14610086578063b03f920a146100dd575b600080fd5b6100696004803603604081101561005c57600080fd5b508035906020013561010a565b604080516001600160801b03199092168252519081900360200190f35b6100cb600480360360a081101561009c57600080fd5b508035906020810135906001600160801b0319604082013581169160608101358216916080909101351661013a565b60408051918252519081900360200190f35b6100cb600480360360408110156100f357600080fd5b506001600160801b031981351690602001356101d3565b600080610116846101f6565b90506000610123846101f6565b905061012f828261025c565b925050505b92915050565b600080610146876101f6565b90506000610168610156886101f6565b600054600160801b900460801b61025c565b9050600061017e61017883610509565b88610530565b60008054919250906101a59060801b6101a061019a8580610549565b8961025c565b610549565b90506101c56101c06101ba896101a0856107a5565b86610549565b6107cc565b9a9950505050505050505050565b6000806101df836101f6565b90506101ee6101c08583610549565b949350505050565b60008161020557506000610257565b81600061021182610850565b9050607081101561022a578060700382901b915061023d565b607081111561023d576070810382901c91505b613fff0160701b6001600160701b03919091161760801b90505b919050565b6000617fff60f084811c8216919084901c8116908214156102a25780617fff1415610291575061ffff60ef1b91506101349050565b505050600160ff1b81168218610134565b80617fff14156102e6576dffffffffffffffffffffffffffff60801b8416156102d5575061ffff60ef1b91506101349050565b505050808218600160ff1b16610134565b600160801b600160ff1b03841661033057600160801b600160ff1b038516610318575061ffff60ef1b91506101349050565b505050808218600160ff1b16617fff60f01b17610134565b6001600160701b03608085901c168161034c5760019150610353565b600160701b175b6001600160701b03608087901c168361039257801561038d57600061037782610850565b6001955060e20393840160711901939190911b90505b61039c565b600160701b1760721b5b8181816103a557fe5b049050806103d257600160ff1b878718166103c15760006103c7565b600160ff1b5b945050505050610134565b6001606c1b8110156103e057fe5b6000600160731b82101561042057600160721b82101561041557600160711b82101561040d576070610410565b60715b610418565b60725b60ff16610429565b61042982610850565b90508361407101818601111561044757617fff9450600091506104da565b83818601613ffc0110156104625760009450600091506104da565b83818601613f8c0110156104af578385613ffc01111561048d578385613ffc010382901b91506104a6565b8385613ffc0110156104a657613ffc8585030382901c91505b600094506104da565b60708111156104c2576070810382901c91505b6001600160701b038216915083818601613f8d010394505b81607086901b888a186001607f1b60801b1660801c6001600160801b0316171760801b95505050505050610134565b6000610134610517836108ee565b6f3ffe62e42fefa39ef35793c7673007e560801b610549565b600061054283600160ff1b8418610aa3565b9392505050565b6000617fff60f084811c8216919084901c8116908214156105e85780617fff14156105c7576001600160801b0319858116908516141561059457505050600160ff1b81168218610134565b600160ff1b6001600160801b03198686181614156105b757505050818117610134565b5061ffff60ef1b91506101349050565b600160801b600160ff1b038416610291575061ffff60ef1b91506101349050565b80617fff141561062457600160801b600160ff1b038516610613575061ffff60ef1b91506101349050565b505050600160ff1b82168118610134565b6001600160701b03608086901c16826106405760019250610647565b600160701b175b6001600160701b03608086901c1682610663576001925061066a565b600160701b175b908102908161068757600160ff1b878718166103c15760006103c7565b928201926000600160e11b8310156106bb57600160e01b8310156106b3576106ae83610850565b6106b6565b60e05b6106be565b60e15b905061407081860110156106d9576000945060009250610776565b6140e0818601101561071c576140708510156106fe57846140700383901c9250610713565b61407085111561071357614070850383901b92505b60009450610776565b61c0dd818601111561073657617fff945060009250610776565b607081111561074d576070810383901c9250610760565b6070811015610760578060700383901b92505b6001600160701b03831692506140df8186010394505b82607086901b888a186001607f1b60801b1660801c6001600160801b0316171760801b95505050505050610134565b60006101346107c7836f1fffb8aa3b295c17f0bbbe87fed0691d60811b610549565b610e63565b6000617fff60f083901c16613fff8110156107eb576000915050610257565b6001607f1b608084901c106107ff57600080fd5b6140fe81111561080e57600080fd5b600160701b6001600160701b03608085901c161761406f8210156108385761406f8290031c610542565b61406f8211156105425761406e1982011b9392505050565b600080821161085e57600080fd5b6000600160801b831061087357608092831c92015b600160401b831061088657604092831c92015b640100000000831061089a57602092831c92015b6201000083106108ac57601092831c92015b61010083106108bd57600892831c92015b601083106108cd57600492831c92015b600483106108dd57600292831c92015b600283106101345760010192915050565b60006001607f1b608083901c111561090c575061ffff60ef1b610257565b613fff60f01b6001600160801b03198316141561092b57506000610257565b617fff60f083901c8116908114156109465782915050610257565b6001600160701b03608084901c16816109625760019150610969565b600160701b175b8061098157506001600160f01b031991506102579050565b600061406f81613fff85106109a75750600f9290921b9160009150613ffe1984016109e6565b60019250600160701b84106109c95784613ffe039050600f84901b93506109e6565b60006109d485610850565b607f8190039590951b9461406d039150505b836001607f1b1415610a1a5782156109fc576001015b6000610a0782610850565b60700392839003929190911b9050610a68565b600083610a28576000610a2b565b60015b60ff1690505b600160701b821015610a665793800260ff81901c607f81019190911c94600019939093019260019290921b9082180190610a31565b505b806001600160701b0316607083901b84610a83576000610a89565b6001607f1b5b6001600160801b0316171760801b95505050505050610257565b6000617fff60f084811c8216919084901c811690821415610af15780617fff1415610ae7576001600160801b031985811690851614156105b7578492505050610134565b8492505050610134565b80617fff1415610b05578392505050610134565b6001607f1b608086901c90811015906001600160701b031683610b2b5760019350610b32565b600160701b175b6001607f1b608087901c90811015906001600160701b031684610b585760019450610b5f565b600160701b175b82610b8f576001600160801b03198816600160ff1b14610b7f5787610b82565b60005b9650505050505050610134565b80610baf576001600160801b03198916600160ff1b14610b7f5788610b82565b8486038415158315151415610cba576070811315610bd65789975050505050505050610134565b6000811315610be85790811c90610c17565b606f19811215610c015788975050505050505050610134565b6000811215610c17578060000384901c93508596505b92810192600160711b8410610c32576001968701969390931c925b86617fff1415610c645784610c4c57617fff60f01b610c56565b6001600160f01b03195b975050505050505050610134565b600160701b841015610c795760009650610c86565b6001600160701b03841693505b83607088901b86610c98576000610c9e565b6001607f1b5b6001600160801b0316171760801b975050505050505050610134565b6000811315610cd557600184901b9350600187039650610cec565b6000811215610cec57600182901b91506001860396505b6070811315610cfe5760019150610d4b565b6001811315610d1b576001810360018303901c6001019150610d4b565b606f19811215610d2e5760019350610d4b565b600019811215610d4b576001816000030360018503901c60010193505b818410610d5c578184039350610d65565b83820393508294505b83610d7b57506000965061013495505050505050565b6000610d8685610850565b90508060711415610dac57600185901c6001600160701b03169450600188019750610dfb565b6070811015610dee57607081900380891115610ddb578086901b6001600160701b031695508089039850610de8565b600098600019019590951b945b50610dfb565b6001600160701b03851694505b87617fff1415610e2e5785610e1557617fff60f01b610e1f565b6001600160f01b03195b98505050505050505050610134565b84607089901b87610e40576000610e46565b6001607f1b5b6001600160801b0316171760801b98505050505050505050610134565b60006001607f1b608083901c90811190617fff60f085901c8116916001600160701b03169082148015610e9557508015155b15610eab575061ffff60ef1b9250610257915050565b61400d821115610ed25782610ec557617fff60f01b610ec8565b60005b9350505050610257565b613f7f821015610eed5750613fff60f01b9250610257915050565b81610efb5760019150610f02565b600160701b175b613fef821115610f1857613fee1982011b610f2a565b613fef821015610f2a57613fef8290031c5b828015610f3b575061203760811b81115b15610f4d575060009250610257915050565b82158015610f6c5750713fffffffffffffffffffffffffffffffffff81115b15610f825750617fff60f01b9250610257915050565b6001600160801b0381169060801c838015610f9c57508115155b15610fa8579019906001015b6001607f1b82811615610fcc5770016a09e667f3bcc908b2fb1366ea957d3e0260801c5b6001607e1b831615610fef577001306fe0a31b7152de8d5a46305c85edec0260801c5b6001607d1b831615611012577001172b83c7d517adcdf7c8c50eb14a791f0260801c5b6001607c1b8316156110355770010b5586cf9890f6298b92b71842a983630260801c5b6001607b1b831615611058577001059b0d31585743ae7c548eb68ca417fd0260801c5b6001607a1b83161561107b57700102c9a3e778060ee6f7caca4f7a29bde80260801c5b600160791b83161561109e5770010163da9fb33356d84a66ae336dcdfa3f0260801c5b600160781b8316156110c157700100b1afa5abcbed6129ab13ec11dc95430260801c5b600160771b8316156110e45770010058c86da1c09ea1ff19d294cf2f679b0260801c5b600160761b831615611107577001002c605e2e8cec506d21bfc89a23a00f0260801c5b600160751b83161561112a57700100162f3904051fa128bca9c55c31e5df0260801c5b600160741b83161561114d577001000b175effdc76ba38e31671ca9397250260801c5b600160731b83161561117057700100058ba01fb9f96d6cacd4b180917c3d0260801c5b600160721b8316156111935770010002c5cc37da9491d0985c348c68e7b30260801c5b600160711b8316156111b6577001000162e525ee054754457d59952920260260801c5b600160701b8316156111d95770010000b17255775c040618bf4a4ade83fc0260801c5b6001606f1b8316156111fc577001000058b91b5bc9ae2eed81e9b7d4cfab0260801c5b6001606e1b83161561121f57700100002c5c89d5ec6ca4d7c8acc017b7c90260801c5b6001606d1b8316156112425770010000162e43f4f831060e02d839a9d16d0260801c5b6001606c1b83161561126557700100000b1721bcfc99d9f890ea069117630260801c5b6001606b1b8316156112885770010000058b90cf1e6d97f9ca14dbcc16280260801c5b6001606a1b8316156112ab577001000002c5c863b73f016468f6bac5ca2b0260801c5b600160691b8316156112ce57700100000162e430e5a18f6119e3c02282a50260801c5b600160681b8316156112f1577001000000b1721835514b86e6d96efd1bfe0260801c5b600160671b83161561131457700100000058b90c0b48c6be5df846c5b2ef0260801c5b600160661b8316156113375770010000002c5c8601cc6b9e94213c72737a0260801c5b600160651b83161561135a577001000000162e42fff037df38aa2b219f060260801c5b600160641b83161561137d5770010000000b17217fba9c739aa5819f44f90260801c5b600160631b8316156113a0577001000000058b90bfcdee5acd3c1cedc8230260801c5b600160621b8316156113c357700100000002c5c85fe31f35a6a30da1be500260801c5b600160611b8316156113e65770010000000162e42ff0999ce3541b9fffcf0260801c5b600160601b83161561140957700100000000b17217f80f4ef5aadda455540260801c5b6001605f1b83161561142c5770010000000058b90bfbf8479bd5a81b51ad0260801c5b6001605e1b83161561144f577001000000002c5c85fdf84bd62ae30a74cc0260801c5b6001605d1b83161561147257700100000000162e42fefb2fed257559bdaa0260801c5b6001605c1b831615611495577001000000000b17217f7d5a7716bba4a9ae0260801c5b6001605b1b8316156114b857700100000000058b90bfbe9ddbac5e109cce0260801c5b6001605a1b8316156114db5770010000000002c5c85fdf4b15de6f17eb0d0260801c5b600160591b8316156114fe577001000000000162e42fefa494f1478fde050260801c5b600160581b8316156115215770010000000000b17217f7d20cf927c8e94c0260801c5b600160571b831615611544577001000000000058b90bfbe8f71cb4e4b33d0260801c5b600160561b83161561156757700100000000002c5c85fdf477b662b269450260801c5b600160551b83161561158a5770010000000000162e42fefa3ae53369388c0260801c5b600160541b8316156115ad57700100000000000b17217f7d1d351a389d400260801c5b600160531b8316156115d05770010000000000058b90bfbe8e8b2d3d4ede0260801c5b600160521b8316156115f3577001000000000002c5c85fdf4741bea6e77e0260801c5b600160511b83161561161657700100000000000162e42fefa39fe95583c20260801c5b600160501b831615611639577001000000000000b17217f7d1cfb72b45e10260801c5b698000000000000000000083161561166257700100000000000058b90bfbe8e7cc35c3f00260801c5b694000000000000000000083161561168b5770010000000000002c5c85fdf473e242ea380260801c5b69200000000000000000008316156116b4577001000000000000162e42fefa39f02b772c0260801c5b69100000000000000000008316156116dd5770010000000000000b17217f7d1cf7d83c1a0260801c5b6908000000000000000000831615611706577001000000000000058b90bfbe8e7bdcbe2e0260801c5b690400000000000000000083161561172f57700100000000000002c5c85fdf473dea871f0260801c5b69020000000000000000008316156117585770010000000000000162e42fefa39ef44d910260801c5b690100000000000000000083161561178157700100000000000000b17217f7d1cf79e9490260801c5b688000000000000000008316156117a95770010000000000000058b90bfbe8e7bce5440260801c5b684000000000000000008316156117d1577001000000000000002c5c85fdf473de6eca0260801c5b682000000000000000008316156117f957700100000000000000162e42fefa39ef366f0260801c5b68100000000000000000831615611821577001000000000000000b17217f7d1cf79afa0260801c5b6808000000000000000083161561184957700100000000000000058b90bfbe8e7bcd6d0260801c5b680400000000000000008316156118715770010000000000000002c5c85fdf473de6b20260801c5b68020000000000000000831615611899577001000000000000000162e42fefa39ef3580260801c5b600160401b8316156118bc5770010000000000000000b17217f7d1cf79ab0260801c5b6780000000000000008316156118e3577001000000000000000058b90bfbe8e7bcd50260801c5b67400000000000000083161561190a57700100000000000000002c5c85fdf473de6a0260801c5b6720000000000000008316156119315770010000000000000000162e42fefa39ef340260801c5b67100000000000000083161561195857700100000000000000000b17217f7d1cf7990260801c5b67080000000000000083161561197f5770010000000000000000058b90bfbe8e7bcc0260801c5b6704000000000000008316156119a6577001000000000000000002c5c85fdf473de50260801c5b6702000000000000008316156119cd57700100000000000000000162e42fefa39ef20260801c5b6701000000000000008316156119f4577001000000000000000000b17217f7d1cf780260801c5b6680000000000000831615611a1a57700100000000000000000058b90bfbe8e7bb0260801c5b6640000000000000831615611a405770010000000000000000002c5c85fdf473dd0260801c5b6620000000000000831615611a66577001000000000000000000162e42fefa39ee0260801c5b6610000000000000831615611a8c5770010000000000000000000b17217f7d1cf60260801c5b6608000000000000831615611ab2577001000000000000000000058b90bfbe8e7a0260801c5b6604000000000000831615611ad857700100000000000000000002c5c85fdf473c0260801c5b6602000000000000831615611afe5770010000000000000000000162e42fefa39d0260801c5b6601000000000000831615611b2457700100000000000000000000b17217f7d1ce0260801c5b65800000000000831615611b495770010000000000000000000058b90bfbe8e60260801c5b65400000000000831615611b6e577001000000000000000000002c5c85fdf4720260801c5b65200000000000831615611b9357700100000000000000000000162e42fefa380260801c5b65100000000000831615611bb8577001000000000000000000000b17217f7d1b0260801c5b65080000000000831615611bdd57700100000000000000000000058b90bfbe8d0260801c5b65040000000000831615611c025770010000000000000000000002c5c85fdf460260801c5b65020000000000831615611c27577001000000000000000000000162e42fefa20260801c5b65010000000000831615611c4c5770010000000000000000000000b17217f7d00260801c5b648000000000831615611c70577001000000000000000000000058b90bfbe70260801c5b644000000000831615611c9457700100000000000000000000002c5c85fdf30260801c5b642000000000831615611cb85770010000000000000000000000162e42fef90260801c5b641000000000831615611cdc57700100000000000000000000000b17217f7c0260801c5b640800000000831615611d005770010000000000000000000000058b90bfbd0260801c5b640400000000831615611d24577001000000000000000000000002c5c85fde0260801c5b640200000000831615611d4857700100000000000000000000000162e42fee0260801c5b640100000000831615611d6c577001000000000000000000000000b17217f60260801c5b6380000000831615611d8f57700100000000000000000000000058b90bfa0260801c5b6340000000831615611db25770010000000000000000000000002c5c85fc0260801c5b6320000000831615611dd5577001000000000000000000000000162e42fd0260801c5b6310000000831615611df85770010000000000000000000000000b17217e0260801c5b6308000000831615611e1b577001000000000000000000000000058b90be0260801c5b6304000000831615611e3e57700100000000000000000000000002c5c85e0260801c5b6302000000831615611e615770010000000000000000000000000162e42e0260801c5b6301000000831615611e8457700100000000000000000000000000b172160260801c5b62800000831615611ea65770010000000000000000000000000058b90a0260801c5b62400000831615611ec8577001000000000000000000000000002c5c840260801c5b62200000831615611eea57700100000000000000000000000000162e410260801c5b62100000831615611f0c577001000000000000000000000000000b17200260801c5b62080000831615611f2e57700100000000000000000000000000058b8f0260801c5b62040000831615611f505770010000000000000000000000000002c5c70260801c5b62020000831615611f72577001000000000000000000000000000162e30260801c5b62010000831615611f945770010000000000000000000000000000b1710260801c5b618000831615611fb5577001000000000000000000000000000058b80260801c5b614000831615611fd657700100000000000000000000000000002c5b0260801c5b612000831615611ff75770010000000000000000000000000000162d0260801c5b61100083161561201857700100000000000000000000000000000b160260801c5b6108008316156120395770010000000000000000000000000000058a0260801c5b61040083161561205a577001000000000000000000000000000002c40260801c5b61020083161561207b577001000000000000000000000000000001610260801c5b61010083161561209c577001000000000000000000000000000000b00260801c5b60808316156120bc577001000000000000000000000000000000570260801c5b60408316156120dc5770010000000000000000000000000000002b0260801c5b60208316156120fc577001000000000000000000000000000000150260801c5b601083161561211c5770010000000000000000000000000000000a0260801c5b600883161561213c577001000000000000000000000000000000040260801c5b600483161561215c577001000000000000000000000000000000010260801c5b8461217d57600f81901c6001600160701b03169050613fff820191506121ac565b613ffe82116121a257600f81901c6001600160701b0316905081613fff0391506121ac565b600091613fee19011c5b60709190911b1760801b93506102579250505056fea2646970667358221220311291a00c666ea9c70e9e71284aa58d858adf68751e6833beefcdcd66787f3a64736f6c63430006060033",
  "linkReferences": {},
  "deployedLinkReferences": {}
}