{
  "_format": "hh-sol-artifact-1",
  "contractName": "StabilizerPool",
  "sourceName": "contracts/flattened/StabilizerPool.sol",
  "abi": [
    {
      "anonymous": false,
      "inputs": [
        {
          "indexed": false,
          "internalType": "bool",
          "name": "beforePeriodFinish_",
          "type": "bool"
        }
      ],
      "name": "LogBeforePeriodFinish",
      "type": "event"
    },
    {
      "anonymous": false,
      "inputs": [
        {
          "indexed": false,
          "internalType": "bool",
          "name": "CountInSequence_",
          "type": "bool"
        }
      ],
      "name": "LogCountInSequence",
      "type": "event"
    },
    {
      "anonymous": false,
      "inputs": [
        {
          "indexed": false,
          "internalType": "uint256",
          "name": "countThreshold_",
          "type": "uint256"
        }
      ],
      "name": "LogCountThreshold",
      "type": "event"
    },
    {
      "anonymous": false,
      "inputs": [
        {
          "indexed": false,
          "internalType": "uint256",
          "name": "duration",
          "type": "uint256"
        }
      ],
      "name": "LogSetDuration",
      "type": "event"
    },
    {
      "anonymous": false,
      "inputs": [
        {
          "indexed": false,
          "internalType": "bool",
          "name": "poolEnabled",
          "type": "bool"
        }
      ],
      "name": "LogSetPoolEnabled",
      "type": "event"
    },
    {
      "anonymous": false,
      "inputs": [
        {
          "indexed": false,
          "internalType": "uint256",
          "name": "rewardAmount_",
          "type": "uint256"
        }
      ],
      "name": "LogSetRewardAmount",
      "type": "event"
    },
    {
      "anonymous": false,
      "inputs": [
        {
          "indexed": false,
          "internalType": "uint256",
          "name": "startedAt",
          "type": "uint256"
        }
      ],
      "name": "ManualPoolStarted",
      "type": "event"
    },
    {
      "anonymous": false,
      "inputs": [
        {
          "indexed": true,
          "internalType": "address",
          "name": "previousOwner",
          "type": "address"
        },
        {
          "indexed": true,
          "internalType": "address",
          "name": "newOwner",
          "type": "address"
        }
      ],
      "name": "OwnershipTransferred",
      "type": "event"
    },
    {
      "anonymous": false,
      "inputs": [
        {
          "indexed": false,
          "internalType": "uint256",
          "name": "reward",
          "type": "uint256"
        }
      ],
      "name": "RewardAdded",
      "type": "event"
    },
    {
      "anonymous": false,
      "inputs": [
        {
          "indexed": true,
          "internalType": "address",
          "name": "user",
          "type": "address"
        },
        {
          "indexed": false,
          "internalType": "uint256",
          "name": "reward",
          "type": "uint256"
        }
      ],
      "name": "RewardPaid",
      "type": "event"
    },
    {
      "anonymous": false,
      "inputs": [
        {
          "indexed": true,
          "internalType": "address",
          "name": "user",
          "type": "address"
        },
        {
          "indexed": false,
          "internalType": "uint256",
          "name": "amount",
          "type": "uint256"
        }
      ],
      "name": "Staked",
      "type": "event"
    },
    {
      "anonymous": false,
      "inputs": [
        {
          "indexed": true,
          "internalType": "address",
          "name": "user",
          "type": "address"
        },
        {
          "indexed": false,
          "internalType": "uint256",
          "name": "amount",
          "type": "uint256"
        }
      ],
      "name": "Withdrawn",
      "type": "event"
    },
    {
      "inputs": [
        {
          "internalType": "address",
          "name": "account",
          "type": "address"
        }
      ],
      "name": "balanceOf",
      "outputs": [
        {
          "internalType": "uint256",
          "name": "",
          "type": "uint256"
        }
      ],
      "stateMutability": "view",
      "type": "function"
    },
    {
      "inputs": [],
      "name": "beforePeriodFinish",
      "outputs": [
        {
          "internalType": "bool",
          "name": "",
          "type": "bool"
        }
      ],
      "stateMutability": "view",
      "type": "function"
    },
    {
      "inputs": [
        {
          "internalType": "int256",
          "name": "supplyDelta_",
          "type": "int256"
        },
        {
          "internalType": "int256",
          "name": "rebaseLag_",
          "type": "int256"
        },
        {
          "internalType": "uint256",
          "name": "exchangeRate_",
          "type": "uint256"
        },
        {
          "internalType": "uint256",
          "name": "debasePolicyBalance",
          "type": "uint256"
        }
      ],
      "name": "checkStabilizerAndGetReward",
      "outputs": [
        {
          "internalType": "uint256",
          "name": "rewardAmount_",
          "type": "uint256"
        }
      ],
      "stateMutability": "nonpayable",
      "type": "function"
    },
    {
      "inputs": [],
      "name": "count",
      "outputs": [
        {
          "internalType": "uint256",
          "name": "",
          "type": "uint256"
        }
      ],
      "stateMutability": "view",
      "type": "function"
    },
    {
      "inputs": [],
      "name": "countInSequence",
      "outputs": [
        {
          "internalType": "bool",
          "name": "",
          "type": "bool"
        }
      ],
      "stateMutability": "view",
      "type": "function"
    },
    {
      "inputs": [],
      "name": "countThreshold",
      "outputs": [
        {
          "internalType": "uint256",
          "name": "",
          "type": "uint256"
        }
      ],
      "stateMutability": "view",
      "type": "function"
    },
    {
      "inputs": [],
      "name": "duration",
      "outputs": [
        {
          "internalType": "uint256",
          "name": "",
          "type": "uint256"
        }
      ],
      "stateMutability": "view",
      "type": "function"
    },
    {
      "inputs": [
        {
          "internalType": "address",
          "name": "account",
          "type": "address"
        }
      ],
      "name": "earned",
      "outputs": [
        {
          "internalType": "uint256",
          "name": "",
          "type": "uint256"
        }
      ],
      "stateMutability": "view",
      "type": "function"
    },
    {
      "inputs": [],
      "name": "exit",
      "outputs": [],
      "stateMutability": "nonpayable",
      "type": "function"
    },
    {
      "inputs": [],
      "name": "getReward",
      "outputs": [],
      "stateMutability": "nonpayable",
      "type": "function"
    },
    {
      "inputs": [
        {
          "internalType": "string",
          "name": "poolName_",
          "type": "string"
        },
        {
          "internalType": "address",
          "name": "rewardToken_",
          "type": "address"
        },
        {
          "internalType": "address",
          "name": "pairToken_",
          "type": "address"
        },
        {
          "internalType": "address",
          "name": "policy_",
          "type": "address"
        },
        {
          "internalType": "uint256",
          "name": "rewardAmount_",
          "type": "uint256"
        },
        {
          "internalType": "uint256",
          "name": "duration_",
          "type": "uint256"
        }
      ],
      "name": "initialize",
      "outputs": [],
      "stateMutability": "nonpayable",
      "type": "function"
    },
    {
      "inputs": [],
      "name": "lastTimeRewardApplicable",
      "outputs": [
        {
          "internalType": "uint256",
          "name": "",
          "type": "uint256"
        }
      ],
      "stateMutability": "view",
      "type": "function"
    },
    {
      "inputs": [],
      "name": "lastUpdateTime",
      "outputs": [
        {
          "internalType": "uint256",
          "name": "",
          "type": "uint256"
        }
      ],
      "stateMutability": "view",
      "type": "function"
    },
    {
      "inputs": [],
      "name": "owner",
      "outputs": [
        {
          "internalType": "address",
          "name": "",
          "type": "address"
        }
      ],
      "stateMutability": "view",
      "type": "function"
    },
    {
      "inputs": [],
      "name": "periodFinish",
      "outputs": [
        {
          "internalType": "uint256",
          "name": "",
          "type": "uint256"
        }
      ],
      "stateMutability": "view",
      "type": "function"
    },
    {
      "inputs": [],
      "name": "policy",
      "outputs": [
        {
          "internalType": "address",
          "name": "",
          "type": "address"
        }
      ],
      "stateMutability": "view",
      "type": "function"
    },
    {
      "inputs": [],
      "name": "poolEnabled",
      "outputs": [
        {
          "internalType": "bool",
          "name": "",
          "type": "bool"
        }
      ],
      "stateMutability": "view",
      "type": "function"
    },
    {
      "inputs": [],
      "name": "poolName",
      "outputs": [
        {
          "internalType": "string",
          "name": "",
          "type": "string"
        }
      ],
      "stateMutability": "view",
      "type": "function"
    },
    {
      "inputs": [],
      "name": "renounceOwnership",
      "outputs": [],
      "stateMutability": "nonpayable",
      "type": "function"
    },
    {
      "inputs": [],
      "name": "rewardAmount",
      "outputs": [
        {
          "internalType": "uint256",
          "name": "",
          "type": "uint256"
        }
      ],
      "stateMutability": "view",
      "type": "function"
    },
    {
      "inputs": [],
      "name": "rewardDistributed",
      "outputs": [
        {
          "internalType": "uint256",
          "name": "",
          "type": "uint256"
        }
      ],
      "stateMutability": "view",
      "type": "function"
    },
    {
      "inputs": [],
      "name": "rewardDistribution",
      "outputs": [
        {
          "internalType": "address",
          "name": "",
          "type": "address"
        }
      ],
      "stateMutability": "view",
      "type": "function"
    },
    {
      "inputs": [],
      "name": "rewardPerToken",
      "outputs": [
        {
          "internalType": "uint256",
          "name": "",
          "type": "uint256"
        }
      ],
      "stateMutability": "view",
      "type": "function"
    },
    {
      "inputs": [],
      "name": "rewardPerTokenStored",
      "outputs": [
        {
          "internalType": "uint256",
          "name": "",
          "type": "uint256"
        }
      ],
      "stateMutability": "view",
      "type": "function"
    },
    {
      "inputs": [],
      "name": "rewardRate",
      "outputs": [
        {
          "internalType": "uint256",
          "name": "",
          "type": "uint256"
        }
      ],
      "stateMutability": "view",
      "type": "function"
    },
    {
      "inputs": [],
      "name": "rewardToken",
      "outputs": [
        {
          "internalType": "contract IERC20",
          "name": "",
          "type": "address"
        }
      ],
      "stateMutability": "view",
      "type": "function"
    },
    {
      "inputs": [
        {
          "internalType": "address",
          "name": "",
          "type": "address"
        }
      ],
      "name": "rewards",
      "outputs": [
        {
          "internalType": "uint256",
          "name": "",
          "type": "uint256"
        }
      ],
      "stateMutability": "view",
      "type": "function"
    },
    {
      "inputs": [
        {
          "internalType": "bool",
          "name": "beforePeriodFinish_",
          "type": "bool"
        }
      ],
      "name": "setBeforePeriodFinish",
      "outputs": [],
      "stateMutability": "nonpayable",
      "type": "function"
    },
    {
      "inputs": [
        {
          "internalType": "bool",
          "name": "countInSequence_",
          "type": "bool"
        }
      ],
      "name": "setCountInSequence",
      "outputs": [],
      "stateMutability": "nonpayable",
      "type": "function"
    },
    {
      "inputs": [
        {
          "internalType": "uint256",
          "name": "countThreshold_",
          "type": "uint256"
        }
      ],
      "name": "setCountThreshold",
      "outputs": [],
      "stateMutability": "nonpayable",
      "type": "function"
    },
    {
      "inputs": [
        {
          "internalType": "uint256",
          "name": "duration_",
          "type": "uint256"
        }
      ],
      "name": "setDuration",
      "outputs": [],
      "stateMutability": "nonpayable",
      "type": "function"
    },
    {
      "inputs": [
        {
          "internalType": "bool",
          "name": "poolEnabled_",
          "type": "bool"
        }
      ],
      "name": "setPoolEnabled",
      "outputs": [],
      "stateMutability": "nonpayable",
      "type": "function"
    },
    {
      "inputs": [
        {
          "internalType": "uint256",
          "name": "rewardAmount_",
          "type": "uint256"
        }
      ],
      "name": "setRewardAmount",
      "outputs": [],
      "stateMutability": "nonpayable",
      "type": "function"
    },
    {
      "inputs": [
        {
          "internalType": "address",
          "name": "_rewardDistribution",
          "type": "address"
        }
      ],
      "name": "setRewardDistribution",
      "outputs": [],
      "stateMutability": "nonpayable",
      "type": "function"
    },
    {
      "inputs": [
        {
          "internalType": "uint256",
          "name": "amount",
          "type": "uint256"
        }
      ],
      "name": "stake",
      "outputs": [],
      "stateMutability": "nonpayable",
      "type": "function"
    },
    {
      "inputs": [],
      "name": "totalSupply",
      "outputs": [
        {
          "internalType": "uint256",
          "name": "",
          "type": "uint256"
        }
      ],
      "stateMutability": "view",
      "type": "function"
    },
    {
      "inputs": [
        {
          "internalType": "address",
          "name": "newOwner",
          "type": "address"
        }
      ],
      "name": "transferOwnership",
      "outputs": [],
      "stateMutability": "nonpayable",
      "type": "function"
    },
    {
      "inputs": [
        {
          "internalType": "address",
          "name": "",
          "type": "address"
        }
      ],
      "name": "userRewardPerTokenPaid",
      "outputs": [
        {
          "internalType": "uint256",
          "name": "",
          "type": "uint256"
        }
      ],
      "stateMutability": "view",
      "type": "function"
    },
    {
      "inputs": [
        {
          "internalType": "uint256",
          "name": "amount",
          "type": "uint256"
        }
      ],
      "name": "withdraw",
      "outputs": [],
      "stateMutability": "nonpayable",
      "type": "function"
    },
    {
      "inputs": [],
      "name": "y",
      "outputs": [
        {
          "internalType": "contract IERC20",
          "name": "",
          "type": "address"
        }
      ],
      "stateMutability": "view",
      "type": "function"
    }
  ],
  "bytecode": "0x608060405260006100176001600160e01b0361006a16565b603680546001600160a01b0319166001600160a01b038316908117909155604051919250906000907f8be0079c531659141344cd1fd0a4f28419497f9722a3daafe3b4186f6b6457e0908290a35061006e565b3390565b611dcd8061007d6000396000f3fe608060405234801561001057600080fd5b50600436106102475760003560e01c80639874e28e1161013b578063df136d65116100b8578063f2fde38b1161007c578063f2fde38b146105c2578063f3466dfa146105e8578063f6be71d114610665578063f7b2a7be14610682578063f7c618c11461068a57610247565b8063df136d65146104d6578063e379cbe9146104de578063e9483ac0146105aa578063e9fad8ee146105b2578063ebe2b12b146105ba57610247565b8063be46aec6116100ff578063be46aec614610497578063c0c1c9f21461049f578063c8f33c91146104a7578063cd3daf9d146104af578063dd37f217146104b757610247565b80639874e28e1461041c578063a56dfe4a14610439578063a694fc3a14610441578063a8a65a781461045e578063ad5eb04c1461047b57610247565b8063529f35e9116101c957806380faa57d1161018d57806380faa57d146103985780638798a9d2146103a05780638b876347146103cf5780638da5cb5b146103f557806392104669146103fd57610247565b8063529f35e91461033b578063706cc6471461035a57806370a0823114610362578063715018a6146103885780637b0a47ee1461039057610247565b80630fb5a6b4116102105780630fb5a6b4146102fe578063101114cf1461030657806318160ddd1461030e5780632e1a7d4d146103165780633d18b9121461033357610247565b80628cc2621461024c5780630505c8c91461028457806306661abd146102a85780630700037d146102b05780630d68b761146102d6575b600080fd5b6102726004803603602081101561026257600080fd5b50356001600160a01b0316610692565b60408051918252519081900360200190f35b61028c610718565b604080516001600160a01b039092168252519081900360200190f35b610272610727565b610272600480360360208110156102c657600080fd5b50356001600160a01b031661072d565b6102fc600480360360208110156102ec57600080fd5b50356001600160a01b031661073f565b005b610272610761565b61028c610767565b610272610776565b6102fc6004803603602081101561032c57600080fd5b503561077d565b6102fc6108bb565b6102fc6004803603602081101561035157600080fd5b503515156109fa565b610272610aa3565b6102726004803603602081101561037857600080fd5b50356001600160a01b0316610aa9565b6102fc610ac4565b610272610b66565b610272610b6c565b610272600480360360808110156103b657600080fd5b5080359060208101359060408101359060600135610b7f565b610272600480360360208110156103e557600080fd5b50356001600160a01b0316610c63565b61028c610c75565b6102fc6004803603602081101561041357600080fd5b50351515610c84565b6102fc6004803603602081101561043257600080fd5b5035610d2c565b61028c610dd2565b6102fc6004803603602081101561045757600080fd5b5035610de1565b6102fc6004803603602081101561047457600080fd5b5035610f77565b61048361100a565b604080519115158252519081900360200190f35b610483611018565b610483611021565b61027261102a565b610272611030565b6102fc600480360360208110156104cd57600080fd5b50351515611084565b610272611136565b6102fc600480360360c08110156104f457600080fd5b81019060208101813564010000000081111561050f57600080fd5b82018360208201111561052157600080fd5b8035906020019184600183028401116401000000008311171561054357600080fd5b91908080601f016020809104026020016040519081016040528093929190818152602001838380828437600092019190915250929550506001600160a01b03833581169450602084013581169360408101359091169250606081013591506080013561113c565b610272611265565b6102fc61126b565b610272611286565b6102fc600480360360208110156105d857600080fd5b50356001600160a01b031661128c565b6105f0611385565b6040805160208082528351818301528351919283929083019185019080838360005b8381101561062a578181015183820152602001610612565b50505050905090810190601f1680156106575780820380516001836020036101000a031916815260200191505b509250505060405180910390f35b6102fc6004803603602081101561067b57600080fd5b5035611413565b6102726114b6565b61028c6114bc565b6001600160a01b0381166000908152604760209081526040808320546046909252822054610712919061070690670de0b6b3a7640000906106fa906106e5906106d9611030565b9063ffffffff6114cb16565b6106ee88610aa9565b9063ffffffff61151416565b9063ffffffff61156d16565b9063ffffffff6115af16565b92915050565b603a546001600160a01b031681565b60435481565b60476020526000908152604090205481565b603780546001600160a01b0319166001600160a01b0392909216919091179055565b603b5481565b6037546001600160a01b031681565b6034545b90565b33610786611030565b604155610791610b6c565b6040556001600160a01b038116156107d8576107ac81610692565b6001600160a01b0382166000908152604760209081526040808320939093556041546046909152919020555b603c5460ff1661082f576040805162461bcd60e51b815260206004820181905260248201527f4f7263686573747261746f72206861736e2774207374617274656420706f6f6c604482015290519081900360640190fd5b60008211610878576040805162461bcd60e51b8152602060048201526011602482015270043616e6e6f74207769746864726177203607c1b604482015290519081900360640190fd5b61088182611609565b60408051838152905133917f7084f5476618d8e60b11ef0d7d3f06914655adb8793e28ff7f018d4c76d505d5919081900360200190a25050565b336108c4611030565b6041556108cf610b6c565b6040556001600160a01b03811615610916576108ea81610692565b6001600160a01b0382166000908152604760209081526040808320939093556041546046909152919020555b603c5460ff1661096d576040805162461bcd60e51b815260206004820181905260248201527f4f7263686573747261746f72206861736e2774207374617274656420706f6f6c604482015290519081900360640190fd5b600061097833610692565b905080156109f657336000818152604760205260408120556039546109a9916001600160a01b03909116908361166e565b60408051828152905133917fe2403640ba68fed3a2f88b7557551d1993f84b99bb10ff833f0cf8db0c5e0486919081900360200190a26042546109f2908263ffffffff6115af16565b6042555b5050565b610a026116c5565b6036546001600160a01b03908116911614610a52576040805162461bcd60e51b81526020600482018190526024820152600080516020611d20833981519152604482015290519081900360640190fd5b603c805460ff1916821515179081905560006043556040805160ff90921615158252517f0fc5960ebe0d769d367a5952c3d384663054acd195413084d4c5e3a71c4a7d85916020908290030190a150565b60445481565b6001600160a01b031660009081526035602052604090205490565b610acc6116c5565b6036546001600160a01b03908116911614610b1c576040805162461bcd60e51b81526020600482018190526024820152600080516020611d20833981519152604482015290519081900360640190fd5b6036546040516000916001600160a01b0316907f8be0079c531659141344cd1fd0a4f28419497f9722a3daafe3b4186f6b6457e0908390a3603680546001600160a01b0319169055565b603f5481565b6000610b7a42603e546116c9565b905090565b603a546000906001600160a01b03163314610bcb5760405162461bcd60e51b8152600401808060200182810382526029815260200180611cd66029913960400191505060405180910390fd5b84610c3957604354610be490600163ffffffff6115af16565b604381905560445411610c34576000604355603d548210801590610c1b5750604554610100900460ff1680610c1b5750603e544210155b15610c3457610c2b603d546116df565b50603d54610c5b565b610c57565b60455460ff168015610c4c575060435415155b15610c575760006043555b5060005b949350505050565b60466020526000908152604090205481565b6036546001600160a01b031690565b610c8c6116c5565b6036546001600160a01b03908116911614610cdc576040805162461bcd60e51b81526020600482018190526024820152600080516020611d20833981519152604482015290519081900360640190fd5b6045805460ff1916821515179081905560006043556040805160ff909216158252517f8ed1f6327f601aff5f8a7d3ea0e37bf670c356e6664eec18496cbe5178da12b4916020908290030190a150565b610d346116c5565b6036546001600160a01b03908116911614610d84576040805162461bcd60e51b81526020600482018190526024820152600080516020611d20833981519152604482015290519081900360640190fd5b6001811015610d9257600080fd5b604481905560006043556040805182815290517ff037c2578996c756bc53d54b2a9eb2689ccf580c97825c2386e2272e8220ffd79181900360200190a150565b6033546001600160a01b031681565b33610dea611030565b604155610df5610b6c565b6040556001600160a01b03811615610e3c57610e1081610692565b6001600160a01b0382166000908152604760209081526040808320939093556041546046909152919020555b603c5460ff16610e93576040805162461bcd60e51b815260206004820181905260248201527f4f7263686573747261746f72206861736e2774207374617274656420706f6f6c604482015290519081900360640190fd5b610e9c33611802565b15610eee576040805162461bcd60e51b815260206004820152601d60248201527f43616c6c6572206d757374206e6f74206265206120636f6e7472616374000000604482015290519081900360640190fd5b60008211610f34576040805162461bcd60e51b815260206004820152600e60248201526d043616e6e6f74207374616b6520360941b604482015290519081900360640190fd5b610f3d82611808565b60408051838152905133917f9e71bc8eea02a63969f509818f2dafb9254532904319f9dbda79b67bd34a5f3d919081900360200190a25050565b610f7f6116c5565b6036546001600160a01b03908116911614610fcf576040805162461bcd60e51b81526020600482018190526024820152600080516020611d20833981519152604482015290519081900360640190fd5b603d8190556040805182815290517f1576663aeda8a455f259d10c105169aea7e291f130993e166115a849020330909181900360200190a150565b604554610100900460ff1681565b603c5460ff1681565b60455460ff1681565b60405481565b600061103a610776565b611047575060415461077a565b610b7a611075611055610776565b6106fa670de0b6b3a76400006106ee603f546106ee6040546106d9610b6c565b6041549063ffffffff6115af16565b61108c6116c5565b6036546001600160a01b039081169116146110dc576040805162461bcd60e51b81526020600482018190526024820152600080516020611d20833981519152604482015290519081900360640190fd5b6045805482151561010090810261ff00199092169190911791829055604080519190920460ff161515815290517fb8f188eb77072c1a22f83932e1640c7a91c1963729ac57910373f50226341ffe9181900360200190a150565b60415481565b600054610100900460ff1680611155575061115561186b565b80611163575060005460ff16155b61119e5760405162461bcd60e51b815260040180806020018281038252602e815260200180611d40602e913960400191505060405180910390fd5b600054610100900460ff161580156111c9576000805460ff1961ff0019909116610100171660011790555b86516111dc9060389060208a0190611c17565b506111e685611871565b603980546001600160a01b038089166001600160a01b031992831617909255603a805492871692909116919091179055603b829055603c805460ff19908116909155603d849055600060435560146044556045805461ff00199216600117919091169055801561125c576000805461ff00191690555b50505050505050565b60425481565b61127c61127733610aa9565b61077d565b6112846108bb565b565b603e5481565b6112946116c5565b6036546001600160a01b039081169116146112e4576040805162461bcd60e51b81526020600482018190526024820152600080516020611d20833981519152604482015290519081900360640190fd5b6001600160a01b0381166113295760405162461bcd60e51b8152600401808060200182810382526026815260200180611cb06026913960400191505060405180910390fd5b6036546040516001600160a01b038084169216907f8be0079c531659141344cd1fd0a4f28419497f9722a3daafe3b4186f6b6457e090600090a3603680546001600160a01b0319166001600160a01b0392909216919091179055565b6038805460408051602060026001851615610100026000190190941693909304601f8101849004840282018401909252818152929183018282801561140b5780601f106113e05761010080835404028352916020019161140b565b820191906000526020600020905b8154815290600101906020018083116113ee57829003601f168201915b505050505081565b61141b6116c5565b6036546001600160a01b0390811691161461146b576040805162461bcd60e51b81526020600482018190526024820152600080516020611d20833981519152604482015290519081900360640190fd5b6001603b54101561147b57600080fd5b603b8190556040805182815290517f7f8e050cd6544ab7a601f4533862faeadf0669ae3ffa49439332add9c53bf0739181900360200190a150565b603d5481565b6039546001600160a01b031681565b600061150d83836040518060400160405280601e81526020017f536166654d6174683a207375627472616374696f6e206f766572666c6f770000815250611893565b9392505050565b60008261152357506000610712565b8282028284828161153057fe5b041461150d5760405162461bcd60e51b8152600401808060200182810382526021815260200180611cff6021913960400191505060405180910390fd5b600061150d83836040518060400160405280601a81526020017f536166654d6174683a206469766973696f6e206279207a65726f00000000000081525061192a565b60008282018381101561150d576040805162461bcd60e51b815260206004820152601b60248201527f536166654d6174683a206164646974696f6e206f766572666c6f770000000000604482015290519081900360640190fd5b60345461161c908263ffffffff6114cb16565b6034553360009081526035602052604090205461163f908263ffffffff6114cb16565b3360008181526035602052604090209190915560335461166b916001600160a01b03909116908361166e565b50565b604080516001600160a01b038416602482015260448082018490528251808303909101815260649091019091526020810180516001600160e01b031663a9059cbb60e01b1790526116c090849061198f565b505050565b3390565b60008183106116d8578161150d565b5090919050565b60006116e9611030565b6041556116f4610b6c565b6040556001600160a01b0381161561173b5761170f81610692565b6001600160a01b0382166000908152604760209081526040808320939093556041546046909152919020555b603e54421061176057603b5461175890839063ffffffff61156d16565b603f556117af565b603e54600090611776904263ffffffff6114cb16565b9050600061178f603f548361151490919063ffffffff16565b603b549091506117a9906106fa868463ffffffff6115af16565b603f5550505b426040819055603b546117c8919063ffffffff6115af16565b603e556040805183815290517fde88a922e0d3b88b24e9623efeb464919c6bf9f66857a65e2bfcf2ce87a9433d9181900360200190a15050565b3b151590565b60345461181b908263ffffffff6115af16565b6034553360009081526035602052604090205461183e908263ffffffff6115af16565b3360008181526035602052604090209190915560335461166b916001600160a01b03909116903084611a40565b303b1590565b603380546001600160a01b0319166001600160a01b0392909216919091179055565b600081848411156119225760405162461bcd60e51b81526004018080602001828103825283818151815260200191508051906020019080838360005b838110156118e75781810151838201526020016118cf565b50505050905090810190601f1680156119145780820380516001836020036101000a031916815260200191505b509250505060405180910390fd5b505050900390565b600081836119795760405162461bcd60e51b81526020600482018181528351602484015283519092839260449091019190850190808383600083156118e75781810151838201526020016118cf565b50600083858161198557fe5b0495945050505050565b60606119e4826040518060400160405280602081526020017f5361666545524332303a206c6f772d6c6576656c2063616c6c206661696c6564815250856001600160a01b0316611aa09092919063ffffffff16565b8051909150156116c057808060200190516020811015611a0357600080fd5b50516116c05760405162461bcd60e51b815260040180806020018281038252602a815260200180611d6e602a913960400191505060405180910390fd5b604080516001600160a01b0380861660248301528416604482015260648082018490528251808303909101815260849091019091526020810180516001600160e01b03166323b872dd60e01b179052611a9a90859061198f565b50505050565b6060610c5b84846000856060611ab585611802565b611b06576040805162461bcd60e51b815260206004820152601d60248201527f416464726573733a2063616c6c20746f206e6f6e2d636f6e7472616374000000604482015290519081900360640190fd5b60006060866001600160a01b031685876040518082805190602001908083835b60208310611b455780518252601f199092019160209182019101611b26565b6001836020036101000a03801982511681845116808217855250505050505090500191505060006040518083038185875af1925050503d8060008114611ba7576040519150601f19603f3d011682016040523d82523d6000602084013e611bac565b606091505b50915091508115611bc0579150610c5b9050565b805115611bd05780518082602001fd5b60405162461bcd60e51b81526020600482018181528651602484015286518793919283926044019190850190808383600083156118e75781810151838201526020016118cf565b828054600181600116156101000203166002900490600052602060002090601f016020900481019282601f10611c5857805160ff1916838001178555611c85565b82800160010185558215611c85579182015b82811115611c85578251825591602001919060010190611c6a565b50611c91929150611c95565b5090565b61077a91905b80821115611c915760008155600101611c9b56fe4f776e61626c653a206e6577206f776e657220697320746865207a65726f20616464726573734f6e6c792064656261736520706f6c69637920636f6e74726163742063616e2063616c6c2074686973536166654d6174683a206d756c7469706c69636174696f6e206f766572666c6f774f776e61626c653a2063616c6c6572206973206e6f7420746865206f776e6572436f6e747261637420696e7374616e63652068617320616c7265616479206265656e20696e697469616c697a65645361666545524332303a204552433230206f7065726174696f6e20646964206e6f742073756363656564a2646970667358221220016fa15f23c933906b93a7ddd17496d1bab9f9e04d84241e72d35215cce837d564736f6c63430006060033",
  "linkReferences": {},
  "deployedLinkReferences": {}
}