{
  "_format": "hh-sol-artifact-1",
  "contractName": "DebasePolicy",
  "sourceName": "contracts/flattened/DebasePolicy.sol",
  "abi": [
    {
      "anonymous": false,
      "inputs": [
        {
          "indexed": false,
          "internalType": "contract StabilizerI",
          "name": "pool_",
          "type": "address"
        }
      ],
      "name": "LogAddNewStabilizerPool",
      "type": "event"
    },
    {
      "anonymous": false,
      "inputs": [
        {
          "indexed": true,
          "internalType": "bool",
          "name": "selected",
          "type": "bool"
        },
        {
          "indexed": false,
          "internalType": "int256",
          "name": "lowerDelta_",
          "type": "int256"
        },
        {
          "indexed": false,
          "internalType": "int256",
          "name": "upperDelta_",
          "type": "int256"
        },
        {
          "indexed": false,
          "internalType": "int256",
          "name": "lag_",
          "type": "int256"
        }
      ],
      "name": "LogDeleteBreakpoint",
      "type": "event"
    },
    {
      "anonymous": false,
      "inputs": [
        {
          "indexed": false,
          "internalType": "contract StabilizerI",
          "name": "pool_",
          "type": "address"
        }
      ],
      "name": "LogDeleteStabilizerPool",
      "type": "event"
    },
    {
      "anonymous": false,
      "inputs": [
        {
          "indexed": true,
          "internalType": "bool",
          "name": "selected",
          "type": "bool"
        },
        {
          "indexed": true,
          "internalType": "int256",
          "name": "lowerDelta_",
          "type": "int256"
        },
        {
          "indexed": true,
          "internalType": "int256",
          "name": "upperDelta_",
          "type": "int256"
        },
        {
          "indexed": false,
          "internalType": "int256",
          "name": "lag_",
          "type": "int256"
        }
      ],
      "name": "LogNewLagBreakpoint",
      "type": "event"
    },
    {
      "anonymous": false,
      "inputs": [
        {
          "indexed": true,
          "internalType": "uint256",
          "name": "epoch_",
          "type": "uint256"
        },
        {
          "indexed": false,
          "internalType": "uint256",
          "name": "exchangeRate_",
          "type": "uint256"
        },
        {
          "indexed": false,
          "internalType": "int256",
          "name": "requestedSupplyAdjustment_",
          "type": "int256"
        },
        {
          "indexed": false,
          "internalType": "int256",
          "name": "rebaseLag_",
          "type": "int256"
        },
        {
          "indexed": false,
          "internalType": "uint256",
          "name": "timestampSec_",
          "type": "uint256"
        }
      ],
      "name": "LogRebase",
      "type": "event"
    },
    {
      "anonymous": false,
      "inputs": [
        {
          "indexed": false,
          "internalType": "uint256",
          "name": "index",
          "type": "uint256"
        },
        {
          "indexed": false,
          "internalType": "contract StabilizerI",
          "name": "poolI",
          "type": "address"
        },
        {
          "indexed": false,
          "internalType": "uint256",
          "name": "transferAmount",
          "type": "uint256"
        }
      ],
      "name": "LogRewardSentToStabilizer",
      "type": "event"
    },
    {
      "anonymous": false,
      "inputs": [
        {
          "indexed": false,
          "internalType": "int256",
          "name": "lowerDelta_",
          "type": "int256"
        },
        {
          "indexed": false,
          "internalType": "int256",
          "name": "upperDelta_",
          "type": "int256"
        },
        {
          "indexed": false,
          "internalType": "int256",
          "name": "lag_",
          "type": "int256"
        }
      ],
      "name": "LogSelectedBreakpoint",
      "type": "event"
    },
    {
      "anonymous": false,
      "inputs": [
        {
          "indexed": false,
          "internalType": "uint256",
          "name": "defaultPositiveRebaseLag_",
          "type": "uint256"
        },
        {
          "indexed": false,
          "internalType": "uint256",
          "name": "defaultNegativeRebaseLag_",
          "type": "uint256"
        }
      ],
      "name": "LogSetDefaultRebaseLag",
      "type": "event"
    },
    {
      "anonymous": false,
      "inputs": [
        {
          "indexed": false,
          "internalType": "uint256",
          "name": "lowerDeviationThreshold_",
          "type": "uint256"
        },
        {
          "indexed": false,
          "internalType": "uint256",
          "name": "upperDeviationThreshold_",
          "type": "uint256"
        }
      ],
      "name": "LogSetDeviationThreshold",
      "type": "event"
    },
    {
      "anonymous": false,
      "inputs": [
        {
          "indexed": false,
          "internalType": "address",
          "name": "oracle_",
          "type": "address"
        }
      ],
      "name": "LogSetOracle",
      "type": "event"
    },
    {
      "anonymous": false,
      "inputs": [
        {
          "indexed": false,
          "internalType": "uint256",
          "name": "setPriceTargetRate_",
          "type": "uint256"
        }
      ],
      "name": "LogSetPriceTargetRate",
      "type": "event"
    },
    {
      "anonymous": false,
      "inputs": [
        {
          "indexed": false,
          "internalType": "uint256",
          "name": "minRebaseTimeIntervalSec_",
          "type": "uint256"
        },
        {
          "indexed": false,
          "internalType": "uint256",
          "name": "rebaseWindowOffsetSec_",
          "type": "uint256"
        },
        {
          "indexed": false,
          "internalType": "uint256",
          "name": "rebaseWindowLengthSec_",
          "type": "uint256"
        }
      ],
      "name": "LogSetRebaseTimingParameters",
      "type": "event"
    },
    {
      "anonymous": false,
      "inputs": [
        {
          "indexed": false,
          "internalType": "uint256",
          "name": "index_",
          "type": "uint256"
        },
        {
          "indexed": false,
          "internalType": "bool",
          "name": "enabled_",
          "type": "bool"
        }
      ],
      "name": "LogSetStabilizerPoolEnabled",
      "type": "event"
    },
    {
      "anonymous": false,
      "inputs": [
        {
          "indexed": false,
          "internalType": "bool",
          "name": "useDefaultRebaseLag_",
          "type": "bool"
        }
      ],
      "name": "LogSetUseDefaultRebaseLag",
      "type": "event"
    },
    {
      "anonymous": false,
      "inputs": [
        {
          "indexed": true,
          "internalType": "bool",
          "name": "selected",
          "type": "bool"
        },
        {
          "indexed": true,
          "internalType": "int256",
          "name": "lowerDelta_",
          "type": "int256"
        },
        {
          "indexed": true,
          "internalType": "int256",
          "name": "upperDelta_",
          "type": "int256"
        },
        {
          "indexed": false,
          "internalType": "int256",
          "name": "lag_",
          "type": "int256"
        }
      ],
      "name": "LogUpdateBreakpoint",
      "type": "event"
    },
    {
      "anonymous": false,
      "inputs": [
        {
          "indexed": false,
          "internalType": "int256",
          "name": "defaultRebaseLag_",
          "type": "int256"
        }
      ],
      "name": "LogUsingDefaultRebaseLag",
      "type": "event"
    },
    {
      "anonymous": false,
      "inputs": [
        {
          "indexed": true,
          "internalType": "address",
          "name": "previousOwner",
          "type": "address"
        },
        {
          "indexed": true,
          "internalType": "address",
          "name": "newOwner",
          "type": "address"
        }
      ],
      "name": "OwnershipTransferred",
      "type": "event"
    },
    {
      "inputs": [
        {
          "internalType": "bool",
          "name": "select",
          "type": "bool"
        },
        {
          "internalType": "int256",
          "name": "lowerDelta_",
          "type": "int256"
        },
        {
          "internalType": "int256",
          "name": "upperDelta_",
          "type": "int256"
        },
        {
          "internalType": "int256",
          "name": "lag_",
          "type": "int256"
        }
      ],
      "name": "addNewLagBreakpoint",
      "outputs": [],
      "stateMutability": "nonpayable",
      "type": "function"
    },
    {
      "inputs": [
        {
          "internalType": "address",
          "name": "pool_",
          "type": "address"
        }
      ],
      "name": "addNewStabilizerPool",
      "outputs": [],
      "stateMutability": "nonpayable",
      "type": "function"
    },
    {
      "inputs": [],
      "name": "debase",
      "outputs": [
        {
          "internalType": "contract DebaseI",
          "name": "",
          "type": "address"
        }
      ],
      "stateMutability": "view",
      "type": "function"
    },
    {
      "inputs": [],
      "name": "defaultNegativeRebaseLag",
      "outputs": [
        {
          "internalType": "uint256",
          "name": "",
          "type": "uint256"
        }
      ],
      "stateMutability": "view",
      "type": "function"
    },
    {
      "inputs": [],
      "name": "defaultPositiveRebaseLag",
      "outputs": [
        {
          "internalType": "uint256",
          "name": "",
          "type": "uint256"
        }
      ],
      "stateMutability": "view",
      "type": "function"
    },
    {
      "inputs": [
        {
          "internalType": "bool",
          "name": "select",
          "type": "bool"
        }
      ],
      "name": "deleteLagBreakpoint",
      "outputs": [],
      "stateMutability": "nonpayable",
      "type": "function"
    },
    {
      "inputs": [
        {
          "internalType": "uint256",
          "name": "index",
          "type": "uint256"
        }
      ],
      "name": "deleteStabilizerPool",
      "outputs": [],
      "stateMutability": "nonpayable",
      "type": "function"
    },
    {
      "inputs": [],
      "name": "epoch",
      "outputs": [
        {
          "internalType": "uint256",
          "name": "",
          "type": "uint256"
        }
      ],
      "stateMutability": "view",
      "type": "function"
    },
    {
      "inputs": [],
      "name": "inRebaseWindow",
      "outputs": [
        {
          "internalType": "bool",
          "name": "",
          "type": "bool"
        }
      ],
      "stateMutability": "view",
      "type": "function"
    },
    {
      "inputs": [
        {
          "internalType": "address",
          "name": "debase_",
          "type": "address"
        },
        {
          "internalType": "address",
          "name": "orchestrator_",
          "type": "address"
        }
      ],
      "name": "initialize",
      "outputs": [],
      "stateMutability": "nonpayable",
      "type": "function"
    },
    {
      "inputs": [],
      "name": "lastRebaseTimestampSec",
      "outputs": [
        {
          "internalType": "uint256",
          "name": "",
          "type": "uint256"
        }
      ],
      "stateMutability": "view",
      "type": "function"
    },
    {
      "inputs": [],
      "name": "lowerDeviationThreshold",
      "outputs": [
        {
          "internalType": "uint256",
          "name": "",
          "type": "uint256"
        }
      ],
      "stateMutability": "view",
      "type": "function"
    },
    {
      "inputs": [
        {
          "internalType": "uint256",
          "name": "",
          "type": "uint256"
        }
      ],
      "name": "lowerLagBreakpoints",
      "outputs": [
        {
          "internalType": "int256",
          "name": "lowerDelta",
          "type": "int256"
        },
        {
          "internalType": "int256",
          "name": "upperDelta",
          "type": "int256"
        },
        {
          "internalType": "int256",
          "name": "lag",
          "type": "int256"
        }
      ],
      "stateMutability": "view",
      "type": "function"
    },
    {
      "inputs": [],
      "name": "minRebaseTimeIntervalSec",
      "outputs": [
        {
          "internalType": "uint256",
          "name": "",
          "type": "uint256"
        }
      ],
      "stateMutability": "view",
      "type": "function"
    },
    {
      "inputs": [],
      "name": "oracle",
      "outputs": [
        {
          "internalType": "contract IOracle",
          "name": "",
          "type": "address"
        }
      ],
      "stateMutability": "view",
      "type": "function"
    },
    {
      "inputs": [],
      "name": "orchestrator",
      "outputs": [
        {
          "internalType": "address",
          "name": "",
          "type": "address"
        }
      ],
      "stateMutability": "view",
      "type": "function"
    },
    {
      "inputs": [],
      "name": "owner",
      "outputs": [
        {
          "internalType": "address",
          "name": "",
          "type": "address"
        }
      ],
      "stateMutability": "view",
      "type": "function"
    },
    {
      "inputs": [],
      "name": "priceTargetRate",
      "outputs": [
        {
          "internalType": "uint256",
          "name": "",
          "type": "uint256"
        }
      ],
      "stateMutability": "view",
      "type": "function"
    },
    {
      "inputs": [],
      "name": "rebase",
      "outputs": [],
      "stateMutability": "nonpayable",
      "type": "function"
    },
    {
      "inputs": [],
      "name": "rebaseWindowLengthSec",
      "outputs": [
        {
          "internalType": "uint256",
          "name": "",
          "type": "uint256"
        }
      ],
      "stateMutability": "view",
      "type": "function"
    },
    {
      "inputs": [],
      "name": "rebaseWindowOffsetSec",
      "outputs": [
        {
          "internalType": "uint256",
          "name": "",
          "type": "uint256"
        }
      ],
      "stateMutability": "view",
      "type": "function"
    },
    {
      "inputs": [],
      "name": "renounceOwnership",
      "outputs": [],
      "stateMutability": "nonpayable",
      "type": "function"
    },
    {
      "inputs": [
        {
          "internalType": "uint256",
          "name": "defaultPositiveRebaseLag_",
          "type": "uint256"
        },
        {
          "internalType": "uint256",
          "name": "defaultNegativeRebaseLag_",
          "type": "uint256"
        }
      ],
      "name": "setDefaultRebaseLags",
      "outputs": [],
      "stateMutability": "nonpayable",
      "type": "function"
    },
    {
      "inputs": [
        {
          "internalType": "uint256",
          "name": "upperDeviationThreshold_",
          "type": "uint256"
        },
        {
          "internalType": "uint256",
          "name": "lowerDeviationThreshold_",
          "type": "uint256"
        }
      ],
      "name": "setDeviationThresholds",
      "outputs": [],
      "stateMutability": "nonpayable",
      "type": "function"
    },
    {
      "inputs": [
        {
          "internalType": "address",
          "name": "oracle_",
          "type": "address"
        }
      ],
      "name": "setOracle",
      "outputs": [],
      "stateMutability": "nonpayable",
      "type": "function"
    },
    {
      "inputs": [
        {
          "internalType": "uint256",
          "name": "priceTargetRate_",
          "type": "uint256"
        }
      ],
      "name": "setPriceTargetRate",
      "outputs": [],
      "stateMutability": "nonpayable",
      "type": "function"
    },
    {
      "inputs": [
        {
          "internalType": "uint256",
          "name": "minRebaseTimeIntervalSec_",
          "type": "uint256"
        },
        {
          "internalType": "uint256",
          "name": "rebaseWindowOffsetSec_",
          "type": "uint256"
        },
        {
          "internalType": "uint256",
          "name": "rebaseWindowLengthSec_",
          "type": "uint256"
        }
      ],
      "name": "setRebaseTimingParameters",
      "outputs": [],
      "stateMutability": "nonpayable",
      "type": "function"
    },
    {
      "inputs": [
        {
          "internalType": "uint256",
          "name": "index",
          "type": "uint256"
        },
        {
          "internalType": "bool",
          "name": "enabled",
          "type": "bool"
        }
      ],
      "name": "setStabilizerPoolEnabled",
      "outputs": [],
      "stateMutability": "nonpayable",
      "type": "function"
    },
    {
      "inputs": [
        {
          "internalType": "bool",
          "name": "useDefaultRebaseLag_",
          "type": "bool"
        }
      ],
      "name": "setUseDefaultRebaseLag",
      "outputs": [],
      "stateMutability": "nonpayable",
      "type": "function"
    },
    {
      "inputs": [
        {
          "internalType": "uint256",
          "name": "",
          "type": "uint256"
        }
      ],
      "name": "stabilizerPools",
      "outputs": [
        {
          "internalType": "bool",
          "name": "enabled",
          "type": "bool"
        },
        {
          "internalType": "contract StabilizerI",
          "name": "pool",
          "type": "address"
        }
      ],
      "stateMutability": "view",
      "type": "function"
    },
    {
      "inputs": [
        {
          "internalType": "address",
          "name": "newOwner",
          "type": "address"
        }
      ],
      "name": "transferOwnership",
      "outputs": [],
      "stateMutability": "nonpayable",
      "type": "function"
    },
    {
      "inputs": [
        {
          "internalType": "bool",
          "name": "select",
          "type": "bool"
        },
        {
          "internalType": "uint256",
          "name": "index",
          "type": "uint256"
        },
        {
          "internalType": "int256",
          "name": "lowerDelta_",
          "type": "int256"
        },
        {
          "internalType": "int256",
          "name": "upperDelta_",
          "type": "int256"
        },
        {
          "internalType": "int256",
          "name": "lag_",
          "type": "int256"
        }
      ],
      "name": "updateLagBreakpoint",
      "outputs": [],
      "stateMutability": "nonpayable",
      "type": "function"
    },
    {
      "inputs": [],
      "name": "upperDeviationThreshold",
      "outputs": [
        {
          "internalType": "uint256",
          "name": "",
          "type": "uint256"
        }
      ],
      "stateMutability": "view",
      "type": "function"
    },
    {
      "inputs": [
        {
          "internalType": "uint256",
          "name": "",
          "type": "uint256"
        }
      ],
      "name": "upperLagBreakpoints",
      "outputs": [
        {
          "internalType": "int256",
          "name": "lowerDelta",
          "type": "int256"
        },
        {
          "internalType": "int256",
          "name": "upperDelta",
          "type": "int256"
        },
        {
          "internalType": "int256",
          "name": "lag",
          "type": "int256"
        }
      ],
      "stateMutability": "view",
      "type": "function"
    },
    {
      "inputs": [],
      "name": "useDefaultRebaseLag",
      "outputs": [
        {
          "internalType": "bool",
          "name": "",
          "type": "bool"
        }
      ],
      "stateMutability": "view",
      "type": "function"
    }
  ],
  "bytecode": "0x6080604052670de0b6b3a764000060415560006100236001600160e01b0361007216565b600080546001600160a01b0319166001600160a01b0383169081178255604051929350917f8be0079c531659141344cd1fd0a4f28419497f9722a3daafe3b4186f6b6457e0908290a350610076565b3390565b612c2c806100856000396000f3fe608060405234801561001057600080fd5b50600436106102115760003560e01c8063715018a6116101255780639466120f116100ad578063b41d72131161007c578063b41d7213146103ec578063b74795d9146103f4578063c8329711146103fc578063e0e0fbb91461041d578063f2fde38b1461042557610211565b80639466120f146103b6578063a68655a3146103be578063a7f91f56146103d1578063af14052c146103e457610211565b806388646a05116100f457806388646a051461036d5780638bc901ad146103805780638da5cb5b14610393578063900cf0cf1461039b578063918924b9146103a357610211565b8063715018a614610337578063766d74b01461033f5780637adbf973146103525780637dc0d1d01461036557610211565b806334d8e888116101a8578063474acacb11610177578063474acacb146102ec578063485cc955146102ff5780635e2bb5c5146103125780636422380a1461031a5780637052b9021461032f57610211565b806334d8e888146102b65780633a93069b146102c957806342c2b2b6146102d157806345829a86146102e457610211565b8063111d0498116101e4578063111d04981461028057806316250fd41461028857806325a614d01461029b5780632f18220c146102a357610211565b80630210189914610216578063086dc7551461023457806309f7ca32146102565780630e34ce8b1461026b575b600080fd5b61021e610438565b60405161022b9190612751565b60405180910390f35b61024761024236600461263c565b61043e565b60405161022b9392919061275a565b61025e61046e565b60405161022b919061272d565b61027e6102793660046126b4565b610477565b005b61025e6104fd565b61027e6102963660046126d5565b610550565b61021e6105ee565b61027e6102b136600461266c565b6105f4565b61027e6102c4366004612517565b6106ba565b61021e610855565b61027e6102df3660046125bf565b61085b565b61021e610b4c565b61027e6102fa3660046125f9565b610b52565b61027e61030d36600461254f565b610d6b565b61021e610eba565b610322610ec0565b60405161022b9190612700565b61021e610ecf565b61027e610ed5565b61024761034d36600461263c565b610f54565b61027e610360366004612517565b610f61565b610322610fec565b61027e61037b36600461263c565b610ffb565b61027e61038e366004612587565b611072565b6103226110eb565b61021e6110fa565b61027e6103b136600461263c565b611100565b61021e6112c9565b61027e6103cc366004612587565b6112cf565b61027e6103df3660046126b4565b6114b8565b61027e611555565b61021e611942565b610322611948565b61040f61040a36600461263c565b611957565b60405161022b929190612738565b61021e611987565b61027e610433366004612517565b61198d565b603c5481565b603b818154811061044b57fe5b600091825260209091206003909102018054600182015460029092015490925083565b60375460ff1681565b61047f611a43565b6000546001600160a01b039081169116146104b55760405162461bcd60e51b81526004016104ac906129be565b60405180910390fd5b603582905560368190556040517ff2a1a2c786bd7c0d55b60e0e0191fdb56831c890f0d20def839ecc9cee011245906104f19084908490612bc2565b60405180910390a15050565b6000603e54610517603c5442611a4790919063ffffffff16565b1015801561054b5750603f54603e546105359163ffffffff611a9216565b603c5461054990429063ffffffff611a4716565b105b905090565b610558611a43565b6000546001600160a01b039081169116146105855760405162461bcd60e51b81526004016104ac906129be565b6000831161059257600080fd5b82821061059e57600080fd5b603c839055603e829055603f8190556040517fc310562210f0e2c20427330dbbea24071f59e75317f6808661a3d84910d9ebe4906105e19085908590859061275a565b60405180910390a1505050565b60395481565b604054829081106106175760405162461bcd60e51b81526004016104ac90612a8c565b61061f611a43565b6000546001600160a01b0390811691161461064c5760405162461bcd60e51b81526004016104ac906129be565b60006040848154811061065b57fe5b6000918252602090912001805460ff1916841515178082556040519192507f8d98f1d4a32743971182273fc0c15838320630249cdddb1cfb4b1a91f18a6278916106ac91879160ff90911690612b93565b60405180910390a150505050565b6106c2611a43565b6000546001600160a01b039081169116146106ef5760405162461bcd60e51b81526004016104ac906129be565b6106f76124df565b5060408051808201909152600081526001600160a01b038216602082015261071d6110eb565b6001600160a01b031681602001516001600160a01b0316638da5cb5b6040518163ffffffff1660e01b8152600401602060405180830381600087803b15801561076557600080fd5b505af1158015610779573d6000803e3d6000fd5b505050506040513d601f19601f8201168201806040525081019061079d9190612533565b6001600160a01b0316146107c35760405162461bcd60e51b81526004016104ac90612a41565b60408054600181018255600082905282517f352feee0eea125f11f791c1b77524172e9bc20f1b719b6cef0fc24f64db8e15e9091018054602085015160ff1990911692151592909217610100600160a81b0319166101006001600160a01b0384160217905590517f0bfbd5f8aef00d1f6fbbf33a5c4782b1b86b8d396d53ad6750ac18a2701bff1e916104f191612700565b603d5481565b610863611a43565b6000546001600160a01b039081169116146108905760405162461bcd60e51b81526004016104ac906129be565b600083121580156108a057508183125b6108bc5760405162461bcd60e51b81526004016104ac90612b13565b600081136108dc5760405162461bcd60e51b81526004016104ac906128cc565b6108e46124f6565b60405180606001604052808581526020018481526020018381525090506109096124f6565b60008615610a0e5750603a54801561097a57603a61092e82600163ffffffff611ab716565b8154811061093857fe5b60009182526020918290206040805160608101825260039093029091018054835260018101549383018490526002015490820152925086121561097a57600080fd5b603a805460018101825560009190915283517fa2999d817b6757290b50e8ecf3fa939673403dd35c97de392fdb343b4015ce9e60039092029182015560208401517fa2999d817b6757290b50e8ecf3fa939673403dd35c97de392fdb343b4015ce9f82015560408401517fa2999d817b6757290b50e8ecf3fa939673403dd35c97de392fdb343b4015cea090910155610b07565b50603b548015610a7757603b610a2b82600163ffffffff611ab716565b81548110610a3557fe5b600091825260209182902060408051606081018252600390930290910180548352600181015493830184905260020154908201529250861215610a7757600080fd5b603b805460018101825560009190915283517fbbe3212124853f8b0084a66a2d057c2966e251e132af3691db153ab65f0d1a4d60039092029182015560208401517fbbe3212124853f8b0084a66a2d057c2966e251e132af3691db153ab65f0d1a4e82015560408401517fbbe3212124853f8b0084a66a2d057c2966e251e132af3691db153ab65f0d1a4f909101555b84868815157f928bdcde36c7cb333efc5e74ad4a9f07c0d1192eb4d7e13586e1e67b2d03d8a687604051610b3b9190612751565b60405180910390a450505050505050565b60415481565b610b5a611a43565b6000546001600160a01b03908116911614610b875760405162461bcd60e51b81526004016104ac906129be565b6000808412158015610b9857508284125b610bb45760405162461bcd60e51b81526004016104ac90612b13565b60008213610bd45760405162461bcd60e51b81526004016104ac906128cc565b8515610c7d57610c5b858585603a805480602002602001604051908101604052809291908181526020016000905b82821015610c525783829060005260206000209060030201604051806060016040529081600082015481526020016001820154815260200160028201548152505081526020019060010190610c02565b50505050611af9565b603a8581548110610c6857fe5b90600052602060002090600302019050610d12565b610cf4858585603b8054806020026020016040519081016040528092919081815260200160009082821015610c525783829060005260206000209060030201604051806060016040529081600082015481526020016001820154815260200160028201548152505081526020019060010190610c02565b603b8581548110610d0157fe5b906000526020600020906003020190505b838155600181018390556002810182905560405183908590881515907f4a5e29cf602d029b0fa991c3ae66d869958e64a88e1002a1bf17789f7353f79190610d5b908790612751565b60405180910390a4505050505050565b600054600160a81b900460ff1680610d865750610d86611c70565b80610d9b5750600054600160a01b900460ff16155b610db75760405162461bcd60e51b81526004016104ac906129f3565b600054600160a81b900460ff16158015610dee576000805460ff60a01b1960ff60a81b19909116600160a81b1716600160a01b1790555b610df6611a43565b6000546001600160a01b03908116911614610e235760405162461bcd60e51b81526004016104ac906129be565b603380546001600160a01b038086166001600160a01b031992831617909255604380549285169290911691909117905566b1a2bc2ec5000060358190556036556037805460ff19169055601e603881905560395562015180603c556000603d81905562011940603e55610384603f55670de0b6b3a76400006041556042558015610eb5576000805460ff60a81b191690555b505050565b60355481565b6033546001600160a01b031681565b603e5481565b610edd611a43565b6000546001600160a01b03908116911614610f0a5760405162461bcd60e51b81526004016104ac906129be565b600080546040516001600160a01b03909116907f8be0079c531659141344cd1fd0a4f28419497f9722a3daafe3b4186f6b6457e0908390a3600080546001600160a01b0319169055565b603a818154811061044b57fe5b610f69611a43565b6000546001600160a01b03908116911614610f965760405162461bcd60e51b81526004016104ac906129be565b603480546001600160a01b0319166001600160a01b0383161790556040517fad675642c3cba5442815383698d42cd28889533d9671a6d32cffea58ef0874da90610fe1908390612700565b60405180910390a150565b6034546001600160a01b031681565b611003611a43565b6000546001600160a01b039081169116146110305760405162461bcd60e51b81526004016104ac906129be565b6000811161103d57600080fd5b60418190556040517f9457c638bc5449d3f74c089b0780a1b5007e8a48adfb3acf3e76f9176362258090610fe1908390612751565b61107a611a43565b6000546001600160a01b039081169116146110a75760405162461bcd60e51b81526004016104ac906129be565b6037805460ff191682151517908190556040517f421f44bf0cb9d434991a88f3a04b805b2bdfafac31545e2137266630904d64bc91610fe19160ff9091169061272d565b6000546001600160a01b031690565b60425481565b604054819081106111235760405162461bcd60e51b81526004016104ac90612a8c565b61112b611a43565b6000546001600160a01b039081169116146111585760405162461bcd60e51b81526004016104ac906129be565b6111606124df565b6040838154811061116d57fe5b60009182526020918290206040805180820190915291015460ff811615801583526101009091046001600160a01b03169282019290925291506111c25760405162461bcd60e51b81526004016104ac906128f7565b6040546000906111d990600163ffffffff611ab716565b90508084101561125257604081815481106111f057fe5b906000526020600020016040858154811061120757fe5b6000918252602090912082549101805460ff909216151560ff199092169190911780825591546001600160a01b03610100918290041602610100600160a81b03199092169190911790555b7fce820fc934ce2338188f91b62e725d4cf588397b7daf47b8f4a48d6860406a4382602001516040516112859190612700565b60405180910390a1604080548061129857fe5b600082815260209020810160001990810180546001600160a81b03191690550190556112c26124df565b5050505050565b603f5481565b6112d7611a43565b6000546001600160a01b039081169116146113045760405162461bcd60e51b81526004016104ac906129be565b61130c6124f6565b81156113be57603a546113315760405162461bcd60e51b81526004016104ac9061280c565b603a805461134690600163ffffffff611ab716565b8154811061135057fe5b906000526020600020906003020160405180606001604052908160008201548152602001600182015481526020016002820154815250509050603a80548061139457fe5b60008281526020812060036000199093019283020181815560018101829055600201559055611466565b603b546113dd5760405162461bcd60e51b81526004016104ac9061280c565b603b80546113f290600163ffffffff611ab716565b815481106113fc57fe5b906000526020600020906003020160405180606001604052908160008201548152602001600182015481526020016002820154815250509050603b80548061144057fe5b600082815260208120600360001990930192830201818155600181018290556002015590555b8115157f18c2bcec3e6c6452152764be6cb28796bcac076fe6cf8cf6c13b0aec15b8c07d8260000151836020015184604001516040516114a89392919061275a565b60405180910390a2610eb56124f6565b6114c0611a43565b6000546001600160a01b039081169116146114ed5760405162461bcd60e51b81526004016104ac906129be565b6000821180156114fd5750600081115b6115195760405162461bcd60e51b81526004016104ac90612b5c565b603882905560398190556040517f0cf29485c227ac1d6ac807d4cd403a5d3f7c3f720969258b742acec2997681fd906104f19084908490612bc2565b6043546001600160a01b0316331461156c57600080fd5b6115746104fd565b6115905760405162461bcd60e51b81526004016104ac906127de565b426115a8603c54603d54611a9290919063ffffffff16565b106115b257600080fd5b6115e9603e546115dd6115d0603c5442611a4790919063ffffffff16565b429063ffffffff611ab716565b9063ffffffff611a9216565b603d5560425461160090600163ffffffff611a9216565b604255603454604080516303bc5de360e41b8152815160009384936001600160a01b0390911692633bc5de30926004808301939282900301818787803b15801561164957600080fd5b505af115801561165d573d6000803e3d6000fd5b505050506040513d601f19601f820116820180604052508101906116819190612690565b90925090508061169057600080fd5b69d3c21bcecceda10000008211156116b05769d3c21bcecceda100000091505b60006116be83604154611c76565b9050600081156116e6576116d182611d5a565b90506116e3828263ffffffff611f3916565b91505b600082138015611791575069d3c21bcecceda10000006001600160ff1b030461178f83603360009054906101000a90046001600160a01b03166001600160a01b03166318160ddd6040518163ffffffff1660e01b815260040160206040518083038186803b15801561175757600080fd5b505afa15801561176b573d6000803e3d6000fd5b505050506040513d601f19601f820116820180604052508101906115dd9190612654565b115b156118475761184461183f603360009054906101000a90046001600160a01b03166001600160a01b03166318160ddd6040518163ffffffff1660e01b815260040160206040518083038186803b1580156117ea57600080fd5b505afa1580156117fe573d6000803e3d6000fd5b505050506040513d601f19601f820116820180604052508101906118229190612654565b759abe14cd44753b52c4926a9672793542d78c3615cf3a90611ab7565b611f6a565b91505b611852828286611f84565b603354604254604051637a43e23f60e01b81526000926001600160a01b031691637a43e23f9161188791908790600401612bc2565b602060405180830381600087803b1580156118a157600080fd5b505af11580156118b5573d6000803e3d6000fd5b505050506040513d601f19601f820116820180604052508101906118d99190612654565b9050759abe14cd44753b52c4926a9672793542d78c3615cf3a8111156118fb57fe5b6042547f99b07d1e6bfc7424d8c7bcad2846bb27b50985314b0f53cc6cb8571e557e2cfc868585426040516119339493929190612770565b60405180910390a25050505050565b60385481565b6043546001600160a01b031681565b6040818154811061196457fe5b60009182526020909120015460ff8116915061010090046001600160a01b031682565b60365481565b611995611a43565b6000546001600160a01b039081169116146119c25760405162461bcd60e51b81526004016104ac906129be565b6001600160a01b0381166119e85760405162461bcd60e51b81526004016104ac9061284f565b600080546040516001600160a01b03808516939216917f8be0079c531659141344cd1fd0a4f28419497f9722a3daafe3b4186f6b6457e091a3600080546001600160a01b0319166001600160a01b0392909216919091179055565b3390565b6000611a8983836040518060400160405280601881526020017f536166654d6174683a206d6f64756c6f206279207a65726f00000000000000008152506121d8565b90505b92915050565b600082820183811015611a895760405162461bcd60e51b81526004016104ac90612895565b6000611a8983836040518060400160405280601e81526020017f536166654d6174683a207375627472616374696f6e206f766572666c6f77000081525061220c565b805180611b185760405162461bcd60e51b81526004016104ac90612ad0565b611b2981600163ffffffff611ab716565b851115611b485760405162461bcd60e51b81526004016104ac9061293a565b611b506124f6565b611b586124f6565b86611baa578260011415611b6e57505050611c6a565b83611b8088600163ffffffff611a9216565b81518110611b8a57fe5b602002602001015190508060000151851315611ba557600080fd5b611c66565b611bbb83600163ffffffff611ab716565b871415611bf95783611bd488600163ffffffff611ab716565b81518110611bde57fe5b602002602001015191508160200151861215611ba557600080fd5b83611c0b88600163ffffffff611a9216565b81518110611c1557fe5b6020026020010151905083611c34600189611ab790919063ffffffff16565b81518110611c3e57fe5b6020026020010151915081602001518612158015611c5d575080518513155b611c6657600080fd5b5050505b50505050565b303b1590565b6000611c828383612238565b15611c8f57506000611a8c565b6000611c9a83611f6a565b9050611d5281611d46611cbc84611cb089611f6a565b9063ffffffff6122d116565b603354604080516318160ddd60e01b81529051611d3a926001600160a01b0316916318160ddd916004808301926020929190829003018186803b158015611d0257600080fd5b505afa158015611d16573d6000803e3d6000fd5b505050506040513d601f19601f8201168201806040525081019061183f9190612654565b9063ffffffff61230416565b9063ffffffff611f3916565b949350505050565b6000806000611d688461234b565b60375490915060ff16611e8a576000841215611e0457611dfd81603b805480602002602001604051908101604052809291908181526020016000905b82821015611df45783829060005260206000209060030201604051806060016040529081600082015481526020016001820154815260200160028201548152505081526020019060010190611da4565b50505050612373565b9150611e7c565b611e7981603a8054806020026020016040519081016040528092919081815260200160009082821015611df45783829060005260206000209060030201604051806060016040529081600082015481526020016001820154815260200160028201548152505081526020019060010190611da4565b91505b8115611e8a57509050611f34565b6000841215611ee8577fb9b36e332e5be602e2f5e3fe24017533a0be6f3f2b18585301356f7611fdcfbe611ebf603954611f6a565b604051611ecc9190612751565b60405180910390a1611edf603954611f6a565b92505050611f34565b7fb9b36e332e5be602e2f5e3fe24017533a0be6f3f2b18585301356f7611fdcfbe611f14603854611f6a565b604051611f219190612751565b60405180910390a1611edf603854611f6a565b919050565b600081600019141580611f505750600160ff1b8314155b611f5957600080fd5b818381611f6257fe5b059392505050565b60006001600160ff1b03821115611f8057600080fd5b5090565b60005b604054811015611c6a57611f996124df565b60408281548110611fa657fe5b60009182526020918290206040805180820190915291015460ff811615801583526101009091046001600160a01b03169282019290925291506121bf5760208101516033546040516370a0823160e01b81526000926001600160a01b0390811692638798a9d2928a928a928a929116906370a082319061202a903090600401612700565b602060405180830381600087803b15801561204457600080fd5b505af1158015612058573d6000803e3d6000fd5b505050506040513d601f19601f8201168201806040525081019061207c9190612654565b6040518563ffffffff1660e01b815260040161209b9493929190612770565b602060405180830381600087803b1580156120b557600080fd5b505af11580156120c9573d6000803e3d6000fd5b505050506040513d601f19601f820116820180604052508101906120ed9190612654565b905080156121bd57603354602083015160405163a9059cbb60e01b81526001600160a01b039092169163a9059cbb9161212a918590600401612714565b602060405180830381600087803b15801561214457600080fd5b505af1158015612158573d6000803e3d6000fd5b505050506040513d601f19601f8201168201806040525081019061217c91906125a3565b507f114fc81827c656bc8002783eb8af65b800d13ef3714e84180a137e0666800271838360200151836040516121b493929190612ba3565b60405180910390a15b505b506121d181600163ffffffff611a9216565b9050611f87565b600081836121f95760405162461bcd60e51b81526004016104ac919061278b565b5082848161220357fe5b06949350505050565b600081848411156122305760405162461bcd60e51b81526004016104ac919061278b565b505050900390565b6000806122646012600a0a6122586035548661243190919063ffffffff16565b9063ffffffff61246b16565b905060006122856012600a0a6122586036548761243190919063ffffffff16565b90508385101580156122a55750816122a3868663ffffffff611ab716565b105b806122c8575083851080156122c85750806122c6858763ffffffff611ab716565b105b95945050505050565b60008183038183128015906122e65750838113155b806122fb57506000831280156122fb57508381135b611a8957600080fd5b6000828202600160ff1b811415806123255750600160ff1b84811690841614155b61232e57600080fd5b8215806122fb57508383828161234057fe5b0514611a8957600080fd5b6000600160ff1b82141561235e57600080fd5b6000821261236c5781611a8c565b5060000390565b600061237d6124f6565b60005b83518110156124265783818151811061239557fe5b6020026020010151915081600001518512156123b057612426565b8160200151851361240e577fc4ab5b6c060282ff0ac6fd60d218d6c443f743af9ec773a59fda02ad12243dbd8260000151836020015184604001516040516123fa9392919061275a565b60405180910390a150604001519050611a8c565b61241f81600163ffffffff611a9216565b9050612380565b506000949350505050565b60008261244057506000611a8c565b8282028284828161244d57fe5b0414611a895760405162461bcd60e51b81526004016104ac9061297d565b6000611a8983836040518060400160405280601a81526020017f536166654d6174683a206469766973696f6e206279207a65726f000000000000815250600081836124c95760405162461bcd60e51b81526004016104ac919061278b565b5060008385816124d557fe5b0495945050505050565b604080518082019091526000808252602082015290565b60405180606001604052806000815260200160008152602001600081525090565b600060208284031215612528578081fd5b8135611a8981612bd0565b600060208284031215612544578081fd5b8151611a8981612bd0565b60008060408385031215612561578081fd5b823561256c81612bd0565b9150602083013561257c81612bd0565b809150509250929050565b600060208284031215612598578081fd5b8135611a8981612be8565b6000602082840312156125b4578081fd5b8151611a8981612be8565b600080600080608085870312156125d4578182fd5b84356125df81612be8565b966020860135965060408601359560600135945092505050565b600080600080600060a08688031215612610578081fd5b853561261b81612be8565b97602087013597506040870135966060810135965060800135945092505050565b60006020828403121561264d578081fd5b5035919050565b600060208284031215612665578081fd5b5051919050565b6000806040838503121561267e578182fd5b82359150602083013561257c81612be8565b600080604083850312156126a2578182fd5b82519150602083015161257c81612be8565b600080604083850312156126c6578182fd5b50508035926020909101359150565b6000806000606084860312156126e9578283fd5b505081359360208301359350604090920135919050565b6001600160a01b0391909116815260200190565b6001600160a01b03929092168252602082015260400190565b901515815260200190565b91151582526001600160a01b0316602082015260400190565b90815260200190565b9283526020830191909152604082015260600190565b93845260208401929092526040830152606082015260800190565b6000602080835283518082850152825b818110156127b75785810183015185820160400152820161279b565b818111156127c85783604083870101525b50601f01601f1916929092016040019392505050565b6020808252601490820152734e6f7420696e207265626173652077696e646f7760601b604082015260600190565b60208082526023908201527f43616e27742064656c65746520656d70747920627265616b706f696e7420617260408201526272617960e81b606082015260800190565b60208082526026908201527f4f776e61626c653a206e6577206f776e657220697320746865207a65726f206160408201526564647265737360d01b606082015260800190565b6020808252601b908201527f536166654d6174683a206164646974696f6e206f766572666c6f770000000000604082015260600190565b6020808252601190820152704c61672063616e2774206265207a65726f60781b604082015260600190565b60208082526023908201527f4f6e6c7920612064697361626c656420706f6f6c2063616e2062652064656c656040820152621d195960ea1b606082015260800190565b60208082526023908201527f496e64657820686967686572207468616e20656c656d656e7473206176616961604082015262626c6560e81b606082015260800190565b60208082526021908201527f536166654d6174683a206d756c7469706c69636174696f6e206f766572666c6f6040820152607760f81b606082015260800190565b6020808252818101527f4f776e61626c653a2063616c6c6572206973206e6f7420746865206f776e6572604082015260600190565b6020808252602e908201527f436f6e747261637420696e7374616e63652068617320616c726561647920626560408201526d195b881a5b9a5d1a585b1a5e995960921b606082015260800190565b6020808252602b908201527f4d7573742068617665207468652073616d65206f776e657220617320706f6c6960408201526a18de4818dbdb9d1c9858dd60aa1b606082015260800190565b60208082526024908201527f496e646578206d757374206265206c657373207468616e206172726179206c656040820152630dccee8d60e31b606082015260800190565b60208082526023908201527f43616e27742075706461746520656d70747920627265616b706f696e7420617260408201526272617960e81b606082015260800190565b60208082526029908201527f4c6f7765722064656c7461206d757374206265206c657373207468616e2075706040820152687065722064656c746160b81b606082015260800190565b6020808252601d908201527f4c6167206d7573742062652067726561746572207468616e207a65726f000000604082015260600190565b9182521515602082015260400190565b9283526001600160a01b03919091166020830152604082015260600190565b918252602082015260400190565b6001600160a01b0381168114612be557600080fd5b50565b8015158114612be557600080fdfea26469706673582212208da0521d0f9480cf63cebb839ef9d0605a419de6eaad7750f73a018d9f25ab4164736f6c63430006060033",
  "linkReferences": {},
  "deployedLinkReferences": {}
}