{
  "_format": "hh-sol-artifact-1",
  "contractName": "BurnPool",
  "sourceName": "contracts/Debt-Issuance-Pool/BurnPool.sol",
  "abi": [
    {
      "anonymous": false,
      "inputs": [
        {
          "indexed": false,
          "internalType": "uint256",
          "name": "withdrawAmount_",
          "type": "uint256"
        }
      ],
      "name": "LogEmergencyWithdrawa",
      "type": "event"
    },
    {
      "anonymous": false,
      "inputs": [
        {
          "indexed": false,
          "internalType": "uint256",
          "name": "index",
          "type": "uint256"
        },
        {
          "indexed": false,
          "internalType": "uint256",
          "name": "epochsToReward",
          "type": "uint256"
        },
        {
          "indexed": false,
          "internalType": "uint256",
          "name": "rewardAmount",
          "type": "uint256"
        },
        {
          "indexed": false,
          "internalType": "uint256",
          "name": "epochsRewarded",
          "type": "uint256"
        },
        {
          "indexed": false,
          "internalType": "uint256",
          "name": "couponsIssued",
          "type": "uint256"
        },
        {
          "indexed": false,
          "internalType": "uint256",
          "name": "rewardRate",
          "type": "uint256"
        },
        {
          "indexed": false,
          "internalType": "uint256",
          "name": "periodFinish",
          "type": "uint256"
        },
        {
          "indexed": false,
          "internalType": "uint256",
          "name": "lastUpdateTime",
          "type": "uint256"
        },
        {
          "indexed": false,
          "internalType": "uint256",
          "name": "rewardPerTokenStored",
          "type": "uint256"
        },
        {
          "indexed": false,
          "internalType": "uint256",
          "name": "couponsPerEpoch",
          "type": "uint256"
        },
        {
          "indexed": false,
          "internalType": "uint256",
          "name": "rewardDistributed",
          "type": "uint256"
        }
      ],
      "name": "LogNewCouponCycle",
      "type": "event"
    },
    {
      "anonymous": false,
      "inputs": [
        {
          "indexed": false,
          "internalType": "uint256",
          "name": "price_",
          "type": "uint256"
        },
        {
          "indexed": false,
          "internalType": "uint256",
          "name": "period_",
          "type": "uint256"
        }
      ],
      "name": "LogOraclePriceAndPeriod",
      "type": "event"
    },
    {
      "anonymous": false,
      "inputs": [
        {
          "indexed": false,
          "internalType": "address",
          "name": "user",
          "type": "address"
        },
        {
          "indexed": false,
          "internalType": "uint256",
          "name": "cycleIndex",
          "type": "uint256"
        },
        {
          "indexed": false,
          "internalType": "uint256",
          "name": "rewardClaimed_",
          "type": "uint256"
        }
      ],
      "name": "LogRewardClaimed",
      "type": "event"
    },
    {
      "anonymous": false,
      "inputs": [
        {
          "indexed": false,
          "internalType": "uint256",
          "name": "rewardsAccured_",
          "type": "uint256"
        }
      ],
      "name": "LogRewardsAccured",
      "type": "event"
    },
    {
      "anonymous": false,
      "inputs": [
        {
          "indexed": false,
          "internalType": "uint256",
          "name": "curveShifter_",
          "type": "uint256"
        }
      ],
      "name": "LogSetCurveShifter",
      "type": "event"
    },
    {
      "anonymous": false,
      "inputs": [
        {
          "indexed": false,
          "internalType": "uint256",
          "name": "epochs_",
          "type": "uint256"
        }
      ],
      "name": "LogSetEpochs",
      "type": "event"
    },
    {
      "anonymous": false,
      "inputs": [
        {
          "indexed": false,
          "internalType": "bytes16",
          "name": "mean_",
          "type": "bytes16"
        },
        {
          "indexed": false,
          "internalType": "bytes16",
          "name": "deviation_",
          "type": "bytes16"
        },
        {
          "indexed": false,
          "internalType": "bytes16",
          "name": "oneDivDeviationSqrtTwoPi_",
          "type": "bytes16"
        },
        {
          "indexed": false,
          "internalType": "bytes16",
          "name": "twoDeviationSquare_",
          "type": "bytes16"
        }
      ],
      "name": "LogSetMeanAndDeviationWithFormulaConstants",
      "type": "event"
    },
    {
      "anonymous": false,
      "inputs": [
        {
          "indexed": false,
          "internalType": "contract IOracle",
          "name": "oracle_",
          "type": "address"
        }
      ],
      "name": "LogSetOracle",
      "type": "event"
    },
    {
      "anonymous": false,
      "inputs": [
        {
          "indexed": false,
          "internalType": "uint256",
          "name": "oraclePeriod_",
          "type": "uint256"
        }
      ],
      "name": "LogSetOraclePeriod",
      "type": "event"
    },
    {
      "anonymous": false,
      "inputs": [
        {
          "indexed": false,
          "internalType": "uint256",
          "name": "rewardAmount_",
          "type": "uint256"
        },
        {
          "indexed": false,
          "internalType": "uint256",
          "name": "poolShareAdded_",
          "type": "uint256"
        },
        {
          "indexed": false,
          "internalType": "uint256",
          "name": "rewardRate_",
          "type": "uint256"
        },
        {
          "indexed": false,
          "internalType": "uint256",
          "name": "periodFinish_",
          "type": "uint256"
        }
      ],
      "name": "LogStartNewDistributionCycle",
      "type": "event"
    },
    {
      "anonymous": false,
      "inputs": [
        {
          "indexed": true,
          "internalType": "address",
          "name": "previousOwner",
          "type": "address"
        },
        {
          "indexed": true,
          "internalType": "address",
          "name": "newOwner",
          "type": "address"
        }
      ],
      "name": "OwnershipTransferred",
      "type": "event"
    },
    {
      "inputs": [],
      "name": "burnPool1",
      "outputs": [
        {
          "internalType": "address",
          "name": "",
          "type": "address"
        }
      ],
      "stateMutability": "view",
      "type": "function"
    },
    {
      "inputs": [],
      "name": "burnPool2",
      "outputs": [
        {
          "internalType": "address",
          "name": "",
          "type": "address"
        }
      ],
      "stateMutability": "view",
      "type": "function"
    },
    {
      "inputs": [
        {
          "internalType": "uint256",
          "name": "debaseSent",
          "type": "uint256"
        }
      ],
      "name": "buyDebt",
      "outputs": [],
      "stateMutability": "nonpayable",
      "type": "function"
    },
    {
      "inputs": [
        {
          "internalType": "bytes16",
          "name": "number_",
          "type": "bytes16"
        },
        {
          "internalType": "uint256",
          "name": "scale_",
          "type": "uint256"
        }
      ],
      "name": "bytes16ToUnit256",
      "outputs": [
        {
          "internalType": "uint256",
          "name": "",
          "type": "uint256"
        }
      ],
      "stateMutability": "pure",
      "type": "function"
    },
    {
      "inputs": [
        {
          "internalType": "int256",
          "name": "supplyDelta_",
          "type": "int256"
        },
        {
          "internalType": "int256",
          "name": "rebaseLag_",
          "type": "int256"
        },
        {
          "internalType": "uint256",
          "name": "exchangeRate_",
          "type": "uint256"
        },
        {
          "internalType": "uint256",
          "name": "debasePolicyBalance",
          "type": "uint256"
        }
      ],
      "name": "checkStabilizerAndGetReward",
      "outputs": [
        {
          "internalType": "uint256",
          "name": "rewardAmount_",
          "type": "uint256"
        }
      ],
      "stateMutability": "nonpayable",
      "type": "function"
    },
    {
      "inputs": [],
      "name": "curveShifter",
      "outputs": [
        {
          "internalType": "uint256",
          "name": "",
          "type": "uint256"
        }
      ],
      "stateMutability": "view",
      "type": "function"
    },
    {
      "inputs": [],
      "name": "debase",
      "outputs": [
        {
          "internalType": "contract IERC20",
          "name": "",
          "type": "address"
        }
      ],
      "stateMutability": "view",
      "type": "function"
    },
    {
      "inputs": [],
      "name": "deviation",
      "outputs": [
        {
          "internalType": "bytes16",
          "name": "",
          "type": "bytes16"
        }
      ],
      "stateMutability": "view",
      "type": "function"
    },
    {
      "inputs": [
        {
          "internalType": "address",
          "name": "account",
          "type": "address"
        },
        {
          "internalType": "uint256",
          "name": "index",
          "type": "uint256"
        }
      ],
      "name": "earned",
      "outputs": [
        {
          "internalType": "uint256",
          "name": "",
          "type": "uint256"
        }
      ],
      "stateMutability": "view",
      "type": "function"
    },
    {
      "inputs": [],
      "name": "emergencyWithdraw",
      "outputs": [],
      "stateMutability": "nonpayable",
      "type": "function"
    },
    {
      "inputs": [],
      "name": "epochs",
      "outputs": [
        {
          "internalType": "uint256",
          "name": "",
          "type": "uint256"
        }
      ],
      "stateMutability": "view",
      "type": "function"
    },
    {
      "inputs": [
        {
          "internalType": "uint256",
          "name": "coupons_",
          "type": "uint256"
        },
        {
          "internalType": "uint256",
          "name": "priceDelta_",
          "type": "uint256"
        },
        {
          "internalType": "bytes16",
          "name": "mean_",
          "type": "bytes16"
        },
        {
          "internalType": "bytes16",
          "name": "oneDivDeviationSqrtTwoPi_",
          "type": "bytes16"
        },
        {
          "internalType": "bytes16",
          "name": "twoDeviationSquare_",
          "type": "bytes16"
        }
      ],
      "name": "getCurvePoint",
      "outputs": [
        {
          "internalType": "uint256",
          "name": "",
          "type": "uint256"
        }
      ],
      "stateMutability": "view",
      "type": "function"
    },
    {
      "inputs": [
        {
          "internalType": "uint256",
          "name": "index",
          "type": "uint256"
        }
      ],
      "name": "getReward",
      "outputs": [],
      "stateMutability": "nonpayable",
      "type": "function"
    },
    {
      "inputs": [
        {
          "internalType": "address",
          "name": "debase_",
          "type": "address"
        },
        {
          "internalType": "contract IOracle",
          "name": "oracle_",
          "type": "address"
        },
        {
          "internalType": "contract IDebasePolicy",
          "name": "policy_",
          "type": "address"
        },
        {
          "internalType": "address",
          "name": "burnPool1_",
          "type": "address"
        },
        {
          "internalType": "address",
          "name": "burnPool2_",
          "type": "address"
        },
        {
          "internalType": "uint256",
          "name": "epochs_",
          "type": "uint256"
        },
        {
          "internalType": "uint256",
          "name": "oraclePeriod_",
          "type": "uint256"
        },
        {
          "internalType": "uint256",
          "name": "curveShifter_",
          "type": "uint256"
        },
        {
          "internalType": "bytes16",
          "name": "mean_",
          "type": "bytes16"
        },
        {
          "internalType": "bytes16",
          "name": "deviation_",
          "type": "bytes16"
        },
        {
          "internalType": "bytes16",
          "name": "oneDivDeviationSqrtTwoPi_",
          "type": "bytes16"
        },
        {
          "internalType": "bytes16",
          "name": "twoDeviationSquare_",
          "type": "bytes16"
        }
      ],
      "name": "initialize",
      "outputs": [],
      "stateMutability": "nonpayable",
      "type": "function"
    },
    {
      "inputs": [],
      "name": "lastRebase",
      "outputs": [
        {
          "internalType": "enum BurnPool.Rebase",
          "name": "",
          "type": "uint8"
        }
      ],
      "stateMutability": "view",
      "type": "function"
    },
    {
      "inputs": [],
      "name": "mean",
      "outputs": [
        {
          "internalType": "bytes16",
          "name": "",
          "type": "bytes16"
        }
      ],
      "stateMutability": "view",
      "type": "function"
    },
    {
      "inputs": [],
      "name": "oneDivDeviationSqrtTwoPi",
      "outputs": [
        {
          "internalType": "bytes16",
          "name": "",
          "type": "bytes16"
        }
      ],
      "stateMutability": "view",
      "type": "function"
    },
    {
      "inputs": [],
      "name": "oracle",
      "outputs": [
        {
          "internalType": "contract IOracle",
          "name": "",
          "type": "address"
        }
      ],
      "stateMutability": "view",
      "type": "function"
    },
    {
      "inputs": [],
      "name": "oracleNextUpdate",
      "outputs": [
        {
          "internalType": "uint256",
          "name": "",
          "type": "uint256"
        }
      ],
      "stateMutability": "view",
      "type": "function"
    },
    {
      "inputs": [],
      "name": "oraclePeriod",
      "outputs": [
        {
          "internalType": "uint256",
          "name": "",
          "type": "uint256"
        }
      ],
      "stateMutability": "view",
      "type": "function"
    },
    {
      "inputs": [],
      "name": "owner",
      "outputs": [
        {
          "internalType": "address",
          "name": "",
          "type": "address"
        }
      ],
      "stateMutability": "view",
      "type": "function"
    },
    {
      "inputs": [],
      "name": "policy",
      "outputs": [
        {
          "internalType": "contract IDebasePolicy",
          "name": "",
          "type": "address"
        }
      ],
      "stateMutability": "view",
      "type": "function"
    },
    {
      "inputs": [],
      "name": "renounceOwnership",
      "outputs": [],
      "stateMutability": "nonpayable",
      "type": "function"
    },
    {
      "inputs": [
        {
          "internalType": "uint256",
          "name": "",
          "type": "uint256"
        }
      ],
      "name": "rewardCycles",
      "outputs": [
        {
          "internalType": "uint256",
          "name": "epochsToReward",
          "type": "uint256"
        },
        {
          "internalType": "uint256",
          "name": "rewardAmount",
          "type": "uint256"
        },
        {
          "internalType": "uint256",
          "name": "epochsRewarded",
          "type": "uint256"
        },
        {
          "internalType": "uint256",
          "name": "couponsIssued",
          "type": "uint256"
        },
        {
          "internalType": "uint256",
          "name": "rewardRate",
          "type": "uint256"
        },
        {
          "internalType": "uint256",
          "name": "periodFinish",
          "type": "uint256"
        },
        {
          "internalType": "uint256",
          "name": "lastUpdateTime",
          "type": "uint256"
        },
        {
          "internalType": "uint256",
          "name": "rewardPerTokenStored",
          "type": "uint256"
        },
        {
          "internalType": "uint256",
          "name": "couponsPerEpoch",
          "type": "uint256"
        },
        {
          "internalType": "uint256",
          "name": "rewardDistributed",
          "type": "uint256"
        }
      ],
      "stateMutability": "view",
      "type": "function"
    },
    {
      "inputs": [],
      "name": "rewardsAccured",
      "outputs": [
        {
          "internalType": "uint256",
          "name": "",
          "type": "uint256"
        }
      ],
      "stateMutability": "view",
      "type": "function"
    },
    {
      "inputs": [
        {
          "internalType": "uint256",
          "name": "curveShifter_",
          "type": "uint256"
        }
      ],
      "name": "setCurveShifter",
      "outputs": [],
      "stateMutability": "nonpayable",
      "type": "function"
    },
    {
      "inputs": [
        {
          "internalType": "uint256",
          "name": "epochs_",
          "type": "uint256"
        }
      ],
      "name": "setEpochs",
      "outputs": [],
      "stateMutability": "nonpayable",
      "type": "function"
    },
    {
      "inputs": [
        {
          "internalType": "bytes16",
          "name": "mean_",
          "type": "bytes16"
        },
        {
          "internalType": "bytes16",
          "name": "deviation_",
          "type": "bytes16"
        },
        {
          "internalType": "bytes16",
          "name": "oneDivDeviationSqrtTwoPi_",
          "type": "bytes16"
        },
        {
          "internalType": "bytes16",
          "name": "twoDeviationSquare_",
          "type": "bytes16"
        }
      ],
      "name": "setMeanAndDeviationWithFormulaConstants",
      "outputs": [],
      "stateMutability": "nonpayable",
      "type": "function"
    },
    {
      "inputs": [
        {
          "internalType": "contract IOracle",
          "name": "oracle_",
          "type": "address"
        }
      ],
      "name": "setOracle",
      "outputs": [],
      "stateMutability": "nonpayable",
      "type": "function"
    },
    {
      "inputs": [
        {
          "internalType": "uint256",
          "name": "oraclePeriod_",
          "type": "uint256"
        }
      ],
      "name": "setOraclePeriod",
      "outputs": [],
      "stateMutability": "nonpayable",
      "type": "function"
    },
    {
      "inputs": [],
      "name": "totalRewardsDistributed",
      "outputs": [
        {
          "internalType": "uint256",
          "name": "",
          "type": "uint256"
        }
      ],
      "stateMutability": "view",
      "type": "function"
    },
    {
      "inputs": [
        {
          "internalType": "address",
          "name": "newOwner",
          "type": "address"
        }
      ],
      "name": "transferOwnership",
      "outputs": [],
      "stateMutability": "nonpayable",
      "type": "function"
    },
    {
      "inputs": [],
      "name": "twoDeviationSquare",
      "outputs": [
        {
          "internalType": "bytes16",
          "name": "",
          "type": "bytes16"
        }
      ],
      "stateMutability": "view",
      "type": "function"
    },
    {
      "inputs": [
        {
          "internalType": "uint256",
          "name": "number_",
          "type": "uint256"
        },
        {
          "internalType": "uint256",
          "name": "scale_",
          "type": "uint256"
        }
      ],
      "name": "uint256ToBytes16",
      "outputs": [
        {
          "internalType": "bytes16",
          "name": "",
          "type": "bytes16"
        }
      ],
      "stateMutability": "pure",
      "type": "function"
    }
  ],
  "bytecode": "0x6080604052600180546001600160801b03191661bfff60701b176001600160801b0316668075782dace9d960c71b1790556000620000456001600160e01b036200009516565b600080546001600160a01b0319166001600160a01b0383169081178255604051929350917f8be0079c531659141344cd1fd0a4f28419497f9722a3daafe3b4186f6b6457e0908290a35062000099565b3390565b614b4980620000a96000396000f3fe608060405234801561001057600080fd5b50600436106102055760003560e01c80637dc0d1d01161011a578063cbf950bd116100ad578063e16156571161007c578063e1615657146105cb578063ee172546146105d3578063f2fde38b146105db578063f30a3db814610601578063fa1c74651461060957610205565b8063cbf950bd14610596578063cbfb7efb1461059e578063cda6ec43146105a6578063db2e21bc146105c357610205565b8063a041a9ee116100e9578063a041a9ee14610551578063b03f920a14610559578063b610d97514610586578063bd19843f1461058e57610205565b80637dc0d1d0146104cd5780638798a9d2146104d55780638da5cb5b146105045780639df7947c1461050c57610205565b806352e87d8c1161019d5780636422380a1161016c5780636422380a1461044e578063715018a61461045657806375f740731461045e57806378f353a11461047b5780637adbf973146104a757610205565b806352e87d8c146103e257806358152d07146104215780635e02d96714610429578063639097a11461044657610205565b80633e491d47116101d95780633e491d4714610312578063400453f81461035057806342189c8f146103bd578063476ec2bb146103c557610205565b8062ae946b1461020a5780630505c8c9146102915780630b3e4880146102b55780631c4b774b146102f5575b600080fd5b61028f600480360361018081101561022157600080fd5b506001600160a01b0381358116916020810135821691604082013581169160608101358216916080820135169060a08101359060c08101359060e0810135906001600160801b0319610100820135811691610120810135821691610140820135811691610160013516610611565b005b610299610897565b604080516001600160a01b039092168252519081900360200190f35b6102d8600480360360408110156102cb57600080fd5b50803590602001356108a6565b604080516001600160801b03199092168252519081900360200190f35b61028f6004803603602081101561030b57600080fd5b50356108d6565b61033e6004803603604081101561032857600080fd5b506001600160a01b038135169060200135610b35565b60408051918252519081900360200190f35b61036d6004803603602081101561036657600080fd5b5035610c7a565b604080519a8b5260208b0199909952898901979097526060890195909552608088019390935260a087019190915260c086015260e085015261010084015261012083015251908190036101400190f35b61033e610cdb565b61028f600480360360208110156103db57600080fd5b5035610ce1565b61028f600480360360808110156103f857600080fd5b506001600160801b03198135811691602081013582169160408201358116916060013516610d74565b61033e610e76565b61028f6004803603602081101561043f57600080fd5b5035610e7c565b6102d8610fa7565b610299610fb7565b61028f610fc6565b61028f6004803603602081101561047457600080fd5b5035611068565b6104836110fb565b6040518082600381111561049357fe5b60ff16815260200191505060405180910390f35b61028f600480360360208110156104bd57600080fd5b50356001600160a01b0316611104565b6102996111b6565b61033e600480360360808110156104eb57600080fd5b50803590602081013590604081013590606001356111c5565b610299611372565b61033e600480360360a081101561052257600080fd5b508035906020810135906001600160801b03196040820135811691606081013582169160809091013516611381565b6102d861141b565b61033e6004803603604081101561056f57600080fd5b506001600160801b0319813516906020013561142b565b6102d8611446565b61029961144f565b6102d861145e565b61033e611467565b61028f600480360360208110156105bc57600080fd5b503561146d565b61028f611500565b61033e61162b565b61033e611631565b61028f600480360360208110156105f157600080fd5b50356001600160a01b0316611637565b61029961172f565b61033e61173e565b600254610100900460ff168061062a575061062a611744565b80610638575060025460ff16155b6106735760405162461bcd60e51b815260040180806020018281038252602e815260200180614a86602e913960400191505060405180910390fd5b600254610100900460ff1615801561069e576002805460ff1961ff0019909116610100171660011790555b6106a661174a565b6000546001600160a01b039081169116146106f6576040805162461bcd60e51b81526020600482018190526024820152600080516020614a66833981519152604482015290519081900360640190fd5b8c603660006101000a8154816001600160a01b0302191690836001600160a01b0316021790555089603860006101000a8154816001600160a01b0302191690836001600160a01b0316021790555088603960006101000a8154816001600160a01b0302191690836001600160a01b031602179055508a603560006101000a8154816001600160a01b0302191690836001600160a01b031602179055508b603760006101000a8154816001600160a01b0302191690836001600160a01b0316021790555087603c8190555086603e819055508560418190555084603a60006101000a8154816001600160801b03021916908360801c021790555083603a60106101000a8154816001600160801b03021916908360801c021790555082603b60006101000a8154816001600160801b03021916908360801c021790555081603b60106101000a8154816001600160801b03021916908360801c02179055506003604260006101000a81548160ff0219169083600381111561087157fe5b02179055508015610888576002805461ff00191690555b50505050505050505050505050565b6035546001600160a01b031681565b6000806108b28461174e565b905060006108bf8461174e565b90506108cb82826117b4565b925050505b92915050565b33816000604382815481106108e757fe5b90600052602060002090600d0201905061090082611a61565b600782015561090e82611b58565b60068201556001600160a01b038316156109865761092c8383610b35565b6001600160a01b0384166000908152600c83016020526040902055604380548390811061095557fe5b600091825260208083206007600d9093020191909101546001600160a01b0386168352600b84019091526040909120555b600060425460ff16600381111561099957fe5b14806109b55750600260425460ff1660038111156109b357fe5b145b6109be57600080fd5b60006109ca3386610b35565b90508015610b2e576000604386815481106109e157fe5b60009182526020808320338452600d92909202909101600c81018252604080842084905560365481516318160ddd60e01b81529151929550610a9b93670de0b6b3a764000093610a8f9389936001600160a01b0316926318160ddd92600480840193829003018186803b158015610a5757600080fd5b505afa158015610a6b573d6000803e3d6000fd5b505050506040513d6020811015610a8157600080fd5b50519063ffffffff611b8216565b9063ffffffff611bdb16565b6009830154909150610ab3908463ffffffff611c1d16565b6009830155603d54610acb908463ffffffff611c1d16565b603d55604080513381526020810189905280820183905290517fe361914fac519bbc62163279f8bad0bc10c71990b676280893f9c2c26290541a9181900360600190a1603654610b2b906001600160a01b0316338363ffffffff611c7716565b50505b5050505050565b60435460009080610b84576040805162461bcd60e51b81526020600482015260146024820152734379636c6520617272617920697320656d70747960601b604482015290519081900360640190fd5b610b9581600163ffffffff611cce16565b831115610bd35760405162461bcd60e51b8152600401808060200182810382526036815260200180614ab46036913960400191505060405180910390fd5b610c72670de0b6b3a7640000610a8f610c3060438781548110610bf257fe5b600091825260208083206001600160a01b038c168452600b600d909302019190910190526040902054610c2488611a61565b9063ffffffff611cce16565b60438781548110610c3d57fe5b600091825260208083206001600160a01b038c168452600a600d9093020191909101905260409020549063ffffffff611b8216565b949350505050565b60438181548110610c8757fe5b90600052602060002090600d0201600091509050806000015490806001015490806002015490806003015490806004015490806005015490806006015490806007015490806008015490806009015490508a565b603e5481565b610ce961174a565b6000546001600160a01b03908116911614610d39576040805162461bcd60e51b81526020600482018190526024820152600080516020614a66833981519152604482015290519081900360640190fd5b603c8190556040805182815290517f15b781a5e323e21d3e0db28f10ea523c2dc040040bbb59fb6be8944598f864b89181900360200190a150565b610d7c61174a565b6000546001600160a01b03908116911614610dcc576040805162461bcd60e51b81526020600482018190526024820152600080516020614a66833981519152604482015290519081900360640190fd5b603a80546001600160801b036001600160801b0319918216608088811c919091178216600160801b88831c81029190911794859055603b8054851688841c1790931686831c820217928390556040805186841b8616815295829004831b8516602087015283831b8516868201529204811b9092166060840152517fffe2c922bb87387689dba72690bfa20e9383cbbc84d7cba5b2bc3156725b9f4b9281900390910190a150505050565b603c5481565b600260425460ff166003811115610e8f57fe5b14610e9957600080fd5b610ea1611d10565b6043805460009190610eba90600163ffffffff611cce16565b81548110610ec457fe5b60009182526020808320338452600a600d909302019182019052604090912054909150610ef7908363ffffffff611c1d16565b336000908152600a830160205260409020556003810154610f1e908363ffffffff611c1d16565b60038201556036546040805163a9059cbb60e01b81523060048201526024810185905290516001600160a01b039092169163a9059cbb916044808201926020929091908290030181600087803b158015610f7757600080fd5b505af1158015610f8b573d6000803e3d6000fd5b505050506040513d6020811015610fa157600080fd5b50505050565b603a54600160801b900460801b81565b6036546001600160a01b031681565b610fce61174a565b6000546001600160a01b0390811691161461101e576040805162461bcd60e51b81526020600482018190526024820152600080516020614a66833981519152604482015290519081900360640190fd5b600080546040516001600160a01b03909116907f8be0079c531659141344cd1fd0a4f28419497f9722a3daafe3b4186f6b6457e0908390a3600080546001600160a01b0319169055565b61107061174a565b6000546001600160a01b039081169116146110c0576040805162461bcd60e51b81526020600482018190526024820152600080516020614a66833981519152604482015290519081900360640190fd5b60418190556040805182815290517f72bfdace9ee58ad29c1a6e8621d3e51687692d54378480d5af134cda7702cde99181900360200190a150565b60425460ff1681565b61110c61174a565b6000546001600160a01b0390811691161461115c576040805162461bcd60e51b81526020600482018190526024820152600080516020614a66833981519152604482015290519081900360640190fd5b603780546001600160a01b0319166001600160a01b03838116919091179182905560408051929091168252517fad675642c3cba5442815383698d42cd28889533d9671a6d32cffea58ef0874da916020908290030190a150565b6037546001600160a01b031681565b6035546000906001600160a01b031633146112115760405162461bcd60e51b8152600401808060200182810382526029815260200180614a1c6029913960400191505060405180910390fd5b6000851361122657611221611f85565b611367565b8461123d576042805460ff19166001179055611367565b604354600061126361124e87612302565b61125789612302565b9063ffffffff611b8216565b90506112806112718261232a565b6040549063ffffffff611c1d16565b5060408054815190815290517fefcbe5b63a2de9bbefd9319847d8580fc149e050300626eb2f07e75ccd2aae619181900360200190a1600160425460ff1660038111156112c957fe5b141580156112d657508115155b8015611311575060436112f083600163ffffffff611cce16565b815481106112fa57fe5b90600052602060002090600d020160030154600014155b801561134c5750603c54604361132e84600163ffffffff611cce16565b8154811061133857fe5b90600052602060002090600d020160020154105b156113645761135b8585612503565b92505050610c72565b50505b506000949350505050565b6000546001600160a01b031690565b60008061138d8761174e565b905060006113af61139d8861174e565b600154600160801b900460801b6117b4565b905060006113c56113bf83612702565b88612729565b6001549091506000906113ed9060801b6113e86113e2858061273b565b896117b4565b61273b565b905061140d611408611402896113e885612997565b8661273b565b6129be565b9a9950505050505050505050565b603b54600160801b900460801b81565b6000806114378361174e565b9050610c72611408858361273b565b603b5460801b81565b6039546001600160a01b031681565b603a5460801b81565b603f5481565b61147561174a565b6000546001600160a01b039081169116146114c5576040805162461bcd60e51b81526020600482018190526024820152600080516020614a66833981519152604482015290519081900360640190fd5b603e8190556040805182815290517f6bbb1fe60df26f51d5f6736d18d7a7413ed87a7dd31103d67993dde4ad3c8f5e9181900360200190a150565b61150861174a565b6000546001600160a01b03908116911614611558576040805162461bcd60e51b81526020600482018190526024820152600080516020614a66833981519152604482015290519081900360640190fd5b603654604080516370a0823160e01b815230600482015290516000926001600160a01b0316916370a08231916024808301926020929190829003018186803b1580156115a357600080fd5b505afa1580156115b7573d6000803e3d6000fd5b505050506040513d60208110156115cd57600080fd5b50516035546036549192506115f5916001600160a01b0390811691168363ffffffff611c7716565b6040805182815290517f4a8c851595c8186a808484335aef2038aa7682ebf9cc3ae83d866ce404ada0ab9181900360200190a150565b60415481565b603d5481565b61163f61174a565b6000546001600160a01b0390811691161461168f576040805162461bcd60e51b81526020600482018190526024820152600080516020614a66833981519152604482015290519081900360640190fd5b6001600160a01b0381166116d45760405162461bcd60e51b81526004018080602001828103825260268152602001806149f66026913960400191505060405180910390fd5b600080546040516001600160a01b03808516939216917f8be0079c531659141344cd1fd0a4f28419497f9722a3daafe3b4186f6b6457e091a3600080546001600160a01b0319166001600160a01b0392909216919091179055565b6038546001600160a01b031681565b60405481565b303b1590565b3390565b60008161175d575060006117af565b81600061176982612a42565b90506070811015611782578060700382901b9150611795565b6070811115611795576070810382901c91505b613fff0160701b6001600160701b03919091161760801b90505b919050565b6000617fff60f084811c8216919084901c8116908214156117fa5780617fff14156117e9575061ffff60ef1b91506108d09050565b505050600160ff1b811682186108d0565b80617fff141561183e576dffffffffffffffffffffffffffff60801b84161561182d575061ffff60ef1b91506108d09050565b505050808218600160ff1b166108d0565b600160801b600160ff1b03841661188857600160801b600160ff1b038516611870575061ffff60ef1b91506108d09050565b505050808218600160ff1b16617fff60f01b176108d0565b6001600160701b03608085901c16816118a457600191506118ab565b600160701b175b6001600160701b03608087901c16836118ea5780156118e55760006118cf82612a42565b6001955060e20393840160711901939190911b90505b6118f4565b600160701b1760721b5b8181816118fd57fe5b0490508061192a57600160ff1b8787181661191957600061191f565b600160ff1b5b9450505050506108d0565b6001606c1b81101561193857fe5b6000600160731b82101561197857600160721b82101561196d57600160711b821015611965576070611968565b60715b611970565b60725b60ff16611981565b61198182612a42565b90508361407101818601111561199f57617fff945060009150611a32565b83818601613ffc0110156119ba576000945060009150611a32565b83818601613f8c011015611a07578385613ffc0111156119e5578385613ffc010382901b91506119fe565b8385613ffc0110156119fe57613ffc8585030382901c91505b60009450611a32565b6070811115611a1a576070810382901c91505b6001600160701b038216915083818601613f8d010394505b81607086901b888a186001607f1b60801b1660801c6001600160801b0316171760801b955050505050506108d0565b6000611a6b6149a2565b60438381548110611a7857fe5b90600052602060002090600d0201604051806101400160405290816000820154815260200160018201548152602001600282015481526020016003820154815260200160048201548152602001600582015481526020016006820154815260200160078201548152602001600882015481526020016009820154815250509050806060015160001415611b105760e0015190506117af565b611b51611b408260600151610a8f670de0b6b3a764000061125786608001516112578860c00151610c248c611b58565b60e08301519063ffffffff611c1d16565b9392505050565b60006108d04260438481548110611b6b57fe5b90600052602060002090600d020160050154612ae0565b600082611b91575060006108d0565b82820282848281611b9e57fe5b0414611b515760405162461bcd60e51b8152600401808060200182810382526021815260200180614a456021913960400191505060405180910390fd5b6000611b5183836040518060400160405280601a81526020017f536166654d6174683a206469766973696f6e206279207a65726f000000000000815250612af6565b600082820183811015611b51576040805162461bcd60e51b815260206004820152601b60248201527f536166654d6174683a206164646974696f6e206f766572666c6f770000000000604482015290519081900360640190fd5b604080516001600160a01b038416602482015260448082018490528251808303909101815260649091019091526020810180516001600160e01b031663a9059cbb60e01b179052611cc9908490612b98565b505050565b6000611b5183836040518060400160405280601e81526020017f536166654d6174683a207375627472616374696f6e206f766572666c6f770000815250612c49565b6000611e0c603560009054906101000a90046001600160a01b03166001600160a01b031663e0e0fbb96040518163ffffffff1660e01b815260040160206040518083038186803b158015611d6357600080fd5b505afa158015611d77573d6000803e3d6000fd5b505050506040513d6020811015611d8d57600080fd5b5051603554604080516322c14d4360e11b815290516001600160a01b03909216916345829a8691600480820192602092909190829003018186803b158015611dd457600080fd5b505afa158015611de8573d6000803e3d6000fd5b505050506040513d6020811015611dfe57600080fd5b50519063ffffffff611cce16565b90506000603f54421115611ef857603754604080516303bc5de360e41b815281516000936001600160a01b031692633bc5de30926004808201939182900301818787803b158015611e5c57600080fd5b505af1158015611e70573d6000803e3d6000fd5b505050506040513d6040811015611e8657600080fd5b508051602090910151909250905080611e9e57600080fd5b603e54611eb290429063ffffffff611c1d16565b603f81905560408051848152602081019290925280517f519f2c9e06fe77b9eb2121de014bdf80d7e513e068078a34d06737693dfbf5d59281900390910190a150611f75565b603760009054906101000a90046001600160a01b03166001600160a01b031663053f14da6040518163ffffffff1660e01b815260040160206040518083038186803b158015611f4657600080fd5b505afa158015611f5a573d6000803e3d6000fd5b505050506040513d6020811015611f7057600080fd5b505190505b818110611f8157600080fd5b5050565b600260425460ff166003811115611f9857fe5b14612300576042805460ff191660021790556040805161014081018252603c5481528154602082019081526000928201838152606083018481526080840185815260a0850186815260c0860187815260e08701888152610100880189815261012089018a815260438054600181810183559c8290529a51600d909b027f9690ad99d6ce244efa8a0f6c2d04036d3b33a9474db32a71b71135c69510279381019b909b5598517f9690ad99d6ce244efa8a0f6c2d04036d3b33a9474db32a71b71135c6951027948b015596517f9690ad99d6ce244efa8a0f6c2d04036d3b33a9474db32a71b71135c6951027958a015594517f9690ad99d6ce244efa8a0f6c2d04036d3b33a9474db32a71b71135c69510279689015592517f9690ad99d6ce244efa8a0f6c2d04036d3b33a9474db32a71b71135c69510279788015590517f9690ad99d6ce244efa8a0f6c2d04036d3b33a9474db32a71b71135c695102798870155517f9690ad99d6ce244efa8a0f6c2d04036d3b33a9474db32a71b71135c695102799860155517f9690ad99d6ce244efa8a0f6c2d04036d3b33a9474db32a71b71135c69510279a850155517f9690ad99d6ce244efa8a0f6c2d04036d3b33a9474db32a71b71135c69510279b840155517f9690ad99d6ce244efa8a0f6c2d04036d3b33a9474db32a71b71135c69510279c90920191909155547fc88b092a6a293444d90784468121725f24d27ebb5ef49a1a125541d7a9982aee916121be9190611cce565b603c546040805481519384526020840192909252828101919091526000606083018190526080830181905260a0830181905260c0830181905260e083018190526101008301819052610120830181905261014083015251908190036101600190a16000604081815560375481516303bc5de360e41b8152825184936001600160a01b0390931692633bc5de30926004808201939182900301818787803b15801561226757600080fd5b505af115801561227b573d6000803e3d6000fd5b505050506040513d604081101561229157600080fd5b5080516020909101519092509050806122a957600080fd5b603e546122bd90429063ffffffff611c1d16565b603f81905560408051848152602081019290925280517f519f2c9e06fe77b9eb2121de014bdf80d7e513e068078a34d06737693dfbf5d59281900390910190a150505b565b6000600160ff1b82141561231557600080fd5b6000821261232357816108d0565b5060000390565b600080603660009054906101000a90046001600160a01b03166001600160a01b03166318160ddd6040518163ffffffff1660e01b815260040160206040518083038186803b15801561237b57600080fd5b505afa15801561238f573d6000803e3d6000fd5b505050506040513d60208110156123a557600080fd5b5051603654603954604080516370a0823160e01b81526001600160a01b03928316600482015290519394506000936124bc9392909216916370a0823191602480820192602092909190829003018186803b15801561240257600080fd5b505afa158015612416573d6000803e3d6000fd5b505050506040513d602081101561242c57600080fd5b5051603654603854604080516370a0823160e01b81526001600160a01b0392831660048201529051610c249392909216916370a0823191602480820192602092909190829003018186803b15801561248357600080fd5b505afa158015612497573d6000803e3d6000fd5b505050506040513d60208110156124ad57600080fd5b5051859063ffffffff611cce16565b905060006124dc83610a8f84670de0b6b3a764000063ffffffff611b8216565b90506124fa670de0b6b3a7640000610a8f878463ffffffff611b8216565b95945050505050565b60438054600091829161251d90600163ffffffff611cce16565b8154811061252757fe5b600091825260208220600d90910201915060425460ff16600381111561254957fe5b1461256f576042805460ff19169055603c54600382015461256991611bdb565b60088201555b600281015461258590600163ffffffff611c1d16565b600282015560355460408051635e2bb5c560e01b8152905160009261267f926001600160a01b0390911691635e2bb5c591600480820192602092909190829003018186803b1580156125d657600080fd5b505afa1580156125ea573d6000803e3d6000fd5b505050506040513d602081101561260057600080fd5b5051603554604080516322c14d4360e11b815290516001600160a01b03909216916345829a8691600480820192602092909190829003018186803b15801561264757600080fd5b505afa15801561265b573d6000803e3d6000fd5b505050506040513d602081101561267157600080fd5b50519063ffffffff611c1d16565b905060006126a860415461269c8489611cce90919063ffffffff16565b9063ffffffff611c1d16565b6008840154603a54603b549293506000926126d892918591608091821b9181811b91600160801b9004901b611381565b90508581116126f5576126ea81612ca3565b93506108d092505050565b5060009695505050505050565b60006108d061271083612f3d565b6f3ffe62e42fefa39ef35793c7673007e560801b61273b565b6000611b5183600160ff1b84186130f2565b6000617fff60f084811c8216919084901c8116908214156127da5780617fff14156127b9576001600160801b0319858116908516141561278657505050600160ff1b811682186108d0565b600160ff1b6001600160801b03198686181614156127a9575050508181176108d0565b5061ffff60ef1b91506108d09050565b600160801b600160ff1b0384166117e9575061ffff60ef1b91506108d09050565b80617fff141561281657600160801b600160ff1b038516612805575061ffff60ef1b91506108d09050565b505050600160ff1b821681186108d0565b6001600160701b03608086901c16826128325760019250612839565b600160701b175b6001600160701b03608086901c1682612855576001925061285c565b600160701b175b908102908161287957600160ff1b8787181661191957600061191f565b928201926000600160e11b8310156128ad57600160e01b8310156128a5576128a083612a42565b6128a8565b60e05b6128b0565b60e15b905061407081860110156128cb576000945060009250612968565b6140e0818601101561290e576140708510156128f057846140700383901c9250612905565b61407085111561290557614070850383901b92505b60009450612968565b61c0dd818601111561292857617fff945060009250612968565b607081111561293f576070810383901c9250612952565b6070811015612952578060700383901b92505b6001600160701b03831692506140df8186010394505b82607086901b888a186001607f1b60801b1660801c6001600160801b0316171760801b955050505050506108d0565b60006108d06129b9836f1fffb8aa3b295c17f0bbbe87fed0691d60811b61273b565b6134b2565b6000617fff60f083901c16613fff8110156129dd5760009150506117af565b6001607f1b608084901c106129f157600080fd5b6140fe811115612a0057600080fd5b600160701b6001600160701b03608085901c161761406f821015612a2a5761406f8290031c611b51565b61406f821115611b515761406e1982011b9392505050565b6000808211612a5057600080fd5b6000600160801b8310612a6557608092831c92015b600160401b8310612a7857604092831c92015b6401000000008310612a8c57602092831c92015b620100008310612a9e57601092831c92015b6101008310612aaf57600892831c92015b60108310612abf57600492831c92015b60048310612acf57600292831c92015b600283106108d05760010192915050565b6000818310612aef5781611b51565b5090919050565b60008183612b825760405162461bcd60e51b81526004018080602001828103825283818151815260200191508051906020019080838360005b83811015612b47578181015183820152602001612b2f565b50505050905090810190601f168015612b745780820380516001836020036101000a031916815260200191505b509250505060405180910390fd5b506000838581612b8e57fe5b0495945050505050565b6060612bed826040518060400160405280602081526020017f5361666545524332303a206c6f772d6c6576656c2063616c6c206661696c6564815250856001600160a01b03166148109092919063ffffffff16565b805190915015611cc957808060200190516020811015612c0c57600080fd5b5051611cc95760405162461bcd60e51b815260040180806020018281038252602a815260200180614aea602a913960400191505060405180910390fd5b60008184841115612c9b5760405162461bcd60e51b8152602060048201818152835160248401528351909283926044909101919085019080838360008315612b47578181015183820152602001612b2f565b505050900390565b604354600090612cba90600163ffffffff611cce16565b600060438281548110612cc957fe5b90600052602060002090600d02019050612ce282611a61565b6007820155612cf082611b58565b60068201556001600160a01b03831615612d6857612d0e8383610b35565b6001600160a01b0384166000908152600c830160205260409020556043805483908110612d3757fe5b600091825260208083206007600d9093020191909101546001600160a01b0386168352600b84019091526040909120555b6043805460009190612d8190600163ffffffff611cce16565b81548110612d8b57fe5b90600052602060002090600d020190506000612e32603660009054906101000a90046001600160a01b03166001600160a01b03166318160ddd6040518163ffffffff1660e01b815260040160206040518083038186803b158015612dee57600080fd5b505afa158015612e02573d6000803e3d6000fd5b505050506040513d6020811015612e1857600080fd5b5051610a8f88670de0b6b3a764000063ffffffff611b8216565b90506000603560009054906101000a90046001600160a01b03166001600160a01b031663021018996040518163ffffffff1660e01b815260040160206040518083038186803b158015612e8457600080fd5b505afa158015612e98573d6000803e3d6000fd5b505050506040513d6020811015612eae57600080fd5b50519050612ec2828263ffffffff611bdb16565b60048401554260068401819055612edf908263ffffffff611c1d16565b600584018190556004840154604080518a81526020810186905280820192909252606082019290925290517fce4b5af00c06253418c3848234c1b2598e1955d5b3f9e8e2d1de362f9124f7b39181900360800190a150505050505050565b60006001607f1b608083901c1115612f5b575061ffff60ef1b6117af565b613fff60f01b6001600160801b031983161415612f7a575060006117af565b617fff60f083901c811690811415612f9557829150506117af565b6001600160701b03608084901c1681612fb15760019150612fb8565b600160701b175b80612fd057506001600160f01b031991506117af9050565b600061406f81613fff8510612ff65750600f9290921b9160009150613ffe198401613035565b60019250600160701b84106130185784613ffe039050600f84901b9350613035565b600061302385612a42565b607f8190039590951b9461406d039150505b836001607f1b141561306957821561304b576001015b600061305682612a42565b60700392839003929190911b90506130b7565b60008361307757600061307a565b60015b60ff1690505b600160701b8210156130b55793800260ff81901c607f81019190911c94600019939093019260019290921b9082180190613080565b505b806001600160701b0316607083901b846130d25760006130d8565b6001607f1b5b6001600160801b0316171760801b955050505050506117af565b6000617fff60f084811c8216919084901c8116908214156131405780617fff1415613136576001600160801b031985811690851614156127a95784925050506108d0565b84925050506108d0565b80617fff14156131545783925050506108d0565b6001607f1b608086901c90811015906001600160701b03168361317a5760019350613181565b600160701b175b6001607f1b608087901c90811015906001600160701b0316846131a757600194506131ae565b600160701b175b826131de576001600160801b03198816600160ff1b146131ce57876131d1565b60005b96505050505050506108d0565b806131fe576001600160801b03198916600160ff1b146131ce57886131d1565b848603841515831515141561330957607081131561322557899750505050505050506108d0565b60008113156132375790811c90613266565b606f1981121561325057889750505050505050506108d0565b6000811215613266578060000384901c93508596505b92810192600160711b8410613281576001968701969390931c925b86617fff14156132b3578461329b57617fff60f01b6132a5565b6001600160f01b03195b9750505050505050506108d0565b600160701b8410156132c857600096506132d5565b6001600160701b03841693505b83607088901b866132e75760006132ed565b6001607f1b5b6001600160801b0316171760801b9750505050505050506108d0565b600081131561332457600184901b935060018703965061333b565b600081121561333b57600182901b91506001860396505b607081131561334d576001915061339a565b600181131561336a576001810360018303901c600101915061339a565b606f1981121561337d576001935061339a565b60001981121561339a576001816000030360018503901c60010193505b8184106133ab5781840393506133b4565b83820393508294505b836133ca5750600096506108d095505050505050565b60006133d585612a42565b905080607114156133fb57600185901c6001600160701b0316945060018801975061344a565b607081101561343d5760708190038089111561342a578086901b6001600160701b031695508089039850613437565b600098600019019590951b945b5061344a565b6001600160701b03851694505b87617fff141561347d578561346457617fff60f01b61346e565b6001600160f01b03195b985050505050505050506108d0565b84607089901b8761348f576000613495565b6001607f1b5b6001600160801b0316171760801b985050505050505050506108d0565b60006001607f1b608083901c90811190617fff60f085901c8116916001600160701b031690821480156134e457508015155b156134fa575061ffff60ef1b92506117af915050565b61400d821115613521578261351457617fff60f01b613517565b60005b93505050506117af565b613f7f82101561353c5750613fff60f01b92506117af915050565b8161354a5760019150613551565b600160701b175b613fef82111561356757613fee1982011b613579565b613fef82101561357957613fef8290031c5b82801561358a575061203760811b81115b1561359c5750600092506117af915050565b821580156135bb5750713fffffffffffffffffffffffffffffffffff81115b156135d15750617fff60f01b92506117af915050565b6001600160801b0381169060801c8380156135eb57508115155b156135f7579019906001015b6001607f1b8281161561361b5770016a09e667f3bcc908b2fb1366ea957d3e0260801c5b6001607e1b83161561363e577001306fe0a31b7152de8d5a46305c85edec0260801c5b6001607d1b831615613661577001172b83c7d517adcdf7c8c50eb14a791f0260801c5b6001607c1b8316156136845770010b5586cf9890f6298b92b71842a983630260801c5b6001607b1b8316156136a7577001059b0d31585743ae7c548eb68ca417fd0260801c5b6001607a1b8316156136ca57700102c9a3e778060ee6f7caca4f7a29bde80260801c5b600160791b8316156136ed5770010163da9fb33356d84a66ae336dcdfa3f0260801c5b600160781b83161561371057700100b1afa5abcbed6129ab13ec11dc95430260801c5b600160771b8316156137335770010058c86da1c09ea1ff19d294cf2f679b0260801c5b600160761b831615613756577001002c605e2e8cec506d21bfc89a23a00f0260801c5b600160751b83161561377957700100162f3904051fa128bca9c55c31e5df0260801c5b600160741b83161561379c577001000b175effdc76ba38e31671ca9397250260801c5b600160731b8316156137bf57700100058ba01fb9f96d6cacd4b180917c3d0260801c5b600160721b8316156137e25770010002c5cc37da9491d0985c348c68e7b30260801c5b600160711b831615613805577001000162e525ee054754457d59952920260260801c5b600160701b8316156138285770010000b17255775c040618bf4a4ade83fc0260801c5b6001606f1b83161561384b577001000058b91b5bc9ae2eed81e9b7d4cfab0260801c5b6001606e1b83161561386e57700100002c5c89d5ec6ca4d7c8acc017b7c90260801c5b6001606d1b8316156138915770010000162e43f4f831060e02d839a9d16d0260801c5b6001606c1b8316156138b457700100000b1721bcfc99d9f890ea069117630260801c5b6001606b1b8316156138d75770010000058b90cf1e6d97f9ca14dbcc16280260801c5b6001606a1b8316156138fa577001000002c5c863b73f016468f6bac5ca2b0260801c5b600160691b83161561391d57700100000162e430e5a18f6119e3c02282a50260801c5b600160681b831615613940577001000000b1721835514b86e6d96efd1bfe0260801c5b600160671b83161561396357700100000058b90c0b48c6be5df846c5b2ef0260801c5b600160661b8316156139865770010000002c5c8601cc6b9e94213c72737a0260801c5b600160651b8316156139a9577001000000162e42fff037df38aa2b219f060260801c5b600160641b8316156139cc5770010000000b17217fba9c739aa5819f44f90260801c5b600160631b8316156139ef577001000000058b90bfcdee5acd3c1cedc8230260801c5b600160621b831615613a1257700100000002c5c85fe31f35a6a30da1be500260801c5b600160611b831615613a355770010000000162e42ff0999ce3541b9fffcf0260801c5b600160601b831615613a5857700100000000b17217f80f4ef5aadda455540260801c5b6001605f1b831615613a7b5770010000000058b90bfbf8479bd5a81b51ad0260801c5b6001605e1b831615613a9e577001000000002c5c85fdf84bd62ae30a74cc0260801c5b6001605d1b831615613ac157700100000000162e42fefb2fed257559bdaa0260801c5b6001605c1b831615613ae4577001000000000b17217f7d5a7716bba4a9ae0260801c5b6001605b1b831615613b0757700100000000058b90bfbe9ddbac5e109cce0260801c5b6001605a1b831615613b2a5770010000000002c5c85fdf4b15de6f17eb0d0260801c5b600160591b831615613b4d577001000000000162e42fefa494f1478fde050260801c5b600160581b831615613b705770010000000000b17217f7d20cf927c8e94c0260801c5b600160571b831615613b93577001000000000058b90bfbe8f71cb4e4b33d0260801c5b600160561b831615613bb657700100000000002c5c85fdf477b662b269450260801c5b600160551b831615613bd95770010000000000162e42fefa3ae53369388c0260801c5b600160541b831615613bfc57700100000000000b17217f7d1d351a389d400260801c5b600160531b831615613c1f5770010000000000058b90bfbe8e8b2d3d4ede0260801c5b600160521b831615613c42577001000000000002c5c85fdf4741bea6e77e0260801c5b600160511b831615613c6557700100000000000162e42fefa39fe95583c20260801c5b600160501b831615613c88577001000000000000b17217f7d1cfb72b45e10260801c5b6980000000000000000000831615613cb157700100000000000058b90bfbe8e7cc35c3f00260801c5b6940000000000000000000831615613cda5770010000000000002c5c85fdf473e242ea380260801c5b6920000000000000000000831615613d03577001000000000000162e42fefa39f02b772c0260801c5b6910000000000000000000831615613d2c5770010000000000000b17217f7d1cf7d83c1a0260801c5b6908000000000000000000831615613d55577001000000000000058b90bfbe8e7bdcbe2e0260801c5b6904000000000000000000831615613d7e57700100000000000002c5c85fdf473dea871f0260801c5b6902000000000000000000831615613da75770010000000000000162e42fefa39ef44d910260801c5b6901000000000000000000831615613dd057700100000000000000b17217f7d1cf79e9490260801c5b68800000000000000000831615613df85770010000000000000058b90bfbe8e7bce5440260801c5b68400000000000000000831615613e20577001000000000000002c5c85fdf473de6eca0260801c5b68200000000000000000831615613e4857700100000000000000162e42fefa39ef366f0260801c5b68100000000000000000831615613e70577001000000000000000b17217f7d1cf79afa0260801c5b68080000000000000000831615613e9857700100000000000000058b90bfbe8e7bcd6d0260801c5b68040000000000000000831615613ec05770010000000000000002c5c85fdf473de6b20260801c5b68020000000000000000831615613ee8577001000000000000000162e42fefa39ef3580260801c5b600160401b831615613f0b5770010000000000000000b17217f7d1cf79ab0260801c5b678000000000000000831615613f32577001000000000000000058b90bfbe8e7bcd50260801c5b674000000000000000831615613f5957700100000000000000002c5c85fdf473de6a0260801c5b672000000000000000831615613f805770010000000000000000162e42fefa39ef340260801c5b671000000000000000831615613fa757700100000000000000000b17217f7d1cf7990260801c5b670800000000000000831615613fce5770010000000000000000058b90bfbe8e7bcc0260801c5b670400000000000000831615613ff5577001000000000000000002c5c85fdf473de50260801c5b67020000000000000083161561401c57700100000000000000000162e42fefa39ef20260801c5b670100000000000000831615614043577001000000000000000000b17217f7d1cf780260801c5b668000000000000083161561406957700100000000000000000058b90bfbe8e7bb0260801c5b664000000000000083161561408f5770010000000000000000002c5c85fdf473dd0260801c5b66200000000000008316156140b5577001000000000000000000162e42fefa39ee0260801c5b66100000000000008316156140db5770010000000000000000000b17217f7d1cf60260801c5b6608000000000000831615614101577001000000000000000000058b90bfbe8e7a0260801c5b660400000000000083161561412757700100000000000000000002c5c85fdf473c0260801c5b660200000000000083161561414d5770010000000000000000000162e42fefa39d0260801c5b660100000000000083161561417357700100000000000000000000b17217f7d1ce0260801c5b658000000000008316156141985770010000000000000000000058b90bfbe8e60260801c5b654000000000008316156141bd577001000000000000000000002c5c85fdf4720260801c5b652000000000008316156141e257700100000000000000000000162e42fefa380260801c5b65100000000000831615614207577001000000000000000000000b17217f7d1b0260801c5b6508000000000083161561422c57700100000000000000000000058b90bfbe8d0260801c5b650400000000008316156142515770010000000000000000000002c5c85fdf460260801c5b65020000000000831615614276577001000000000000000000000162e42fefa20260801c5b6501000000000083161561429b5770010000000000000000000000b17217f7d00260801c5b6480000000008316156142bf577001000000000000000000000058b90bfbe70260801c5b6440000000008316156142e357700100000000000000000000002c5c85fdf30260801c5b6420000000008316156143075770010000000000000000000000162e42fef90260801c5b64100000000083161561432b57700100000000000000000000000b17217f7c0260801c5b64080000000083161561434f5770010000000000000000000000058b90bfbd0260801c5b640400000000831615614373577001000000000000000000000002c5c85fde0260801c5b64020000000083161561439757700100000000000000000000000162e42fee0260801c5b6401000000008316156143bb577001000000000000000000000000b17217f60260801c5b63800000008316156143de57700100000000000000000000000058b90bfa0260801c5b63400000008316156144015770010000000000000000000000002c5c85fc0260801c5b6320000000831615614424577001000000000000000000000000162e42fd0260801c5b63100000008316156144475770010000000000000000000000000b17217e0260801c5b630800000083161561446a577001000000000000000000000000058b90be0260801c5b630400000083161561448d57700100000000000000000000000002c5c85e0260801c5b63020000008316156144b05770010000000000000000000000000162e42e0260801c5b63010000008316156144d357700100000000000000000000000000b172160260801c5b628000008316156144f55770010000000000000000000000000058b90a0260801c5b62400000831615614517577001000000000000000000000000002c5c840260801c5b6220000083161561453957700100000000000000000000000000162e410260801c5b6210000083161561455b577001000000000000000000000000000b17200260801c5b6208000083161561457d57700100000000000000000000000000058b8f0260801c5b6204000083161561459f5770010000000000000000000000000002c5c70260801c5b620200008316156145c1577001000000000000000000000000000162e30260801c5b620100008316156145e35770010000000000000000000000000000b1710260801c5b618000831615614604577001000000000000000000000000000058b80260801c5b61400083161561462557700100000000000000000000000000002c5b0260801c5b6120008316156146465770010000000000000000000000000000162d0260801c5b61100083161561466757700100000000000000000000000000000b160260801c5b6108008316156146885770010000000000000000000000000000058a0260801c5b6104008316156146a9577001000000000000000000000000000002c40260801c5b6102008316156146ca577001000000000000000000000000000001610260801c5b6101008316156146eb577001000000000000000000000000000000b00260801c5b608083161561470b577001000000000000000000000000000000570260801c5b604083161561472b5770010000000000000000000000000000002b0260801c5b602083161561474b577001000000000000000000000000000000150260801c5b601083161561476b5770010000000000000000000000000000000a0260801c5b600883161561478b577001000000000000000000000000000000040260801c5b60048316156147ab577001000000000000000000000000000000010260801c5b846147cc57600f81901c6001600160701b03169050613fff820191506147fb565b613ffe82116147f157600f81901c6001600160701b0316905081613fff0391506147fb565b600091613fee19011c5b60709190911b1760801b93506117af92505050565b6060610c7284846000858561482485614936565b614875576040805162461bcd60e51b815260206004820152601d60248201527f416464726573733a2063616c6c20746f206e6f6e2d636f6e7472616374000000604482015290519081900360640190fd5b60006060866001600160a01b031685876040518082805190602001908083835b602083106148b45780518252601f199092019160209182019101614895565b6001836020036101000a03801982511681845116808217855250505050505090500191505060006040518083038185875af1925050503d8060008114614916576040519150601f19603f3d011682016040523d82523d6000602084013e61491b565b606091505b509150915061492b82828661493c565b979650505050505050565b3b151590565b6060831561494b575081611b51565b82511561495b5782518084602001fd5b60405162461bcd60e51b8152602060048201818152845160248401528451859391928392604401919085019080838360008315612b47578181015183820152602001612b2f565b60405180610140016040528060008152602001600081526020016000815260200160008152602001600081526020016000815260200160008152602001600081526020016000815260200160008152509056fe4f776e61626c653a206e6577206f776e657220697320746865207a65726f20616464726573734f6e6c792064656261736520706f6c69637920636f6e74726163742063616e2063616c6c2074686973536166654d6174683a206d756c7469706c69636174696f6e206f766572666c6f774f776e61626c653a2063616c6c6572206973206e6f7420746865206f776e6572436f6e747261637420696e7374616e63652068617320616c7265616479206265656e20696e697469616c697a6564496e6465782073686f756c64206e6f74206d65206d6f7265207468616e206974656d7320696e20746865206379636c652061727261795361666545524332303a204552433230206f7065726174696f6e20646964206e6f742073756363656564a264697066735822122090503ee68f32008cd46dcc2ae8d1183194b66fe118602d62c800b88b2cdf393d64736f6c63430006060033",
  "linkReferences": {},
  "deployedLinkReferences": {}
}