{
  "_format": "hh-sol-artifact-1",
  "contractName": "StakingPool",
  "sourceName": "contracts/flattened/StakingPool.sol",
  "abi": [
    {
      "anonymous": false,
      "inputs": [
        {
          "indexed": false,
          "internalType": "uint256",
          "name": "startedAt",
          "type": "uint256"
        }
      ],
      "name": "ManualPoolStarted",
      "type": "event"
    },
    {
      "anonymous": false,
      "inputs": [
        {
          "indexed": false,
          "internalType": "uint256",
          "name": "reward",
          "type": "uint256"
        }
      ],
      "name": "RewardAdded",
      "type": "event"
    },
    {
      "anonymous": false,
      "inputs": [
        {
          "indexed": true,
          "internalType": "address",
          "name": "user",
          "type": "address"
        },
        {
          "indexed": false,
          "internalType": "uint256",
          "name": "reward",
          "type": "uint256"
        }
      ],
      "name": "RewardPaid",
      "type": "event"
    },
    {
      "anonymous": false,
      "inputs": [
        {
          "indexed": true,
          "internalType": "address",
          "name": "user",
          "type": "address"
        },
        {
          "indexed": false,
          "internalType": "uint256",
          "name": "amount",
          "type": "uint256"
        }
      ],
      "name": "Staked",
      "type": "event"
    },
    {
      "anonymous": false,
      "inputs": [
        {
          "indexed": true,
          "internalType": "address",
          "name": "user",
          "type": "address"
        },
        {
          "indexed": false,
          "internalType": "uint256",
          "name": "amount",
          "type": "uint256"
        }
      ],
      "name": "Withdrawn",
      "type": "event"
    },
    {
      "inputs": [
        {
          "internalType": "address",
          "name": "account",
          "type": "address"
        }
      ],
      "name": "balanceOf",
      "outputs": [
        {
          "internalType": "uint256",
          "name": "",
          "type": "uint256"
        }
      ],
      "stateMutability": "view",
      "type": "function"
    },
    {
      "inputs": [],
      "name": "duration",
      "outputs": [
        {
          "internalType": "uint256",
          "name": "",
          "type": "uint256"
        }
      ],
      "stateMutability": "view",
      "type": "function"
    },
    {
      "inputs": [
        {
          "internalType": "address",
          "name": "account",
          "type": "address"
        }
      ],
      "name": "earned",
      "outputs": [
        {
          "internalType": "uint256",
          "name": "",
          "type": "uint256"
        }
      ],
      "stateMutability": "view",
      "type": "function"
    },
    {
      "inputs": [],
      "name": "exit",
      "outputs": [],
      "stateMutability": "nonpayable",
      "type": "function"
    },
    {
      "inputs": [],
      "name": "getReward",
      "outputs": [],
      "stateMutability": "nonpayable",
      "type": "function"
    },
    {
      "inputs": [],
      "name": "initReward",
      "outputs": [
        {
          "internalType": "uint256",
          "name": "",
          "type": "uint256"
        }
      ],
      "stateMutability": "view",
      "type": "function"
    },
    {
      "inputs": [
        {
          "internalType": "string",
          "name": "poolName_",
          "type": "string"
        },
        {
          "internalType": "address",
          "name": "rewardToken_",
          "type": "address"
        },
        {
          "internalType": "address",
          "name": "pairToken_",
          "type": "address"
        },
        {
          "internalType": "bool",
          "name": "isUniPair",
          "type": "bool"
        },
        {
          "internalType": "address",
          "name": "orchestrator_",
          "type": "address"
        },
        {
          "internalType": "uint256",
          "name": "duration_",
          "type": "uint256"
        },
        {
          "internalType": "bool",
          "name": "manualStartPool_",
          "type": "bool"
        },
        {
          "internalType": "uint256",
          "name": "oracleStartTimeOffset",
          "type": "uint256"
        }
      ],
      "name": "initialize",
      "outputs": [],
      "stateMutability": "nonpayable",
      "type": "function"
    },
    {
      "inputs": [],
      "name": "lastTimeRewardApplicable",
      "outputs": [
        {
          "internalType": "uint256",
          "name": "",
          "type": "uint256"
        }
      ],
      "stateMutability": "view",
      "type": "function"
    },
    {
      "inputs": [],
      "name": "lastUpdateTime",
      "outputs": [
        {
          "internalType": "uint256",
          "name": "",
          "type": "uint256"
        }
      ],
      "stateMutability": "view",
      "type": "function"
    },
    {
      "inputs": [],
      "name": "manualStartPool",
      "outputs": [
        {
          "internalType": "bool",
          "name": "",
          "type": "bool"
        }
      ],
      "stateMutability": "view",
      "type": "function"
    },
    {
      "inputs": [],
      "name": "maxReward",
      "outputs": [
        {
          "internalType": "uint256",
          "name": "",
          "type": "uint256"
        }
      ],
      "stateMutability": "view",
      "type": "function"
    },
    {
      "inputs": [],
      "name": "orchestrator",
      "outputs": [
        {
          "internalType": "address",
          "name": "",
          "type": "address"
        }
      ],
      "stateMutability": "view",
      "type": "function"
    },
    {
      "inputs": [],
      "name": "periodFinish",
      "outputs": [
        {
          "internalType": "uint256",
          "name": "",
          "type": "uint256"
        }
      ],
      "stateMutability": "view",
      "type": "function"
    },
    {
      "inputs": [],
      "name": "poolName",
      "outputs": [
        {
          "internalType": "string",
          "name": "",
          "type": "string"
        }
      ],
      "stateMutability": "view",
      "type": "function"
    },
    {
      "inputs": [],
      "name": "poolStarted",
      "outputs": [
        {
          "internalType": "bool",
          "name": "",
          "type": "bool"
        }
      ],
      "stateMutability": "view",
      "type": "function"
    },
    {
      "inputs": [],
      "name": "rewardDistributed",
      "outputs": [
        {
          "internalType": "uint256",
          "name": "",
          "type": "uint256"
        }
      ],
      "stateMutability": "view",
      "type": "function"
    },
    {
      "inputs": [],
      "name": "rewardDistribution",
      "outputs": [
        {
          "internalType": "address",
          "name": "",
          "type": "address"
        }
      ],
      "stateMutability": "view",
      "type": "function"
    },
    {
      "inputs": [],
      "name": "rewardPerToken",
      "outputs": [
        {
          "internalType": "uint256",
          "name": "",
          "type": "uint256"
        }
      ],
      "stateMutability": "view",
      "type": "function"
    },
    {
      "inputs": [],
      "name": "rewardPerTokenStored",
      "outputs": [
        {
          "internalType": "uint256",
          "name": "",
          "type": "uint256"
        }
      ],
      "stateMutability": "view",
      "type": "function"
    },
    {
      "inputs": [],
      "name": "rewardRate",
      "outputs": [
        {
          "internalType": "uint256",
          "name": "",
          "type": "uint256"
        }
      ],
      "stateMutability": "view",
      "type": "function"
    },
    {
      "inputs": [],
      "name": "rewardToken",
      "outputs": [
        {
          "internalType": "contract IERC20",
          "name": "",
          "type": "address"
        }
      ],
      "stateMutability": "view",
      "type": "function"
    },
    {
      "inputs": [
        {
          "internalType": "address",
          "name": "",
          "type": "address"
        }
      ],
      "name": "rewards",
      "outputs": [
        {
          "internalType": "uint256",
          "name": "",
          "type": "uint256"
        }
      ],
      "stateMutability": "view",
      "type": "function"
    },
    {
      "inputs": [
        {
          "internalType": "address",
          "name": "_rewardDistribution",
          "type": "address"
        }
      ],
      "name": "setRewardDistribution",
      "outputs": [],
      "stateMutability": "nonpayable",
      "type": "function"
    },
    {
      "inputs": [
        {
          "internalType": "uint256",
          "name": "amount",
          "type": "uint256"
        }
      ],
      "name": "stake",
      "outputs": [],
      "stateMutability": "nonpayable",
      "type": "function"
    },
    {
      "inputs": [],
      "name": "startPool",
      "outputs": [],
      "stateMutability": "nonpayable",
      "type": "function"
    },
    {
      "inputs": [],
      "name": "startTime",
      "outputs": [
        {
          "internalType": "uint256",
          "name": "",
          "type": "uint256"
        }
      ],
      "stateMutability": "view",
      "type": "function"
    },
    {
      "inputs": [],
      "name": "totalSupply",
      "outputs": [
        {
          "internalType": "uint256",
          "name": "",
          "type": "uint256"
        }
      ],
      "stateMutability": "view",
      "type": "function"
    },
    {
      "inputs": [
        {
          "internalType": "address",
          "name": "",
          "type": "address"
        }
      ],
      "name": "userRewardPerTokenPaid",
      "outputs": [
        {
          "internalType": "uint256",
          "name": "",
          "type": "uint256"
        }
      ],
      "stateMutability": "view",
      "type": "function"
    },
    {
      "inputs": [
        {
          "internalType": "uint256",
          "name": "amount",
          "type": "uint256"
        }
      ],
      "name": "withdraw",
      "outputs": [],
      "stateMutability": "nonpayable",
      "type": "function"
    },
    {
      "inputs": [],
      "name": "y",
      "outputs": [
        {
          "internalType": "contract IERC20",
          "name": "",
          "type": "address"
        }
      ],
      "stateMutability": "view",
      "type": "function"
    }
  ],
  "bytecode": "0x608060405234801561001057600080fd5b50611ab0806100206000396000f3fe608060405234801561001057600080fd5b50600436106101d95760003560e01c80639bfffad711610104578063df136d65116100a2578063ebe2b12b11610071578063ebe2b12b14610487578063f3466dfa1461048f578063f7c618c11461050c578063fa08c90814610514576101d9565b8063df136d6514610467578063e3332f931461046f578063e9483ac014610477578063e9fad8ee1461047f576101d9565b8063b74795d9116100de578063b74795d914610372578063c8f33c911461037a578063cbbfc05f14610382578063cd3daf9d1461045f576101d9565b80639bfffad714610345578063a56dfe4a1461034d578063a694fc3a14610355576101d9565b80633d18b9121161017c57806378e979251161014b57806378e97925146103075780637b0a47ee1461030f57806380faa57d146103175780638b8763471461031f576101d9565b80633d18b912146102b557806366a78e6c146102bd57806367821614146102c557806370a08231146102e1576101d9565b80630fb5a6b4116101b85780630fb5a6b414610264578063101114cf1461026c57806318160ddd146102905780632e1a7d4d14610298576101d9565b80628cc262146101de5780630700037d146102165780630d68b7611461023c575b600080fd5b610204600480360360208110156101f457600080fd5b50356001600160a01b031661051c565b60408051918252519081900360200190f35b6102046004803603602081101561022c57600080fd5b50356001600160a01b03166105a2565b6102626004803603602081101561025257600080fd5b50356001600160a01b03166105b4565b005b6102046105d6565b6102746105dc565b604080516001600160a01b039092168252519081900360200190f35b6102046105eb565b610262600480360360208110156102ae57600080fd5b50356105f2565b610262610811565b610204610a31565b6102cd610a37565b604080519115158252519081900360200190f35b610204600480360360208110156102f757600080fd5b50356001600160a01b0316610a40565b610204610a5b565b610204610a61565b610204610a67565b6102046004803603602081101561033557600080fd5b50356001600160a01b0316610a7a565b610204610a8c565b610274610a92565b6102626004803603602081101561036b57600080fd5b5035610aa1565b610274610d18565b610204610d27565b610262600480360361010081101561039957600080fd5b8101906020810181356401000000008111156103b457600080fd5b8201836020820111156103c657600080fd5b803590602001918460018302840111640100000000831117156103e857600080fd5b91908080601f016020809104026020016040519081016040528093929190818152602001838380828437600092019190915250929550506001600160a01b0383358116945060208401358116936040810135151593506060810135909116915060808101359060a081013515159060c00135610d2d565b610204610ef7565b610204610f4b565b6102cd610f51565b610204610f5a565b610262610f60565b610204610f7b565b610497610f81565b6040805160208082528351818301528351919283929083019185019080838360005b838110156104d15781810151838201526020016104b9565b50505050905090810190601f1680156104fe5780820380516001836020036101000a031916815260200191505b509250505060405180910390f35b61027461100f565b61026261101e565b6001600160a01b038116600090815260466020908152604080832054604590925282205461059c919061059090670de0b6b3a7640000906105849061056f90610563610ef7565b9063ffffffff6110f816565b61057888610a40565b9063ffffffff61114116565b9063ffffffff61119a16565b9063ffffffff6111dc16565b92915050565b60466020526000908152604090205481565b603680546001600160a01b0319166001600160a01b0392909216919091179055565b603a5481565b6036546001600160a01b031681565b6034545b90565b336105fb610ef7565b604355610606610a67565b6042556001600160a01b0381161561064d576106218161051c565b6001600160a01b0382166000908152604660209081526040808320939093556043546045909152919020555b60405442106106c85761067160646105846032603c5461114190919063ffffffff16565b603c819055603a54610689919063ffffffff61119a16565b604155603a546106a090429063ffffffff6111dc16565b6040908155603c54815190815290516000805160206119e28339815191529181900360200190a15b603b5460ff161561072f57603e5460ff1661072a576040805162461bcd60e51b815260206004820181905260248201527f4f7263686573747261746f72206861736e2774207374617274656420706f6f6c604482015290519081900360640190fd5b610785565b603f544211610785576040805162461bcd60e51b815260206004820181905260248201527f43616e27742075736520706f6f6c206265666f72652073746172742074696d65604482015290519081900360640190fd5b600082116107ce576040805162461bcd60e51b8152602060048201526011602482015270043616e6e6f74207769746864726177203607c1b604482015290519081900360640190fd5b6107d782611236565b60408051838152905133917f7084f5476618d8e60b11ef0d7d3f06914655adb8793e28ff7f018d4c76d505d5919081900360200190a25050565b3361081a610ef7565b604355610825610a67565b6042556001600160a01b0381161561086c576108408161051c565b6001600160a01b0382166000908152604660209081526040808320939093556043546045909152919020555b60405442106108e75761089060646105846032603c5461114190919063ffffffff16565b603c819055603a546108a8919063ffffffff61119a16565b604155603a546108bf90429063ffffffff6111dc16565b6040908155603c54815190815290516000805160206119e28339815191529181900360200190a15b603b5460ff161561094e57603e5460ff16610949576040805162461bcd60e51b815260206004820181905260248201527f4f7263686573747261746f72206861736e2774207374617274656420706f6f6c604482015290519081900360640190fd5b6109a4565b603f5442116109a4576040805162461bcd60e51b815260206004820181905260248201527f43616e27742075736520706f6f6c206265666f72652073746172742074696d65604482015290519081900360640190fd5b60006109af3361051c565b90508015610a2d57336000818152604660205260408120556038546109e0916001600160a01b03909116908361129b565b60408051828152905133917fe2403640ba68fed3a2f88b7557551d1993f84b99bb10ff833f0cf8db0c5e0486919081900360200190a2604454610a29908263ffffffff6111dc16565b6044555b5050565b603d5481565b603b5460ff1681565b6001600160a01b031660009081526035602052604090205490565b603f5481565b60415481565b6000610a75426040546112f2565b905090565b60456020526000908152604090205481565b603c5481565b6033546001600160a01b031681565b33610aaa610ef7565b604355610ab5610a67565b6042556001600160a01b03811615610afc57610ad08161051c565b6001600160a01b0382166000908152604660209081526040808320939093556043546045909152919020555b6040544210610b7757610b2060646105846032603c5461114190919063ffffffff16565b603c819055603a54610b38919063ffffffff61119a16565b604155603a54610b4f90429063ffffffff6111dc16565b6040908155603c54815190815290516000805160206119e28339815191529181900360200190a15b603b5460ff1615610bde57603e5460ff16610bd9576040805162461bcd60e51b815260206004820181905260248201527f4f7263686573747261746f72206861736e2774207374617274656420706f6f6c604482015290519081900360640190fd5b610c34565b603f544211610c34576040805162461bcd60e51b815260206004820181905260248201527f43616e27742075736520706f6f6c206265666f72652073746172742074696d65604482015290519081900360640190fd5b610c3d33611308565b15610c8f576040805162461bcd60e51b815260206004820152601d60248201527f43616c6c6572206d757374206e6f74206265206120636f6e7472616374000000604482015290519081900360640190fd5b60008211610cd5576040805162461bcd60e51b815260206004820152600e60248201526d043616e6e6f74207374616b6520360941b604482015290519081900360640190fd5b610cde8261130e565b60408051838152905133917f9e71bc8eea02a63969f509818f2dafb9254532904319f9dbda79b67bd34a5f3d919081900360200190a25050565b6039546001600160a01b031681565b60425481565b600054610100900460ff1680610d465750610d46611371565b80610d54575060005460ff16155b610d8f5760405162461bcd60e51b815260040180806020018281038252602e815260200180611a23602e913960400191505060405180910390fd5b600054610100900460ff16158015610dba576000805460ff1961ff0019909116610100171660011790555b8851610dcd9060379060208c0190611949565b508515610deb57610de6610de18989611377565b611480565b610df4565b610df487611480565b603880546001600160a01b03808b166001600160a01b0319928316179283905560398054898316931692909217909155604080516370a0823160e01b8152306004820152905192909116916370a0823191602480820192602092909190829003018186803b158015610e6557600080fd5b505afa158015610e79573d6000803e3d6000fd5b505050506040513d6020811015610e8f57600080fd5b5051603d55603a849055603b805460ff1916841515179081905560ff16610eda57428201603f55603d54610eda90610ed59060649061058490603263ffffffff61114116565b6114a2565b8015610eec576000805461ff00191690555b505050505050505050565b6000610f016105eb565b610f0e57506043546105ef565b610a75610f3c610f1c6105eb565b610584670de0b6b3a7640000610578604154610578604254610563610a67565b6043549063ffffffff6111dc16565b60435481565b603e5460ff1681565b60445481565b610f71610f6c33610a40565b6105f2565b610f79610811565b565b60405481565b6037805460408051602060026001851615610100026000190190941693909304601f810184900484028201840190925281815292918301828280156110075780601f10610fdc57610100808354040283529160200191611007565b820191906000526020600020905b815481529060010190602001808311610fea57829003601f168201915b505050505081565b6038546001600160a01b031681565b6039546001600160a01b0316331461103557600080fd5b603e5460ff161561108d576040805162461bcd60e51b815260206004820152601d60248201527f506f6f6c2063616e206f6e6c792062652073746172746564206f6e6365000000604482015290519081900360640190fd5b603e805460ff191660019081179091554201603f55603d546110c190610ed59060649061058490603263ffffffff61114116565b603f5460408051918252517f2c94ebe698a79005048f877b4b26bfd0da9d932159307a03705190758ae116cf9181900360200190a1565b600061113a83836040518060400160405280601e81526020017f536166654d6174683a207375627472616374696f6e206f766572666c6f7700008152506115b8565b9392505050565b6000826111505750600061059c565b8282028284828161115d57fe5b041461113a5760405162461bcd60e51b8152600401808060200182810382526021815260200180611a026021913960400191505060405180910390fd5b600061113a83836040518060400160405280601a81526020017f536166654d6174683a206469766973696f6e206279207a65726f00000000000081525061164f565b60008282018381101561113a576040805162461bcd60e51b815260206004820152601b60248201527f536166654d6174683a206164646974696f6e206f766572666c6f770000000000604482015290519081900360640190fd5b603454611249908263ffffffff6110f816565b6034553360009081526035602052604090205461126c908263ffffffff6110f816565b33600081815260356020526040902091909155603354611298916001600160a01b03909116908361129b565b50565b604080516001600160a01b038416602482015260448082018490528251808303909101815260649091019091526020810180516001600160e01b031663a9059cbb60e01b1790526112ed9084906116b4565b505050565b6000818310611301578161113a565b5090919050565b3b151590565b603454611321908263ffffffff6111dc16565b60345533600090815260356020526040902054611344908263ffffffff6111dc16565b33600081815260356020526040902091909155603354611298916001600160a01b03909116903084611765565b303b1590565b600080826001600160a01b0316846001600160a01b031610611399578261139b565b835b90506000836001600160a01b0316856001600160a01b0316106113be57846113c0565b835b604080516bffffffffffffffffffffffff19606095861b81166020808401919091529390951b9094166034850152805160288186030181526048850182528051908301206001600160f81b03196068860152735c69bee701ef814a2b6a3edd4b1652cb9cc5aa6f60601b6069860152607d8501527f96e8ac4277198ff8b6f785478aa9a39f403cb768dd02cbee326c3e7da348845f609d808601919091528151808603909101815260bd9094019052825192019190912091505092915050565b603380546001600160a01b0319166001600160a01b0392909216919091179055565b60006114ac610ef7565b6043556114b7610a67565b6042556001600160a01b038116156114fe576114d28161051c565b6001600160a01b0382166000908152604660209081526040808320939093556043546045909152919020555b604054421061152357603a5461151b90839063ffffffff61119a16565b604155611572565b604054600090611539904263ffffffff6110f816565b905060006115526041548361114190919063ffffffff16565b603a5490915061156c90610584868463ffffffff6111dc16565b60415550505b603c829055426042819055603a54611590919063ffffffff6111dc16565b6040908155805183815290516000805160206119e28339815191529181900360200190a15050565b600081848411156116475760405162461bcd60e51b81526004018080602001828103825283818151815260200191508051906020019080838360005b8381101561160c5781810151838201526020016115f4565b50505050905090810190601f1680156116395780820380516001836020036101000a031916815260200191505b509250505060405180910390fd5b505050900390565b6000818361169e5760405162461bcd60e51b815260206004820181815283516024840152835190928392604490910191908501908083836000831561160c5781810151838201526020016115f4565b5060008385816116aa57fe5b0495945050505050565b6060611709826040518060400160405280602081526020017f5361666545524332303a206c6f772d6c6576656c2063616c6c206661696c6564815250856001600160a01b03166117c59092919063ffffffff16565b8051909150156112ed5780806020019051602081101561172857600080fd5b50516112ed5760405162461bcd60e51b815260040180806020018281038252602a815260200180611a51602a913960400191505060405180910390fd5b604080516001600160a01b0380861660248301528416604482015260648082018490528251808303909101815260849091019091526020810180516001600160e01b03166323b872dd60e01b1790526117bf9085906116b4565b50505050565b60606117d484846000856117dc565b949350505050565b60606117e785611308565b611838576040805162461bcd60e51b815260206004820152601d60248201527f416464726573733a2063616c6c20746f206e6f6e2d636f6e7472616374000000604482015290519081900360640190fd5b60006060866001600160a01b031685876040518082805190602001908083835b602083106118775780518252601f199092019160209182019101611858565b6001836020036101000a03801982511681845116808217855250505050505090500191505060006040518083038185875af1925050503d80600081146118d9576040519150601f19603f3d011682016040523d82523d6000602084013e6118de565b606091505b509150915081156118f25791506117d49050565b8051156119025780518082602001fd5b60405162461bcd60e51b815260206004820181815286516024840152865187939192839260440191908501908083836000831561160c5781810151838201526020016115f4565b828054600181600116156101000203166002900490600052602060002090601f016020900481019282601f1061198a57805160ff19168380011785556119b7565b828001600101855582156119b7579182015b828111156119b757825182559160200191906001019061199c565b506119c39291506119c7565b5090565b6105ef91905b808211156119c357600081556001016119cd56fede88a922e0d3b88b24e9623efeb464919c6bf9f66857a65e2bfcf2ce87a9433d536166654d6174683a206d756c7469706c69636174696f6e206f766572666c6f77436f6e747261637420696e7374616e63652068617320616c7265616479206265656e20696e697469616c697a65645361666545524332303a204552433230206f7065726174696f6e20646964206e6f742073756363656564a2646970667358221220922deb91ed3ea7dc8c61e480d598416cfe4658875dea720d26ee73e9dac20a5464736f6c63430006060033",
  "linkReferences": {},
  "deployedLinkReferences": {}
}