{
  "_format": "hh-sol-artifact-1",
  "contractName": "Degov",
  "sourceName": "contracts/flattened/Degov.sol",
  "abi": [
    {
      "inputs": [],
      "stateMutability": "nonpayable",
      "type": "constructor"
    },
    {
      "anonymous": false,
      "inputs": [
        {
          "indexed": true,
          "internalType": "address",
          "name": "owner",
          "type": "address"
        },
        {
          "indexed": true,
          "internalType": "address",
          "name": "spender",
          "type": "address"
        },
        {
          "indexed": false,
          "internalType": "uint256",
          "name": "value",
          "type": "uint256"
        }
      ],
      "name": "Approval",
      "type": "event"
    },
    {
      "anonymous": false,
      "inputs": [
        {
          "indexed": true,
          "internalType": "address",
          "name": "delegator_",
          "type": "address"
        },
        {
          "indexed": true,
          "internalType": "address",
          "name": "fromDelegate_",
          "type": "address"
        },
        {
          "indexed": true,
          "internalType": "address",
          "name": "toDelegate_",
          "type": "address"
        }
      ],
      "name": "DelegateChanged",
      "type": "event"
    },
    {
      "anonymous": false,
      "inputs": [
        {
          "indexed": true,
          "internalType": "address",
          "name": "delegate_",
          "type": "address"
        },
        {
          "indexed": false,
          "internalType": "uint256",
          "name": "previousBalance_",
          "type": "uint256"
        },
        {
          "indexed": false,
          "internalType": "uint256",
          "name": "newBalance_",
          "type": "uint256"
        }
      ],
      "name": "DelegateVotesChanged",
      "type": "event"
    },
    {
      "anonymous": false,
      "inputs": [
        {
          "indexed": false,
          "internalType": "uint256",
          "name": "proposalThreshold_",
          "type": "uint256"
        }
      ],
      "name": "LogSetProposalThresholdRatio",
      "type": "event"
    },
    {
      "anonymous": false,
      "inputs": [
        {
          "indexed": false,
          "internalType": "uint256",
          "name": "quorumThreshold_",
          "type": "uint256"
        }
      ],
      "name": "LogSetQuorumThresholdRatio",
      "type": "event"
    },
    {
      "anonymous": false,
      "inputs": [
        {
          "indexed": true,
          "internalType": "address",
          "name": "previousOwner",
          "type": "address"
        },
        {
          "indexed": true,
          "internalType": "address",
          "name": "newOwner",
          "type": "address"
        }
      ],
      "name": "OwnershipTransferred",
      "type": "event"
    },
    {
      "anonymous": false,
      "inputs": [
        {
          "indexed": true,
          "internalType": "address",
          "name": "from",
          "type": "address"
        },
        {
          "indexed": true,
          "internalType": "address",
          "name": "to",
          "type": "address"
        },
        {
          "indexed": false,
          "internalType": "uint256",
          "name": "value",
          "type": "uint256"
        }
      ],
      "name": "Transfer",
      "type": "event"
    },
    {
      "inputs": [],
      "name": "DELEGATION_TYPEHASH",
      "outputs": [
        {
          "internalType": "bytes32",
          "name": "",
          "type": "bytes32"
        }
      ],
      "stateMutability": "view",
      "type": "function"
    },
    {
      "inputs": [],
      "name": "DOMAIN_TYPEHASH",
      "outputs": [
        {
          "internalType": "bytes32",
          "name": "",
          "type": "bytes32"
        }
      ],
      "stateMutability": "view",
      "type": "function"
    },
    {
      "inputs": [],
      "name": "TOTAL_SUPPLY",
      "outputs": [
        {
          "internalType": "uint256",
          "name": "",
          "type": "uint256"
        }
      ],
      "stateMutability": "view",
      "type": "function"
    },
    {
      "inputs": [
        {
          "internalType": "address",
          "name": "owner",
          "type": "address"
        },
        {
          "internalType": "address",
          "name": "spender",
          "type": "address"
        }
      ],
      "name": "allowance",
      "outputs": [
        {
          "internalType": "uint256",
          "name": "",
          "type": "uint256"
        }
      ],
      "stateMutability": "view",
      "type": "function"
    },
    {
      "inputs": [
        {
          "internalType": "address",
          "name": "spender",
          "type": "address"
        },
        {
          "internalType": "uint256",
          "name": "amount",
          "type": "uint256"
        }
      ],
      "name": "approve",
      "outputs": [
        {
          "internalType": "bool",
          "name": "",
          "type": "bool"
        }
      ],
      "stateMutability": "nonpayable",
      "type": "function"
    },
    {
      "inputs": [
        {
          "internalType": "address",
          "name": "account",
          "type": "address"
        }
      ],
      "name": "balanceOf",
      "outputs": [
        {
          "internalType": "uint256",
          "name": "",
          "type": "uint256"
        }
      ],
      "stateMutability": "view",
      "type": "function"
    },
    {
      "inputs": [
        {
          "internalType": "address",
          "name": "",
          "type": "address"
        },
        {
          "internalType": "uint32",
          "name": "",
          "type": "uint32"
        }
      ],
      "name": "checkpoints",
      "outputs": [
        {
          "internalType": "uint32",
          "name": "fromBlock",
          "type": "uint32"
        },
        {
          "internalType": "uint256",
          "name": "votes",
          "type": "uint256"
        }
      ],
      "stateMutability": "view",
      "type": "function"
    },
    {
      "inputs": [],
      "name": "decimals",
      "outputs": [
        {
          "internalType": "uint8",
          "name": "",
          "type": "uint8"
        }
      ],
      "stateMutability": "view",
      "type": "function"
    },
    {
      "inputs": [
        {
          "internalType": "address",
          "name": "spender",
          "type": "address"
        },
        {
          "internalType": "uint256",
          "name": "subtractedValue",
          "type": "uint256"
        }
      ],
      "name": "decreaseAllowance",
      "outputs": [
        {
          "internalType": "bool",
          "name": "",
          "type": "bool"
        }
      ],
      "stateMutability": "nonpayable",
      "type": "function"
    },
    {
      "inputs": [
        {
          "internalType": "address",
          "name": "delegatee",
          "type": "address"
        }
      ],
      "name": "delegate",
      "outputs": [],
      "stateMutability": "nonpayable",
      "type": "function"
    },
    {
      "inputs": [
        {
          "internalType": "address",
          "name": "delegatee",
          "type": "address"
        },
        {
          "internalType": "uint256",
          "name": "nonce",
          "type": "uint256"
        },
        {
          "internalType": "uint256",
          "name": "expiry",
          "type": "uint256"
        },
        {
          "internalType": "uint8",
          "name": "v",
          "type": "uint8"
        },
        {
          "internalType": "bytes32",
          "name": "r",
          "type": "bytes32"
        },
        {
          "internalType": "bytes32",
          "name": "s",
          "type": "bytes32"
        }
      ],
      "name": "delegateBySig",
      "outputs": [],
      "stateMutability": "nonpayable",
      "type": "function"
    },
    {
      "inputs": [
        {
          "internalType": "address",
          "name": "",
          "type": "address"
        }
      ],
      "name": "delegates",
      "outputs": [
        {
          "internalType": "address",
          "name": "",
          "type": "address"
        }
      ],
      "stateMutability": "view",
      "type": "function"
    },
    {
      "inputs": [
        {
          "internalType": "address",
          "name": "account",
          "type": "address"
        }
      ],
      "name": "getCurrentVotes",
      "outputs": [
        {
          "internalType": "uint256",
          "name": "",
          "type": "uint256"
        }
      ],
      "stateMutability": "view",
      "type": "function"
    },
    {
      "inputs": [
        {
          "internalType": "address",
          "name": "account",
          "type": "address"
        },
        {
          "internalType": "uint256",
          "name": "blockNumber",
          "type": "uint256"
        }
      ],
      "name": "getPriorVotes",
      "outputs": [
        {
          "internalType": "uint256",
          "name": "",
          "type": "uint256"
        }
      ],
      "stateMutability": "view",
      "type": "function"
    },
    {
      "inputs": [
        {
          "internalType": "address",
          "name": "spender",
          "type": "address"
        },
        {
          "internalType": "uint256",
          "name": "addedValue",
          "type": "uint256"
        }
      ],
      "name": "increaseAllowance",
      "outputs": [
        {
          "internalType": "bool",
          "name": "",
          "type": "bool"
        }
      ],
      "stateMutability": "nonpayable",
      "type": "function"
    },
    {
      "inputs": [
        {
          "internalType": "address",
          "name": "degovDaiLpPool_",
          "type": "address"
        }
      ],
      "name": "initialize",
      "outputs": [],
      "stateMutability": "nonpayable",
      "type": "function"
    },
    {
      "inputs": [],
      "name": "name",
      "outputs": [
        {
          "internalType": "string",
          "name": "",
          "type": "string"
        }
      ],
      "stateMutability": "view",
      "type": "function"
    },
    {
      "inputs": [
        {
          "internalType": "address",
          "name": "",
          "type": "address"
        }
      ],
      "name": "nonces",
      "outputs": [
        {
          "internalType": "uint256",
          "name": "",
          "type": "uint256"
        }
      ],
      "stateMutability": "view",
      "type": "function"
    },
    {
      "inputs": [
        {
          "internalType": "address",
          "name": "",
          "type": "address"
        }
      ],
      "name": "numCheckpoints",
      "outputs": [
        {
          "internalType": "uint32",
          "name": "",
          "type": "uint32"
        }
      ],
      "stateMutability": "view",
      "type": "function"
    },
    {
      "inputs": [],
      "name": "owner",
      "outputs": [
        {
          "internalType": "address",
          "name": "",
          "type": "address"
        }
      ],
      "stateMutability": "view",
      "type": "function"
    },
    {
      "inputs": [],
      "name": "proposalThreshold",
      "outputs": [
        {
          "internalType": "uint256",
          "name": "",
          "type": "uint256"
        }
      ],
      "stateMutability": "view",
      "type": "function"
    },
    {
      "inputs": [],
      "name": "quorumThreshold",
      "outputs": [
        {
          "internalType": "uint256",
          "name": "",
          "type": "uint256"
        }
      ],
      "stateMutability": "view",
      "type": "function"
    },
    {
      "inputs": [],
      "name": "renounceOwnership",
      "outputs": [],
      "stateMutability": "nonpayable",
      "type": "function"
    },
    {
      "inputs": [
        {
          "internalType": "uint256",
          "name": "proposalThreshold_",
          "type": "uint256"
        }
      ],
      "name": "setProposalThresholdRatio",
      "outputs": [],
      "stateMutability": "nonpayable",
      "type": "function"
    },
    {
      "inputs": [
        {
          "internalType": "uint256",
          "name": "quorumThreshold_",
          "type": "uint256"
        }
      ],
      "name": "setQuorumThresholdRatio",
      "outputs": [],
      "stateMutability": "nonpayable",
      "type": "function"
    },
    {
      "inputs": [],
      "name": "symbol",
      "outputs": [
        {
          "internalType": "string",
          "name": "",
          "type": "string"
        }
      ],
      "stateMutability": "view",
      "type": "function"
    },
    {
      "inputs": [],
      "name": "totalSupply",
      "outputs": [
        {
          "internalType": "uint256",
          "name": "",
          "type": "uint256"
        }
      ],
      "stateMutability": "view",
      "type": "function"
    },
    {
      "inputs": [
        {
          "internalType": "address",
          "name": "recipient",
          "type": "address"
        },
        {
          "internalType": "uint256",
          "name": "amount",
          "type": "uint256"
        }
      ],
      "name": "transfer",
      "outputs": [
        {
          "internalType": "bool",
          "name": "",
          "type": "bool"
        }
      ],
      "stateMutability": "nonpayable",
      "type": "function"
    },
    {
      "inputs": [
        {
          "internalType": "address",
          "name": "sender",
          "type": "address"
        },
        {
          "internalType": "address",
          "name": "recipient",
          "type": "address"
        },
        {
          "internalType": "uint256",
          "name": "amount",
          "type": "uint256"
        }
      ],
      "name": "transferFrom",
      "outputs": [
        {
          "internalType": "bool",
          "name": "",
          "type": "bool"
        }
      ],
      "stateMutability": "nonpayable",
      "type": "function"
    },
    {
      "inputs": [
        {
          "internalType": "address",
          "name": "newOwner",
          "type": "address"
        }
      ],
      "name": "transferOwnership",
      "outputs": [],
      "stateMutability": "nonpayable",
      "type": "function"
    }
  ],
  "bytecode": "0x60806040526014603c556001603d553480156200001b57600080fd5b50604051806040016040528060058152602001642232b3b7bb60d91b815250604051806040016040528060058152602001642222a3a7ab60d91b8152508160039080519060200190620000709291906200010c565b508051620000869060049060208401906200010c565b50506005805460ff19166012179055506000620000ab6001600160e01b036200010716565b60058054610100600160a81b0319166101006001600160a01b03841690810291909117909155604051919250906000907f8be0079c531659141344cd1fd0a4f28419497f9722a3daafe3b4186f6b6457e0908290a350620001ae565b335b90565b828054600181600116156101000203166002900490600052602060002090601f016020900481019282601f106200014f57805160ff19168380011785556200017f565b828001600101855582156200017f579182015b828111156200017f57825182559160200191906001019062000162565b506200018d92915062000191565b5090565b6200010991905b808211156200018d576000815560010162000198565b611fc980620001be6000396000f3fe608060405234801561001057600080fd5b50600436106101da5760003560e01c80637b7a91dd11610104578063b4b5ea57116100a2578063dd62ed3e11610071578063dd62ed3e146103b8578063e7a324dc146103cb578063f1127ed8146103d3578063f2fde38b146103f4576101da565b8063b4b5ea5714610377578063b58131b01461038a578063c3cda52014610392578063c4d66de8146103a5576101da565b8063902d55a5116100de578063902d55a51461034157806395d89b4114610349578063a457c2d714610351578063a9059cbb14610364576101da565b80637b7a91dd1461031e5780637ecebe00146103265780638da5cb5b14610339576101da565b8063395093511161017c57806370a082311161014b57806370a08231146102dd578063715018a6146102f057806376ff7945146102f8578063782d6fe11461030b576101da565b80633950935114610277578063587cde1e1461028a5780635c19a95c146102aa5780636fcfff45146102bd576101da565b806318160ddd116101b857806318160ddd1461023257806320606b701461024757806323b872dd1461024f578063313ce56714610262576101da565b806306fdde03146101df578063095ea7b3146101fd5780630ceaa2991461021d575b600080fd5b6101e7610407565b6040516101f49190611962565b60405180910390f35b61021061020b36600461172f565b61049d565b6040516101f491906118e8565b61023061022b3660046117f7565b6104bb565b005b61023a61058f565b6040516101f491906118f3565b61023a610595565b61021061025d3660046116ef565b6105ac565b61026a6105f6565b6040516101f49190611ec8565b61021061028536600461172f565b6105ff565b61029d6102983660046116a0565b610658565b6040516101f491906118d4565b6102306102b83660046116a0565b610673565b6102d06102cb3660046116a0565b610680565b6040516101f49190611ea1565b61023a6102eb3660046116a0565b610698565b6102306106b3565b6102306103063660046117f7565b61073d565b61023a61031936600461172f565b6107fb565b61023a6109e4565b61023a6103343660046116a0565b6109ea565b61029d6109fc565b61023a610a10565b6101e7610a1e565b61021061035f36600461172f565b610a7f565b61021061037236600461172f565b610aed565b61023a6103853660046116a0565b610b2b565b61023a610b8f565b6102306103a0366004611759565b610b95565b6102306103b33660046116a0565b610d4c565b61023a6103c63660046116bb565b610dfb565b61023a610e26565b6103e66103e13660046117b8565b610e32565b6040516101f4929190611eb2565b6102306104023660046116a0565b610e5f565b60038054604080516020601f60026000196101006001881615020190951694909404938401819004810282018101909252828152606093909290918301828280156104935780601f1061046857610100808354040283529160200191610493565b820191906000526020600020905b81548152906001019060200180831161047657829003601f168201915b5050505050905090565b60006104b16104aa610f26565b8484610f2a565b5060015b92915050565b6104c3610f26565b60055461010090046001600160a01b039081169116146104fe5760405162461bcd60e51b81526004016104f590611c68565b60405180910390fd5b60008111801561051157506064603c5411155b61052d5760405162461bcd60e51b81526004016104f590611bc3565b603d5481101561054f5760405162461bcd60e51b81526004016104f590611afe565b603c8190556040517f67c1d286e5ce15dd6279bf747aa93cd98aa659b8073d935487a14eb66c833b78906105849083906118f3565b60405180910390a150565b60025490565b6040516105a19061182a565b604051809103902081565b60006105b9848484610fde565b506001600160a01b038085166000908152603860205260408082205486841683529120546105ec9291821691168461105c565b5060019392505050565b60055460ff1690565b60006104b161060c610f26565b84610653856001600061061d610f26565b6001600160a01b03908116825260208083019390935260409182016000908120918c16815292529020549063ffffffff6111aa16565b610f2a565b6038602052600090815260409020546001600160a01b031681565b61067d33826111cf565b50565b603a6020526000908152604090205463ffffffff1681565b6001600160a01b031660009081526020819052604090205490565b6106bb610f26565b60055461010090046001600160a01b039081169116146106ed5760405162461bcd60e51b81526004016104f590611c68565b60055460405160009161010090046001600160a01b0316907f8be0079c531659141344cd1fd0a4f28419497f9722a3daafe3b4186f6b6457e0908390a360058054610100600160a81b0319169055565b610745610f26565b60055461010090046001600160a01b039081169116146107775760405162461bcd60e51b81526004016104f590611c68565b600081118015610788575060648111155b6107a45760405162461bcd60e51b81526004016104f590611b5b565b603c548111156107c65760405162461bcd60e51b81526004016104f590611dbc565b603d8190556040517f8e115d8b73587ee6177b97dde52d68211117c6f5c7d3459a363bb8d82a11a935906105849083906118f3565b600043821061081c5760405162461bcd60e51b81526004016104f590611d30565b6001600160a01b0383166000908152603a602052604090205463ffffffff168061084a5760009150506104b5565b6001600160a01b038416600090815260396020908152604080832063ffffffff6000198601811685529252909120541683106108b9576001600160a01b03841660009081526039602090815260408083206000199490940163ffffffff168352929052206001015490506104b5565b6001600160a01b038416600090815260396020908152604080832083805290915290205463ffffffff168310156108f45760009150506104b5565b600060001982015b8163ffffffff168163ffffffff1611156109ad57600282820363ffffffff16048103610926611672565b506001600160a01b038716600090815260396020908152604080832063ffffffff808616855290835292819020815180830190925280549093168082526001909301549181019190915290871415610988576020015194506104b59350505050565b805163ffffffff1687111561099f578193506109a6565b6001820392505b50506108fc565b506001600160a01b038516600090815260396020908152604080832063ffffffff9094168352929052206001015491505092915050565b603c5481565b603b6020526000908152604090205481565b60055461010090046001600160a01b031690565b69054b40b1f852bda0000081565b60048054604080516020601f60026000196101006001881615020190951694909404938401819004810282018101909252828152606093909290918301828280156104935780601f1061046857610100808354040283529160200191610493565b60006104b1610a8c610f26565b8461065385604051806060016040528060258152602001611f3a6025913960016000610ab6610f26565b6001600160a01b03908116825260208083019390935260409182016000908120918d1681529252902054919063ffffffff61126416565b6000610af98383611290565b5033600090815260386020526040808220546001600160a01b03868116845291909220546104b192821691168461105c565b6001600160a01b0381166000908152603a602052604081205463ffffffff1680610b56576000610b88565b6001600160a01b038316600090815260396020908152604080832063ffffffff60001986011684529091529020600101545b9392505050565b603d5481565b6000604051610ba39061182a565b6040518091039020610bb3610407565b80519060200120610bc26112a4565b30604051602001610bd69493929190611920565b6040516020818303038152906040528051906020012090506000604051610bfc90611885565b604051908190038120610c17918a908a908a906020016118fc565b60405160208183030381529060405280519060200120905060008282604051602001610c4492919061180f565b604051602081830303815290604052805190602001209050600060018288888860405160008152602001604052604051610c819493929190611944565b6020604051602081039080840390855afa158015610ca3573d6000803e3d6000fd5b5050604051601f1901519150506001600160a01b038116610cd65760405162461bcd60e51b81526004016104f590611c21565b6001600160a01b0381166000908152603b602052604090208054600181019091558914610d155760405162461bcd60e51b81526004016104f590611e19565b87421115610d355760405162461bcd60e51b81526004016104f5906119b5565b610d3f818b6111cf565b505050505b505050505050565b600554600160b01b900460ff1680610d675750610d676112a8565b80610d7c5750600554600160a81b900460ff16155b610d985760405162461bcd60e51b81526004016104f590611c9d565b600554600160b01b900460ff16158015610dcf576005805460ff60a81b1960ff60b01b19909116600160b01b1716600160a81b1790555b610de38269054b40b1f852bda000006112ae565b8015610df7576005805460ff60b01b191690555b5050565b6001600160a01b03918216600090815260016020908152604080832093909416825291909152205490565b6040516105a190611885565b60396020908152600092835260408084209091529082529020805460019091015463ffffffff9091169082565b610e67610f26565b60055461010090046001600160a01b03908116911614610e995760405162461bcd60e51b81526004016104f590611c68565b6001600160a01b038116610ebf5760405162461bcd60e51b81526004016104f590611a3f565b6005546040516001600160a01b0380841692610100900416907f8be0079c531659141344cd1fd0a4f28419497f9722a3daafe3b4186f6b6457e090600090a3600580546001600160a01b0390921661010002610100600160a81b0319909216919091179055565b3390565b6001600160a01b038316610f505760405162461bcd60e51b81526004016104f590611d78565b6001600160a01b038216610f765760405162461bcd60e51b81526004016104f590611a85565b6001600160a01b0380841660008181526001602090815260408083209487168084529490915290819020849055517f8c5be1e5ebec7d5bd14f71427d1e84f3dd0314c0f7b2291e5b200ac8c7c3b92590610fd19085906118f3565b60405180910390a3505050565b6000610feb84848461137a565b6105ec84610ff7610f26565b61065385604051806060016040528060288152602001611f12602891396001600160a01b038a16600090815260016020526040812090611035610f26565b6001600160a01b03168152602081019190915260400160002054919063ffffffff61126416565b816001600160a01b0316836001600160a01b03161415801561107e5750600081115b156111a5576001600160a01b03831615611116576001600160a01b0383166000908152603a602052604081205463ffffffff1690816110be5760006110f0565b6001600160a01b038516600090815260396020908152604080832063ffffffff60001987011684529091529020600101545b90506000611104828563ffffffff61149b16565b9050611112868484846114dd565b5050505b6001600160a01b038216156111a5576001600160a01b0382166000908152603a602052604081205463ffffffff169081611151576000611183565b6001600160a01b038416600090815260396020908152604080832063ffffffff60001987011684529091529020600101545b90506000611197828563ffffffff6111aa16565b9050610d44858484846114dd565b505050565b600082820183811015610b885760405162461bcd60e51b81526004016104f590611ac7565b6001600160a01b03808316600090815260386020526040812054909116906111f684610698565b6001600160a01b0385811660008181526038602052604080822080546001600160a01b031916898616908117909155905194955093928616927f3134e8a2e6d97e929a7e54011ea5485d7d196dd5f0ba4d4ef95803e8e3fc257f9190a461125e82848361105c565b50505050565b600081848411156112885760405162461bcd60e51b81526004016104f59190611962565b505050900390565b60006104b161129d610f26565b848461137a565b4690565b303b1590565b6001600160a01b0382166112d45760405162461bcd60e51b81526004016104f590611e5c565b6112e0600083836111a5565b6002546112f3908263ffffffff6111aa16565b6002556001600160a01b03821660009081526020819052604090205461131f908263ffffffff6111aa16565b6001600160a01b0383166000818152602081905260408082209390935591519091907fddf252ad1be2c89b69c2b068fc378daa952ba7f163c4a11628f55a4df523b3ef9061136e9085906118f3565b60405180910390a35050565b6001600160a01b0383166113a05760405162461bcd60e51b81526004016104f590611ceb565b6001600160a01b0382166113c65760405162461bcd60e51b81526004016104f5906119fc565b6113d18383836111a5565b61141481604051806060016040528060268152602001611eec602691396001600160a01b038616600090815260208190526040902054919063ffffffff61126416565b6001600160a01b038085166000908152602081905260408082209390935590841681522054611449908263ffffffff6111aa16565b6001600160a01b0380841660008181526020819052604090819020939093559151908516907fddf252ad1be2c89b69c2b068fc378daa952ba7f163c4a11628f55a4df523b3ef90610fd19085906118f3565b6000610b8883836040518060400160405280601e81526020017f536166654d6174683a207375627472616374696f6e206f766572666c6f770000815250611264565b600061150143604051806060016040528060358152602001611f5f60359139611642565b905060008463ffffffff1611801561154a57506001600160a01b038516600090815260396020908152604080832063ffffffff6000198901811685529252909120548282169116145b15611587576001600160a01b038516600090815260396020908152604080832063ffffffff600019890116845290915290206001018290556115f8565b60408051808201825263ffffffff808416825260208083018681526001600160a01b038a166000818152603984528681208b8616825284528681209551865490861663ffffffff199182161787559251600196870155908152603a9092529390208054928801909116919092161790555b846001600160a01b03167fdec2bacdd2f05b59de34da9b523dff8be42e5e38e818c82fdb0bae774387a7248484604051611633929190611e93565b60405180910390a25050505050565b600081640100000000841061166a5760405162461bcd60e51b81526004016104f59190611962565b509192915050565b604080518082019091526000808252602082015290565b80356001600160a01b03811681146104b557600080fd5b6000602082840312156116b1578081fd5b610b888383611689565b600080604083850312156116cd578081fd5b6116d78484611689565b91506116e68460208501611689565b90509250929050565b600080600060608486031215611703578081fd5b833561170e81611ed6565b9250602084013561171e81611ed6565b929592945050506040919091013590565b60008060408385031215611741578182fd5b61174b8484611689565b946020939093013593505050565b60008060008060008060c08789031215611771578182fd5b61177b8888611689565b95506020870135945060408701359350606087013560ff8116811461179e578283fd5b9598949750929560808101359460a0909101359350915050565b600080604083850312156117ca578182fd5b6117d48484611689565b9150602083013563ffffffff811681146117ec578182fd5b809150509250929050565b600060208284031215611808578081fd5b5035919050565b61190160f01b81526002810192909252602282015260420190565b7f454950373132446f6d61696e28737472696e67206e616d652c75696e7432353681527f20636861696e49642c6164647265737320766572696679696e67436f6e74726160208201526263742960e81b604082015260430190565b7f44656c65676174696f6e28616464726573732064656c6567617465652c75696e81527f74323536206e6f6e63652c75696e7432353620657870697279290000000000006020820152603a0190565b6001600160a01b0391909116815260200190565b901515815260200190565b90815260200190565b9384526001600160a01b039290921660208401526040830152606082015260800190565b938452602084019290925260408301526001600160a01b0316606082015260800190565b93845260ff9290921660208401526040830152606082015260800190565b6000602080835283518082850152825b8181101561198e57858101830151858201604001528201611972565b8181111561199f5783604083870101525b50601f01601f1916929092016040019392505050565b60208082526027908201527f4465676f763a3a64656c656761746542795369673a207369676e617475726520604082015266195e1c1a5c995960ca1b606082015260800190565b60208082526023908201527f45524332303a207472616e7366657220746f20746865207a65726f206164647260408201526265737360e81b606082015260800190565b60208082526026908201527f4f776e61626c653a206e6577206f776e657220697320746865207a65726f206160408201526564647265737360d01b606082015260800190565b60208082526022908201527f45524332303a20617070726f766520746f20746865207a65726f206164647265604082015261737360f01b606082015260800190565b6020808252601b908201527f536166654d6174683a206164646974696f6e206f766572666c6f770000000000604082015260600190565b6020808252603e908201527f51756f72756d207468726573686f6c64206d757374206265206772656174206f60408201527f7220657175616c20746f6f2070726f706f73616c207468726573686f6c640000606082015260800190565b60208082526042908201527f50726f706f73616c207468726573686f6c64206d75737420626520677265617460408201527f6572207468616e207a65726f20616e64206c6573732f657175616c20746f2031606082015261030360f41b608082015260a00190565b602080825260409082018190527f51756f72756d207468726573686f6c64206d7573742062652067726561746572908201527f207468616e207a65726f20616e64206c6573732f657175616c20746f20313030606082015260800190565b60208082526027908201527f4465676f763a3a64656c656761746542795369673a20696e76616c6964207369604082015266676e617475726560c81b606082015260800190565b6020808252818101527f4f776e61626c653a2063616c6c6572206973206e6f7420746865206f776e6572604082015260600190565b6020808252602e908201527f436f6e747261637420696e7374616e63652068617320616c726561647920626560408201526d195b881a5b9a5d1a585b1a5e995960921b606082015260800190565b60208082526025908201527f45524332303a207472616e736665722066726f6d20746865207a65726f206164604082015264647265737360d81b606082015260800190565b60208082526028908201527f4465676f763a3a6765745072696f72566f7465733a206e6f74207965742064656040820152671d195c9b5a5b995960c21b606082015260800190565b60208082526024908201527f45524332303a20617070726f76652066726f6d20746865207a65726f206164646040820152637265737360e01b606082015260800190565b6020808252603e908201527f50726f706f73616c207468726573686f6c64206d75737420626520677265617460408201527f206f7220657175616c20746f6f2071756f72756d207468726573686f6c640000606082015260800190565b60208082526023908201527f4465676f763a3a64656c656761746542795369673a20696e76616c6964206e6f6040820152626e636560e81b606082015260800190565b6020808252601f908201527f45524332303a206d696e7420746f20746865207a65726f206164647265737300604082015260600190565b918252602082015260400190565b63ffffffff91909116815260200190565b63ffffffff929092168252602082015260400190565b60ff91909116815260200190565b6001600160a01b038116811461067d57600080fdfe45524332303a207472616e7366657220616d6f756e7420657863656564732062616c616e636545524332303a207472616e7366657220616d6f756e74206578636565647320616c6c6f77616e636545524332303a2064656372656173656420616c6c6f77616e63652062656c6f77207a65726f4465676f763a3a5f7772697465436865636b706f696e743a20626c6f636b206e756d62657220657863656564732033322062697473a26469706673582212209d19fbe93570b78aff32a8d14248489df4a88a8d47f20a370fe965a7a504e64864736f6c63430006060033",
  "linkReferences": {},
  "deployedLinkReferences": {}
}