{
  "_format": "hh-sol-artifact-1",
  "contractName": "MockRandomNumberConsumer",
  "sourceName": "contracts/Randomized-Threshold-Counter/Mock/MockRandomNumberConsumer.sol",
  "abi": [
    {
      "inputs": [
        {
          "internalType": "address",
          "name": "multiSigSafe_",
          "type": "address"
        },
        {
          "internalType": "contract RandomizedCounter",
          "name": "randomizedCounter_",
          "type": "address"
        },
        {
          "internalType": "contract Token",
          "name": "link_",
          "type": "address"
        },
        {
          "internalType": "uint256",
          "name": "fee_",
          "type": "uint256"
        }
      ],
      "stateMutability": "nonpayable",
      "type": "constructor"
    },
    {
      "inputs": [],
      "name": "fee",
      "outputs": [
        {
          "internalType": "uint256",
          "name": "",
          "type": "uint256"
        }
      ],
      "stateMutability": "view",
      "type": "function"
    },
    {
      "inputs": [
        {
          "internalType": "uint256",
          "name": "num",
          "type": "uint256"
        }
      ],
      "name": "fulfillRandomness",
      "outputs": [],
      "stateMutability": "nonpayable",
      "type": "function"
    },
    {
      "inputs": [
        {
          "internalType": "uint256",
          "name": "seed",
          "type": "uint256"
        }
      ],
      "name": "getRandomNumber",
      "outputs": [],
      "stateMutability": "nonpayable",
      "type": "function"
    },
    {
      "inputs": [],
      "name": "link",
      "outputs": [
        {
          "internalType": "contract Token",
          "name": "",
          "type": "address"
        }
      ],
      "stateMutability": "view",
      "type": "function"
    },
    {
      "inputs": [],
      "name": "multiSigSafe",
      "outputs": [
        {
          "internalType": "address",
          "name": "",
          "type": "address"
        }
      ],
      "stateMutability": "view",
      "type": "function"
    },
    {
      "inputs": [],
      "name": "randomResult",
      "outputs": [
        {
          "internalType": "uint256",
          "name": "",
          "type": "uint256"
        }
      ],
      "stateMutability": "view",
      "type": "function"
    },
    {
      "inputs": [],
      "name": "randomizedCounter",
      "outputs": [
        {
          "internalType": "contract RandomizedCounter",
          "name": "",
          "type": "address"
        }
      ],
      "stateMutability": "view",
      "type": "function"
    },
    {
      "inputs": [],
      "name": "withdrawLink",
      "outputs": [],
      "stateMutability": "nonpayable",
      "type": "function"
    }
  ],
  "bytecode": "0x608060405234801561001057600080fd5b506040516106333803806106338339818101604052608081101561003357600080fd5b50805160208201516040830151606090930151600280546001600160a01b039485166001600160a01b03199182161790915560038054938516938216939093179092556000556004805492909316911617905561059e806100956000396000f3fe608060405234801561001057600080fd5b50600436106100885760003560e01c8063a5bc72b61161005b578063a5bc72b6146100f2578063a833df30146100fa578063b37217a414610102578063ddca3f431461011f57610088565b80631c4695f41461008d57806342619f66146100b1578063495bd94e146100cb5780638dc654a2146100ea575b600080fd5b610095610127565b604080516001600160a01b039092168252519081900360200190f35b6100b9610136565b60408051918252519081900360200190f35b6100e8600480360360208110156100e157600080fd5b503561013c565b005b6100e86101a9565b610095610338565b610095610347565b6100e86004803603602081101561011857600080fd5b5035610356565b6100b9610450565b6004546001600160a01b031681565b60015481565b600181905560035460408051637c2032e760e01b81526004810184905290516001600160a01b0390921691637c2032e79160248082019260009290919082900301818387803b15801561018e57600080fd5b505af11580156101a2573d6000803e3d6000fd5b5050505050565b6002546001600160a01b031633146101f25760405162461bcd60e51b81526004018080602001828103825260258152602001806105446025913960400191505060405180910390fd5b60048054604080516370a0823160e01b81523093810193909352516001600160a01b039091169163a9059cbb91339184916370a0823191602480820192602092909190829003018186803b15801561024957600080fd5b505afa15801561025d573d6000803e3d6000fd5b505050506040513d602081101561027357600080fd5b5051604080516001600160e01b031960e086901b1681526001600160a01b03909316600484015260248301919091525160448083019260209291908290030181600087803b1580156102c457600080fd5b505af11580156102d8573d6000803e3d6000fd5b505050506040513d60208110156102ee57600080fd5b5051610336576040805162461bcd60e51b81526020600482015260126024820152712ab730b13632903a37903a3930b739b332b960711b604482015290519081900360640190fd5b565b6002546001600160a01b031681565b6003546001600160a01b031681565b6003546001600160a01b0316331461039f5760405162461bcd60e51b81526004018080602001828103825260238152602001806105216023913960400191505060405180910390fd5b6103c66040518060400160405280600681526020016510d85b1b195960d21b815250610456565b60048054600080546040805163a9059cbb60e01b81526001958101959095526024850191909152516001600160a01b039092169263a9059cbb9260448083019360209383900390910190829087803b15801561042157600080fd5b505af1158015610435573d6000803e3d6000fd5b505050506040513d602081101561044b57600080fd5b505050565b60005481565b6104fc816040516024018080602001828103825283818151815260200191508051906020019080838360005b8381101561049a578181015183820152602001610482565b50505050905090810190601f1680156104c75780820380516001836020036101000a031916815260200191505b5060408051601f198184030181529190526020810180516001600160e01b031663104c13eb60e21b17905292506104ff915050565b50565b80516a636f6e736f6c652e6c6f67602083016000808483855afa505050505056fe4f6e6c7920636f756e7465722063616e2063616c6c20746869732066756e6374696f6e4f6e6c79206d756c74692073696720736166652063616e207769746864726177206c696e6ba26469706673582212205398259e33a3196dd6b62c57fbaf1dc10285c4624e1af7291a4aa65c6c55ffc764736f6c63430006060033",
  "linkReferences": {},
  "deployedLinkReferences": {}
}