{
  "_format": "hh-sol-artifact-1",
  "contractName": "GovernorAlpha",
  "sourceName": "contracts/flattened/GovernorAlpha.sol",
  "abi": [
    {
      "anonymous": false,
      "inputs": [
        {
          "indexed": true,
          "internalType": "address",
          "name": "previousOwner",
          "type": "address"
        },
        {
          "indexed": true,
          "internalType": "address",
          "name": "newOwner",
          "type": "address"
        }
      ],
      "name": "OwnershipTransferred",
      "type": "event"
    },
    {
      "anonymous": false,
      "inputs": [
        {
          "indexed": false,
          "internalType": "uint256",
          "name": "id_",
          "type": "uint256"
        }
      ],
      "name": "ProposalCanceled",
      "type": "event"
    },
    {
      "anonymous": false,
      "inputs": [
        {
          "indexed": false,
          "internalType": "uint256",
          "name": "id_",
          "type": "uint256"
        },
        {
          "indexed": false,
          "internalType": "address",
          "name": "proposer_",
          "type": "address"
        },
        {
          "indexed": false,
          "internalType": "address[]",
          "name": "targets_",
          "type": "address[]"
        },
        {
          "indexed": false,
          "internalType": "uint256[]",
          "name": "values_",
          "type": "uint256[]"
        },
        {
          "indexed": false,
          "internalType": "string[]",
          "name": "signatures_",
          "type": "string[]"
        },
        {
          "indexed": false,
          "internalType": "bytes[]",
          "name": "calldatas_",
          "type": "bytes[]"
        },
        {
          "indexed": false,
          "internalType": "uint256",
          "name": "startBlock_",
          "type": "uint256"
        },
        {
          "indexed": false,
          "internalType": "uint256",
          "name": "endBlock_",
          "type": "uint256"
        },
        {
          "indexed": false,
          "internalType": "string",
          "name": "description_",
          "type": "string"
        }
      ],
      "name": "ProposalCreated",
      "type": "event"
    },
    {
      "anonymous": false,
      "inputs": [
        {
          "indexed": false,
          "internalType": "uint256",
          "name": "id_",
          "type": "uint256"
        }
      ],
      "name": "ProposalExecuted",
      "type": "event"
    },
    {
      "anonymous": false,
      "inputs": [
        {
          "indexed": false,
          "internalType": "uint256",
          "name": "id_",
          "type": "uint256"
        },
        {
          "indexed": false,
          "internalType": "uint256",
          "name": "eta_",
          "type": "uint256"
        }
      ],
      "name": "ProposalQueued",
      "type": "event"
    },
    {
      "anonymous": false,
      "inputs": [
        {
          "indexed": true,
          "internalType": "uint256",
          "name": "votingDelay_",
          "type": "uint256"
        }
      ],
      "name": "SetVotingDelay",
      "type": "event"
    },
    {
      "anonymous": false,
      "inputs": [
        {
          "indexed": true,
          "internalType": "uint256",
          "name": "votingPeriod_",
          "type": "uint256"
        }
      ],
      "name": "SetVotingPeriod",
      "type": "event"
    },
    {
      "anonymous": false,
      "inputs": [
        {
          "indexed": false,
          "internalType": "address",
          "name": "voter_",
          "type": "address"
        },
        {
          "indexed": false,
          "internalType": "uint256",
          "name": "proposalId_",
          "type": "uint256"
        },
        {
          "indexed": false,
          "internalType": "bool",
          "name": "support_",
          "type": "bool"
        },
        {
          "indexed": false,
          "internalType": "uint256",
          "name": "votes_",
          "type": "uint256"
        }
      ],
      "name": "VoteCast",
      "type": "event"
    },
    {
      "inputs": [],
      "name": "BALLOT_TYPEHASH",
      "outputs": [
        {
          "internalType": "bytes32",
          "name": "",
          "type": "bytes32"
        }
      ],
      "stateMutability": "view",
      "type": "function"
    },
    {
      "inputs": [],
      "name": "DOMAIN_TYPEHASH",
      "outputs": [
        {
          "internalType": "bytes32",
          "name": "",
          "type": "bytes32"
        }
      ],
      "stateMutability": "view",
      "type": "function"
    },
    {
      "inputs": [],
      "name": "__abdicate",
      "outputs": [],
      "stateMutability": "nonpayable",
      "type": "function"
    },
    {
      "inputs": [],
      "name": "__acceptAdmin",
      "outputs": [],
      "stateMutability": "nonpayable",
      "type": "function"
    },
    {
      "inputs": [
        {
          "internalType": "address",
          "name": "newPendingAdmin",
          "type": "address"
        },
        {
          "internalType": "uint256",
          "name": "eta",
          "type": "uint256"
        }
      ],
      "name": "__executeSetTimelockPendingAdmin",
      "outputs": [],
      "stateMutability": "nonpayable",
      "type": "function"
    },
    {
      "inputs": [
        {
          "internalType": "address",
          "name": "newPendingAdmin",
          "type": "address"
        },
        {
          "internalType": "uint256",
          "name": "eta",
          "type": "uint256"
        }
      ],
      "name": "__queueSetTimelockPendingAdmin",
      "outputs": [],
      "stateMutability": "nonpayable",
      "type": "function"
    },
    {
      "inputs": [
        {
          "internalType": "uint256",
          "name": "proposalId",
          "type": "uint256"
        }
      ],
      "name": "cancel",
      "outputs": [],
      "stateMutability": "nonpayable",
      "type": "function"
    },
    {
      "inputs": [
        {
          "internalType": "uint256",
          "name": "proposalId",
          "type": "uint256"
        },
        {
          "internalType": "bool",
          "name": "support",
          "type": "bool"
        }
      ],
      "name": "castVote",
      "outputs": [],
      "stateMutability": "nonpayable",
      "type": "function"
    },
    {
      "inputs": [
        {
          "internalType": "uint256",
          "name": "proposalId",
          "type": "uint256"
        },
        {
          "internalType": "bool",
          "name": "support",
          "type": "bool"
        },
        {
          "internalType": "uint8",
          "name": "v",
          "type": "uint8"
        },
        {
          "internalType": "bytes32",
          "name": "r",
          "type": "bytes32"
        },
        {
          "internalType": "bytes32",
          "name": "s",
          "type": "bytes32"
        }
      ],
      "name": "castVoteBySig",
      "outputs": [],
      "stateMutability": "nonpayable",
      "type": "function"
    },
    {
      "inputs": [],
      "name": "degov",
      "outputs": [
        {
          "internalType": "contract DegovI",
          "name": "",
          "type": "address"
        }
      ],
      "stateMutability": "view",
      "type": "function"
    },
    {
      "inputs": [
        {
          "internalType": "uint256",
          "name": "proposalId",
          "type": "uint256"
        }
      ],
      "name": "execute",
      "outputs": [],
      "stateMutability": "payable",
      "type": "function"
    },
    {
      "inputs": [
        {
          "internalType": "uint256",
          "name": "proposalId",
          "type": "uint256"
        }
      ],
      "name": "getActions",
      "outputs": [
        {
          "internalType": "address[]",
          "name": "targets",
          "type": "address[]"
        },
        {
          "internalType": "uint256[]",
          "name": "values",
          "type": "uint256[]"
        },
        {
          "internalType": "string[]",
          "name": "signatures",
          "type": "string[]"
        },
        {
          "internalType": "bytes[]",
          "name": "calldatas",
          "type": "bytes[]"
        }
      ],
      "stateMutability": "view",
      "type": "function"
    },
    {
      "inputs": [
        {
          "internalType": "uint256",
          "name": "proposalId",
          "type": "uint256"
        },
        {
          "internalType": "address",
          "name": "voter",
          "type": "address"
        }
      ],
      "name": "getReceipt",
      "outputs": [
        {
          "components": [
            {
              "internalType": "bool",
              "name": "hasVoted",
              "type": "bool"
            },
            {
              "internalType": "bool",
              "name": "support",
              "type": "bool"
            },
            {
              "internalType": "uint256",
              "name": "votes",
              "type": "uint256"
            }
          ],
          "internalType": "struct GovernorAlpha.Receipt",
          "name": "",
          "type": "tuple"
        }
      ],
      "stateMutability": "view",
      "type": "function"
    },
    {
      "inputs": [],
      "name": "guardian",
      "outputs": [
        {
          "internalType": "address",
          "name": "",
          "type": "address"
        }
      ],
      "stateMutability": "view",
      "type": "function"
    },
    {
      "inputs": [
        {
          "internalType": "contract Timelock",
          "name": "timelock_",
          "type": "address"
        },
        {
          "internalType": "address",
          "name": "degov_",
          "type": "address"
        }
      ],
      "name": "initialize",
      "outputs": [],
      "stateMutability": "nonpayable",
      "type": "function"
    },
    {
      "inputs": [
        {
          "internalType": "address",
          "name": "",
          "type": "address"
        }
      ],
      "name": "latestProposalIds",
      "outputs": [
        {
          "internalType": "uint256",
          "name": "",
          "type": "uint256"
        }
      ],
      "stateMutability": "view",
      "type": "function"
    },
    {
      "inputs": [],
      "name": "name",
      "outputs": [
        {
          "internalType": "string",
          "name": "",
          "type": "string"
        }
      ],
      "stateMutability": "view",
      "type": "function"
    },
    {
      "inputs": [],
      "name": "owner",
      "outputs": [
        {
          "internalType": "address",
          "name": "",
          "type": "address"
        }
      ],
      "stateMutability": "view",
      "type": "function"
    },
    {
      "inputs": [],
      "name": "proposalCount",
      "outputs": [
        {
          "internalType": "uint256",
          "name": "",
          "type": "uint256"
        }
      ],
      "stateMutability": "view",
      "type": "function"
    },
    {
      "inputs": [],
      "name": "proposalMaxOperations",
      "outputs": [
        {
          "internalType": "uint256",
          "name": "",
          "type": "uint256"
        }
      ],
      "stateMutability": "pure",
      "type": "function"
    },
    {
      "inputs": [],
      "name": "proposalThreshold",
      "outputs": [
        {
          "internalType": "uint256",
          "name": "",
          "type": "uint256"
        }
      ],
      "stateMutability": "view",
      "type": "function"
    },
    {
      "inputs": [
        {
          "internalType": "uint256",
          "name": "",
          "type": "uint256"
        }
      ],
      "name": "proposals",
      "outputs": [
        {
          "internalType": "uint256",
          "name": "id",
          "type": "uint256"
        },
        {
          "internalType": "address",
          "name": "proposer",
          "type": "address"
        },
        {
          "internalType": "uint256",
          "name": "eta",
          "type": "uint256"
        },
        {
          "internalType": "uint256",
          "name": "startBlock",
          "type": "uint256"
        },
        {
          "internalType": "uint256",
          "name": "endBlock",
          "type": "uint256"
        },
        {
          "internalType": "uint256",
          "name": "forVotes",
          "type": "uint256"
        },
        {
          "internalType": "uint256",
          "name": "againstVotes",
          "type": "uint256"
        },
        {
          "internalType": "bool",
          "name": "canceled",
          "type": "bool"
        },
        {
          "internalType": "bool",
          "name": "executed",
          "type": "bool"
        }
      ],
      "stateMutability": "view",
      "type": "function"
    },
    {
      "inputs": [
        {
          "internalType": "address[]",
          "name": "targets",
          "type": "address[]"
        },
        {
          "internalType": "uint256[]",
          "name": "values",
          "type": "uint256[]"
        },
        {
          "internalType": "string[]",
          "name": "signatures",
          "type": "string[]"
        },
        {
          "internalType": "bytes[]",
          "name": "calldatas",
          "type": "bytes[]"
        },
        {
          "internalType": "string",
          "name": "description",
          "type": "string"
        }
      ],
      "name": "propose",
      "outputs": [
        {
          "internalType": "uint256",
          "name": "",
          "type": "uint256"
        }
      ],
      "stateMutability": "nonpayable",
      "type": "function"
    },
    {
      "inputs": [
        {
          "internalType": "uint256",
          "name": "proposalId",
          "type": "uint256"
        }
      ],
      "name": "queue",
      "outputs": [],
      "stateMutability": "nonpayable",
      "type": "function"
    },
    {
      "inputs": [],
      "name": "quorumVotes",
      "outputs": [
        {
          "internalType": "uint256",
          "name": "",
          "type": "uint256"
        }
      ],
      "stateMutability": "view",
      "type": "function"
    },
    {
      "inputs": [],
      "name": "renounceOwnership",
      "outputs": [],
      "stateMutability": "nonpayable",
      "type": "function"
    },
    {
      "inputs": [
        {
          "internalType": "uint256",
          "name": "votingDelay_",
          "type": "uint256"
        }
      ],
      "name": "setVotingDelay",
      "outputs": [],
      "stateMutability": "nonpayable",
      "type": "function"
    },
    {
      "inputs": [
        {
          "internalType": "uint256",
          "name": "votingPeriod_",
          "type": "uint256"
        }
      ],
      "name": "setVotingPeriod",
      "outputs": [],
      "stateMutability": "nonpayable",
      "type": "function"
    },
    {
      "inputs": [
        {
          "internalType": "uint256",
          "name": "proposalId",
          "type": "uint256"
        }
      ],
      "name": "state",
      "outputs": [
        {
          "internalType": "enum GovernorAlpha.ProposalState",
          "name": "",
          "type": "uint8"
        }
      ],
      "stateMutability": "view",
      "type": "function"
    },
    {
      "inputs": [],
      "name": "timelock",
      "outputs": [
        {
          "internalType": "contract Timelock",
          "name": "",
          "type": "address"
        }
      ],
      "stateMutability": "view",
      "type": "function"
    },
    {
      "inputs": [
        {
          "internalType": "address",
          "name": "newOwner",
          "type": "address"
        }
      ],
      "name": "transferOwnership",
      "outputs": [],
      "stateMutability": "nonpayable",
      "type": "function"
    },
    {
      "inputs": [],
      "name": "votingDelay",
      "outputs": [
        {
          "internalType": "uint256",
          "name": "",
          "type": "uint256"
        }
      ],
      "stateMutability": "view",
      "type": "function"
    },
    {
      "inputs": [],
      "name": "votingPeriod",
      "outputs": [
        {
          "internalType": "uint256",
          "name": "",
          "type": "uint256"
        }
      ],
      "stateMutability": "view",
      "type": "function"
    }
  ],
  "bytecode": "0x608060405260016034556201518060355560006100236001600160e01b0361007616565b603380546001600160a01b0319166001600160a01b038316908117909155604051919250906000907f8be0079c531659141344cd1fd0a4f28419497f9722a3daafe3b4186f6b6457e0908290a35061007a565b3390565b6139e3806200008a6000396000f3fe6080604052600436106101ee5760003560e01c8063715018a61161010d578063d33219b4116100a0578063deaaa7cc1161006f578063deaaa7cc14610532578063e23a9a5214610547578063ea0217cf14610574578063f2fde38b14610594578063fe0d94c1146105b4576101ee565b8063d33219b4146104c8578063da35c664146104dd578063da95691a146104f2578063ddf0b00914610512576101ee565b806391500671116100dc57806391500671146104695780639911c1f514610489578063b58131b01461049e578063b9a61961146104b3576101ee565b8063715018a614610415578063760fbc131461042a5780637bdbe4d01461043f5780638da5cb5b14610454576101ee565b8063328dd98211610185578063452a932011610154578063452a9320146103935780634634c61f146103b5578063485cc955146103d557806370b0f660146103f5576101ee565b8063328dd982146103015780633932abb1146103315780633e4f49e61461034657806340e58ee514610373576101ee565b806317977c61116101c157806317977c611461029757806320606b70146102b757806321f43e42146102cc57806324bc1a64146102ec576101ee565b8063013cf08b146101f357806302a251a31461023157806306fdde031461025357806315373e3d14610275575b600080fd5b3480156101ff57600080fd5b5061021361020e366004612a88565b6105c7565b6040516102289998979695949392919061388d565b60405180910390f35b34801561023d57600080fd5b50610246610620565b6040516102289190612efe565b34801561025f57600080fd5b50610268610626565b6040516102289190612f75565b34801561028157600080fd5b50610295610290366004612ac4565b610656565b005b3480156102a357600080fd5b506102466102b2366004612893565b610665565b3480156102c357600080fd5b50610246610677565b3480156102d857600080fd5b506102956102e73660046128af565b61068e565b3480156102f857600080fd5b50610246610776565b34801561030d57600080fd5b5061032161031c366004612a88565b6108aa565b6040516102289493929190612ea7565b34801561033d57600080fd5b50610246610b39565b34801561035257600080fd5b50610366610361366004612a88565b610b3f565b6040516102289190612f61565b34801561037f57600080fd5b5061029561038e366004612a88565b610cc7565b34801561039f57600080fd5b506103a8610f2f565b6040516102289190612d61565b3480156103c157600080fd5b506102956103d0366004612ae8565b610f3e565b3480156103e157600080fd5b506102956103f0366004612a50565b6110d2565b34801561040157600080fd5b50610295610410366004612a88565b6111c6565b34801561042157600080fd5b5061029561123b565b34801561043657600080fd5b506102956112ba565b34801561044b57600080fd5b506102466112f6565b34801561046057600080fd5b506103a86112fb565b34801561047557600080fd5b506102956104843660046128af565b61130a565b34801561049557600080fd5b506103a86113e0565b3480156104aa57600080fd5b506102466113ef565b3480156104bf57600080fd5b50610295611447565b3480156104d457600080fd5b506103a86114db565b3480156104e957600080fd5b506102466114ea565b3480156104fe57600080fd5b5061024661050d3660046128da565b6114f0565b34801561051e57600080fd5b5061029561052d366004612a88565b61191d565b34801561053e57600080fd5b50610246611bce565b34801561055357600080fd5b50610567610562366004612aa0565b611bda565b60405161022891906137d2565b34801561058057600080fd5b5061029561058f366004612a88565b611c3e565b3480156105a057600080fd5b506102956105af366004612893565b611cb3565b6102956105c2366004612a88565b611d6a565b603a602052600090815260409020805460018201546002830154600784015460088501546009860154600a870154600b9097015495966001600160a01b0390951695939492939192909160ff8082169161010090041689565b60355481565b604051806040016040528060148152602001734465676f7620476f7665726e6f7220416c70686160601b81525081565b610661338383611f2f565b5050565b603b6020526000908152604090205481565b60405161068390612ccd565b604051809103902081565b6038546001600160a01b031633146106c15760405162461bcd60e51b81526004016106b890613137565b60405180910390fd5b6036546040516001600160a01b0390911690630825f38f9082906000906106ec908790602001612d61565b604051602081830303815290604052856040518563ffffffff1660e01b815260040161071b9493929190612d75565b600060405180830381600087803b15801561073557600080fd5b505af1158015610749573d6000803e3d6000fd5b505050506040513d6000823e601f3d908101601f1916820160405261077191908101906129da565b505050565b60006108a46064610898603760009054906101000a90046001600160a01b03166001600160a01b0316637b7a91dd6040518163ffffffff1660e01b815260040160206040518083038186803b1580156107ce57600080fd5b505afa1580156107e2573d6000803e3d6000fd5b505050506040513d601f19601f8201168201806040525081019061080691906129c2565b603760009054906101000a90046001600160a01b03166001600160a01b03166318160ddd6040518163ffffffff1660e01b815260040160206040518083038186803b15801561085457600080fd5b505afa158015610868573d6000803e3d6000fd5b505050506040513d601f19601f8201168201806040525081019061088c91906129c2565b9063ffffffff6120db16565b9063ffffffff61211c16565b90505b90565b6060806060806000603a60008781526020019081526020016000209050806003018160040182600501836006018380548060200260200160405190810160405280929190818152602001828054801561092c57602002820191906000526020600020905b81546001600160a01b0316815260019091019060200180831161090e575b505050505093508280548060200260200160405190810160405280929190818152602001828054801561097e57602002820191906000526020600020905b81548152602001906001019080831161096a575b5050505050925081805480602002602001604051908101604052809291908181526020016000905b82821015610a515760008481526020908190208301805460408051601f6002600019610100600187161502019094169390930492830185900485028101850190915281815292830182828015610a3d5780601f10610a1257610100808354040283529160200191610a3d565b820191906000526020600020905b815481529060010190602001808311610a2057829003601f168201915b5050505050815260200190600101906109a6565b50505050915080805480602002602001604051908101604052809291908181526020016000905b82821015610b235760008481526020908190208301805460408051601f6002600019610100600187161502019094169390930492830185900485028101850190915281815292830182828015610b0f5780601f10610ae457610100808354040283529160200191610b0f565b820191906000526020600020905b815481529060010190602001808311610af257829003601f168201915b505050505081526020019060010190610a78565b5050505090509450945094509450509193509193565b60345481565b60008160395410158015610b535750600082115b610b6f5760405162461bcd60e51b81526004016106b8906131a9565b6000828152603a60205260409020600b81015460ff1615610b94576002915050610cc2565b80600701544311610ba9576000915050610cc2565b80600801544311610bbe576001915050610cc2565b80600a01548160090154111580610bdf5750610bd8610776565b8160090154105b15610bee576003915050610cc2565b6002810154610c01576004915050610cc2565b600b810154610100900460ff1615610c1d576007915050610cc2565b6036546040805163281b6df760e21b81529051610cac926001600160a01b03169163a06db7dc916004808301926020929190829003018186803b158015610c6357600080fd5b505afa158015610c77573d6000803e3d6000fd5b505050506040513d601f19601f82011682018060405250810190610c9b91906129c2565b60028301549063ffffffff61215e16565b4210610cbc576006915050610cc2565b60059150505b919050565b6000610cd282610b3f565b90506007816007811115610ce257fe5b1415610d005760405162461bcd60e51b81526004016106b8906136dc565b6000828152603a602052604090206038546001600160a01b0316331480610dca5750610d2a6113ef565b6037546001838101546001600160a01b039283169263782d6fe192911690610d5990439063ffffffff61218316565b6040518363ffffffff1660e01b8152600401610d76929190612de1565b602060405180830381600087803b158015610d9057600080fd5b505af1158015610da4573d6000803e3d6000fd5b505050506040513d601f19601f82011682018060405250810190610dc891906129c2565b105b610de65760405162461bcd60e51b81526004016106b890613425565b600b8101805460ff1916600117905560005b6003820154811015610ef2576036546003830180546001600160a01b039092169163591fcdfe919084908110610e2a57fe5b6000918252602090912001546004850180546001600160a01b039092169185908110610e5257fe5b9060005260206000200154856005018581548110610e6c57fe5b90600052602060002001866006018681548110610e8557fe5b9060005260206000200187600201546040518663ffffffff1660e01b8152600401610eb4959493929190612e6e565b600060405180830381600087803b158015610ece57600080fd5b505af1158015610ee2573d6000803e3d6000fd5b505060019092019150610df89050565b507f789cf55be980739dad1d0699b93b58e806b51c9d96619bfa8fe0a28abaa7b30c83604051610f229190612efe565b60405180910390a1505050565b6038546001600160a01b031681565b6000604051610f4c90612ccd565b6040805191829003822082820190915260148252734465676f7620476f7665726e6f7220416c70686160601b6020909201919091527f42f639806587e1deb925fa6cd8686b6e3eec4c875db2df8242c3e40ef728ffb7610faa6121c5565b30604051602001610fbe9493929190612f07565b6040516020818303038152906040528051906020012090506000604051610fe490612d28565b604051908190038120610ffd9189908990602001612f2b565b6040516020818303038152906040528051906020012090506000828260405160200161102a929190612cb2565b6040516020818303038152906040528051906020012090506000600182888888604051600081526020016040526040516110679493929190612f43565b6020604051602081039080840390855afa158015611089573d6000803e3d6000fd5b5050604051601f1901519150506001600160a01b0381166110bc5760405162461bcd60e51b81526004016106b89061360a565b6110c7818a8a611f2f565b505050505050505050565b6110da6121c9565b6033546001600160a01b039081169116146111075760405162461bcd60e51b81526004016106b890613474565b600054610100900460ff168061112057506111206121cd565b8061112e575060005460ff16155b61114a5760405162461bcd60e51b81526004016106b890613513565b600054610100900460ff16158015611175576000805460ff1961ff0019909116610100171660011790555b603680546001600160a01b038086166001600160a01b031992831617909255603780549285169282169290921790915560388054909116331790558015610771576000805461ff0019169055505050565b6111ce6121c9565b6033546001600160a01b039081169116146111fb5760405162461bcd60e51b81526004016106b890613474565b6000811161120857600080fd5b603481905560405181907fbd833ce6eee5101c1351b0dfa5ef8ac9967e83ece098aefdaa9f14eeb83cf68890600090a250565b6112436121c9565b6033546001600160a01b039081169116146112705760405162461bcd60e51b81526004016106b890613474565b6033546040516000916001600160a01b0316907f8be0079c531659141344cd1fd0a4f28419497f9722a3daafe3b4186f6b6457e0908390a3603380546001600160a01b0319169055565b6038546001600160a01b031633146112e45760405162461bcd60e51b81526004016106b89061377c565b603880546001600160a01b0319169055565b600a90565b6033546001600160a01b031690565b6038546001600160a01b031633146113345760405162461bcd60e51b81526004016106b8906132c2565b6036546040516001600160a01b0390911690633a66f90190829060009061135f908790602001612d61565b604051602081830303815290604052856040518563ffffffff1660e01b815260040161138e9493929190612d75565b602060405180830381600087803b1580156113a857600080fd5b505af11580156113bc573d6000803e3d6000fd5b505050506040513d601f19601f8201168201806040525081019061077191906129c2565b6037546001600160a01b031681565b60006108a46064610898603760009054906101000a90046001600160a01b03166001600160a01b031663b58131b06040518163ffffffff1660e01b815260040160206040518083038186803b1580156107ce57600080fd5b6038546001600160a01b031633146114715760405162461bcd60e51b81526004016106b890612f88565b603660009054906101000a90046001600160a01b03166001600160a01b0316630e18b6816040518163ffffffff1660e01b8152600401600060405180830381600087803b1580156114c157600080fd5b505af11580156114d5573d6000803e3d6000fd5b50505050565b6036546001600160a01b031681565b60395481565b60006114fa6113ef565b6037546001600160a01b031663782d6fe13361151d43600163ffffffff61218316565b6040518363ffffffff1660e01b815260040161153a929190612de1565b602060405180830381600087803b15801561155457600080fd5b505af1158015611568573d6000803e3d6000fd5b505050506040513d601f19601f8201168201806040525081019061158c91906129c2565b116115a95760405162461bcd60e51b81526004016106b8906135ad565b845186511480156115bb575083518651145b80156115c8575082518651145b6115e45760405162461bcd60e51b81526004016106b89061337a565b85516116025760405162461bcd60e51b81526004016106b890613561565b61160a6112f6565b8651111561162a5760405162461bcd60e51b81526004016106b890613332565b336000908152603b602052604090205480156116a757600061164b82610b3f565b9050600181600781111561165b57fe5b14156116795760405162461bcd60e51b81526004016106b890613659565b600081600781111561168757fe5b14156116a55760405162461bcd60e51b81526004016106b89061323f565b505b60006116be6034544361215e90919063ffffffff16565b905060006116d76035548361215e90919063ffffffff16565b60398054600101905590506116ea612395565b604051806101a001604052806039548152602001336001600160a01b03168152602001600081526020018b81526020018a8152602001898152602001888152602001848152602001838152602001600081526020016000815260200160001515815260200160001515815250905080603a6000836000015181526020019081526020016000206000820151816000015560208201518160010160006101000a8154816001600160a01b0302191690836001600160a01b031602179055506040820151816002015560608201518160030190805190602001906117cd92919061240a565b50608082015180516117e991600484019160209091019061246f565b5060a082015180516118059160058401916020909101906124b6565b5060c0820151805161182191600684019160209091019061250f565b5060e082015181600701556101008201518160080155610120820151816009015561014082015181600a015561016082015181600b0160006101000a81548160ff02191690831515021790555061018082015181600b0160016101000a81548160ff0219169083151502179055509050508060000151603b600083602001516001600160a01b03166001600160a01b03168152602001908152602001600020819055507f7d84a6263ae0d98d3329bd7b46bb4e8d6f98cd35a7adb45c274c8b7fd5ebd5e08160000151338c8c8c8c89898e604051611907999897969594939291906137f7565b60405180910390a1519998505050505050505050565b600461192882610b3f565b600781111561193357fe5b146119505760405162461bcd60e51b81526004016106b890612fe5565b6000818152603a602090815260408083206036548251630d48571f60e31b815292519194936119ec936001600160a01b0390921692636a42b8f8926004808201939291829003018186803b1580156119a757600080fd5b505afa1580156119bb573d6000803e3d6000fd5b505050506040513d601f19601f820116820180604052508101906119df91906129c2565b429063ffffffff61215e16565b905060005b6003830154811015611b9457611b8c836003018281548110611a0f57fe5b6000918252602090912001546004850180546001600160a01b039092169184908110611a3757fe5b9060005260206000200154856005018481548110611a5157fe5b600091825260209182902001805460408051601f6002600019610100600187161502019094169390930492830185900485028101850190915281815292830182828015611adf5780601f10611ab457610100808354040283529160200191611adf565b820191906000526020600020905b815481529060010190602001808311611ac257829003601f168201915b5050505050866006018581548110611af357fe5b600091825260209182902001805460408051601f6002600019610100600187161502019094169390930492830185900485028101850190915281815292830182828015611b815780601f10611b5657610100808354040283529160200191611b81565b820191906000526020600020905b815481529060010190602001808311611b6457829003601f168201915b5050505050866121d3565b6001016119f1565b50600282018190556040517f9a2e42fd6722813d69113e7d0079d3d940171428df7373df9c7f7617cfda289290610f2290859084906138d9565b60405161068390612d28565b611be2612568565b506000828152603a602090815260408083206001600160a01b0385168452600c018252918290208251606081018452815460ff808216151583526101009091041615159281019290925260010154918101919091525b92915050565b611c466121c9565b6033546001600160a01b03908116911614611c735760405162461bcd60e51b81526004016106b890613474565b60008111611c8057600080fd5b603581905560405181907f7af7f6e7bf27c2e89dcd7b32edaa19209c4a43e37946abd7db1c869c4548031e90600090a250565b611cbb6121c9565b6033546001600160a01b03908116911614611ce85760405162461bcd60e51b81526004016106b890613474565b6001600160a01b038116611d0e5760405162461bcd60e51b81526004016106b8906130ba565b6033546040516001600160a01b038084169216907f8be0079c531659141344cd1fd0a4f28419497f9722a3daafe3b4186f6b6457e090600090a3603380546001600160a01b0319166001600160a01b0392909216919091179055565b6005611d7582610b3f565b6007811115611d8057fe5b14611d9d5760405162461bcd60e51b81526004016106b89061304f565b6000818152603a60205260408120600b8101805461ff001916610100179055905b6003820154811015611ef3576036546004830180546001600160a01b0390921691630825f38f919084908110611df057fe5b9060005260206000200154846003018481548110611e0a57fe5b6000918252602090912001546004860180546001600160a01b039092169186908110611e3257fe5b9060005260206000200154866005018681548110611e4c57fe5b90600052602060002001876006018781548110611e6557fe5b9060005260206000200188600201546040518763ffffffff1660e01b8152600401611e94959493929190612e6e565b6000604051808303818588803b158015611ead57600080fd5b505af1158015611ec1573d6000803e3d6000fd5b50505050506040513d6000823e601f3d908101601f19168201604052611eea91908101906129da565b50600101611dbe565b507f712ae1383f79ac853f8d882153778e0260ef8f03b504e2866e0593e04d2b291f82604051611f239190612efe565b60405180910390a15050565b6001611f3a83610b3f565b6007811115611f4557fe5b14611f625760405162461bcd60e51b81526004016106b890613732565b6000828152603a602090815260408083206001600160a01b0387168452600c8101909252909120805460ff1615611fab5760405162461bcd60e51b81526004016106b8906131f2565b603754600783015460405163782d6fe160e01b81526000926001600160a01b03169163782d6fe191611fe1918a91600401612de1565b602060405180830381600087803b158015611ffb57600080fd5b505af115801561200f573d6000803e3d6000fd5b505050506040513d601f19601f8201168201806040525081019061203391906129c2565b9050831561205a576009830154612050908263ffffffff61215e16565b6009840155612075565b600a83015461206f908263ffffffff61215e16565b600a8401555b8154600160ff19909116811761ff0019166101008615150217835582018190556040517f877856338e13f63d0c36822ff0ef736b80934cd90574a3a5bc9262c39d217c46906120cb908890889088908690612dfa565b60405180910390a1505050505050565b6000826120ea57506000611c38565b828202828482816120f757fe5b04146121155760405162461bcd60e51b81526004016106b8906133e4565b9392505050565b600061211583836040518060400160405280601a81526020017f536166654d6174683a206469766973696f6e206279207a65726f000000000000815250612332565b6000828201838110156121155760405162461bcd60e51b81526004016106b890613100565b600061211583836040518060400160405280601e81526020017f536166654d6174683a207375627472616374696f6e206f766572666c6f770000815250612369565b4690565b3390565b303b1590565b6036546040516001600160a01b039091169063f2b06537906122019088908890889088908890602001612e22565b604051602081830303815290604052805190602001206040518263ffffffff1660e01b81526004016122339190612efe565b60206040518083038186803b15801561224b57600080fd5b505afa15801561225f573d6000803e3d6000fd5b505050506040513d601f19601f8201168201806040525081019061228391906129a6565b156122a05760405162461bcd60e51b81526004016106b8906134a9565b603654604051633a66f90160e01b81526001600160a01b0390911690633a66f901906122d89088908890889088908890600401612e22565b602060405180830381600087803b1580156122f257600080fd5b505af1158015612306573d6000803e3d6000fd5b505050506040513d601f19601f8201168201806040525081019061232a91906129c2565b505050505050565b600081836123535760405162461bcd60e51b81526004016106b89190612f75565b50600083858161235f57fe5b0495945050505050565b6000818484111561238d5760405162461bcd60e51b81526004016106b89190612f75565b505050900390565b604051806101a001604052806000815260200160006001600160a01b031681526020016000815260200160608152602001606081526020016060815260200160608152602001600081526020016000815260200160008152602001600081526020016000151581526020016000151581525090565b82805482825590600052602060002090810192821561245f579160200282015b8281111561245f57825182546001600160a01b0319166001600160a01b0390911617825560209092019160019091019061242a565b5061246b929150612588565b5090565b8280548282559060005260206000209081019282156124aa579160200282015b828111156124aa57825182559160200191906001019061248f565b5061246b9291506125ac565b828054828255906000526020600020908101928215612503579160200282015b8281111561250357825180516124f39184916020909101906125c6565b50916020019190600101906124d6565b5061246b929150612633565b82805482825590600052602060002090810192821561255c579160200282015b8281111561255c578251805161254c9184916020909101906125c6565b509160200191906001019061252f565b5061246b929150612656565b604080516060810182526000808252602082018190529181019190915290565b6108a791905b8082111561246b5780546001600160a01b031916815560010161258e565b6108a791905b8082111561246b57600081556001016125b2565b828054600181600116156101000203166002900490600052602060002090601f016020900481019282601f1061260757805160ff19168380011785556124aa565b828001600101855582156124aa57918201828111156124aa57825182559160200191906001019061248f565b6108a791905b8082111561246b57600061264d8282612679565b50600101612639565b6108a791905b8082111561246b5760006126708282612679565b5060010161265c565b50805460018160011615610100020316600290046000825580601f1061269f57506126bd565b601f0160209004906000526020600020908101906126bd91906125ac565b50565b600082601f8301126126d0578081fd5b81356126e36126de8261390e565b6138e7565b81815291506020808301908481018184028601820187101561270457600080fd5b60005b8481101561272c57813561271a8161398a565b84529282019290820190600101612707565b505050505092915050565b600082601f830112612747578081fd5b81356127556126de8261390e565b818152915060208083019084810160005b8481101561272c5761277d888484358a0101612845565b84529282019290820190600101612766565b600082601f83011261279f578081fd5b81356127ad6126de8261390e565b818152915060208083019084810160005b8481101561272c576127d5888484358a0101612845565b845292820192908201906001016127be565b600082601f8301126127f7578081fd5b81356128056126de8261390e565b81815291506020808301908481018184028601820187101561282657600080fd5b60005b8481101561272c57813584529282019290820190600101612829565b600082601f830112612855578081fd5b81356128636126de8261392e565b915080825283602082850101111561287a57600080fd5b8060208401602084013760009082016020015292915050565b6000602082840312156128a4578081fd5b81356121158161398a565b600080604083850312156128c1578081fd5b82356128cc8161398a565b946020939093013593505050565b600080600080600060a086880312156128f1578081fd5b853567ffffffffffffffff80821115612908578283fd5b61291489838a016126c0565b96506020880135915080821115612929578283fd5b61293589838a016127e7565b9550604088013591508082111561294a578283fd5b61295689838a0161278f565b9450606088013591508082111561296b578283fd5b61297789838a01612737565b9350608088013591508082111561298c578283fd5b5061299988828901612845565b9150509295509295909350565b6000602082840312156129b7578081fd5b81516121158161399f565b6000602082840312156129d3578081fd5b5051919050565b6000602082840312156129eb578081fd5b815167ffffffffffffffff811115612a01578182fd5b80830184601f820112612a12578283fd5b80519150612a226126de8361392e565b828152856020848401011115612a36578384fd5b612a4783602083016020850161395e565b95945050505050565b60008060408385031215612a62578182fd5b8235612a6d8161398a565b91506020830135612a7d8161398a565b809150509250929050565b600060208284031215612a99578081fd5b5035919050565b60008060408385031215612ab2578182fd5b823591506020830135612a7d8161398a565b60008060408385031215612ad6578182fd5b823591506020830135612a7d8161399f565b600080600080600060a08688031215612aff578283fd5b853594506020860135612b118161399f565b9350604086013560ff81168114612b26578384fd5b94979396509394606081013594506080013592915050565b6000815180845260208085019450808401835b83811015612b765781516001600160a01b031687529582019590820190600101612b51565b509495945050505050565b6000815180845260208085018081965082840281019150828601855b85811015612bc7578284038952612bb5848351612c03565b98850198935090840190600101612b9d565b5091979650505050505050565b6000815180845260208085019450808401835b83811015612b7657815187529582019590820190600101612be7565b60008151808452612c1b81602086016020860161395e565b601f01601f19169290920160200192915050565b60008154600180821660008114612c4d5760018114612c6b57612ca9565b60028304607f16865260ff1983166020870152604086019350612ca9565b60028304808752612c7b86613952565b60005b82811015612c9f5781546020828b0101528482019150602081019050612c7e565b8801602001955050505b50505092915050565b61190160f01b81526002810192909252602282015260420190565b7f454950373132446f6d61696e28737472696e67206e616d652c75696e7432353681527f20636861696e49642c6164647265737320766572696679696e67436f6e74726160208201526263742960e81b604082015260430190565b7f42616c6c6f742875696e743235362070726f706f73616c49642c626f6f6c20738152667570706f72742960c81b602082015260270190565b6001600160a01b0391909116815260200190565b600060018060a01b038616825284602083015260a06040830152601860a08301527f73657450656e64696e6741646d696e286164647265737329000000000000000060c083015260e06060830152612dd060e0830185612c03565b905082608083015295945050505050565b6001600160a01b03929092168252602082015260400190565b6001600160a01b03949094168452602084019290925215156040830152606082015260800190565b600060018060a01b038716825285602083015260a06040830152612e4960a0830186612c03565b8281036060840152612e5b8186612c03565b9150508260808301529695505050505050565b600060018060a01b038716825285602083015260a06040830152612e9560a0830186612c2f565b8281036060840152612e5b8186612c2f565b600060808252612eba6080830187612b3e565b8281036020840152612ecc8187612bd4565b8381036040850152612ede8187612b81565b9150508281036060840152612ef38185612b81565b979650505050505050565b90815260200190565b938452602084019290925260408301526001600160a01b0316606082015260800190565b92835260208301919091521515604082015260600190565b93845260ff9290921660208401526040830152606082015260800190565b6020810160088310612f6f57fe5b91905290565b6000602082526121156020830184612c03565b60208082526039908201527f476f7665726e6f72416c7068613a3a5f5f61636365707441646d696e3a20736560408201527f6e646572206d75737420626520676f7620677561726469616e00000000000000606082015260800190565b60208082526044908201527f476f7665726e6f72416c7068613a3a71756575653a2070726f706f73616c206360408201527f616e206f6e6c79206265207175657565642069662069742069732073756363656060820152631959195960e21b608082015260a00190565b60208082526045908201527f476f7665726e6f72416c7068613a3a657865637574653a2070726f706f73616c60408201527f2063616e206f6e6c7920626520657865637574656420696620697420697320716060820152641d595d595960da1b608082015260a00190565b60208082526026908201527f4f776e61626c653a206e6577206f776e657220697320746865207a65726f206160408201526564647265737360d01b606082015260800190565b6020808252601b908201527f536166654d6174683a206164646974696f6e206f766572666c6f770000000000604082015260600190565b6020808252604c908201527f476f7665726e6f72416c7068613a3a5f5f6578656375746553657454696d656c60408201527f6f636b50656e64696e6741646d696e3a2073656e646572206d7573742062652060608201526b33b7bb1033bab0b93234b0b760a11b608082015260a00190565b60208082526029908201527f476f7665726e6f72416c7068613a3a73746174653a20696e76616c69642070726040820152681bdc1bdcd85b081a5960ba1b606082015260800190565b6020808252602d908201527f476f7665726e6f72416c7068613a3a5f63617374566f74653a20766f7465722060408201526c185b1c9958591e481d9bdd1959609a1b606082015260800190565b60208082526059908201527f476f7665726e6f72416c7068613a3a70726f706f73653a206f6e65206c69766560408201527f2070726f706f73616c207065722070726f706f7365722c20666f756e6420616e60608201527f20616c72656164792070656e64696e672070726f706f73616c00000000000000608082015260a00190565b6020808252604a908201527f476f7665726e6f72416c7068613a3a5f5f717565756553657454696d656c6f6360408201527f6b50656e64696e6741646d696e3a2073656e646572206d75737420626520676f6060820152693b1033bab0b93234b0b760b11b608082015260a00190565b60208082526028908201527f476f7665726e6f72416c7068613a3a70726f706f73653a20746f6f206d616e7960408201526720616374696f6e7360c01b606082015260800190565b60208082526044908201527f476f7665726e6f72416c7068613a3a70726f706f73653a2070726f706f73616c60408201527f2066756e6374696f6e20696e666f726d6174696f6e206172697479206d69736d6060820152630c2e8c6d60e31b608082015260a00190565b60208082526021908201527f536166654d6174683a206d756c7469706c69636174696f6e206f766572666c6f6040820152607760f81b606082015260800190565b6020808252602f908201527f476f7665726e6f72416c7068613a3a63616e63656c3a2070726f706f7365722060408201526e18589bdd99481d1a1c995cda1bdb19608a1b606082015260800190565b6020808252818101527f4f776e61626c653a2063616c6c6572206973206e6f7420746865206f776e6572604082015260600190565b60208082526044908201527f476f7665726e6f72416c7068613a3a5f71756575654f725265766572743a207060408201527f726f706f73616c20616374696f6e20616c7265616479207175657565642061746060820152632065746160e01b608082015260a00190565b6020808252602e908201527f436f6e747261637420696e7374616e63652068617320616c726561647920626560408201526d195b881a5b9a5d1a585b1a5e995960921b606082015260800190565b6020808252602c908201527f476f7665726e6f72416c7068613a3a70726f706f73653a206d7573742070726f60408201526b7669646520616374696f6e7360a01b606082015260800190565b6020808252603f908201527f476f7665726e6f72416c7068613a3a70726f706f73653a2070726f706f73657260408201527f20766f7465732062656c6f772070726f706f73616c207468726573686f6c6400606082015260800190565b6020808252602f908201527f476f7665726e6f72416c7068613a3a63617374566f746542795369673a20696e60408201526e76616c6964207369676e617475726560881b606082015260800190565b60208082526058908201527f476f7665726e6f72416c7068613a3a70726f706f73653a206f6e65206c69766560408201527f2070726f706f73616c207065722070726f706f7365722c20666f756e6420616e60608201527f20616c7265616479206163746976652070726f706f73616c0000000000000000608082015260a00190565b60208082526036908201527f476f7665726e6f72416c7068613a3a63616e63656c3a2063616e6e6f742063616040820152751b98d95b08195e1958dd5d1959081c1c9bdc1bdcd85b60521b606082015260800190565b6020808252602a908201527f476f7665726e6f72416c7068613a3a5f63617374566f74653a20766f74696e67604082015269081a5cc818db1bdcd95960b21b606082015260800190565b60208082526036908201527f476f7665726e6f72416c7068613a3a5f5f61626469636174653a2073656e6465604082015275391036bab9ba1031329033b7bb1033bab0b93234b0b760511b606082015260800190565b8151151581526020808301511515908201526040918201519181019190915260600190565b8981526001600160a01b0389166020820152610120604082018190526000906138228382018b612b3e565b8381036060850152613834818b612bd4565b91505082810360808401526138498189612b81565b83810360a085015261385b8189612b81565b9150508560c08401528460e084015282810361010084015261387d8185612c03565b9c9b505050505050505050505050565b9889526001600160a01b0397909716602089015260408801959095526060870193909352608086019190915260a085015260c0840152151560e083015215156101008201526101200190565b918252602082015260400190565b60405181810167ffffffffffffffff8111828210171561390657600080fd5b604052919050565b600067ffffffffffffffff821115613924578081fd5b5060209081020190565b600067ffffffffffffffff821115613944578081fd5b50601f01601f191660200190565b60009081526020902090565b60005b83811015613979578181015183820152602001613961565b838111156114d55750506000910152565b6001600160a01b03811681146126bd57600080fd5b80151581146126bd57600080fdfea2646970667358221220b277b57bd630101966845ea4ba836a7f3a7160809e0381cd26e2a77eb2ff747664736f6c63430006060033",
  "linkReferences": {},
  "deployedLinkReferences": {}
}