{
  "_format": "hh-sol-artifact-1",
  "contractName": "Timelock",
  "sourceName": "contracts/flattened/GovernorAlpha.sol",
  "abi": [
    {
      "anonymous": false,
      "inputs": [
        {
          "indexed": true,
          "internalType": "bytes32",
          "name": "txHash_",
          "type": "bytes32"
        },
        {
          "indexed": true,
          "internalType": "address",
          "name": "target_",
          "type": "address"
        },
        {
          "indexed": false,
          "internalType": "uint256",
          "name": "value_",
          "type": "uint256"
        },
        {
          "indexed": false,
          "internalType": "string",
          "name": "signature_",
          "type": "string"
        },
        {
          "indexed": false,
          "internalType": "bytes",
          "name": "data_",
          "type": "bytes"
        },
        {
          "indexed": false,
          "internalType": "uint256",
          "name": "eta_",
          "type": "uint256"
        }
      ],
      "name": "CancelTransaction",
      "type": "event"
    },
    {
      "anonymous": false,
      "inputs": [
        {
          "indexed": true,
          "internalType": "bytes32",
          "name": "txHash_",
          "type": "bytes32"
        },
        {
          "indexed": true,
          "internalType": "address",
          "name": "target_",
          "type": "address"
        },
        {
          "indexed": false,
          "internalType": "uint256",
          "name": "value_",
          "type": "uint256"
        },
        {
          "indexed": false,
          "internalType": "string",
          "name": "signature_",
          "type": "string"
        },
        {
          "indexed": false,
          "internalType": "bytes",
          "name": "data_",
          "type": "bytes"
        },
        {
          "indexed": false,
          "internalType": "uint256",
          "name": "eta_",
          "type": "uint256"
        }
      ],
      "name": "ExecuteTransaction",
      "type": "event"
    },
    {
      "anonymous": false,
      "inputs": [
        {
          "indexed": true,
          "internalType": "address",
          "name": "newAdmin_",
          "type": "address"
        }
      ],
      "name": "NewAdmin",
      "type": "event"
    },
    {
      "anonymous": false,
      "inputs": [
        {
          "indexed": true,
          "internalType": "uint256",
          "name": "newDelay_",
          "type": "uint256"
        }
      ],
      "name": "NewDelay",
      "type": "event"
    },
    {
      "anonymous": false,
      "inputs": [
        {
          "indexed": true,
          "internalType": "uint256",
          "name": "newGracePerios_",
          "type": "uint256"
        }
      ],
      "name": "NewGracePeriod",
      "type": "event"
    },
    {
      "anonymous": false,
      "inputs": [
        {
          "indexed": true,
          "internalType": "address",
          "name": "newPendingAdmin_",
          "type": "address"
        }
      ],
      "name": "NewPendingAdmin",
      "type": "event"
    },
    {
      "anonymous": false,
      "inputs": [
        {
          "indexed": true,
          "internalType": "address",
          "name": "previousOwner",
          "type": "address"
        },
        {
          "indexed": true,
          "internalType": "address",
          "name": "newOwner",
          "type": "address"
        }
      ],
      "name": "OwnershipTransferred",
      "type": "event"
    },
    {
      "anonymous": false,
      "inputs": [
        {
          "indexed": true,
          "internalType": "bytes32",
          "name": "txHash_",
          "type": "bytes32"
        },
        {
          "indexed": true,
          "internalType": "address",
          "name": "target_",
          "type": "address"
        },
        {
          "indexed": false,
          "internalType": "uint256",
          "name": "value_",
          "type": "uint256"
        },
        {
          "indexed": false,
          "internalType": "string",
          "name": "signature_",
          "type": "string"
        },
        {
          "indexed": false,
          "internalType": "bytes",
          "name": "data_",
          "type": "bytes"
        },
        {
          "indexed": false,
          "internalType": "uint256",
          "name": "eta_",
          "type": "uint256"
        }
      ],
      "name": "QueueTransaction",
      "type": "event"
    },
    {
      "inputs": [],
      "name": "acceptAdmin",
      "outputs": [],
      "stateMutability": "nonpayable",
      "type": "function"
    },
    {
      "inputs": [],
      "name": "admin",
      "outputs": [
        {
          "internalType": "address",
          "name": "",
          "type": "address"
        }
      ],
      "stateMutability": "view",
      "type": "function"
    },
    {
      "inputs": [
        {
          "internalType": "address",
          "name": "target",
          "type": "address"
        },
        {
          "internalType": "uint256",
          "name": "value",
          "type": "uint256"
        },
        {
          "internalType": "string",
          "name": "signature",
          "type": "string"
        },
        {
          "internalType": "bytes",
          "name": "data",
          "type": "bytes"
        },
        {
          "internalType": "uint256",
          "name": "eta",
          "type": "uint256"
        }
      ],
      "name": "cancelTransaction",
      "outputs": [],
      "stateMutability": "nonpayable",
      "type": "function"
    },
    {
      "inputs": [],
      "name": "delay",
      "outputs": [
        {
          "internalType": "uint256",
          "name": "",
          "type": "uint256"
        }
      ],
      "stateMutability": "view",
      "type": "function"
    },
    {
      "inputs": [
        {
          "internalType": "address",
          "name": "target",
          "type": "address"
        },
        {
          "internalType": "uint256",
          "name": "value",
          "type": "uint256"
        },
        {
          "internalType": "string",
          "name": "signature",
          "type": "string"
        },
        {
          "internalType": "bytes",
          "name": "data",
          "type": "bytes"
        },
        {
          "internalType": "uint256",
          "name": "eta",
          "type": "uint256"
        }
      ],
      "name": "executeTransaction",
      "outputs": [
        {
          "internalType": "bytes",
          "name": "",
          "type": "bytes"
        }
      ],
      "stateMutability": "payable",
      "type": "function"
    },
    {
      "inputs": [],
      "name": "gracePeriod",
      "outputs": [
        {
          "internalType": "uint256",
          "name": "",
          "type": "uint256"
        }
      ],
      "stateMutability": "view",
      "type": "function"
    },
    {
      "inputs": [
        {
          "internalType": "address",
          "name": "admin_",
          "type": "address"
        }
      ],
      "name": "initialize",
      "outputs": [],
      "stateMutability": "nonpayable",
      "type": "function"
    },
    {
      "inputs": [],
      "name": "owner",
      "outputs": [
        {
          "internalType": "address",
          "name": "",
          "type": "address"
        }
      ],
      "stateMutability": "view",
      "type": "function"
    },
    {
      "inputs": [],
      "name": "pendingAdmin",
      "outputs": [
        {
          "internalType": "address",
          "name": "",
          "type": "address"
        }
      ],
      "stateMutability": "view",
      "type": "function"
    },
    {
      "inputs": [
        {
          "internalType": "address",
          "name": "target",
          "type": "address"
        },
        {
          "internalType": "uint256",
          "name": "value",
          "type": "uint256"
        },
        {
          "internalType": "string",
          "name": "signature",
          "type": "string"
        },
        {
          "internalType": "bytes",
          "name": "data",
          "type": "bytes"
        },
        {
          "internalType": "uint256",
          "name": "eta",
          "type": "uint256"
        }
      ],
      "name": "queueTransaction",
      "outputs": [
        {
          "internalType": "bytes32",
          "name": "",
          "type": "bytes32"
        }
      ],
      "stateMutability": "nonpayable",
      "type": "function"
    },
    {
      "inputs": [
        {
          "internalType": "bytes32",
          "name": "",
          "type": "bytes32"
        }
      ],
      "name": "queuedTransactions",
      "outputs": [
        {
          "internalType": "bool",
          "name": "",
          "type": "bool"
        }
      ],
      "stateMutability": "view",
      "type": "function"
    },
    {
      "inputs": [],
      "name": "renounceOwnership",
      "outputs": [],
      "stateMutability": "nonpayable",
      "type": "function"
    },
    {
      "inputs": [
        {
          "internalType": "uint256",
          "name": "delay_",
          "type": "uint256"
        }
      ],
      "name": "setDelay",
      "outputs": [],
      "stateMutability": "nonpayable",
      "type": "function"
    },
    {
      "inputs": [
        {
          "internalType": "uint256",
          "name": "gracePeriod_",
          "type": "uint256"
        }
      ],
      "name": "setGracePeriod",
      "outputs": [],
      "stateMutability": "nonpayable",
      "type": "function"
    },
    {
      "inputs": [
        {
          "internalType": "address",
          "name": "pendingAdmin_",
          "type": "address"
        }
      ],
      "name": "setPendingAdmin",
      "outputs": [],
      "stateMutability": "nonpayable",
      "type": "function"
    },
    {
      "inputs": [
        {
          "internalType": "address",
          "name": "newOwner",
          "type": "address"
        }
      ],
      "name": "transferOwnership",
      "outputs": [],
      "stateMutability": "nonpayable",
      "type": "function"
    },
    {
      "stateMutability": "payable",
      "type": "receive"
    }
  ],
  "bytecode": "0x60806040526201518060365562093a8060375560006100256001600160e01b0361007816565b603380546001600160a01b0319166001600160a01b038316908117909155604051919250906000907f8be0079c531659141344cd1fd0a4f28419497f9722a3daafe3b4186f6b6457e0908290a35061007c565b3390565b6113778061008b6000396000f3fe6080604052600436106100f75760003560e01c80638da5cb5b1161008a578063f2b0653711610059578063f2b0653714610266578063f2f6596014610293578063f2fde38b146102b3578063f851a440146102d3576100fe565b80638da5cb5b146101fc578063a06db7dc14610211578063c4d66de814610226578063e177246e14610246576100fe565b80634dd18bf5116100c65780634dd18bf514610192578063591fcdfe146101b25780636a42b8f8146101d2578063715018a6146101e7576100fe565b80630825f38f146101035780630e18b6811461012c57806326782247146101435780633a66f90114610165576100fe565b366100fe57005b600080fd5b610116610111366004610c34565b6102e8565b6040516101239190610dbd565b60405180910390f35b34801561013857600080fd5b50610141610509565b005b34801561014f57600080fd5b50610158610589565b6040516101239190610d49565b34801561017157600080fd5b50610185610180366004610c34565b610598565b6040516101239190610db4565b34801561019e57600080fd5b506101416101ad366004610c12565b61069d565b3480156101be57600080fd5b506101416101cd366004610c34565b610722565b3480156101de57600080fd5b506101856107e6565b3480156101f357600080fd5b506101416107ec565b34801561020857600080fd5b5061015861086b565b34801561021d57600080fd5b5061018561087a565b34801561023257600080fd5b50610141610241366004610c12565b610880565b34801561025257600080fd5b50610141610261366004610cb8565b610954565b34801561027257600080fd5b50610286610281366004610cb8565b6109dd565b6040516101239190610da9565b34801561029f57600080fd5b506101416102ae366004610cb8565b6109f2565b3480156102bf57600080fd5b506101416102ce366004610c12565b610a7b565b3480156102df57600080fd5b50610158610b32565b6034546060906001600160a01b0316331461031e5760405162461bcd60e51b815260040161031590610e2d565b60405180910390fd5b60008686868686604051602001610339959493929190610d5d565b60408051601f1981840301815291815281516020928301206000818152603890935291205490915060ff166103805760405162461bcd60e51b815260040161031590611079565b82610389610b41565b10156103a75760405162461bcd60e51b815260040161031590611020565b6037546103bb90849063ffffffff610b4516565b6103c3610b41565b11156103e15760405162461bcd60e51b815260040161031590610fa8565b6000818152603860205260409020805460ff191690558451606090610407575083610433565b858051906020012085604051602001610421929190610cfc565b60405160208183030381529060405290505b60006060896001600160a01b031689846040516104509190610d2d565b60006040518083038185875af1925050503d806000811461048d576040519150601f19603f3d011682016040523d82523d6000602084013e610492565b606091505b5091509150816104b45760405162461bcd60e51b8152600401610315906111fa565b896001600160a01b0316847fa560e3198060a2f10670c1ec5b403077ea6ae93ca8de1c32b451dc1a943cd6e78b8b8b8b6040516104f494939291906112b4565b60405180910390a39998505050505050505050565b6035546001600160a01b031633146105335760405162461bcd60e51b815260040161031590611147565b60348054336001600160a01b031991821617918290556035805490911690556040516001600160a01b03909116907f71614071b88dee5e0b2ae578a9dd7b2ebbe9ae832ba419dc0242cd065a290b6c90600090a2565b6035546001600160a01b031681565b6034546000906001600160a01b031633146105c55760405162461bcd60e51b8152600401610315906111a4565b6105df6036546105d3610b41565b9063ffffffff610b4516565b8210156105fe5760405162461bcd60e51b815260040161031590611245565b60008686868686604051602001610619959493929190610d5d565b60408051601f19818403018152828252805160209182012060008181526038909252919020805460ff1916600117905591506001600160a01b0388169082907f76e2796dc3a81d57b0e8504b647febcbeeb5f4af818e164f11eef8131a6a763f9061068b908a908a908a908a906112b4565b60405180910390a39695505050505050565b6106a5610b73565b6033546001600160a01b039081169116146106d25760405162461bcd60e51b8152600401610315906110c4565b603580546001600160a01b0319166001600160a01b0383811691909117918290556040519116907f69d78e38a01985fbb1462961809b4b2d65531bc93b2b94037f3334b82ca4a75690600090a250565b6034546001600160a01b0316331461074c5760405162461bcd60e51b815260040161031590610e8a565b60008585858585604051602001610767959493929190610d5d565b60408051601f19818403018152828252805160209182012060008181526038909252919020805460ff1916905591506001600160a01b0387169082907f2fffc091a501fd91bfbff27141450d3acb40fb8e6d8382b243ec7a812a3aaf87906107d69089908990899089906112b4565b60405180910390a3505050505050565b60365481565b6107f4610b73565b6033546001600160a01b039081169116146108215760405162461bcd60e51b8152600401610315906110c4565b6033546040516000916001600160a01b0316907f8be0079c531659141344cd1fd0a4f28419497f9722a3daafe3b4186f6b6457e0908390a3603380546001600160a01b0319169055565b6033546001600160a01b031690565b60375481565b610888610b73565b6033546001600160a01b039081169116146108b55760405162461bcd60e51b8152600401610315906110c4565b600054610100900460ff16806108ce57506108ce610b77565b806108dc575060005460ff16155b6108f85760405162461bcd60e51b8152600401610315906110f9565b600054610100900460ff16158015610923576000805460ff1961ff0019909116610100171660011790555b603480546001600160a01b0319166001600160a01b0384161790558015610950576000805461ff00191690555b5050565b61095c610b73565b6033546001600160a01b039081169116146109895760405162461bcd60e51b8152600401610315906110c4565b60375481106109aa5760405162461bcd60e51b815260040161031590610ee7565b603681905560405181907f948b1f6a42ee138b7e34058ba85a37f716d55ff25ff05a763f15bed6a04c8d2c90600090a250565b60386020526000908152604090205460ff1681565b6109fa610b73565b6033546001600160a01b03908116911614610a275760405162461bcd60e51b8152600401610315906110c4565b6036548111610a485760405162461bcd60e51b815260040161031590610dd0565b603781905560405181907f85d1b5a7c3e5a760d339fd0c96173b84d1ccfc4fc4824c1b1b85f6526ee3f2f290600090a250565b610a83610b73565b6033546001600160a01b03908116911614610ab05760405162461bcd60e51b8152600401610315906110c4565b6001600160a01b038116610ad65760405162461bcd60e51b815260040161031590610f62565b6033546040516001600160a01b038084169216907f8be0079c531659141344cd1fd0a4f28419497f9722a3daafe3b4186f6b6457e090600090a3603380546001600160a01b0319166001600160a01b0392909216919091179055565b6034546001600160a01b031681565b4290565b600082820183811015610b6a5760405162461bcd60e51b815260040161031590610fe9565b90505b92915050565b3390565b303b1590565b80356001600160a01b0381168114610b6d57600080fd5b600082601f830112610ba4578081fd5b813567ffffffffffffffff80821115610bbb578283fd5b604051601f8301601f191681016020018281118282101715610bdb578485fd5b604052828152925082848301602001861015610bf657600080fd5b8260208601602083013760006020848301015250505092915050565b600060208284031215610c23578081fd5b610c2d8383610b7d565b9392505050565b600080600080600060a08688031215610c4b578081fd5b610c558787610b7d565b945060208601359350604086013567ffffffffffffffff80821115610c78578283fd5b610c8489838a01610b94565b94506060880135915080821115610c99578283fd5b50610ca688828901610b94565b95989497509295608001359392505050565b600060208284031215610cc9578081fd5b5035919050565b60008151808452610ce88160208601602086016112f1565b601f01601f19169290920160200192915050565b6001600160e01b0319831681528151600090610d1f8160048501602087016112f1565b919091016004019392505050565b60008251610d3f8184602087016112f1565b9190910192915050565b6001600160a01b0391909116815260200190565b600060018060a01b038716825285602083015260a06040830152610d8460a0830186610cd0565b8281036060840152610d968186610cd0565b9150508260808301529695505050505050565b901515815260200190565b90815260200190565b600060208252610c2d6020830184610cd0565b60208082526039908201527f54696d656c6f636b3a3a6772616365506572696f643a2047726163652070657260408201527f696f64206d75737420626520677265617465722064656c617900000000000000606082015260800190565b60208082526038908201527f54696d656c6f636b3a3a657865637574655472616e73616374696f6e3a20436160408201527f6c6c206d75737420636f6d652066726f6d2061646d696e2e0000000000000000606082015260800190565b60208082526037908201527f54696d656c6f636b3a3a63616e63656c5472616e73616374696f6e3a2043616c60408201527f6c206d75737420636f6d652066726f6d2061646d696e2e000000000000000000606082015260800190565b60208082526055908201527f54696d656c6f636b3a3a73657444656c61793a2044656c6179206d757374206e60408201527f6f74206265206772656174657220657175616c20746f207a65726f20616e64206060820152741b195cdcc81d1a185b8819dc9858d954195c9a5bd9605a1b608082015260a00190565b60208082526026908201527f4f776e61626c653a206e6577206f776e657220697320746865207a65726f206160408201526564647265737360d01b606082015260800190565b602080825260339082015260008051602061132283398151915260408201527230b739b0b1ba34b7b71034b99039ba30b6329760691b606082015260800190565b6020808252601b908201527f536166654d6174683a206164646974696f6e206f766572666c6f770000000000604082015260600190565b602080825260459082015260008051602061132283398151915260408201527f616e73616374696f6e206861736e2774207375727061737365642074696d65206060820152643637b1b59760d91b608082015260a00190565b6020808252603d9082015260008051602061132283398151915260408201527f616e73616374696f6e206861736e2774206265656e207175657565642e000000606082015260800190565b6020808252818101527f4f776e61626c653a2063616c6c6572206973206e6f7420746865206f776e6572604082015260600190565b6020808252602e908201527f436f6e747261637420696e7374616e63652068617320616c726561647920626560408201526d195b881a5b9a5d1a585b1a5e995960921b606082015260800190565b60208082526038908201527f54696d656c6f636b3a3a61636365707441646d696e3a2043616c6c206d75737460408201527f20636f6d652066726f6d2070656e64696e6741646d696e2e0000000000000000606082015260800190565b60208082526036908201527f54696d656c6f636b3a3a71756575655472616e73616374696f6e3a2043616c6c6040820152751036bab9ba1031b7b6b290333937b69030b236b4b71760511b606082015260800190565b6020808252603d9082015260008051602061132283398151915260408201527f616e73616374696f6e20657865637574696f6e2072657665727465642e000000606082015260800190565b60208082526049908201527f54696d656c6f636b3a3a71756575655472616e73616374696f6e3a204573746960408201527f6d6174656420657865637574696f6e20626c6f636b206d757374207361746973606082015268333c903232b630bc9760b91b608082015260a00190565b6000858252608060208301526112cd6080830186610cd0565b82810360408401526112df8186610cd0565b91505082606083015295945050505050565b60005b8381101561130c5781810151838201526020016112f4565b8381111561131b576000848401525b5050505056fe54696d656c6f636b3a3a657865637574655472616e73616374696f6e3a205472a2646970667358221220d5f374d880a4824b99e4b492fb6e52195836c64cee20f909e4ef7449cd3673ec64736f6c63430006060033",
  "linkReferences": {},
  "deployedLinkReferences": {}
}