{
  "_format": "hh-sol-artifact-1",
  "contractName": "Oracle",
  "sourceName": "contracts/flattened/Oracle.sol",
  "abi": [
    {
      "inputs": [
        {
          "internalType": "address",
          "name": "debase_",
          "type": "address"
        },
        {
          "internalType": "address",
          "name": "Dai_",
          "type": "address"
        },
        {
          "internalType": "address",
          "name": "debasePolicy_",
          "type": "address"
        }
      ],
      "stateMutability": "nonpayable",
      "type": "constructor"
    },
    {
      "anonymous": false,
      "inputs": [
        {
          "indexed": true,
          "internalType": "address",
          "name": "previousOwner",
          "type": "address"
        },
        {
          "indexed": true,
          "internalType": "address",
          "name": "newOwner",
          "type": "address"
        }
      ],
      "name": "OwnershipTransferred",
      "type": "event"
    },
    {
      "inputs": [],
      "name": "blockTimestampLast",
      "outputs": [
        {
          "internalType": "uint32",
          "name": "",
          "type": "uint32"
        }
      ],
      "stateMutability": "view",
      "type": "function"
    },
    {
      "inputs": [],
      "name": "debasePolicy",
      "outputs": [
        {
          "internalType": "address",
          "name": "",
          "type": "address"
        }
      ],
      "stateMutability": "view",
      "type": "function"
    },
    {
      "inputs": [],
      "name": "getData",
      "outputs": [
        {
          "internalType": "uint256",
          "name": "",
          "type": "uint256"
        },
        {
          "internalType": "bool",
          "name": "",
          "type": "bool"
        }
      ],
      "stateMutability": "nonpayable",
      "type": "function"
    },
    {
      "inputs": [],
      "name": "owner",
      "outputs": [
        {
          "internalType": "address",
          "name": "",
          "type": "address"
        }
      ],
      "stateMutability": "view",
      "type": "function"
    },
    {
      "inputs": [],
      "name": "price0Average",
      "outputs": [
        {
          "internalType": "uint224",
          "name": "_x",
          "type": "uint224"
        }
      ],
      "stateMutability": "view",
      "type": "function"
    },
    {
      "inputs": [],
      "name": "price0CumulativeLast",
      "outputs": [
        {
          "internalType": "uint256",
          "name": "",
          "type": "uint256"
        }
      ],
      "stateMutability": "view",
      "type": "function"
    },
    {
      "inputs": [],
      "name": "price1Average",
      "outputs": [
        {
          "internalType": "uint224",
          "name": "_x",
          "type": "uint224"
        }
      ],
      "stateMutability": "view",
      "type": "function"
    },
    {
      "inputs": [],
      "name": "price1CumulativeLast",
      "outputs": [
        {
          "internalType": "uint256",
          "name": "",
          "type": "uint256"
        }
      ],
      "stateMutability": "view",
      "type": "function"
    },
    {
      "inputs": [],
      "name": "renounceOwnership",
      "outputs": [],
      "stateMutability": "nonpayable",
      "type": "function"
    },
    {
      "inputs": [],
      "name": "token0",
      "outputs": [
        {
          "internalType": "address",
          "name": "",
          "type": "address"
        }
      ],
      "stateMutability": "view",
      "type": "function"
    },
    {
      "inputs": [],
      "name": "token1",
      "outputs": [
        {
          "internalType": "address",
          "name": "",
          "type": "address"
        }
      ],
      "stateMutability": "view",
      "type": "function"
    },
    {
      "inputs": [
        {
          "internalType": "address",
          "name": "newOwner",
          "type": "address"
        }
      ],
      "name": "transferOwnership",
      "outputs": [],
      "stateMutability": "nonpayable",
      "type": "function"
    },
    {
      "inputs": [],
      "name": "updateBeforeRebase",
      "outputs": [],
      "stateMutability": "nonpayable",
      "type": "function"
    }
  ],
  "bytecode": "0x60e06040523480156200001157600080fd5b506040516200136b3803806200136b833981810160405260608110156200003757600080fd5b5080516020820151604090920151909190735c69bee701ef814a2b6a3edd4b1652cb9cc5aa6f83836000620000746001600160e01b036200042016565b600080546001600160a01b0319166001600160a01b0383169081178255604051929350917f8be0079c531659141344cd1fd0a4f28419497f9722a3daafe3b4186f6b6457e0908290a3506000620000d88484846200042460201b62000a931760201c565b9050806001600160a01b03166080816001600160a01b031660601b81525050806001600160a01b0316630dfe16816040518163ffffffff1660e01b815260040160206040518083038186803b1580156200013157600080fd5b505afa15801562000146573d6000803e3d6000fd5b505050506040513d60208110156200015d57600080fd5b505160601b6001600160601b03191660a0526040805163d21220a760e01b815290516001600160a01b0383169163d21220a7916004808301926020929190829003018186803b158015620001b057600080fd5b505afa158015620001c5573d6000803e3d6000fd5b505050506040513d6020811015620001dc57600080fd5b505160601b6001600160601b03191660c05260408051635909c0d560e01b815290516001600160a01b03831691635909c0d5916004808301926020929190829003018186803b1580156200022f57600080fd5b505afa15801562000244573d6000803e3d6000fd5b505050506040513d60208110156200025b57600080fd5b505160015560408051635a3d549360e01b815290516001600160a01b03831691635a3d5493916004808301926020929190829003018186803b158015620002a157600080fd5b505afa158015620002b6573d6000803e3d6000fd5b505050506040513d6020811015620002cd57600080fd5b505160025560408051630240bc6b60e21b8152905160009182916001600160a01b03851691630902f1ac916004808301926060929190829003018186803b1580156200031857600080fd5b505afa1580156200032d573d6000803e3d6000fd5b505050506040513d60608110156200034457600080fd5b50805160208201516040909201516003805463ffffffff191663ffffffff909216919091179055925090506001600160701b038216158015906200039057506001600160701b03811615155b620003e2576040805162461bcd60e51b815260206004820181905260248201527f4578616d706c654f7261636c6553696d706c653a204e4f5f5245534552564553604482015290519081900360640190fd5b5050600680546001600160a01b039889166001600160a01b031991821617909155600780549690981695169490941790955550620005e49350505050565b3390565b600080806200043d85856001600160e01b036200050116565b604080516001600160601b0319606094851b811660208084019190915293851b81166034830152825160288184030181526048830184528051908501207fff0000000000000000000000000000000000000000000000000000000000000060688401529a90941b9093166069840152607d8301989098527f96e8ac4277198ff8b6f785478aa9a39f403cb768dd02cbee326c3e7da348845f609d808401919091528851808403909101815260bd909201909752805196019590952095945050505050565b600080826001600160a01b0316846001600160a01b03161415620005575760405162461bcd60e51b8152600401808060200182810382526025815260200180620013466025913960400191505060405180910390fd5b826001600160a01b0316846001600160a01b031610620005795782846200057c565b83835b90925090506001600160a01b038216620005dd576040805162461bcd60e51b815260206004820152601e60248201527f556e697377617056324c6962726172793a205a45524f5f414444524553530000604482015290519081900360640190fd5b9250929050565b60805160601c60a05160601c60c05160601c610d22620006246000398061041052806106af5250806101da52806106335250806105465250610d226000f3fe608060405234801561001057600080fd5b50600436106100cf5760003560e01c806370f078a41161008c578063a6bb453911610066578063a6bb453914610181578063c5700a0214610189578063d21220a7146101aa578063f2fde38b146101b2576100cf565b806370f078a414610167578063715018a6146101715780638da5cb5b14610179576100cf565b80630dfe1681146100d457806323ac0381146100f85780633bc5de30146101005780635909c0d5146101215780635a3d54931461013b5780635e6aaf2c14610143575b600080fd5b6100dc6101d8565b604080516001600160a01b039092168252519081900360200190f35b6100dc6101fc565b61010861020b565b6040805192835290151560208301528051918290030190f35b6101296102a1565b60408051918252519081900360200190f35b6101296102a7565b61014b6102ad565b604080516001600160e01b039092168252519081900360200190f35b61016f6102bc565b005b61016f610330565b6100dc6103e4565b61014b6103f3565b610191610402565b6040805163ffffffff9092168252519081900360200190f35b6100dc61040e565b61016f600480360360208110156101c857600080fd5b50356001600160a01b0316610432565b7f000000000000000000000000000000000000000000000000000000000000000081565b6007546001600160a01b031681565b60075460009081906001600160a01b031633146102595760405162461bcd60e51b815260040180806020018281038252602b815260200180610cc2602b913960400191505060405180910390fd5b61026161053c565b600654600090610282906001600160a01b0316670de0b6b3a764000061062f565b90508061029657506000915081905061029d565b9150600190505b9091565b60015481565b60025481565b6005546001600160e01b031681565b6102c461075c565b6000546001600160a01b03908116911614610326576040805162461bcd60e51b815260206004820181905260248201527f4f776e61626c653a2063616c6c6572206973206e6f7420746865206f776e6572604482015290519081900360640190fd5b61032e61053c565b565b61033861075c565b6000546001600160a01b0390811691161461039a576040805162461bcd60e51b815260206004820181905260248201527f4f776e61626c653a2063616c6c6572206973206e6f7420746865206f776e6572604482015290519081900360640190fd5b600080546040516001600160a01b03909116907f8be0079c531659141344cd1fd0a4f28419497f9722a3daafe3b4186f6b6457e0908390a3600080546001600160a01b0319169055565b6000546001600160a01b031690565b6004546001600160e01b031681565b60035463ffffffff1681565b7f000000000000000000000000000000000000000000000000000000000000000081565b61043a61075c565b6000546001600160a01b0390811691161461049c576040805162461bcd60e51b815260206004820181905260248201527f4f776e61626c653a2063616c6c6572206973206e6f7420746865206f776e6572604482015290519081900360640190fd5b6001600160a01b0381166104e15760405162461bcd60e51b8152600401808060200182810382526026815260200180610c326026913960400191505060405180910390fd5b600080546040516001600160a01b03808516939216917f8be0079c531659141344cd1fd0a4f28419497f9722a3daafe3b4186f6b6457e091a3600080546001600160a01b0319166001600160a01b0392909216919091179055565b600080600061056a7f0000000000000000000000000000000000000000000000000000000000000000610760565b600354604080516020810190915260015494975092955090935063ffffffff908116840392829184169087038161059d57fe5b046001600160e01b039081169091529051600480546001600160e01b031916919092161790556040805160208101909152600254819063ffffffff8416908603816105e457fe5b046001600160e01b039081169091529051600580546001600160e01b03191691909216179055506001929092556002556003805463ffffffff191663ffffffff909216919091179055565b60007f00000000000000000000000000000000000000000000000000000000000000006001600160a01b0316836001600160a01b031614156106ad5760408051602081019091526004546001600160e01b0316815261069d90610698908463ffffffff61092f16565b6109ad565b6001600160901b03169050610756565b7f00000000000000000000000000000000000000000000000000000000000000006001600160a01b0316836001600160a01b03161461071d5760405162461bcd60e51b8152600401808060200182810382526022815260200180610c7d6022913960400191505060405180910390fd5b60408051602081019091526005546001600160e01b0316815261074a90610698908463ffffffff61092f16565b6001600160901b031690505b92915050565b3390565b600080600061076d6109b4565b9050836001600160a01b0316635909c0d56040518163ffffffff1660e01b815260040160206040518083038186803b1580156107a857600080fd5b505afa1580156107bc573d6000803e3d6000fd5b505050506040513d60208110156107d257600080fd5b505160408051635a3d549360e01b815290519194506001600160a01b03861691635a3d549391600480820192602092909190829003018186803b15801561081857600080fd5b505afa15801561082c573d6000803e3d6000fd5b505050506040513d602081101561084257600080fd5b505160408051630240bc6b60e21b81529051919350600091829182916001600160a01b03891691630902f1ac916004808301926060929190829003018186803b15801561088e57600080fd5b505afa1580156108a2573d6000803e3d6000fd5b505050506040513d60608110156108b857600080fd5b5080516020820151604090920151909450909250905063ffffffff808216908516146109255780840363ffffffff81166108f284866109be565b516001600160e01b031602969096019563ffffffff811661091385856109be565b516001600160e01b0316029590950194505b5050509193909250565b610937610a6e565b600082158061095d57505082516001600160e01b03168281029083828161095a57fe5b04145b6109985760405162461bcd60e51b8152600401808060200182810382526023815260200180610c9f6023913960400191505060405180910390fd5b60408051602081019091529081529392505050565b5160701c90565b63ffffffff421690565b6109c6610a81565b6000826001600160701b031611610a24576040805162461bcd60e51b815260206004820152601760248201527f4669786564506f696e743a204449565f42595f5a45524f000000000000000000604482015290519081900360640190fd5b6040805160208101909152806001600160701b0384166dffffffffffffffffffffffffffff60701b607087901b1681610a5957fe5b046001600160e01b0316815250905092915050565b6040518060200160405280600081525090565b60408051602081019091526000815290565b6000806000610aa28585610b53565b604080516bffffffffffffffffffffffff19606094851b811660208084019190915293851b81166034830152825160288184030181526048830184528051908501206001600160f81b031960688401529a90941b9093166069840152607d8301989098527f96e8ac4277198ff8b6f785478aa9a39f403cb768dd02cbee326c3e7da348845f609d808401919091528851808403909101815260bd909201909752805196019590952095945050505050565b600080826001600160a01b0316846001600160a01b03161415610ba75760405162461bcd60e51b8152600401808060200182810382526025815260200180610c586025913960400191505060405180910390fd5b826001600160a01b0316846001600160a01b031610610bc7578284610bca565b83835b90925090506001600160a01b038216610c2a576040805162461bcd60e51b815260206004820152601e60248201527f556e697377617056324c6962726172793a205a45524f5f414444524553530000604482015290519081900360640190fd5b925092905056fe4f776e61626c653a206e6577206f776e657220697320746865207a65726f2061646472657373556e697377617056324c6962726172793a204944454e544943414c5f4144445245535345534578616d706c654f7261636c6553696d706c653a20494e56414c49445f544f4b454e4669786564506f696e743a204d554c5449504c49434154494f4e5f4f564552464c4f574f6e6c792064656261736520706f6c6963792063616e2067657420646174612066726f6d206f7261636c65a264697066735822122098fdfbebfbca6e6c6ef532c1514b44ce8e50a43057647cb49847bc42318d3b2a64736f6c63430006060033556e697377617056324c6962726172793a204944454e544943414c5f414444524553534553",
  "linkReferences": {},
  "deployedLinkReferences": {}
}